:100000000C94E2000C940A010C940A010C940A016D
:100010000C940A010C940A010C940A010C940A0134
:100020000C940A010C940A010C940A010C94D50555
:100030000C940A010C94B60A0C940A010C940A015F
:100040000C948B050C940A010C9459050C943305FF
:100050000C940A010C940A010C940A010C940A01F4
:100060000C940A010C940A0108000000BE92244975
:10007000123EABAAAA2ABECDCCCC4C3E00000080DA
:10008000BEABAAAAAA3E00000000BF000000803F4D
:100090000000000000084178D3BB4387D1133D190D
:1000A0000E3CC3BD4282AD2B3E68EC8276BED98F3A
:1000B000E1A93E4C80EFFFBE01C4FF7F3F0000007E
:1000C0000000000000000000000000000000000030
:1000D0000000000000000000000000000000000020
:1000E0000000000000000000000000000000000010
:1000F0000000000000000000000000000000000000
:1001000000000000000000000000000000000000EF
:1001100000000000000000000000000000000101DD
:1001200001010101010101010101010101010101BF
:1001300001010101010101010101010101010101AF
:10014000010101010101010101010101010101029E
:10015000020202020202020202020202020202027F
:10016000020202020202020202020202020202026F
:100170000202030303030303030303030303030351
:10018000030303030303030303030303040404043B
:10019000040404040404040404040404040404041F
:1001A0000405050505050505050505050505050500
:1001B00005050606060606060606060606060606E1
:1001C00006077E0D11241FBECFEFD8E0DEBFCDBFE6
:1001D00025E0AAEBB1E001C01D92A333B207E1F71D
:1001E00011E0A0E0B1E0E2E9F5E202C005900D9275
:1001F000AA3BB107D9F710E0C2EED0E004C02197C6
:10020000FE010E94BF10C13ED107C9F70E94CD0A6E
:100210000C94C7120C9400004F925F926F927F92E1
:100220008F929F92AF92BF92CF92DF92EF92FF9206
:10023000FC01EC57FF4FCC24CA94DC2C76018E17BE
:100240009F07E1F1DC014D90CD0128E030E040E86E
:10025000842E912CA12CB12C512C712C612CB3012A
:10026000A201482159216A217B21452B462B472B8E
:10027000F1F4B701A601442777FD4395552766277A
:100280007727CC0CDD1CEE1CFF1C442341F0B7EBA0
:10029000CB26BDE1DB26B1ECEB26B4E0FB26B69421
:1002A000A7949794879421503109C9F6C8CFB70114
:1002B000A6014095509560957095DDCFC701B601B8
:1002C000FF90EF90DF90CF90BF90AF909F908F9076
:1002D0007F906F905F904F900895AF92BF92CF92B2
:1002E000DF92EF92FF920F931F93CF93DF936C01F6
:1002F0007B018B01040F151FEB015E01AE18BF08D7
:10030000C017D10759F06991D601ED91FC91019088
:10031000F081E02DC6010995892B79F7C501DF91A0
:10032000CF911F910F91FF90EF90DF90CF90BF90F2
:10033000AF900895FC01538D448D252F30E0842F1C
:1003400090E0821B930B541710F0CF9608950197FD
:100350000895FC01918D828D981761F0A28DAE0FEA
:10036000BF2FB11D5D968C91928D9F5F9F73928F71
:1003700090E008958FEF9FEF0895FC01918D828D9D
:10038000981731F0828DE80FF11D858D90E008956A
:100390008FEF9FEF0895FC01918D228D892F90E0C2
:1003A000805C9F4F821B91098F739927089582E982
:1003B00094E00E94CB0121E0892B09F420E0822FF8
:1003C000089580E090E0892B29F00E94D7018111E7
:1003D0000C9400000895FC01A48DA80FB92FB11D45
:1003E000A35ABF4F2C91848D90E001968F7399276B
:1003F000848FA689B7892C93A089B1898C91837049
:1004000080648C93938D848D981306C00288F38941
:10041000E02D80818F7D80830895EF92FF920F936E
:100420001F93CF93DF93EC0181E0888F9B8D8C8DA0
:1004300098131AC0E889F989808185FF15C09FB794
:10044000F894EE89FF896083E889F9898081837057
:10045000806480839FBF81E090E0DF91CF911F9106
:100460000F91FF90EF900895F62E0B8D10E00F5F27
:100470001F4F0F731127E02E8C8D8E110CC00FB6FD
:1004800007FCFACFE889F989808185FFF5CFCE0195
:100490000E94EB01F1CFEB8DEC0FFD2FF11DE35A24
:1004A000FF4FF0829FB7F8940B8FEA89FB89808118
:1004B0008062CFCFCF93DF93EC01888D8823B9F092
:1004C000AA89BB89E889F9898C9185FD03C080815F
:1004D00086FD0DC00FB607FCF7CF8C9185FFF2CFDC
:1004E000808185FFEDCFCE010E94EB01E9CFDF9146
:1004F000CF9108953FB7F8948091AC029091AD02EE
:10050000A091AE02B091AF0226B5A89B05C02F3FC7
:1005100019F00196A11DB11D3FBFBA2FA92F982F29
:100520008827BC01CD01620F711D811D911D42E024
:10053000660F771F881F991F4A95D1F708958F92EC
:100540009F92AF92BF92CF92DF92EF92FF924B01B8
:100550005C010E947A026B017C010E947A026C1994
:100560007D098E099F09683E734081059105A8F3B6
:1005700021E0821A9108A108B10888EEC80E83E034
:10058000D81EE11CF11C81149104A104B10429F7C7
:10059000FF90EF90DF90CF90BF90AF909F908F90A3
:1005A00008959BB19F739BB95E989BB190622BB1EC
:1005B0002F7D322F67FD392F3BB95E9A322F66FDB2
:1005C000392F3BB95E9A322F65FD392F3BB95E9AC0
:1005D000322F64FD392F3BB95E9A322F63FD392FDC
:1005E0003BB95E9A322F62FD392F3BB95E9A322FAA
:1005F00061FD392F3BB95E9A322F60FD392F3BB92F
:100600005E9A322F87FD392F3BB95E9A322F86FDD5
:10061000392F3BB95E9A322F85FD392F3BB95E9A4F
:10062000322F84FD392F3BB95E9A322F83FD392F4B
:100630003BB95E9A322F82FD392F3BB95E9A322F39
:1006400081FD392F3BB95E9A80FF922F9BB95E9A4C
:100650005F9A41980895109281008091810088608E
:10066000809381008091810081608093810010924D
:1006700080001A990CC080EA9FE0909389008093D3
:10068000880080916F00826080936F00089580E6FB
:1006900099E0F3CFFC0101900020E9F73197AF0119
:1006A000481B590BBC0182E994E00C946D018F92B8
:1006B0009F92AF92BF920F931F93CF93DF93CDB7CB
:1006C000DEB7A1970FB6F894DEBF0FBECDBF19A25B
:1006D000423008F44AE08E010F5D1F4F842E912CAA
:1006E000B12CA12CA50194010E949D10E62FB90107
:1006F000CA01EA30F4F4E05DD801EE938D01232BBA
:10070000242B252B79F790E080E0109719F0CD018C
:100710000E944A03A1960FB6F894DEBF0FBECDBF6C
:10072000DF91CF911F910F91BF90AF909F908F90CD
:100730000895E95CE1CFCF92DF92EF92FF92CF93E1
:10074000DF936B017C016DE282E994E00E940D026F
:10075000EC0166277727CB016C197D098E099F096B
:100760004AE00E9457038C0F9D1FDF91CF91FF90AD
:10077000EF90DF90CF9008950C944A03CF93DF93CE
:100780000E944A03EC0188E191E00E944A038C0F29
:100790009D1FDF91CF910895BC01990F880B990B94
:1007A0004AE00C945703CF93DF93EC0180918C04C3
:1007B00090918D04009759F020918E0430918F0410
:1007C0002C173D0720F081E0DF91CF910895BE0105
:1007D0006F5F7F4F0E94F111009789F090938D0415
:1007E00080938C04D0938F04C0938E042091900446
:1007F00030919104232B39F7FC011082E4CF80E083
:10080000E3CF2091900430919104232B39F421E01F
:10081000FC018081882361F020E00AC0BC01809146
:100820008C0490918D040E94B71221E0892BA1F7CE
:10083000822F0895E4EFF3E086E8DF011D928A95A8
:10084000E9F781E090E09093F3038093F20390E066
:1008500080E02EE037E0FC01EA50FC4FDC01AA5CAE
:10086000BB4FAC0142505C4F21933D93E417F50719
:10087000D9F708968034910571F782EF93E00E94D2
:100880000C016093760470937704809378049093BE
:10089000790408950F931F93CF93DF9302EF13E032
:1008A000D0E0C0E0F80161918F01CE010E94AE0E50
:1008B0002196C838D105B1F78BE191E00E94BC03C5
:1008C0004AE068E870E080E090E00E94570388E129
:1008D00091E0DF91CF911F910F910C944A032F92D9
:1008E0003F924F925F926F927F928F929F92AF92C0
:1008F000BF92CF92DF92EF92FF920F931F93CF930D
:10090000DF93CDB7DEB729970FB6F894DEBF0FBEE1
:10091000CDBF83B182EC90E09093A6028093A502B4
:100920001986188695E2292E92E0392E26E9422E64
:10093000512C612C712C888599858A509C4F5C01C3
:10094000E885F985EA5CFB4FFC83EB838885998514
:100950008B519E4F9A8389834101E885F985E25046
:10096000FC4FFF83EE83F50101915F01FAE00F9FD9
:1009700080011124EB81FC816191FC83EB83E9818F
:10098000FA816193FA83E98383B170E090E080E0BB
:100990000E94AB0D20E030E040E251E40E94E80DFF
:1009A00020E030E040EE50E40E94020F0E94A30FCE
:1009B0002FEF3FEF0115110511F1F3B1FD8320E099
:1009C0003FEF4FE757E40E94E80D0E94740F6B0160
:1009D000F12CE12C28EE33E0D8010E94C5102D81C6
:1009E00022FF3CC0A30192010E949D10C701B601E5
:1009F0000E949D1083E0220F331F8A95E1F7F401D6
:100A0000219331934F018E819F818A159B0509F0B7
:100A1000AACF90E1290E311CE885F9853896F9872F
:100A2000E887E034F10509F086CF29960FB6F894EF
:100A3000DEBF0FBECDBFDF91CF911F910F91FF9011
:100A4000EF90DF90CF90BF90AF909F908F907F906E
:100A50006F905F904F903F902F9008952AEF30E075
:100A600040E050E0C1CF1F920F920FB60F921124B9
:100A70002F933F934F935F936F937F938F939F93A6
:100A8000AF93BF93EF93FF9382E994E00E94EB0151
:100A9000FF91EF91BF91AF919F918F917F916F9156
:100AA0005F914F913F912F910F900FBE0F901F902C
:100AB00018951F920F920FB60F9211242F938F93B8
:100AC0009F93EF93FF93E091A204F091A3048081A0
:100AD000E091A804F091A90482FD1BC0908180914F
:100AE000AB048F5F8F732091AC04821741F0E091CB
:100AF000AB04F0E0EE56FB4F958F8093AB04FF9173
:100B0000EF919F918F912F910F900FBE0F901F909B
:100B100018958081F4CF1F920F920FB60F92112477
:100B20002F933F938F939F93AF93BF938091A8028E
:100B30009091A902A091AA02B091AB023091A702B4
:100B400023E0230F2D3758F50196A11DB11D2093E9
:100B5000A7028093A8029093A902A093AA02B0933F
:100B6000AB028091AC029091AD02A091AE02B09127
:100B7000AF020196A11DB11D8093AC029093AD020E
:100B8000A093AE02B093AF02BF91AF919F918F91AE
:100B90003F912F910F900FBE0F901F90189526E850
:100BA000230F0296A11DB11DD2CF1F920F920FB637
:100BB0000F9211242F923F924F925F926F927F92E9
:100BC0008F929F92AF92BF92CF92DF92EF92FF925D
:100BD0000F931F932F933F934F935F936F937F9345
:100BE0008F939F93AF93BF93EF93FF93CF93DF9335
:100BF000CDB7DEB72597DEBFCDBF20918400309101
:100C000085003A83298380917A0490917B04A09196
:100C10007C04B0917D040196A11DB11D80937A04DE
:100C200090937B04A0937C04B0937D0487709927F4
:100C3000A8957C01A4E0EE0CFF1CAA95E1F7A701A2
:100C40004E585C4F5C834B838C01B3E0000F111F47
:100C5000BA95E1F71B9936C0A090E301B090E4018A
:100C6000C090E101D090E2018091BC019091BD0162
:100C7000A816B90639F48091BA019091BB018C1580
:100C80009D0561F0B601C5010E94D102B092BD017F
:100C9000A092BC01D092BB01C092BA011899DAC1EE
:100CA00093B18091CF01392F347092FF66C08D309F
:100CB00009F066C01092CF018091CE018F5F8093C2
:100CC000CE015EC093B140917A0450917B04609153
:100CD0007C0470917D04F3E0769567955795479570
:100CE000FA95D1F7A42FA770BA2E21E030E0490180
:100CF00002C0880C991C8A95E2F74091A502509198
:100D0000A602AB81BC81C8018B519E4FBD01605FC3
:100D10007F4FD12CC12CD694C7942D913D91E32FB8
:100D2000FF27E40FF51FA490AD82FC01A190CF0135
:100D3000ED81AE1608F4EA2DEB1520F0232B11F00F
:100D40006894C7F86A177B0731F7A0908400B090C9
:100D5000850070E060E090E080E00E94D102809128
:100D60008400909185008A199B0980349140B8F3E2
:100D7000B601C4010E94D10291CF883009F49ACF04
:100D80008091CE01883011F41092CE018091CF0174
:100D90008F5F8093CF012091CE0181E090E02C0104
:100DA000022E02C0440C551C0A94E2F7199903C0A4
:100DB000B0E0A0E0E3C08091CA019091CB01A09186
:100DC000CC01B091CD01332389F18535904DA1053A
:100DD000B10589F51092CA011092CB011092CC0195
:100DE0001092CD011092C6011092C7011092C80155
:100DF0001092C9011092C2011092C3011092C40155
:100E00001092C5018091BE019091BF01A091C001D7
:100E1000B091C1010196A11DB11D8093BE019093B7
:100E2000BF01A093C001B093C10105C081159D47CA
:100E3000A105B10579F28091BE019091BF01A09109
:100E4000C001B091C1010797A105B10541F410920D
:100E5000BE011092BF011092C0011092C101809199
:100E6000CA019091CB01A091CC01B091CD01019626
:100E7000A11DB11D8093CA019093CB01A093CC0119
:100E8000B093CD018091C6019091C701A091C80196
:100E9000B091C901332309F185309D40A105B10509
:100EA00009F51092C6011092C7011092C801109264
:100EB000C9018091C2019091C301A091C401B09178
:100EC000C5010196A11DB11D8093C2019093C3017C
:100ED000A093C401B093C50105C0803D9740A10512
:100EE000B105F9F28091C6019091C701A091C801A6
:100EF000B091C9010196A11DB11D8093C6019093C7
:100F0000C701A093C801B093C9018091BE0190911F
:100F1000BF01A091C001B091C10187309105A10529
:100F2000B10508F045CFFC01E856F84F0C94BF100E
:100F30009F07A907B407E907F60701081D08809174
:100F4000C2018770A1E0B0E08217A9F0B0E0A0E094
:100F500012C08091C2018770A1E0B0E002C0AA0F68
:100F6000BB1F8A95E2F70AC08091C2018770A1E099
:100F7000B0E0821759F3B195A195B1094201B12CA6
:100F8000A12C540199248824A095B095CD01B0E0FE
:100F9000A0E088299929AA29BB294D01AA24BB24AC
:100FA00064012C0140945094C40199278830910524
:100FB00009F45DC208F020C18230910509F45DC2D8
:100FC0008430910509F451C2019709F01DC1A0E0D8
:100FD0003FC18091C2018770A1E0B0E002C0AA0FBA
:100FE000BB1F8A95E2F7A095B095C8CF8091C2014A
:100FF00080FB662460F8712CAA27BB27A619B709C5
:10100000BDCF6091C2017091C3018091C4019091E4
:10101000C5014B01822680FCCBCE23E030E040E0CE
:1010200050E00E949D10AAEABAEA672B682B692B50
:1010300009F4A4CFA4E5B5E5A1CF8091C201880F42
:10104000880F982F96959695969597702913B0CE00
:10105000847082CF8BB1877E8BB95C9A5B9849B1E3
:101060005B9A5B9899B15B9A5B9869B15B9A5B9864
:1010700029B15B9A5B9889B130E2439FF00111245A
:10108000E078FF27A0E19A9FA00111244074552722
:101090004E2B5F2BB8E06B9FB00111246072772755
:1010A000462B572BE4E02E9F90011124207133270B
:1010B000422B532B90E0880F991F88709927482B5B
:1010C000592B052E000C660B770B5B9A5B9829B1A8
:1010D0005B9A5B9889B15B9A5B9839B190E0959582
:1010E00087958270992732FB442440F8512C84293B
:1010F0009529092E000CAA0BBB0B24702C013D0175
:10110000422A442A552A662A772A5B9A32015524B4
:1011100044245B9829B15B9A5B98E9B15B9A5B9830
:1011200049B15B9A5B9869B15B9A5B9899B15B9A9C
:101130005B98A9B15B9A5B9839B15B9A5B98F9B1FE
:1011400088E0489FA001112440725527B4E06B9FAE
:10115000B001112460717727462B572B052E000C08
:10116000660B770BA4704A2B892F90E0880F991F8C
:1011700088709927092E000CAA0BBB0B4A015B0152
:10118000882A992AAA2ABB2AA32FB0E0B595A79549
:10119000CD0182709927092E000CAA0BBB0B882960
:1011A0009929AA29BB29F2FB222420F8312C4101DC
:1011B000330CAA08BB08882A992AAA2ABB2AF0E27B
:1011C0002F9F900111242078332740E1E49FD00124
:1011D0001124A074BB27C9018A2B9B2B092E000C5C
:1011E000AA0BBB0B88299929AA29BB2984299529EF
:1011F000A629B7295B9AD1CE8032910509F439C16D
:10120000F8F4A4E0409721F18091D9019091DA019E
:10121000A091DB01B091DC018F3F5FEF9507A5073F
:10122000B50759F00196A11DB11D8093D901909386
:10123000DA01A093DB01B093DC01A8E020E011C04B
:101240008034910509F417C1A7E080389105E1F6D3
:101250001092D9011092DA011092DB011092DC0198
:1012600021E08091D1019091D201C816D90609F4EC
:1012700046C08091E3019091E401C816D90641F47B
:101280008091E1019091E2014816590609F4F7C0F6
:101290001092D0018091D001882389F19092D201DF
:1012A0008092D101222359F1A83049F1B0E0CD015B
:1012B00034E0880F991F3A95E1F7FC01EE50FD4F9D
:1012C00043E0AA0FBB1F4A95E1F79D012E543D4F05
:1012D00039018B5D9D4FBF01605F7F4FA201242FBD
:1012E0002170D3012D933D01DC01CD90DD90CD0126
:1012F000C192D19256954795E617F70781F7A70156
:101300004E505D4FD801AE54BD4F6B817C81605F04
:101310007F4FFA0121913191AF011D91EB81FC8149
:1013200080819181112309F4B3C0820F931F82172A
:10133000930710F48FEF9FEFEB81FC819183808303
:101340002B813C812E5F3F4F3C832B832617370731
:1013500001F79092E4018092E3015092E201409201
:10136000E1011899A1C019999CC084E090E0909384
:10137000B1028093B0021A9BB9C026E930E04091D7
:10138000B0025091B1025C834B838091D701909160
:10139000D80148175907C1F04330510509F4CDC0B1
:1013A00008F0A7C04130510509F4B3C042305105DF
:1013B00009F4C3C01092D6011092D501AB81BC8153
:1013C000B093D801A093D7018091D3019091D4011B
:1013D00001969093D4018093D3012091D50130914F
:1013E000D6012115310509F0AFC02D9880918400F8
:1013F00090918500E981FA818E1B9F0B2091DF017E
:101400003091E0012817390740F48038FEE39F0748
:1014100020F49093E0018093DF010F900F900F90E4
:101420000F900F90DF91CF91FF91EF91BF91AF910E
:101430009F918F917F916F915F914F913F912F91EC
:101440001F910F91FF90EF90DF90CF90BF90AF90E2
:101450009F908F907F906F905F904F903F902F90D4
:101460000F900FBE0F901F901895A2E0F1CEA3E051
:10147000EFCEA5E0EDCEA6E0EBCEA1E0E9CE8091E7
:10148000D0018F3F09F406CF8F5F8093D00102CF48
:10149000821B930B2817390708F04ECF90E080E0AD
:1014A0004BCF83E090E063CF8091DD019091DE012E
:1014B0008436910590F48091D9019091DA01A09140
:1014C000DB01B091DC0184369105A105B10540F442
:1014D0001B9909C082E090E04ACF86E090E047CFB8
:1014E00085E090E044CF81E090E041CF2AEF30E00A
:1014F00046CF8B819C818530910591F0F0F0069765
:1015000009F058CF50E040E060E970ED83E090E0F2
:101510000DC08FEF9FEF9093D6018093D5014ECFF2
:1015200050E040E060E271EA87E090E00E949D10A8
:101530003093D6012093D50141CF50E040E060E4E4
:1015400072E48FE090E0F2CF2F3F320711F42D9A32
:101550004DCF2817390708F049CF85B190E2892788
:1015600085B91092D4011092D30140CF1F920F92EF
:101570000FB60F9211248F939F938091DD0190916C
:10158000DE0101969093DE018093DD019F918F91A2
:101590000F900FBE0F901F901895CF93DF93CDB78C
:1015A000DEB7C858D1090FB6F894DEBF0FBECDBF65
:1015B000789484B5826084BD84B5816084BD85B52E
:1015C000826085BD85B5816085BD80916E0081603A
:1015D00080936E00109281008091810082608093E0
:1015E00081008091810081608093810080918000E2
:1015F0008160809380008091B10084608093B1000D
:101600008091B00081608093B00080917A00846006
:1016100080937A0080917A00826080937A00809132
:101620007A00816080937A0080917A00806880934C
:101630007A001092C100F89489EF8AB980E284B9E7
:1016400085B18F6185B98EE087B9449A419A80E867
:10165000E2E7F3E0DF01982F1D929A95E9F7E2EFB8
:10166000F2E0DF011D928A95E9F7E2EBF2E080E417
:10167000DF011D928A95E9F732EFE32E33E0F32E76
:1016800010E000E0C8010E94A60EF70181937F01DF
:101690000F5F1F4F08381105A9F78091F203909151
:1016A000F303019789F482EF93E00E940C0100910B
:1016B00076041091770420917804309179046017B2
:1016C00071078207930721F00E941A040E944A04BE
:1016D000E091A204F091A30482E08083E0919E0453
:1016E000F0919F041082E091A004F091A10480E1A8
:1016F00080831092AA04E091A604F091A70486E0EA
:101700008083E091A404F091A504808180618083AE
:10171000E091A404F091A504808188608083E09129
:10172000A404F091A504808180688083E091A404E2
:10173000F091A50480818F7D80830E946F048BE4EB
:1017400091E00E94BC038EE690E00E94CC038AE107
:1017500091E00E94BE0387E591E00E94BE0387E707
:1017600091E00E94BE0319E0E2E0F0E01093570020
:101770001491177087E991E00E94BC0389E291E01F
:10178000173051F08DE291E0143031F082E391E0B6
:10179000153011F087E391E00E94BE030E942B03F5
:1017A000789488E198E00FB6F894A895809360004B
:1017B0000FBE9093600083B180937F0481E090E03E
:1017C0009093B1028093B002CE0101967C0198E122
:1017D000692E20E0A22E20E0B22E7724739488E0B8
:1017E000582E8091880490918904A0918A04B09128
:1017F0008B040196A11DB11D8093880490938904E8
:10180000A0938A04B0938B048091800481112AC034
:1018100010928D0410928C0410928F0410928E04FA
:10182000109291041092900490E080E00E94D30303
:1018300020918C0430918D04811144C02115310513
:1018400019F0C9010E94681110928D0410928C0445
:10185000109291041092900410928F0410928E04B2
:101860007092800482E994E00E94CB0120917E0472
:10187000892B91F1211133C082E994E00E94A901E2
:101880008A3309F493C089831A82009190041091DD
:1018900091040F5F1F4FC8010E94D303882311F3E7
:1018A00020918C0430918D0480919004909191044A
:1018B000B701820F931F0E94C012109391040093EE
:1018C0009004D0CF10929104109290046AE171E0DC
:1018D000C9010E94C012C4CF222309F440C082EA89
:1018E00091E00E940104882309F463C082EA91E038
:1018F0000E94BC0380EA91E00E94BC038EE690E067
:101900000E94CC0380EA91E00E94BC034AE061E0BF
:1019100070E080E090E00E94570388E191E00E942F
:101920004A0390E080E00E94D30320918C04309120
:101930008D048111D9C02115310519F0C9010E940A
:10194000681110928D0410928C04109291041092E0
:10195000900410928F0410928E0410927E0483B132
:1019600090917F04892782FF0FC0F8940E942B0377
:1019700010927A0410927B0410927C0410927D04E1
:1019800083B180937F04789464EF71E080E090E00D
:101990000E949F02A114B10409F423CF0E94D70131
:1019A000882309F41CCF0E94000019CF70927E0496
:1019B00059CF86EA91E00E940104882349F048E863
:1019C00050E062EF73E082E994E00E946D01A9CFDC
:1019D0008BEA91E00E940104882339F00E941A04E6
:1019E00084E491E00E94BC039CCF80EB91E00E94D4
:1019F0000104882309F495CF0FB6F894A895809137
:101A00006000886180936000109260000FBE80913A
:101A10006F008D7F80936F00419A4E2C3F2CD12C0C
:101A2000C12C85EB91E00E94BC0368EC70E080E083
:101A300090E00E949F02042D132D4801A0E28A0E1F
:101A4000911C402E312E82E994E00E94CB01892B1B
:101A500091F00815190579F0B8E8CB16D10478F49F
:101A600082E994E00E94A901F80181938F01FFEFC0
:101A7000CF1ADF0AE6CF98E8C916D10490F288E8B9
:101A8000C816D10471F5C7010E940C01CB57DF4F76
:101A9000088119812A813B81C558D04060177107A0
:101AA00082079307F1F488E8F701A2EFB3E0019011
:101AB0000D928A95E1F70E946F040E944A0484E423
:101AC00091E00E94BC0380916F00826080936F0060
:101AD0000FB6F894A895609260000FBE5092600017
:101AE00020CF8CE391E0EDCF1092910410929004FE
:101AF0006AE171E0C9010E94C0122FCFE2E9F4E06F
:101B00001382128288EE93E0A0E0B0E08483958394
:101B1000A683B7838AE091E09183808385EC90E08F
:101B20009587848784EC90E09787868780EC90E0A7
:101B3000918B808B81EC90E0938B828B82EC90E098
:101B4000958B848B86EC90E0978B868B118E128E12
:101B5000138E148E0895E89409C097FB3EF4909577
:101B60008095709561957F4F8F4F9F4F9923A9F076
:101B7000F92F96E9BB279395F69587957795679505
:101B8000B795F111F8CFFAF4BB0F11F460FF1BC049
:101B90006F5F7F4F8F4F9F4F16C0882311F096E9DC
:101BA00011C0772321F09EE8872F762F05C066238A
:101BB00071F096E8862F70E060E02AF09A95660F43
:101BC000771F881FDAF7880F9695879597F90895FC
:101BD0000E94FB0D0C946C0E0E945E0E38F00E9469
:101BE000650E20F0952311F00C94550E0C945B0EAD
:101BF00011240C94A00E0E947D0E70F3959FC1F3EA
:101C0000950F50E0551F629FF001729FBB27F00DAA
:101C1000B11D639FAA27F00DB11DAA1F649F6627FF
:101C2000B00DA11D661F829F2227B00DA11D621F4E
:101C3000739FB00DA11D621F839FA00D611D221F08
:101C4000749F3327A00D611D231F849F600D211DEC
:101C5000822F762F6A2F11249F5750409AF0F1F06F
:101C600088234AF0EE0FFF1FBB1F661F771F881FD8
:101C700091505040A9F79E3F510580F00C94550EAD
:101C80000C94A00E5F3FE4F3983ED4F386957795CD
:101C90006795B795F795E7959F5FC1F7FE2B880F7E
:101CA000911D9695879597F9089597F99F6780E814
:101CB00070E060E008959FEF80EC089500240A949E
:101CC0001616170618060906089500240A94121617
:101CD0001306140605060895092E0394000C11F44A
:101CE000882352F0BB0F40F4BF2B11F460FF04C0F7
:101CF0006F5F7F4F8F4F9F4F089557FD9058440F50
:101D0000551F59F05F3F71F04795880F97FB991F5A
:101D100061F09F3F79F08795089512161306140617
:101D2000551FF2CF4695F1DF08C0161617061806A4
:101D3000991FF1CF86957105610508940895E8947F
:101D4000BB2766277727CB0197F90895F999FECF2E
:101D500092BD81BDF89A992780B50895262FF999EB
:101D6000FECF1FBA92BD81BD20BD0FB6F894FA9A7E
:101D7000F99A0FBE019608952F923F924F925F926B
:101D80006F927F928F929F92AF92BF92CF92DF928B
:101D9000EF92FF920F931F93CF93DF93CDB7DEB7F0
:101DA000CA1BDB0B0FB6F894DEBF0FBECDBF099484
:101DB0002A88398848885F846E847D848C849B84DB
:101DC000AA84B984C884DF80EE80FD800C811B81E9
:101DD000AA81B981CE0FD11D0FB6F894DEBF0FBE18
:101DE000CDBFED010895A29FB001B39FC001A39F95
:101DF000700D811D1124911DB29F700D811D112444
:101E0000911D08950E94160F0C946C0E0E94650E91
:101E100058F00E945E0E40F029F45F3F29F00C94C8
:101E2000550E51110C94A00E0C945B0E0E947D0E69
:101E300068F39923B1F3552391F3951B550BBB27F9
:101E4000AA2762177307840738F09F5F5F4F220F3E
:101E5000331F441FAA1FA9F335D00E2E3AF0E0E835
:101E600032D091505040E695001CCAF72BD0FE2F7F
:101E700029D0660F771F881FBB1F26173707480713
:101E8000AB07B0E809F0BB0B802DBF01FF279358CB
:101E90005F4F3AF09E3F510578F00C94550E0C942C
:101EA000A00E5F3FE4F3983ED4F38695779567954F
:101EB000B795F7959F5FC9F7880F911D9695879500
:101EC00097F90895E1E0660F771F881FBB1F62171F
:101ED00073078407BA0720F0621B730B840BBA0BDD
:101EE000EE1F88F7E09508950E94850E88F09F57B1
:101EF00098F0B92F9927B751B0F0E1F0660F771F2E
:101F0000881F991F1AF0BA95C9F714C0B13091F023
:101F10000E949F0EB1E008950C949F0E672F782FBA
:101F20008827B85F39F0B93FCCF3869577956795E8
:101F3000B395D9F73EF490958095709561957F4F54
:101F40008F4F9F4F08950E94B30F29ED3BE54EED53
:101F50005EE30C94E80D16F00C9468100C945B0E84
:101F600068940C94550E0E94850EA8F39923C1F332
:101F7000AEF3DF93CF931F930F93FF92C92FDD270B
:101F800088232AF02197660F771F881FDAF720E051
:101F900030E040E85FEB9FE3883920F0803E38F086
:101FA00021968F770E94FC0FE8E6F0E004C00E94C3
:101FB000FC0FE5E9F0E00E9476108B01BE01EC0118
:101FC000FB2E6F5771097595771F880B990B0E942F
:101FD000AD0D28E132E741E35FE30E94FB0DAF2D39
:101FE0009801AE01FF900F911F91CF91DF910E9458
:101FF00013100C946C0E5058BB27AA270E94131084
:102000000C946C0E0E945E0E38F00E94650E20F05B
:1020100039F49F3F19F426F40C945B0E0EF4E0950E
:10202000E7FB0C94550EE92F0E947D0E58F3BA176A
:10203000620773078407950720F079F4A6F50C94DE
:102040009F0E0EF4E0950B2EBA2FA02D0B01B901B7
:1020500090010C01CA01A0011124FF27591B99F01E
:10206000593F50F4503E68F11A16F040A22F232F2A
:10207000342F4427585FF3CF469537952795A7957A
:10208000F0405395C9F77EF41F16BA0B620B730B21
:10209000840BBAF09150A1F0FF0FBB1F661F771F92
:1020A000881FC2F70EC0BA0F621F731F841F48F447
:1020B000879577956795B795F7959E3F08F0B0CFD0
:1020C0009395880F08F09927EE0F979587950895B7
:1020D0009F3F31F0915020F4879577956795B7959C
:1020E000880F911D9695879597F90895DF93CF9363
:1020F0001F930F93FF92EF92DF927B018C01689404
:1021000006C0DA2EEF010E94FB0DFE01E894A591B6
:102110002591359145915591A6F3EF010E94131039
:10212000FE019701A801DA9469F7DF90EF90FF9024
:102130000F911F91CF91DF910895A1E21A2EAA1B52
:10214000BB1BFD010DC0AA1FBB1FEE1FFF1FA21767
:10215000B307E407F50720F0A21BB30BE40BF50B64
:10216000661F771F881F991F1A9469F760957095ED
:10217000809590959B01AC01BD01CF010895EE0FB4
:10218000FF1F0590F491E02D09940E94F30EB7FF14
:102190000895821B930B08950F931F93CF93DF93A2
:1021A0008230910510F482E090E0E0913105F091E9
:1021B000320530E020E0B0E0A0E0309799F421153E
:1021C000310509F44AC0281B390B24303105D8F5F4
:1021D0008A819B816115710589F1FB01938382835B
:1021E000FE0111C0408151810281138148175907B6
:1021F000E0F04817590799F4109761F012960C9384
:10220000129713961C933296CF01DF91CF911F91B5
:102210000F9108950093310510933205F4CF2115E5
:10222000310551F04217530738F0A901DB019A013B
:10223000BD01DF01F801C1CFEF01F9CF9093320565
:1022400080933105CDCFFE01E20FF31F819391936F
:102250002250310939832883D7CF20912F0530911F
:102260003005232B41F4209102013091030130937A
:10227000300520932F052091000130910101211597
:10228000310541F42DB73EB740910401509105014D
:10229000241B350BE0912F05F0913005E217F30771
:1022A000A0F42E1B3F0B2817390778F0AC014E5FC6
:1022B0005F4F2417350748F04E0F5F1F50933005CE
:1022C00040932F05819391939FCFF0E0E0E09CCF66
:1022D000CF93DF930097E9F0FC01329713821282CB
:1022E000A0913105B0913205ED0130E020E010976A
:1022F000A1F420813181820F931F20912F0530910D
:1023000030052817390709F061C0F0933005E093D4
:102310002F05DF91CF910895EA01CE17DF07E8F589
:102320004A815B819E0141155105B1F7E901FB83AB
:10233000EA8349915991C40FD51FEC17FD0761F449
:10234000808191810296840F951FE901998388838A
:10235000828193819B838A83F0E0E0E012968D91E5
:102360009C9113970097B9F52D913C911197CD0150
:102370000296820F931F20912F0530913005281768
:10238000390739F6309751F5109232051092310520
:10239000B0933005A0932F05BCCFD383C283408177
:1023A0005181840F951FC817D90761F44E5F5F4FA5
:1023B00088819981480F591F518340838A819B816D
:1023C000938382832115310509F0B0CFF093320554
:1023D000E09331059ECFFD01DC01C0CF1382128254
:1023E000D7CFB0E0A0E0E7EFF1E10C94BE0E8C0196
:1023F000009751F4CB010E94CC108C01C801CDB7DD
:10240000DEB7E0E10C94DA0EFC01E60FF71F9C0149
:1024100022503109E217F30708F49DC0D901CD918C
:10242000DC911197C617D70798F0C530D10530F366
:10243000CE0104978617970708F3C61BD70B229780
:10244000C193D1936D937C93CF010E946811D6CF35
:102450005B01AC1ABD0A4C018C0E9D1EA09131058A
:10246000B0913205512C412CF12CE12C109731F513
:1024700080912F05909130058815990509F05CC071
:102480004616570608F058C080910001909101014E
:10249000009741F48DB79EB740910401509105011A
:1024A000841B950BE817F90708F055C0F093300529
:1024B000E0932F05F90171836083A0CF8D919C91EA
:1024C000119712966C90129713967C901397A815FB
:1024D000B90559F56C0142E0C40ED11CCA14DB04E5
:1024E00020F1AC014A195B09DA011296159780F0C8
:1024F0006282738251834083D9016D937C93E1148E
:10250000F10471F0D7011396FC93EE93129776CFF6
:1025100022968C0F9D1FF90191838083F301EFCFE9
:10252000F0933205E093310569CF4816590608F457
:102530002C017D01D3019ACFCB010E94CC107C01EC
:10254000009749F0AE01B8010E94AE12C8010E9486
:102550006811870153CF10E000E050CFFB01DC0190
:1025600002C001900D9241505040D8F70895FB01F0
:10257000DC018D91019080190110D9F3990B089518
:10258000FB01DC0101900D920020E1F70895F89421
:02259000FFCF7B
:10259200000033058000000000000D026D019A0169
:1025A2005A02CB01A901BD010D0A00454550524F07
:1025B2004D20777269746520004F464600342E33F1
:1025C2005600322E375600312E3856004147434EC0
:1025D20041434B0041474341434B0061667465727E
:1025E200676C6F772076002D2D2D2D2D2D2D2D2D05
:1025F2002D2D2D2D2D2D2D2D2D2D2D2D2D2D2D2D09
:102602002D2D2D2D2D2D0028632920323031382DEE
:1026120032303232206D6F7262696420636F726E83
:10262200666C616B657300656675736520424F4425
:102632002000414756004147435000414743440070
:0A2642004147435300414744520052
:00000001FF
