:100000000C94E2000C940A010C940A010C940A016D
:100010000C940A010C940A010C940A010C940A0134
:100020000C940A010C940A010C940A010C94F60534
:100030000C940A010C94170B0C940A010C940A01FD
:100040000C94AC050C940A010C947A050C9454059C
:100050000C940A010C940A010C940A010C940A01F4
:100060000C940A010C940A0108000000BE92244975
:10007000123EABAAAA2ABECDCCCC4C3E00000080DA
:10008000BEABAAAAAA3E00000000BF000000803F4D
:100090000000000000084178D3BB4387D1133D190D
:1000A0000E3CC3BD4282AD2B3E68EC8276BED98F3A
:1000B000E1A93E4C80EFFFBE01C4FF7F3F0000007E
:1000C0000000000000000000000000000000000030
:1000D0000000000000000000000000000000000020
:1000E0000000000000000000000000000000000010
:1000F0000000000000000000000000000000000000
:1001000000000000000000000000000000000000EF
:1001100000000000000000000000000000000101DD
:1001200001010101010101010101010101010101BF
:1001300001010101010101010101010101010101AF
:10014000010101010101010101010101010101029E
:10015000020202020202020202020202020202027F
:10016000020202020202020202020202020202026F
:100170000202030303030303030303030303030351
:10018000030303030303030303030303040404043B
:10019000040404040404040404040404040404041F
:1001A0000405050505050505050505050505050500
:1001B00005050606060606060606060606060606E1
:1001C0000607E40D11241FBECFEFD8E0DEBFCDBF80
:1001D00025E0A0ECB1E001C01D92A53DB207E1F71A
:1001E00011E0A0E0B1E0E6E7F6E202C005900D9272
:1001F000A03CB107D9F710E0C2EED0E004C02197CF
:10020000FE010E943111C13ED107C9F70E942E0B99
:100210000C9439130C9400004F925F926F927F926E
:100220008F929F92AF92BF92CF92DF92EF92FF9206
:10023000FC01EC55FF4FCC24CA94DC2C76018E17C0
:100240009F07E1F1DC014D90CD0128E030E040E86E
:10025000842E912CA12CB12C512C712C612CB3012A
:10026000A201482159216A217B21452B462B472B8E
:10027000F1F4B701A601442777FD4395552766277A
:100280007727CC0CDD1CEE1CFF1C442341F0B7EBA0
:10029000CB26BDE1DB26B1ECEB26B4E0FB26B69421
:1002A000A7949794879421503109C9F6C8CFB70114
:1002B000A6014095509560957095DDCFC701B601B8
:1002C000FF90EF90DF90CF90BF90AF909F908F9076
:1002D0007F906F905F904F900895AF92BF92CF92B2
:1002E000DF92EF92FF920F931F93CF93DF936C01F6
:1002F0007B018B01040F151FEB015E01AE18BF08D7
:10030000C017D10759F06991D601ED91FC91019088
:10031000F081E02DC6010995892B79F7C501DF91A0
:10032000CF911F910F91FF90EF90DF90CF90BF90F2
:10033000AF900895FC01538D448D252F30E0842F1C
:1003400090E0821B930B541710F0CF9608950197FD
:100350000895FC01918D828D981761F0A28DAE0FEA
:10036000BF2FB11D5D968C91928D9F5F9F73928F71
:1003700090E008958FEF9FEF0895FC01918D828D9D
:10038000981731F0828DE80FF11D858D90E008956A
:100390008FEF9FEF0895FC01918D228D892F90E0C2
:1003A000805C9F4F821B91098F739927089584E386
:1003B00095E00E94CB0121E0892B09F420E0822FF7
:1003C000089580E090E0892B29F00E94D7018111E7
:1003D0000C9400000895FC01A48DA80FB92FB11D45
:1003E000A35ABF4F2C91848D90E001968F7399276B
:1003F000848FA689B7892C93A089B1898C91837049
:1004000080648C93938D848D981306C00288F38941
:10041000E02D80818F7D80830895EF92FF920F936E
:100420001F93CF93DF93EC0181E0888F9B8D8C8DA0
:1004300098131AC0E889F989808185FF15C09FB794
:10044000F894EE89FF896083E889F9898081837057
:10045000806480839FBF81E090E0DF91CF911F9106
:100460000F91FF90EF900895F62E0B8D10E00F5F27
:100470001F4F0F731127E02E8C8D8E110CC00FB6FD
:1004800007FCFACFE889F989808185FFF5CFCE0195
:100490000E94EB01F1CFEB8DEC0FFD2FF11DE35A24
:1004A000FF4FF0829FB7F8940B8FEA89FB89808118
:1004B0008062CFCFCF93DF93EC01888D8823B9F092
:1004C000AA89BB89E889F9898C9185FD03C080815F
:1004D00086FD0DC00FB607FCF7CF8C9185FFF2CFDC
:1004E000808185FFEDCFCE010E94EB01E9CFDF9146
:1004F000CF9108953FB7F8948091DE029091DF028A
:10050000A091E002B091E10226B5A89B05C02F3F63
:1005100019F00196A11DB11D3FBFBA2FA92F982F29
:100520008827BC01CD01620F711D811D911D42E024
:10053000660F771F881F991F4A95D1F708958F92EC
:100540009F92AF92BF92CF92DF92EF92FF924B01B8
:100550005C010E947A026B017C010E947A026C1994
:100560007D098E099F09683E734081059105A8F3B6
:1005700021E0821A9108A108B10888EEC80E83E034
:10058000D81EE11CF11C81149104A104B10429F7C7
:10059000FF90EF90DF90CF90BF90AF909F908F90A3
:1005A0000895F89438B1316028B1422F4E7F58E158
:1005B00038B987FB222720F9242B28B9660F771F2B
:1005C000881F991F000000000000000048B951502A
:1005D00079F7789408959BB19F739BB95E989BB10E
:1005E00090622BB12F7D322F67FD392F3BB95E9A78
:1005F000322F66FD392F3BB95E9A322F65FD392FB8
:100600003BB95E9A322F64FD392F3BB95E9A322F87
:1006100063FD392F3BB95E9A322F62FD392F3BB90A
:100620005E9A322F61FD392F3BB95E9A322F60FD01
:10063000392F3BB95E9A322F87FD392F3BB95E9A2D
:10064000322F86FD392F3BB95E9A322F85FD392F27
:100650003BB95E9A322F84FD392F3BB95E9A322F17
:1006600083FD392F3BB95E9A322F82FD392F3BB97A
:100670005E9A322F81FD392F3BB95E9A80FF922F0F
:100680009BB95E9A5F9A88B1770F770F7C70837FF2
:10069000782B78B94198089510928100809181005B
:1006A00088608093810080918100816080938100C7
:1006B000109280001A990CC080EA9FE09093890004
:1006C0008093880080916F00826080936F0008950E
:1006D00080E89CE0F3CFFC0101900020E9F731971E
:1006E000AF01481B590BBC0184E395E00C946D01EC
:1006F0008F929F92AF92BF920F931F93CF93DF93EE
:10070000CDB7DEB7A1970FB6F894DEBF0FBECDBF51
:1007100019A2423008F44AE08E010F5D1F4F842E6B
:10072000912CB12CA12CA50194010E940F11E62F50
:10073000B901CA01EA30F4F4E05DD801EE938D010D
:10074000232B242B252B79F790E080E0109719F0CC
:10075000CD010E946B03A1960FB6F894DEBF0FBEC9
:10076000CDBFDF91CF911F910F91BF90AF909F9020
:100770008F900895E95CE1CFCF92DF92EF92FF92E4
:10078000CF93DF936B017C016DE284E395E00E94DF
:100790000D02EC0166277727CB016C197D098E09C4
:1007A0009F094AE00E9478038C0F9D1FDF91CF9133
:1007B000FF90EF90DF90CF9008950C946B03CF9350
:1007C000DF930E946B03EC0188E191E00E946B03D0
:1007D0008C0F9D1FDF91CF910895BC01990F880B5D
:1007E000990B4AE00C947803CF93DF93EC0180914E
:1007F0002E0590912F05009759F0209130053091EA
:1008000031052C173D0720F081E0DF91CF9108954D
:10081000BE016F5F7F4F0E946312009789F0909333
:100820002F0580932E05D0933105C093300520917C
:10083000320530913305232B39F7FC011082E4CFC8
:1008400080E0E3CF2091320530913305232B39F43A
:1008500021E0FC018081882361F020E00AC0BC0116
:1008600080912E0590912F050E94291321E0892B5C
:10087000A1F7822F0895E6E7F4E086EADF011D92F2
:100880008A95E9F782E090E0909375048093740470
:1008900090E080E02EE037E0FC01E858FB4FDC01FF
:1008A000A853BB4FAC014E575B4F21933D93E417C8
:1008B000F507D9F70A968035910571F784E794E03A
:1008C0000E940C01609318057093190580931A0516
:1008D00090931B0508950F931F93CF93DF9304E725
:1008E00014E0D0E0C0E0F80161918F01CE010E94D8
:1008F000140F2196C83AD105B1F78BE191E00E941F
:10090000DD034AE068EA70E080E090E00E9478034E
:1009100088E191E0DF91CF911F910F910C946B03CF
:100920002F923F924F925F926F927F928F929F92FF
:10093000AF92BF92CF92DF92EF92FF920F931F93ED
:10094000CF93DF93CDB7DEB729970FB6F894DEBF0C
:100950000FBECDBF83B182EC90E09093D80280931C
:10096000D7021986188697E3292E92E0392E28ECB3
:10097000422E512C612C712C8885998588589B4F6B
:100980005C01E885F985E853FB4FFC83EB838885A0
:10099000998589519E4F9A8389834101E885F9851C
:1009A000EE57FB4FFF83EE83F50101915F01FAE003
:1009B0000F9F80011124EB81FC816191FC83EB830B
:1009C000E981FA816193FA83E98383B170E090E071
:1009D00080E00E94110E20E030E040E251E40E94ED
:1009E0004E0E20E030E040EE50E40E94680F0E947E
:1009F00009102FEF3FEF0115110511F1F3B1FD8340
:100A000020E03FEF4FE757E40E944E0E0E94DA0FBE
:100A10006B01F12CE12C28EE33E0D8010E94371154
:100A20002D8122FF3CC0A30192010E940F11C7013A
:100A3000B6010E940F1183E0220F331F8A95E1F760
:100A4000F401219331934F018E819F818A159B057B
:100A500009F0AACF94E1290E311CE885F9853A9670
:100A6000F987E887E035F10509F086CF29960FB6BA
:100A7000F894DEBF0FBECDBFDF91CF911F910F91D4
:100A8000FF90EF90DF90CF90BF90AF909F908F90AE
:100A90007F906F905F904F903F902F9008952AEF36
:100AA00030E040E050E0C1CF1F920F920FB60F929E
:100AB00011242F933F934F935F936F937F938F9363
:100AC0009F93AF93BF93EF93FF9384E395E00E94CE
:100AD000EB01FF91EF91BF91AF919F918F917F912A
:100AE0006F915F914F913F912F910F900FBE0F909B
:100AF0001F9018951F920F920FB60F9211242F93EB
:100B00008F939F93EF93FF93E0914405F0914505F8
:100B10008081E0914A05F0914B0582FD1BC09081D8
:100B200080914D058F5F8F7320914E05821741F0A4
:100B3000E0914D05F0E0EC5CFA4F958F80934D0508
:100B4000FF91EF919F918F912F910F900FBE0F907A
:100B50001F9018958081F4CF1F920F920FB60F92BD
:100B600011242F933F938F939F93AF93BF938091C3
:100B7000DA029091DB02A091DC02B091DD023091AB
:100B8000D90223E0230F2D3758F50196A11DB11D81
:100B90002093D9028093DA029093DB02A093DC02C7
:100BA000B093DD028091DE029091DF02A091E0021D
:100BB000B091E1020196A11DB11D8093DE029093D8
:100BC000DF02A093E002B093E102BF91AF919F9149
:100BD0008F913F912F910F900FBE0F901F901895FE
:100BE00026E8230F0296A11DB11DD2CF1F920F92AE
:100BF0000FB60F9211242F923F924F925F926F92F5
:100C00007F928F929F92AF92BF92CF92DF92EF929C
:100C1000FF920F931F932F933F934F935F936F9385
:100C20007F938F939F93AF93BF93EF93FF93CF9354
:100C3000DF93CDB7DEB72597DEBFCDBF209184000F
:100C4000309185003A83298380911C0590911D0580
:100C5000A0911E05B0911F050196A11DB11D8093A5
:100C60001C0590931D05A0931E05B0931F0587706A
:100C70009927A89524E1289F7001299FF00C112441
:100C8000A7014C525C4F5D834C832AE0289F800172
:100C9000299F100D11241B9936C0A090E501B0903A
:100CA000E601C090E301D090E4018091C2019091EF
:100CB000C301A816B90639F48091C0019091C10111
:100CC0008C159D0561F0B601C5010E94EB02B09242
:100CD000C301A092C201D092C101C092C001189973
:100CE00023C293B18091D501292F247092FF66C051
:100CF000853009F066C01092D5018091D4018F5FD4
:100D00008093D4015EC093B140911C0550911D05A4
:100D100060911E0570911F05A3E076956795579524
:100D20004795AA95D1F7A42FA770BA2E21E030E0FD
:100D3000490102C0880C991C8A95E2F74091D702BC
:100D40005091D802AC81BD81C80189519E4FBD012F
:100D50006C5E7F4FD12CC12CD694C7942D913D91C0
:100D6000E32FFF27E40FF51FA490AB82FC01A190B5
:100D7000CF01EB81AE1608F4EA2DEB1520F0232B02
:100D800011F06894D1F86A177B0731F7A0908400BE
:100D9000B090850070E060E090E080E00E94EB029F
:100DA00080918400909185008A199B09803491403C
:100DB000B8F3B601C4010E94EB0291CF843009F46C
:100DC0009ACF8091D4018A3011F41092D40180918D
:100DD000D5018F5F8093D501B090D40181E090E080
:100DE0006C010B2C02C0CC0CDD1C0A94E2F71999A3
:100DF00003C090E080E0E4C08091D0019091D101E7
:100E0000A091D201B091D301222389F180349C4971
:100E1000A105B10589F51092D0011092D10110926F
:100E2000D2011092D3011092CC011092CD011092F8
:100E3000CE011092CF011092C8011092C9011092F8
:100E4000CA011092CB018091C4019091C501A0917B
:100E5000C601B091C7010196A11DB11D8093C401C7
:100E60009093C501A093C601B093C70105C0811539
:100E70009D47A105B10579F28091C4019091C5010A
:100E8000A091C601B091C7010797A105B10541F432
:100E90001092C4011092C5011092C6011092C701B0
:100EA0008091D0019091D101A091D201B091D30154
:100EB0000196A11DB11D8093D0019093D101A09303
:100EC000D201B093D3018091CC019091CD01A0913A
:100ED000CE01B091CF01222309F1843C9940A105B4
:100EE000B10509F51092CC011092CD011092CE01FE
:100EF0001092CF018091C8019091C901A091CA01BF
:100F0000B091CB010196A11DB11D8093C8019093B2
:100F1000C901A093CA01B093CB0105C0803D9740A1
:100F2000A105B105F9F28091CC019091CD01A0917C
:100F3000CE01B091CF010196A11DB11D8093CC01CE
:100F40009093CD01A093CE01B093CF018091C401C5
:100F50009091C501A091C601B091C701873091055C
:100F6000A105B10508F045CFFC01E754F84F0C94FA
:100F70003111C007D60722083908460851086B0806
:100F80006091C8017091C9018091CA019091CB0113
:100F90002AE030E040E050E00E940F1181E090E054
:100FA000B61609F462C090E080E05FC02091C801ED
:100FB000277081E090E002C0880F991F2A95E2F720
:100FC000B0E0A0E03C0155244424C094D094A60194
:100FD00070E060E04C28552A662A772A4301AA244B
:100FE000BB24940140945094C201937080319105C8
:100FF00009F473C208F058C28230910509F475C231
:1010000008F09AC1E0E0019709F49EC18091DB01EC
:101010009091DC01A091DD01B091DE018F3FFFEFE7
:101020009F07AF07BF0759F00196A11DB11D80931F
:10103000DB019093DC01A093DD01B093DE01EAE0D7
:1010400040E08BC16091C8017091C9018091CA01D3
:101050009091CB012AE030E040E050E00E940F1177
:1010600081E090E0B61609F49ECF919581959109A3
:10107000A7CF2091C801277081E090E002C0880FBF
:10108000991F2A95E2F7809590959ACF8091C80193
:1010900080FB662460F8712C8827992786199709A8
:1010A0008FCF6091C8017091C9018091CA01909160
:1010B000CB019B012B25490180FC9BCE23E030E036
:1010C00040E050E00E940F11672B682B692B49F517
:1010D0008AEA9AEA75CF6091C8017091C90180913E
:1010E000CA019091CB0152E0660F771F881F991FAC
:1010F0005A95D1F720E530E040E050E00E940F1112
:10110000862F6770B61275CE6AE00E94031121E047
:1011100030E0A90102C0440F551F8A95E2F7CA01C9
:101120004FCF84E595E54CCF8BB1877E8BB95C9A28
:101130005B9849B15B9A5B9899B15B9A5B9869B18E
:101140005B9A5B9829B15B9A5B9889B150E2459FA5
:10115000F0011124E078FF27A0E19A9FA00111245B
:10116000407455274E2B5F2BB8E06B9FB0011124C4
:1011700060727727462B572BE4E02E9F90011124B5
:1011800020713327422B532B90E0880F991F8870D2
:101190009927482B592B052E000C660B770B5B9A71
:1011A0005B9829B15B9A5B9889B15B9A5B9839B17E
:1011B00090E0959587958270992732FB442440F8FA
:1011C000512C84299529092E000CAA0BBB0B2470E5
:1011D0002C013D01422A442A552A662A772A5B9A25
:1011E0003201552444245B9839B15B9A5B98F9B17C
:1011F0005B9A5B9899B15B9A5B98A9B15B9A5B9893
:1012000089B15B9A5B9829B15B9A5B98E9B15B9A6B
:101210005B98A9B0AB825B9A83B056B1912CB12C8C
:10122000A12C44E0880C991CAA1CBB1C4A95D1F740
:10123000882441E09422AA24BB24452F50E070E08A
:1012400060E0B5E0440F551F661F771FBA95D1F7D0
:101250004427527066277727482959296A297B290C
:101260002470422BB0E23B9F900111242078332759
:101270004901330FAA08BB089A01AB012829392973
:101280004A295B29B0E1FB9FB001112460747727E4
:101290004B01770FAA08BB08BA01A90148295929AF
:1012A0006A297B29F8E09F9F6001112420E2C22275
:1012B000DD244601DD0CAA08BB08482959296A2902
:1012C0007B2934E0A39F5001112490E1A922BB2483
:1012D0000B2C000CCC08DD084A295B296C297D29E0
:1012E00090E0880F991F88709927092E000CAA0B8F
:1012F000BB0B482B592B6A2B7B2BF0E0F595E79520
:10130000E270FF274F01FF0FAA08BB08482959299F
:101310006A297B29AB81A2FB222420F8312CC10150
:10132000330CAA0BBB0B842B952BA62BB72B482A6F
:10133000592A6A2A7B2A52CE8430910509F4CBC0FF
:10134000E3E0089709F062CE1092DB011092DC0115
:101350001092DD011092DE0141E08091D701909161
:10136000D8014816590609F442C08091E5019091D0
:10137000E6012817390741F48091E3019091E401D7
:101380004816590609F4B3C01092D6018091D601CF
:10139000882369F15092D8014092D701442339F152
:1013A000EA3029F1F0E0DF01AA0FBB1F9D012C5CA0
:1013B0003C4FEC51FD4FAD01495C5D4F6A01AF01FF
:1013C000405B5F4FC401682F61706083D6016D91EF
:1013D0007C91D9016D937C932C5E3F4F3A96B4E19A
:1013E000CB0ED11C96958795E417F50761F7D701C9
:1013F000AC5CBC4F0C511D4F4C815D814C5E5F4F0E
:101400002D913D91F80161918F01EC81FD818081E9
:101410009181662309F474C0820F931F821793078A
:1014200010F48FEF9FEFEC81FD81918380832C81FD
:101430003D812E5F3F4F3D832C832417350701F7F5
:101440009092E6018092E5015092E4014092E3011E
:10145000189962C019995DC084E090E09093E3020E
:101460008093E2024091E2025091E3025D834C835B
:101470008091D9019091DA014817590709F47AC08F
:1014800064E474E484E490E04730510508F06AC0F5
:10149000FA01E35BF54F0C943111AE0AF90A0D0B1A
:1014A000FE0A120B030B080B80389105D1F048F4AB
:1014B00080329105A1F0E6E08034910509F444CF33
:1014C000A5CD8115B1E09B0771F08115924009F01F
:1014D0009DCDE9E039CFE2E037CFE4E035CFE5E07C
:1014E00033CFE7E031CFE8E02FCFE1E02DCF80919F
:1014F000D6018F3F09F44ACF8F5F8093D60146CF44
:10150000821B930B2817390708F08DCF90E080E0FD
:101510008ACF83E090E0A2CF8091DF019091E0013B
:101520008436910590F48091DB019091DC01A091CB
:10153000DD01B091DE0184369105A105B10540F4CD
:101540001B9909C082E090E089CF86E090E086CFC9
:1015500085E090E083CF81E090E080CF62E272E2AC
:1015600082E290E00E94D1028C819D819093DA0109
:101570008093D9018091840090918500A981BA81DE
:101580008A1B9B0B2091E1013091E201281739075A
:1015900040F48038BEE39B0720F49093E2018093EF
:1015A000E1010F900F900F900F900F90DF91CF916E
:1015B000FF91EF91BF91AF919F918F917F916F912B
:1015C0005F914F913F912F911F910F91FF90EF905D
:1015D000DF90CF90BF90AF909F908F907F906F9053
:1015E0005F904F903F902F900F900FBE0F901F90E5
:1015F000189560E070E082E290E0B4CF61E170E0C5
:1016000082E290E0AFCF60E073E380E090E0AACFA9
:1016100063E373E380E090E0A5CF63E373E383E3E8
:1016200090E0A0CF63E370E081E190E09BCF1F9258
:101630000F920FB60F9211248F939F938091DF0129
:101640009091E00101969093E0018093DF019F91DA
:101650008F910F900FBE0F901F901895CF93DF932F
:10166000CDB7DEB7C85AD1090FB6F894DEBF0FBEAA
:10167000CDBF789484B5826084BD84B5816084BD1B
:1016800085B5826085BD85B5816085BD80916E0020
:10169000816080936E001092810080918100826051
:1016A000809381008091810081608093810080918E
:1016B00080008160809380008091B100846080937D
:1016C000B1008091B00081608093B00080917A0079
:1016D000846080937A0080917A00826080937A009F
:1016E00080917A00816080937A0080917A0080688E
:1016F00080937A001092C100F89489EF8AB980E251
:1017000084B985B18F6185B98EE087B9389A449ADA
:10171000419A80EAE4EDF3E0DF01982F1D929A955B
:10172000E9F7E4E3F3E0DF011D928A95E9F7E4EEDF
:10173000F2E080E5DF011D928A95E9F734E7E32EB8
:1017400034E0F32E10E000E0C8010E940C0FF70116
:1017500081937F010F5F1F4F083A1105A9F7809110
:10176000740490917504029789F484E794E00E94D0
:101770000C01009118051091190520911A0530915E
:101780001B05601771078207930721F00E943B0435
:101790000E946B04E0914405F091450582E080834E
:1017A000E0914005F09141051082E0914205F091F1
:1017B000430580E1808310924C05E0914805F0914B
:1017C000490586E08083E0914605F09147058081D8
:1017D00080618083E0914605F091470580818860B3
:1017E0008083E0914605F091470580818068808381
:1017F000E0914605F091470580818F7D80830E94AE
:1018000090048BE491E00E94DD038EE690E00E945C
:10181000ED0387E591E00E94DD038AE191E00E94FB
:10182000DF038CE591E00E94DF038CE791E00E94EA
:10183000DF0319E0E2E0F0E0109357001491177015
:101840008CE991E00E94DD0389E291E0173051F0CC
:101850008DE291E0143031F082E391E0153011F027
:1018600087E391E00E94DF030E944C03789488E1B3
:1018700098E00FB6F894A895809360000FBE9093FF
:10188000600083B18093210581E090E09093E302B2
:101890008093E202CE0101967C0198E1692E20E05E
:1018A000A22E20E0B22E7724739488E0582E8091E7
:1018B0002A0590912B05A0912C05B0912D0501963C
:1018C000A11DB11D80932A0590932B05A0932C0593
:1018D000B0932D058091220581112AC010922F0509
:1018E00010922E051092310510923005109233059A
:1018F0001092320590E080E00E94F40320912E05C2
:1019000030912F05811144C02115310519F0C9010D
:101910000E94DA1110922F0510922E0510923305B5
:101920001092320510923105109230057092220506
:1019300084E395E00E94CB0120912005892B91F151
:10194000211133C084E395E00E94A9018A3309F490
:1019500093C089831A8200913205109133050F5F7D
:101960001F4FC8010E94F403882311F320912E0514
:1019700030912F058091320590913305B701820F88
:10198000931F0E9432131093330500933205D0CF7A
:1019900010923305109232056AE171E0C9010E948C
:1019A0003213C4CF222309F440C087EA91E00E9499
:1019B0002204882309F463C087EA91E00E94DD03D2
:1019C00085EA91E00E94DD038EE690E00E94ED033F
:1019D00085EA91E00E94DD034AE062E070E080E089
:1019E00090E00E94780388E191E00E946B0390E010
:1019F00080E00E94F40320912E0530912F05811183
:101A0000D9C02115310519F0C9010E94DA111092CF
:101A10002F0510922E051092330510923205109268
:101A20003105109230051092200583B19091210567
:101A3000892782FF0FC0F8940E944C0310921C0566
:101A400010921D0510921E0510921F0583B1809300
:101A50002105789464EF71E080E090E00E949F029D
:101A6000A114B10409F423CF0E94D701882309F4FB
:101A70001CCF0E94000019CF7092200559CF8BEA2D
:101A800091E00E942204882349F048EA50E064E78C
:101A900074E084E395E00E946D01A9CF80EB91E0B2
:101AA0000E942204882339F00E943B0484E491E0E0
:101AB0000E94DD039CCF85EB91E00E9422048823E5
:101AC00009F495CF0FB6F894A895809160008861CD
:101AD00080936000109260000FBE80916F008D7F38
:101AE00080936F00419A4E2C3F2CD12CC12C8AEB55
:101AF00091E00E94DD0368EC70E080E090E00E94DD
:101B00009F02042D132D4801A0E28A0E911C402E45
:101B1000312E84E395E00E94CB01892B91F00815CA
:101B2000190579F0B8EACB16D10478F484E395E08E
:101B30000E94A901F80181938F01FFEFCF1ADF0AFC
:101B4000E6CF98EAC916D10490F288EAC816D10403
:101B500071F5C7010E940C01CB55DF4F0881198137
:101B60002A813B81C55AD0406017710782079307CD
:101B7000F1F488EAF701A4E7B4E001900D928A95A8
:101B8000E1F70E9490040E946B0484E491E00E94BB
:101B9000DD0380916F00826080936F000FB6F89430
:101BA000A895609260000FBE5092600020CF8CE339
:101BB00091E0EDCF10923305109232056AE171E0A9
:101BC000C9010E9432132FCFE4E3F5E013821282A1
:101BD00088EE93E0A0E0B0E084839583A683B7838A
:101BE0008AE091E09183808385EC90E095878487FB
:101BF00084EC90E09787868780EC90E0918B808BD7
:101C000081EC90E0938B828B82EC90E0958B848BBF
:101C100086EC90E0978B868B118E128E138E148E2D
:101C20000895E89409C097FB3EF4909580957095CF
:101C300061957F4F8F4F9F4F9923A9F0F92F96E918
:101C4000BB279395F695879577956795B795F1118D
:101C5000F8CFFAF4BB0F11F460FF1BC06F5F7F4F2A
:101C60008F4F9F4F16C0882311F096E911C077233C
:101C700021F09EE8872F762F05C0662371F096E845
:101C8000862F70E060E02AF09A95660F771F881F14
:101C9000DAF7880F9695879597F908950E94610E57
:101CA0000C94D20E0E94C40E38F00E94CB0E20F08D
:101CB000952311F00C94BB0E0C94C10E11240C94BE
:101CC000060F0E94E30E70F3959FC1F3950F50E04D
:101CD000551F629FF001729FBB27F00DB11D639FDE
:101CE000AA27F00DB11DAA1F649F6627B00DA11D84
:101CF000661F829F2227B00DA11D621F739FB00D2A
:101D0000A11D621F839FA00D611D221F749F332799
:101D1000A00D611D231F849F600D211D822F762F32
:101D20006A2F11249F5750409AF0F1F088234AF00F
:101D3000EE0FFF1FBB1F661F771F881F915050407B
:101D4000A9F79E3F510580F00C94BB0E0C94060F32
:101D50005F3FE4F3983ED4F3869577956795B79502
:101D6000F795E7959F5FC1F7FE2B880F911D96951C
:101D7000879597F9089597F99F6780E870E060E08C
:101D800008959FEF80EC089500240A941616170614
:101D900018060906089500240A941216130614065C
:101DA00005060895092E0394000C11F4882352F0BF
:101DB000BB0F40F4BF2B11F460FF04C06F5F7F4F77
:101DC0008F4F9F4F089557FD9058440F551F59F05E
:101DD0005F3F71F04795880F97FB991F61F09F3F18
:101DE00079F087950895121613061406551FF2CF41
:101DF0004695F1DF08C0161617061806991FF1CF91
:101E000086957105610508940895E894BB276627B7
:101E10007727CB0197F90895F999FECF92BD81BD3F
:101E2000F89A992780B50895262FF999FECF1FBA01
:101E300092BD81BD20BD0FB6F894FA9AF99A0FBEF3
:101E4000019608952F923F924F925F926F927F92E8
:101E50008F929F92AF92BF92CF92DF92EF92FF92BA
:101E60000F931F93CF93DF93CDB7DEB7CA1BDB0B66
:101E70000FB6F894DEBF0FBECDBF09942A8839880B
:101E800048885F846E847D848C849B84AA84B98412
:101E9000C884DF80EE80FD800C811B81AA81B9811E
:101EA000CE0FD11D0FB6F894DEBF0FBECDBFED0132
:101EB0000895A29FB001B39FC001A39F700D811D23
:101EC0001124911DB29F700D811D1124911D089543
:101ED0000E947C0F0C94D20E0E94CB0E58F00E94F0
:101EE000C40E40F029F45F3F29F00C94BB0E511151
:101EF0000C94060F0C94C10E0E94E30E68F3992314
:101F0000B1F3552391F3951B550BBB27AA276217F5
:101F10007307840738F09F5F5F4F220F331F441F02
:101F2000AA1FA9F335D00E2E3AF0E0E832D0915036
:101F30005040E695001CCAF72BD0FE2F29D0660F23
:101F4000771F881FBB1F261737074807AB07B0E866
:101F500009F0BB0B802DBF01FF2793585F4F3AF06C
:101F60009E3F510578F00C94BB0E0C94060F5F3F1A
:101F7000E4F3983ED4F3869577956795B795F795F2
:101F80009F5FC9F7880F911D9695879597F90895DA
:101F9000E1E0660F771F881FBB1F62177307840776
:101FA000BA0720F0621B730B840BBA0BEE1F88F785
:101FB000E09508950E94EB0E88F09F5798F0B92F96
:101FC0009927B751B0F0E1F0660F771F881F991F6E
:101FD0001AF0BA95C9F714C0B13091F00E94050FFC
:101FE000B1E008950C94050F672F782F8827B85F0C
:101FF00039F0B93FCCF3869577956795B395D9F7C6
:102000003EF490958095709561957F4F8F4F9F4FCF
:1020100008950E94191029ED3BE54EED5EE30C9406
:102020004E0E16F00C94CE100C94C10E68940C94C5
:10203000BB0E0E94EB0EA8F39923C1F3AEF3DF931E
:10204000CF931F930F93FF92C92FDD2788232AF088
:102050002197660F771F881FDAF720E030E040E80D
:102060005FEB9FE3883920F0803E38F021968F7730
:102070000E946210E8E6F0E004C00E946210E5E908
:10208000F0E00E94DC108B01BE01EC01FB2E6F57CB
:1020900071097595771F880B990B0E94130E28E123
:1020A00032E741E35FE30E94610EAF2D9801AE017C
:1020B000FF900F911F91CF91DF910E9479100C94A6
:1020C000D20E5058BB27AA270E9479100C94D20E2A
:1020D0000E94C40E38F00E94CB0E20F039F49F3FCE
:1020E00019F426F40C94C10E0EF4E095E7FB0C9461
:1020F000BB0EE92F0E94E30E58F3BA17620773076D
:102100008407950720F079F4A6F50C94050F0EF4DA
:10211000E0950B2EBA2FA02D0B01B90190010C01F7
:10212000CA01A0011124FF27591B99F0593F50F40F
:10213000503E68F11A16F040A22F232F342F442767
:10214000585FF3CF469537952795A795F04053955F
:10215000C9F77EF41F16BA0B620B730B840BBAF02F
:102160009150A1F0FF0FBB1F661F771F881FC2F79A
:102170000EC0BA0F621F731F841F48F487957795AE
:102180006795B795F7959E3F08F0B0CF9395880F68
:1021900008F09927EE0F9795879508959F3F31F0A6
:1021A000915020F4879577956795B795880F911D85
:1021B0009695879597F90895DF93CF931F930F9383
:1021C000FF92EF92DF927B018C01689406C0DA2EB9
:1021D000EF010E94610EFE01E894A59125913591D1
:1021E00045915591A6F3EF010E947910FE019701E8
:1021F000A801DA9469F7DF90EF90FF900F911F919B
:10220000CF91DF910895991B79E004C0991F96172B
:1022100008F0961B881F7A95C9F780950895A1E26A
:102220001A2EAA1BBB1BFD010DC0AA1FBB1FEE1F50
:10223000FF1FA217B307E407F50720F0A21BB30B9B
:10224000E40BF50B661F771F881F991F1A9469F717
:1022500060957095809590959B01AC01BD01CF0173
:102260000895EE0FFF1F0590F491E02D09940E9450
:10227000590FB7FF0895821B930B08950F931F9377
:10228000CF93DF938230910510F482E090E0E091EB
:10229000D305F091D40530E020E0B0E0A0E0309725
:1022A00099F42115310509F44AC0281B390B243053
:1022B0003105D8F58A819B816115710589F1FB0192
:1022C00093838283FE0111C0408151810281138179
:1022D00048175907E0F04817590799F4109761F02B
:1022E00012960C93129713961C933296CF01DF919E
:1022F000CF911F910F9108950093D3051093D405AA
:10230000F4CF2115310551F04217530738F0A901D8
:10231000DB019A01BD01DF01F801C1CFEF01F9CF67
:102320009093D4058093D305CDCFFE01E20FF31F28
:10233000819391932250310939832883D7CF2091FB
:10234000D1053091D205232B41F420910201309127
:1023500003013093D2052093D105209100013091E3
:1023600001012115310541F42DB73EB7409104011B
:1023700050910501241B350BE091D105F091D20558
:10238000E217F307A0F42E1B3F0B2817390778F04C
:10239000AC014E5F5F4F2417350748F04E0F5F1FAB
:1023A0005093D2054093D105819391939FCFF0E054
:1023B000E0E09CCFCF93DF930097E9F0FC013297E8
:1023C00013821282A091D305B091D405ED0130E0C3
:1023D00020E01097A1F420813181820F931F20917A
:1023E000D1053091D2052817390709F061C0F09363
:1023F000D205E093D105DF91CF910895EA01CE1780
:10240000DF07E8F54A815B819E0141155105B1F76F
:10241000E901FB83EA8349915991C40FD51FEC1759
:10242000FD0761F4808191810296840F951FE90177
:1024300099838883828193819B838A83F0E0E0E0A3
:1024400012968D919C9113970097B9F52D913C911F
:102450001197CD010296820F931F2091D1053091E3
:10246000D2052817390739F6309751F51092D4055F
:102470001092D305B093D205A093D105BCCFD383DE
:10248000C28340815181840F951FC817D90761F419
:102490004E5F5F4F88819981480F591F5183408358
:1024A0008A819B81938382832115310509F0B0CF06
:1024B000F093D405E093D3059ECFFD01DC01C0CF9E
:1024C00013821282D7CFB0E0A0E0E9E6F2E10C94EB
:1024D000240F8C01009751F4CB010E943E118C0116
:1024E000C801CDB7DEB7E0E10C94400FFC01E60F68
:1024F000F71F9C0122503109E217F30708F49DC031
:10250000D901CD91DC911197C617D70798F0C53046
:10251000D10530F3CE0104978617970708F3C61B41
:10252000D70B2297C193D1936D937C93CF010E94D7
:10253000DA11D6CF5B01AC1ABD0A4C018C0E9D1E80
:10254000A091D305B091D405512C412CF12CE12C54
:10255000109731F58091D1059091D2058815990594
:1025600009F05CC04616570608F058C0809100017B
:1025700090910101009741F48DB79EB740910401FD
:1025800050910501841B950BE817F90708F055C019
:10259000F093D205E093D105F90171836083A0CF58
:1025A0008D919C91119712966C90129713967C9036
:1025B0001397A815B90559F56C0142E0C40ED11C5A
:1025C000CA14DB0420F1AC014A195B09DA01129646
:1025D000159780F06282738251834083D9016D9395
:1025E0007C93E114F10471F0D7011396FC93EE9300
:1025F000129776CF22968C0F9D1FF90191838083CD
:10260000F301EFCFF093D405E093D30569CF4816DB
:10261000590608F42C017D01D3019ACFCB010E9409
:102620003E117C01009749F0AE01B8010E942013D1
:10263000C8010E94DA11870153CF10E000E050CFAB
:10264000FB01DC0102C001900D9241505040D8F7CF
:102650000895FB01DC018D91019080190110D9F3DF
:10266000990B0895FB01DC0101900D920020E1F728
:062670000895F894FFCF6D
:102676000000D5058000000000000D026D019A01E2
:102686005A02CB01A901BD010D0A00454550524F22
:102696004D20777269746520004F464600342E330C
:1026A6005600322E375600312E3856004147434EDB
:1026B60041434B0041474341434B00616674657299
:1026C600676C6F7720760020575320002D2D2D2D17
:1026D6002D2D2D2D2D2D2D2D2D2D2D2D2D2D2D2D24
:1026E6002D2D2D2D2D2D2D2D2D2D2D002863292021
:1026F600323031382D32303232206D6F7262696479
:1027060020636F726E666C616B65730065667573C8
:102716006520424F44200041475600414743500040
:102726004147434400414743530041474452000058
:00000001FF
