:100000000C9435000C945D000C945D000C945D0024
:100010000C945D000C945D000C945D000C945D00EC
:100020000C945D000C945D000C945D000C94AC0489
:100030000C945D000C945D000C945D000C945D00CC
:100040000C940A040C945D000C947A040C945404EF
:100050000C945D000C945D000C945D000C945D00AC
:100060000C945D000C945D00CA0811241FBECFEFF4
:10007000D8E0DEBFCDBF11E0A0E0B1E0E2E3F7E100
:1000800002C005900D92A63AB107D9F724E0A6EA7E
:10009000B1E001C01D92A733B207E1F710E0C5E35C
:1000A000D0E004C02197FE010E942009C433D1078B
:1000B000C9F70E9491060C94970B0C9400003FB76F
:1000C000F89480918C0390918D03A0918E03B09150
:1000D0008F0326B5A89B05C02F3F19F00196A11DDF
:1000E000B11D3FBFBA2FA92F982F8827820F911DCE
:1000F000A11DB11DBC01CD0142E0660F771F881F15
:10010000991F4A95D1F708958F929F92AF92BF920F
:10011000CF92DF92EF92FF926B017C010E945F0011
:100120004B015C01C114D104E104F104F1F00E941F
:100130005F00DC01CB0188199909AA09BB09883E37
:100140009340A105B10570F321E0C21AD108E1087E
:10015000F10888EE880E83E0981EA11CB11CC11422
:10016000D104E104F10419F7DDCFFF90EF90DF90A7
:10017000CF90BF90AF909F908F900895CF92DF92D5
:10018000EF92FF920F931F93CF93DF936C017A014D
:100190008B01C0E0D0E0CE15DF0589F0D8016D916C
:1001A0008D01D601ED91FC910190F081E02DC60109
:1001B0000995892B11F47E0102C02196ECCFC7016D
:1001C000DF91CF911F910F91FF90EF90DF90CF9033
:1001D0000895FC01918D828D981761F0828DDF0169
:1001E000A80FB11D5D968C91928D9F5F9F73928F2A
:1001F00090E008958FEF9FEF0895FC01918D828D1F
:10020000981731F0828DE80FF11D858D90E00895EB
:100210008FEF9FEF0895FC01918D228D892F90E043
:10022000805C9F4F821B91098F739927089586E9FF
:1002300093E00E940B0121E0892B09F420E0822F3A
:100240000895FC01848DDF01A80FB11DA35ABF4F93
:100250002C91848D90E001968F739927848FA689C5
:10026000B7892C93A089B1898C9180648C93938DEC
:10027000848D981306C00288F389E02D80818F7DDC
:1002800080830895EF92FF920F931F93CF93DF9394
:10029000EC0181E0888F9B8D8C8D981305C0E889D7
:1002A000F989808185FD24C0F62E0B8D10E00F5F4B
:1002B0001F4F0F731127E02E8C8DE8120CC00FB664
:1002C00007FCFACFE889F989808185FFF5CFCE0157
:1002D0000E942101F1CF8B8DFE01E80FF11DE35A41
:1002E000FF4FF0820B8FEA89FB898081806207C013
:1002F000EE89FF896083E889F98980818064808341
:1003000081E090E0DF91CF911F910F91FF90EF90EE
:100310000895CF93DF93EC01888D8823C9F0EA8993
:10032000FB89808185FD05C0A889B9898C9186FDEE
:100330000FC00FB607FCF5CF808185FFF2CFA889EB
:10034000B9898C9185FFEDCFCE010E942101E7CFC5
:10035000DF91CF91089580E090E0892B29F00E94F1
:10036000170181110C94000008954F925F926F92D3
:100370007F928F929F92AF92BF92CF92DF92EF9235
:10038000FF920F931F93CF93DF93FC01EC01C60FF5
:10039000D71F6FEF7FEFCB01B1E0EC17FD07B1F195
:1003A000819048E050E010E8C12ED12CE12CF12CD6
:1003B000912CA12CB12C2B013C01442477FC4394BB
:1003C000552466247724A42D97018601082119213C
:1003D0002A213B21012B022B032B11F0AB2FA4254B
:1003E000660F771F881F991FAA2341F027EB62270A
:1003F0002DE1722721EC822724E09227F694E794DE
:10040000D794C79441505109B1F6C7CFDF91CF912E
:100410001F910F91FF90EF90DF90CF90BF90AF9022
:100420009F908F907F906F905F904F9008952F9244
:100430003F924F925F926F927F928F929F92AF9274
:10044000BF92CF92DF92EF92FF920F931F93CF93C1
:10045000DF9300D000D000D0CDB7DEB71E821D8262
:1004600002EF11E090ED892E97E0992EA12CB12C8E
:1004700044244A94542C612C712C8D819E818A5085
:100480009D4F7C016801ED81FE81EA5CFC4F1F01FC
:100490008D819E818E549E4F9A838983ED81FE814A
:1004A000E250FD4FFC83EB83F701A1917F01FAE05D
:1004B000AF9FD0011124109791F028EE33E00E94F5
:1004C0001909A50194010E94F708C301B2010E9415
:1004D000F70883E0220F331F8A95E1F702C02FEF60
:1004E0003FEFF601219331936F01F10181911F01DB
:1004F000E981FA818193FA83E9838B819C81E816F3
:10050000F90691F6005F1F4FED81FE813896FE835C
:10051000ED83E034F10509F0B0CF26960FB6F894DC
:10052000DEBF0FBECDBFDF91CF911F910F91FF9026
:10053000EF90DF90CF90BF90AF909F908F907F9083
:100540006F905F904F903F902F9008959BB19F7355
:100550009BB970E0762F6627682B80E190E020E061
:1005600030E85E98A90146235723452B11F05D9A88
:1005700001C05D985E9A36952795019791F75E9830
:100580005F9A41980895009769F0FC01019000205E
:10059000E9F73197AF01481B590BBC0186E993E09D
:1005A0000C94BE0080E090E008950C94C3028F92FA
:1005B0009F92AF92BF920F931F93CF93DF93CDB7CC
:1005C000DEB7A1970FB6F894DEBF0FBECDBF19A25C
:1005D000423008F44AE08E010F5D1F4F842E912CAB
:1005E000A12CB12CA50194010E94F708E62FB901B6
:1005F000CA0101501109EA3014F4E05D01C0E95C60
:10060000D801EC93232B242B252B61F7C8010E94E2
:10061000C302A1960FB6F894DEBF0FBECDBFDF9127
:10062000CF911F910F91BF90AF909F908F900895A1
:10063000CF92DF92EF92FF92CF93DF936B017C0119
:10064000E0919603F09197030190F081E02D6DE227
:1006500086E993E00995EC0166277727CB016C19B1
:100660007D098E099F094AE00E94D7028C0F9D1FC9
:10067000DF91CF91FF90EF90DF90CF900895FC0134
:100680008091940390919503892B21F421E0309778
:1006900049F413C08091900390919103309731F405
:1006A00021E0FC018081882341F006C0BF010E9447
:1006B0002B0B21E0892B09F020E0822F089588E898
:1006C000E2EFF2E0DF011D928A95E9F781E090E028
:1006D0009093F3028093F20280E090E04EE057E0C6
:1006E000FC01EA50FD4FDC01AA5CBC4F9C0122508A
:1006F0003D4F41935D93E217F307D9F70896803495
:10070000910571F764E870E082EF92E00E94B50114
:1007100060937603709377038093780390937903C3
:1007200008950E941D0B0F931F93CF93DF93EC014D
:1007300088819981009729F02A813B812617370704
:1007400088F48B016F5F7F4F0E94530A009761F01E
:10075000998388831B830A832C813D81232B11F489
:10076000FC01108281E001C080E0DF91CF911F91F8
:100770000F910895EF92FF920F931F93CF93DF9302
:10078000EC017B018A01BA010E949303288139811F
:1007900081110DC02115310519F0C9010E94BB0955
:1007A000198218821D821C821B821A8206C01D8338
:1007B0000C83B701C9010E94340BCE01DF91CF91A8
:1007C0001F910F91FF90EF9008950F931F93CF9378
:1007D000DF9302EF12E0C0E0D0E0F80161918F01F9
:1007E000CE010E94430B2196C838D105B1F786E1AE
:1007F00091E00E94D5024AE068E870E080E090E075
:100800000E94D70284E291E0DF91CF911F910F9176
:100810000C94C3021F920F920FB60F9211242F93C4
:100820003F938F939F93AF93BF9380918803909151
:100830008903A0918A03B0918B033091870323E051
:10084000230F2D3720F40196A11DB11D05C026E808
:10085000230F0296A11DB11D209387038093880367
:1008600090938903A0938A03B0938B0380918C03A8
:1008700090918D03A0918E03B0918F030196A11DDD
:10088000B11D80938C0390938D03A0938E03B0933E
:100890008F03BF91AF919F918F913F912F910F90B7
:1008A0000FBE0F901F9018951F920F920FB60F92C8
:1008B00011242F933F934F935F936F937F938F9365
:1008C0009F93AF93BF93EF93FF9386E993E00E94CA
:1008D0002101FF91EF91BF91AF919F918F917F91F6
:1008E0006F915F914F913F912F910F900FBE0F909D
:1008F0001F9018951F920F920FB60F9211242F93ED
:100900008F939F93EF93FF93E091A603F091A7033A
:100910008081E091AC03F091AD0382FD12C0908123
:100920008091AF038F5F8F732091B003821751F0D6
:10093000E091AF03F0E0EA56FC4F958F8093AF0350
:1009400001C08081FF91EF919F918F912F910F9026
:100950000FBE0F901F9018951F920F920FB60F9217
:1009600011242F923F924F925F926F927F928F92BB
:100970009F92AF92BF92CF92DF92EF92FF920F932E
:100980001F932F933F934F935F936F937F938F9317
:100990009F93AF93BF93CF93DF93EF93FF932090F9
:1009A000840030908500C090AE01D090AF01E090FF
:1009B000B001F090B1012FEFC21AD20AE20AF20A96
:1009C000C092AE01D092AF01E092B001F092B101BD
:1009D00060E080E00E94A602B701A601477055279B
:1009E00066277727D3E0F694E794D794C794DA95EF
:1009F000D1F74601570187E088229924AA24BB2415
:100A000081E090E0042E01C0880F0A94EAF7DA0131
:100A100013E0AA0FBB1F1A95E1F7AE54BE4FFA01BF
:100A200004E0EE0FFF1F0A95E1F7EE58FD4F7D0140
:100A300028E0E20EF11C60E0462F50E05595479506
:100A4000642F2191319121153105A9F00C9110E00D
:100A5000232F33272295269527700217130708F4B2
:100A60009801890120E030E0081519052A053B05A9
:100A700010F0642F60681196AE15BF05E9F60E946C
:100A8000A6028BB1877E8BB95C9A80E14EE050E084
:100A9000440F551F5B9899B192FB992790F9C92F84
:100AA00090E0D92F4C2B5D2B5B9A815089F71A99D6
:100AB00042C06091AE017091AF018091B001909100
:100AC000B1018B019C0153E0369527951795079549
:100AD0005A95D1F7102F1770C1E0D0E0012E02C057
:100AE000CC0FDD1F0A94E2F720ED37E040E050E044
:100AF0000E94F70869017A01DA01C901812780FDA6
:100B000010C0122F1770CA01B90123E030E040E095
:100B100050E00E94F708672B682B692B19F0110F22
:100B200001C010E010955C2F4427412BC0FE02C08D
:100B30002D9A01C02D98852F9927582F742F7095C5
:100B40008830910561F154F482309105F1F08430E0
:100B5000910501F18130910589F536C0803291050A
:100B600019F144F48031910549F504E010E020E0EA
:100B700030E02DC080349105E1F080389105F1F42A
:100B800007E010E020E030E022C001E010E020E0CB
:100B900030E01DC002E010E020E030E018C003E0CB
:100BA00010E020E030E013C005E010E020E030E08D
:100BB0000EC006E010E020E030E009C008E010E0E0
:100BC00020E030E040E004C000E010E0980141E0A7
:100BD0006091A7015617D1F06091AD01561304C082
:100BE0005091AC01751719F01092A60107C05091F1
:100BF000A6015F3F19F05F5F5093A6015091A601D7
:100C0000552321F08093A701411117C08093AD01B6
:100C10007093AC01809184009091850082199309B2
:100C20009093AB018093AA012091A8013091A90172
:100C30002817390708F44AC051C0083011052105AA
:100C4000310521F3F80194E0EE0FFF1F9A95E1F7CB
:100C5000DF01AE58BD4FEE50FE4F8D01005F1F4FBC
:100C6000672F88248A94982CA12CB12CCFEFDFEF2A
:100C7000419151912D913C91119760FF15C06901EF
:100C8000E12CF12C24013501441A550A6108710840
:100C9000C414D504E604F7041CF4240F351F09C05E
:100CA0001196DC93CE930CC04217530730F4241BEB
:100CB000350B11963C932E9303C011961C921E92F5
:100CC00012966695A017B10799F6A0CF80382EE34B
:100CD000920720F49093A9018093A801FF91EF91CE
:100CE000DF91CF91BF91AF919F918F917F916F9144
:100CF0005F914F913F912F911F910F91FF90EF9036
:100D0000DF90CF90BF90AF909F908F907F906F902B
:100D10005F904F903F902F900F900FBE0F901F90BD
:100D20001895CF93DF93CDB7DEB7C858D1090FB66A
:100D3000F894DEBF0FBECDBF789484B5826084BDC9
:100D400084B5816084BD85B5826085BD85B58160CF
:100D500085BD80916E00816080936E00109281004D
:100D60008091810082608093810080918100816008
:100D700080938100809180008160809380008091C9
:100D8000B10084608093B1008091B0008160809355
:100D9000B00080917A00846080937A0080917A001C
:100DA000826080937A0080917A00816080937A00DB
:100DB00080917A00806880937A001092C100F89444
:100DC000109280001092810080EA9FE09093890049
:100DD0008093880080918100886080938100809159
:100DE000810081608093810080916F008260809398
:100DF0006F0089EF8AB980E284B985B18F6085B9C7
:100E000086E087B9419A80917A00846080937A0065
:100E100080917A008D7F80937A0080917A008E7F16
:100E200080937A0080E8E2E7F2E0DF011D928A9584
:100E3000E9F792EFE92E92E0F92E00E010E0C80108
:100E40000E943B0BF70181937F010F5F1F4F083812
:100E50001105A9F78091F2029091F302019709F030
:100E6000CDC064E870E082EF92E00E94B50100918D
:100E700076031091770320917803309179036017FE
:100E800071078207930709F0B9C00E941702E09129
:100E9000A603F091A70382E08083E091A203F09182
:100EA000A3031082E091A403F091A50380E1808365
:100EB0001092AE03E091AA03F091AB0386E0808329
:100EC000E091A803F091A903808180618083E09183
:100ED000A803F091A903808188608083E091A80332
:100EE000F091A903808180688083E091A803F0914C
:100EF000A90380818F7D808386E391E00E94D502E3
:100F00004AE067E670E080E090E00E94D70282E469
:100F100091E00E94C30284E291E00E94C3028EE548
:100F200091E00E94C30284E291E00E94C30278949F
:100F3000BB24B394CE0101967C0188E8A82E809151
:100F4000830390918403A0918503B0918603019659
:100F5000A11DB11D8093830390938403A093850307
:100F6000B093860380917B0381113FC0109291035F
:100F70001092900310929303109292031092950393
:100F80001092940340E050E066E271E080E993E063
:100F90000E94BA03B0927B0328C0211137C086E9B2
:100FA00093E00E94E9008A3371F189831A820091EB
:100FB0009403109195030F5F1F4FB80180E993E0F0
:100FC0000E949303882389F020919003309191032C
:100FD0008091940390919503B701820F931F0E9413
:100FE000340B109395030093940386E993E00E94D9
:100FF0000B0120917A03892B49F0CFCF0E945F0328
:101000000E94E50342CFB0927A03EFCF222309F486
:10101000B8C08EE891E00E943F038823F9F08EE883
:1010200091E00E94D50282E291E00E94D5024AE05E
:1010300067E670E080E090E00E94D70282E291E0F3
:101040000E94D5024AE061E070E080E090E00E94FA
:10105000D70284E291E00E94C30289C082E991E054
:101060000E943F03882349F048E850E062EF72E0B5
:1010700086E993E00E94BE007AC087E991E00E9471
:101080003F03882339F00E945F038FE291E00E94C2
:10109000D5026DC08CE991E00E943F03882309F4DA
:1010A00066C080916F008D7F80936F00419A7E2C87
:1010B0006F2CC12CD12C81EA91E00E94D50268EC02
:1010C00070E080E090E00E948400072D162D48011A
:1010D00090E2890E911C702E612E86E993E00E94A9
:1010E0000B01892B91F00815190579F0E8E8CE1667
:1010F000D10478F486E993E00E94E900D8018D9349
:101100008D01BFEFCB1ADB0AE6CF88E8C816D10401
:1011100090F2F8E8CF16D10409F564E870E0C70151
:101120000E94B501CB57DF4F088119812A813B818D
:10113000C558D040601771078207930779F4F7010B
:10114000A2EFB2E08A2D01900D928A95E1F70E94FC
:1011500017020E94E5038FE291E002C087E291E06E
:101160000E94D50280916F00826080936F0040E002
:1011700050E066E271E080E993E00E94BA031092C9
:101180007A0364EF71E080E090E00E9484000E94A6
:10119000AB01D5CEE6E9F3E01382128288EE93E04C
:1011A000A0E0B0E084839583A683B7838AE091E0D2
:1011B0009183808385EC90E09587848784EC90E030
:1011C0009787868780EC90E0918B808B81EC90E014
:1011D000938B828B82EC90E0958B848B86EC90E0F5
:1011E000978B868B118E128E138E148E0895A1E22A
:1011F0001A2EAA1BBB1BFD010DC0AA1FBB1FEE1F91
:10120000FF1FA217B307E407F50720F0A21BB30BDB
:10121000E40BF50B661F771F881F991F1A9469F757
:1012200060957095809590959B01AC01BD01CF01B3
:1012300008950E94880BB7FF0895821B930B0895B1
:10124000EE0FFF1F0590F491E02D0994CF93DF93EB
:101250008230910510F482E090E0E0913504F09145
:10126000360420E030E0C0E0D0E0309711F140815A
:10127000518148175907C0F04817590761F4828116
:101280009381209719F09B838A832BC09093360417
:101290008093350426C02115310519F042175307F4
:1012A00018F49A01BE01DF01EF010280F381E02D05
:1012B000DCCF2115310509F1281B390B243031050C
:1012C00090F412968D919C9113976115710521F000
:1012D000FB019383828304C090933604809335048A
:1012E000FD01329644C0FD01E20FF31F81939193FB
:1012F000225031092D933C933AC020913304309110
:101300003404232B41F420910201309103013093E6
:101310003404209333042091000130910101211500
:10132000310541F42DB73EB74091040150910501BC
:10133000241B350BE0913304F0913404E217F307DA
:10134000A0F42E1B3F0B2817390778F0AC014E5F35
:101350005F4F2417350748F04E0F5F1F509334043A
:10136000409333048193919302C0E0E0F0E0CF0119
:10137000DF91CF9108950F931F93CF93DF93009741
:1013800009F48CC0FC01329713821282009135045B
:10139000109136040115110581F420813181820FED
:1013A000931F20913304309134042817390779F5BD
:1013B000F0933404E093330471C0D80140E050E06E
:1013C000AE17BF0750F412962D913C911397AD01C3
:1013D0002115310509F1D901F3CF9D01DA013383DC
:1013E000228360817181860F971F8217930769F4AA
:1013F000EC0128813981260F371F2E5F3F4F318343
:1014000020838A819B8193838283452B29F4F093E7
:101410003604E093350442C01396FC93EE93129782
:10142000ED01499159919E01240F351FE217F307F1
:1014300071F480819181840F951F029611969C937F
:101440008E938281938113969C938E931297E0E002
:10145000F0E0D80112968D919C911397009719F0A6
:10146000F8018C01F6CF8D919C9198012E5F3F4F32
:10147000820F931F209133043091340428173907C9
:1014800069F4309729F4109236041092350402C0A2
:10149000138212821093340400933304DF91CF91AE
:1014A0001F910F910895A0E0B0E0E9E5FAE00C94F7
:1014B000550BEC01009721F4CB010E942609B8C01E
:1014C000FC01E60FF71F9C0122503109E217F307D8
:1014D00008F4ACC0D9010D911C911197061717079C
:1014E000B0F00530110508F49FC0C80104978617B5
:1014F000970708F499C002501109061B170B0193B6
:1015000011936D937C93CF010E94BB098DC05B0149
:10151000A01AB10A4C01800E911EA0913504B09121
:10152000360440E050E0E12CF12C109709F44AC059
:10153000A815B905D1F56D907C901197630182E0F3
:10154000C80ED11CCA14DB0480F1A3014A195B093F
:101550006A0182E0C80ED11C1296BC9012971396B5
:10156000AC91B5E0CB16D10440F0B282A383518395
:101570004083D9016D937C930AC00E5F1F4FC30156
:10158000800F911FF90191838083EB2DFA2FE114D5
:10159000F10431F0D7011396FC93EE93129744C0F7
:1015A000F0933604E09335043FC08D919C911197E0
:1015B0004817590708F4AC017D0112960D90BC91B3
:1015C000A02DB3CF809133049091340488159905F0
:1015D000E1F446175707C8F480910001909101018A
:1015E000009741F48DB79EB74091040150910501D9
:1015F000841B950BE817F907C8F4F0933404E093C3
:101600003304F901718360830FC0CB010E94260966
:101610007C01009759F0A801BE010E94220BCE0167
:101620000E94BB09C70104C0CE0102C080E090E067
:10163000CDB7DEB7EEE00C94710B81E090E0F8944A
:101640000C94970BFB01DC0102C001900D924150FC
:101650005040D8F70895FB01DC018D91019080196D
:101660000110D9F3990B0895FB01DC0101900D9253
:101670000020E1F70895F999FECF92BD81BDF89A57
:10168000992780B50895262FF999FECF1FBA92BDEC
:1016900081BD20BD0FB6F894FA9AF99A0FBE019653
:1016A00008952F923F924F925F926F927F928F9206
:1016B0009F92AF92BF92CF92DF92EF92FF920F93E1
:1016C0001F93CF93DF93CDB7DEB7CA1BDB0B0FB6EB
:1016D000F894DEBF0FBECDBF09942A8839884888A8
:1016E0005F846E847D848C849B84AA84B984C8843E
:1016F000DF80EE80FD800C811B81AA81B981CE0F35
:10170000D11D0FB6F894DEBF0FBECDBFED01089519
:10171000A29FB001B39FC001A39F700D811D112432
:10172000911DB29F700D811D1124911D0895F89493
:02173000FFCFE9
:10173200000037048000000000004201BE000B01DF
:10174200E900FD008901454550524F4D20777269ED
:10175200746520000D0A004147434E41434B00414E
:10176200474341434B006166746572676C6F772033
:101772007600202863292032303138206D6F726262
:10178200696420636F726E666C616B6573002D2DE8
:101792002D2D2D2D2D2D2D2D2D2D2D2D2D2D2D2D77
:1017A2002D2D2D2D2D2D2D2D2D2D2D2D2D2D2D2D67
:1017B2002D2D2D2D2D2D2D2D2D2D2D2D2D00414756
:1017C2005600414743500041474344004147435379
:0617D200004147445200F3
:00000001FF
