:100000000C9435000C945D000C945D000C945D0024
:100010000C945D000C945D000C945D000C945D00EC
:100020000C945D000C945D000C945D000C947D04B8
:100030000C945D000C945D000C945D000C945D00CC
:100040000C944A070C945D000C9492070C94BF0723
:100050000C945D000C945D000C945D000C945D00AC
:100060000C945D000C945D00E50711241FBECFEFDA
:10007000D8E0DEBFCDBF11E0A0E0B1E0E0E8FAE1FA
:1000800002C005900D92A63CB107D9F724E0A6EC7A
:10009000B1E001C01D92A835B207E1F710E0C5E359
:1000A000D0E004C02197FE010E94D30AC433D107D7
:1000B000C9F70E9412080C943E0D0C940000109297
:1000C0008000109281001A9916C080E49FE19093FD
:1000D00089008093880080918100886080938100EE
:1000E0008091810081608093810080916F008260A7
:1000F00080936F00089580EA9FE0E9CF9BB19F73E2
:100100009BB9962F20E130E040E050E85E98BC01BA
:1001100064237523672B59F05D9A5E9A569547952F
:100120002150310999F75E985F9A419808955D983A
:10013000F4CF2F923F924F925F926F927F928F9265
:100140009F92AF92BF92CF92DF92EF92FF920F9366
:100150001F93CF93DF9300D000D000D0CDB7DEB790
:100160002AE033E03A8329830EE712E09CE4E92E8B
:1001700093E0F92E20ED822E27E0922EA12CB12CB7
:100180001801280130E4430E511C89819A819E8315
:100190008D8367013C0198E0690E711CF101A1910A
:1001A0001F01FAE0AF9FD00111242FEF3FEF10970E
:1001B000B9F028EE33E00E94CC0A69837A838B83FE
:1001C0009C83A50194010E94AA0A6FEF7FEF80E053
:1001D00090E00E94AA0A83E0220F331F8A95E1F77C
:1001E000F60121933193D2018D912D011A9B8695B1
:1001F0002D813E81D9018D93BA83A983A615B705B8
:1002000029F5B0E1EB0EF11C7A826982085F1F4F7D
:10021000F301EA54F34009F0B3CF26960FB6F894F1
:10022000DEBF0FBECDBFDF91CF911F910F91FF9029
:10023000EF90DF90CF90BF90AF909F908F907F9086
:100240006F905F904F903F902F900895A981BA8151
:10025000BE83AD836F01A2CFCF93DF9300D000D0D8
:10026000CDB7DEB73FB7F8948091D4019091D50116
:10027000A091D601B091D70126B5A89B05C02F3F0C
:1002800019F00196A11DB11D3FBFBA2FA92F982FBC
:100290008827820F911DA11DB11D9C01AD0162E057
:1002A000220F331F441F551F6A95D1F7CA01B901A8
:1002B0000F900F900F900F90DF91CF9108958F9234
:1002C0009F92AF92BF92CF92DF92EF92FF92CF9325
:1002D000DF9300D000D0CDB7DEB74B015C010E94A8
:1002E0002C016B017C010E942C01DC01CB018C19DB
:1002F0009D09AE09BF09883E9340A105B10598F359
:1003000021E0821A9108A108B10888EEC80E83E0A6
:10031000D81EE11CF11C81149104A104B10419F749
:100320000F900F900F900F90DF91CF91FF90EF9073
:10033000DF90CF90BF90AF909F908F900895FC0179
:10034000848DDF01A80FB11DA35ABF4F2C91848D5E
:1003500090E001968F739927848FA689B7892C9393
:10036000A089B1898C91837080648C93938D848DE6
:10037000981306C00288F389E02D80818F7D8083E9
:100380000895FC01818D228D90E0805C9F4F821B3F
:1003900091098F73992708958DED91E00E94C10115
:1003A0009C0181E0232B09F480E0089580E090E037
:1003B000892B29F00E94CC0181110C940000089532
:1003C000FC01918D828D981731F0828DE80FF11D1F
:1003D000858D90E008958FEF9FEF0895FC01918D3A
:1003E000828D981761F0828DDF01A80FB11D5D9697
:1003F0008C91928D9F5F9F73928F90E008958FEF05
:100400009FEF0895FC01538D448D252F30E0842FFC
:1004100090E0821B930B541710F0CF96089501972C
:100420000895CF93DF93EC01888D8823B9F0AA89D2
:10043000BB89E889F9898C9185FD03C0808186FD9F
:100440000DC00FB607FCF7CF8C9185FFF2CF8081EE
:1004500085FFEDCFCE010E949F01E9CFDF91CF91C3
:100460000895EF92FF920F931F93CF93DF93EC01C8
:10047000F62E81E0888F9B8D8C8D98131AC0E889A9
:10048000F989808185FF15C09FB7F894EE89FF89AF
:100490006083E889F98980818370806480839FBF4D
:1004A00081E090E0DF91CF911F910F91FF90EF904D
:1004B00008950B8D10E00F5F1F4F0F731127E02E73
:1004C0008C8D8E110CC00FB607FCFACFE889F98924
:1004D000808185FFF5CFCE010E949F01F1CF8B8DEA
:1004E000FE01E80FF11DE35AFF4FF0829FB7F89429
:1004F0000B8FEA89FB8980818062D0CFCF92DF9217
:10050000EF92FF920F931F93CF93DF937C016A01C9
:1005100010E000E00C151D0581F0EB01D701ED9115
:10052000FC910190F081E02D6991C7010995892B1B
:1005300021F00F5F1F4FBE01EDCFC801DF91CF91BA
:100540001F910F91FF90EF90DF90CF9008954F9201
:100550005F926F927F928F929F92AF92BF92CF9253
:10056000DF92EF92FF92FC01AC014C575F4FCC241D
:10057000CA94DC2C7601E417F507D1F1419028E00C
:1005800030E0A0E88A2E912CA12CB12C512C712C9A
:10059000612CD301C20188219921AA21BB21892B79
:1005A0008A2B8B2BF1F4D701C6018827B7FD8395E1
:1005B0009927AA27BB27CC0CDD1CEE1CFF1C882327
:1005C00041F087EBC8268DE1D82681ECE82684E04F
:1005D000F826B694A7949794879421503109C9F6C8
:1005E000CACFD701C60180959095A095B095DDCF73
:1005F000C701B601FF90EF90DF90CF90BF90AF9012
:100600009F908F907F906F905F904F900895CF93C1
:10061000DF93ECE7F2E086E8DF011D928A95E9F7C7
:1006200081E090E090937B0280937A02CEEBD2E05F
:1006300048E050E06EE070E0CE01805491090E94E5
:10064000D90A48E050E067E070E0CE010E94D90A84
:100650002896B2E0CE3FDB0759F78AE792E00E9486
:10066000A7026093FE027093FF02809300039093B1
:100670000103DF91CF910895BC01009761F0FC0167
:1006800001900020E9F73197AF01481B590B8DED20
:1006900091E00C947E0208950C943C034F925F927B
:1006A0006F927F928F929F92AF92BF92CF92DF9282
:1006B000EF92FF920F931F93CF93DF93CDB7DEB7E7
:1006C000A1970FB6F894DEBF0FBECDBF762E672E72
:1006D000582E492E19A2423008F44AE08E010F5DCF
:1006E0001F4FC42ED12CF12CE12C672D762D852D9A
:1006F000942DA70196010E94AA0A872C962CA52C5E
:10070000B42C722E632E542E452E6A301CF5605D7B
:10071000F80162938F018C149D04AE04BF0428F786
:10072000CF010E943C03A1960FB6F894DEBF0FBE26
:10073000CDBFDF91CF911F910F91FF90EF90DF9090
:10074000CF90BF90AF909F908F907F906F905F9071
:100750004F900895695CDCCF0F931F93CF93DF9385
:10076000D0E0C0E00AE712E0F80160810F5F1F4FA0
:10077000CE010E94EA0C2196C838D105A9F788E17C
:1007800091E00E944C034AE068E870E080E090E06D
:100790000E944E0386E291E0DF91CF911F910F916D
:1007A0000C943C03CF93DF9300D000D0CDB7DEB7DD
:1007B00069837A838B839C8389819A81AB81BC8195
:1007C000B7FF1FC06DE28DED91E00E94310289817B
:1007D0009A81AB81BC81B095A095909581959F4FF2
:1007E000AF4FBF4F89839A83AB83BC834AE0BC0180
:1007F000CD010F900F900F900F90DF91CF910C943F
:100800004E034AE069817A818B819C81F2CF0E94FC
:100810003C0386E291E00C943C03BC01809106030A
:1008200090910703892B39F481E0FB019081992392
:1008300061F080E00AC080910203909103030E945E
:10084000D20C9C0181E0232BA1F70895CF93DF9375
:10085000EC018091020390910303009759F02091DD
:100860000403309105032C173D0720F081E0DF9150
:10087000CF910895BE016F5F7F4F0E94080CFC016D
:1008800080E03097A1F3F0930303E0930203D09349
:100890000503C09304038091060390910703892BFD
:1008A00029F71082E3CFCF93DF93D82FC92F0E946F
:1008B0002604282F8091020390910303211113C075
:1008C000009711F00E94760B10920303109202031E
:1008D000109207031092060310920503109204036E
:1008E000DF91CF910895D0930603C093070368E288
:1008F00071E0DF91CF910C94DB0C1F920F920FB639
:100900000F9211242F923F924F925F926F927F929B
:100910008F929F92AF92BF92CF92DF92EF92FF920F
:100920000F931F932F933F934F935F936F937F93F7
:100930008F939F93AF93BF93EF93FF93CF93DF93E7
:10094000CDB7DEB72A97DEBFCDBF809084009090F0
:1009500085009E828D828091500490915104A091D7
:100960005204B09153040196A11DB11D809350040F
:1009700090935104A0935204B0935304A8951B99EB
:100980009AC090904F049F8280904E0489828091FB
:100990000903981204C080910803881551F06981F9
:1009A0008F810E947E009F809092090389808092AF
:1009B000080380E480937C0080917A0080648093B7
:1009C0007A0080917A0086FDFCCF8091780080913A
:1009D00079008BB1877E8BB95C9A80E12EE030E0A4
:1009E000220F331F5B9899B192FB002700F910E0AA
:1009F000202B312B5B9A815099F783B1082F01701E
:100A00000F8380FD15C12091500430915104409115
:100A100052045091530429833A834B835C831A9B7D
:100A2000C2C0DA01C90173E0B695A795979587957D
:100A30007A95D1F7082F0770088701E010E0088445
:100A400002C0000F111F0A94E2F7199B91C11A9B73
:100A5000B9C069817A818B819C8120E03DE740E0CB
:100A600050E00E94AA0AF22E1A9BB5C069817A81D1
:100A70008B819C8120ED37E040E050E00E94AA0A83
:100A80008F2D67E00E949E0A943009F45BC108F044
:100A9000ABC02770923009F43FC1933009F446C1CE
:100AA000913009F4B9C031E039838884281509F4FC
:100AB00039C1198237C160E080E00E947E00C09099
:100AC0005004D0905104E0905204F0905304B701C8
:100AD000A601477055276627772733E0F694E794F9
:100AE000D794C7943A95D1F71A9B4FC027E0C222FA
:100AF000DD24EE24FF2481E090E0042E01C0880F65
:100B00000A94EAF7DA0193E0AA0FBB1F9A95E1F77E
:100B1000A65FBC4FFA0124E0EE0FFF1F2A95E1F714
:100B2000E453FC4F9F01205F3F4FB12CB69441919D
:100B300051914115510509F170E060E01A9B2BC0FD
:100B40000DE075956795579547950A95D1F76C9186
:100B5000862E912C9A8289824815590510F45A8361
:100B6000498389809A80A40170E060E04C155D059E
:100B70006E057F0510F06894B7F811962E173F07A1
:100B8000A9F66B2D0E947E0014CF33E0C322DD2432
:100B9000EE24FF24B0CF1EE07595679557954795D5
:100BA0001A95D1F7D4CF89819A81AB81BC8162E05B
:100BB000B695A795979587956A95D1F7182F1770D1
:100BC00018873BCF69817A818B819C8120E83EE345
:100BD00040E050E046CF69817A818B819C8128EE8C
:100BE00033E040E050E04ACF953009F0AFC0C90192
:100BF0008884882580FD17C0CA01B90123E030E050
:100C000040E050E00E94AA0A2AEA672B682B692B71
:100C100009F09AC025E598C08824839401C0880C07
:100C20002A95EAF78F828F808094482D502F9A0161
:100C3000832F9927E82F20958031910509F4B6C0BC
:100C400008F0A2C08430910509F4B5C008F092C044
:100C50008130910509F4B4C041E050E060E070E0FB
:100C60008230910509F48EC048E050E060E070E009
:100C700030E0F0914B03EF1759F0F0914F04EF1370
:100C800005C0E0914E042E1709F4A3C010924A0348
:100C900080934F0420934E048091840090918500AE
:100CA0008D809E808819990920914C0430914D04C3
:100CB0002817390740F480380EE3900720F490930A
:100CC0004D0480934C042A960FB6F894DEBF0FBEF5
:100CD000CDBFDF91CF91FF91EF91BF91AF919F91E8
:100CE0008F917F916F915F914F913F912F911F91C4
:100CF0000F91FF90EF90DF90CF90BF90AF909F90BB
:100D00008F907F906F905F904F903F902F900F90BB
:100D10000FBE0F901F90189531E0398388842815F5
:100D200009F4C7CE998091949F827DCF41E050E035
:100D300002C0440F551F2A95E2F75A834983409514
:100D40004F8371CF217021952F836DCF220F220FFA
:100D5000822F86958695869587708884881263CFC2
:100D600024709924939401C0990C2A95EAF7DCCF5A
:100D70001F8259CF43E050E060E070E08830910579
:100D800009F072CF31E075CF80349105E9F047E08A
:100D900050E060E070E080389105A1F345E050E05C
:100DA00060E070E08032910569F35ECF44E050E08E
:100DB00060E070E0E7CF42E050E060E070E0E2CF5A
:100DC00040E050E0BA01DECF46E050E060E070E085
:100DD000D9CFE0914A03EF3F19F0EF5FE0934A0368
:100DE00080934B03332309F453CF483051056105F9
:100DF000710509F44DCFFA0194E0EE0FFF1F9A95AB
:100E0000E1F7DF01A45BBC4FBF0164537C4F7A87DD
:100E100069871D0170E1270E311C322F88248A94C6
:100E2000982CA12CB12C6D917D91E985FA85419189
:100E30005191FA87E9873297FA83E98330FF1BC023
:100E40006A01F12CE12C24013501461A570A610888
:100E50007108460F571FC414D504E604F70494F034
:100E60000FEF1FEFE981FA811183008336952A166F
:100E70003B06C9F60DCF6417750738F4461B570BB0
:100E8000E981FA8151834083F1CFE981FA811182AE
:100E90001082ECCF1F921FB61F9211242F933F9305
:100EA0008F939F93AF93BF938091D9019091DA0173
:100EB000A091DB01B091DC013091D80123E0230F38
:100EC0002D3750F50196A11DB11D2093D8018093B7
:100ED000D9019093DA01A093DB01B093DC018091FA
:100EE000D4019091D501A091D601B091D70101967E
:100EF000A11DB11D8093D4019093D501A093D6017B
:100F0000B093D701BF91AF919F918F913F912F9156
:100F10001F901FBE1F90189526E8230F0296A11D53
:100F2000B11DD3CF2F932FB72F938F939F93EF9311
:100F3000FF93E091ED01F091EE018081E091F301EA
:100F4000F091F40182FD19C090818091F6018F5FCC
:100F50008F732091F701821741F0E091F601F0E0E4
:100F6000E352FE4F958F8093F601FF91EF919F9191
:100F70008F912F912FBF2F9118958081F6CF1F92BF
:100F80000F920FB60F9211242F933F934F935F93BD
:100F90006F937F938F939F93AF93BF93EF93FF9341
:100FA0008DED91E00E949F01FF91EF91BF91AF9174
:100FB0009F918F917F916F915F914F913F912F9171
:100FC0000F900FBE0F901F901895EDEDF1E013827A
:100FD000128288EE93E0A0E0B0E084839583A6833C
:100FE000B7838AE091E09183808385EC90E09587D8
:100FF000848784EC90E09787868780EC90E0918BE3
:10100000808B81EC90E0938B828B82EC90E0958BCF
:10101000848B86EC90E0978B868B118E128E138ECC
:10102000148E0895CDB7DEB7CC58D1090FB6F89419
:10103000DEBF0FBECDBF789484B5826084BD84B519
:10104000816084BD85B5826085BD85B5816085BDC3
:1010500080916E00816080936E001092810080917B
:101060008100826080938100809181008160809303
:101070008100809180008160809380008091B10028
:1010800084608093B1008091B00081608093B00053
:1010900080917A00846080937A0080917A008260E7
:1010A00080937A0080917A00816080937A008091A9
:1010B0007A00806880937A001092C100F8940E94B0
:1010C0005F0089EF8AB980E284B985B18F6085B904
:1010D00086E087B9419A80917A00846080937A0093
:1010E00080917A008D7F80937A0080917A008E7F44
:1010F00080937A00ECECF3E080E8DF011D928A95A2
:10110000E9F75AE7E52E52E0F52E10E000E0C801BD
:101110000E94E20CF70181937F010F5F1F4F083897
:101120001105A9F780917A0290917B02019709F548
:101130008AE792E00E94A702C757DF4F688379834E
:101140008A839B83C958D0408091FE029091FF0210
:10115000A0910003B0910103C757DF4F2881398167
:101160004A815B81C958D040281739074A075B0775
:1011700021F00E9407030E94AC030E949900E091B5
:10118000ED01F091EE0182E08083E091E901F091C0
:10119000EA011082E091EB01F091EC0180E18083A3
:1011A0001092F501E091F101F091F20186E0808367
:1011B000E091EF01F091F001808180618083E09106
:1011C000EF01F091F001808188608083E091EF0170
:1011D000F091F001808180688083E091EF01F091CF
:1011E000F00180818F7D80838BE491E00E944C032D
:1011F0006BE670E080E090E00E94D20387E591E02A
:101200000E94070419E0E2E0F0E010935700149107
:1012100083E791E00E940704177083EA91E00E943F
:101220004C038EE291E0173051F082E391E01430EC
:1012300031F087E391E0153011F489E291E00E94EA
:101240000704789488E198E00FB6F894A895809305
:1012500060000FBE9093600083B18093C701CE0100
:101260000196D82EC92E23E431E08CE391E040E0D2
:10127000A42E40E0B42E722E632E582E492E332415
:10128000339488E0282E8091D0019091D101A091D3
:10129000D201B091D3010196A11DB11D8093D0015F
:1012A0009093D101A093D201B093D3018091C80152
:1012B000811112C0109203031092020310920503D1
:1012C00010920403109207031092060390E080E04E
:1012D0000E9453043092C8018DED91E00E94C1013B
:1012E0009C019091C601232B49F1911129C08DEDEC
:1012F00091E00E94EE018A3309F472C089831A8258
:1013000000910603109107030F5F1F4FC8010E9451
:101310002604882309F3209102033091030380916E
:101320000603909107036D2D7C2D820F931F0E9461
:10133000DB0C1093070300930603CECF992349F1EA
:101340008EEA91E00E940D04882309F44CC08EEAD5
:1013500091E00E944C038CEA91E00E944C036BE602
:1013600070E080E090E00E94D2038CEA91E00E945D
:101370004C0361E070E080E090E00E94D20386E2DE
:1013800091E00E943C0390E080E00E9453041092A0
:10139000C60183B19091C701892782FF0FC0F894DD
:1013A0000E945F0010925004109251041092520457
:1013B0001092530483B18093C701789464EF71E075
:1013C00080E090E00E945F01A114B10409F45BCFBA
:1013D0000E94CC01882309F454CF0E94000051CF11
:1013E0003092C60179CF82EB91E00E940D048823F0
:1013F00049F048E850E06AE772E08DED91E00E9424
:101400007E02C1CF87EB91E00E940D04882339F062
:101410000E940703852D942D0E944C03B4CF8CEBC2
:1014200091E00E940D04882309F4ADCF0FB6F89423
:10143000A8958091600088618093600010926000A0
:101440000FBE80916F008D7F80936F00419A0D2DAC
:101450001C2DF12CE12C81EC91E00E944C0368ECF6
:1014600070E080E090E00E945F01480140E2840E5D
:10147000911C8DED91E00E94C101892B91F08016A5
:10148000910679F058E8E516F10478F48DED91E0D5
:101490000E94EE01F80181938FEFE81AF80A8F019C
:1014A000E8CF38E8E316F104B0F2A8E8EA16F10450
:1014B00009F041C08D2D9C2D0E94A702C757DF4F18
:1014C000688379838A839B83C958D040CB57DF4F89
:1014D00088819981AA81BB81C558D040C757DF4F09
:1014E000288139814A815B81C958D0402817390742
:1014F0004A075B0701F588E8ED2DFC2DAAE7B2E06D
:1015000001900D928A95E1F70E9499000E94AC0328
:10151000852D942D0E944C0380916F0082608093F2
:101520006F0038E10FB6F894A895309360000FBEB5
:101530002092600028CF872D962DECCF991B79E063
:1015400004C0991F961708F0961B881F7A95C9F753
:1015500080950895A1E21A2EAA1BBB1BFD010DC0A8
:10156000AA1FBB1FEE1FFF1FA217B307E407F50753
:1015700020F0A21BB30BE40BF50B661F771F881F2F
:10158000991F1A9469F760957095809590959B01C5
:10159000AC01BD01CF0108950E942F0DB7FF089542
:1015A000821B930B0895EE0FFF1F0590F491E02D21
:1015B0000994DC0101C06D9341505040E0F708955B
:1015C0000F931F93CF93DF939C01029710F422E0B7
:1015D00030E0E0915404F091550490E080E0B0E0F8
:1015E000A0E0309791F4009709F445C0821B930B5B
:1015F00084309105B8F58A819B816115710569F187
:10160000FB0193838283FE0111C0408151810281DD
:10161000138142175307F0F04217530799F41097BC
:1016200061F012960C93129713961C933296CF0189
:10163000DF91CF911F910F9108950093540410935F
:101640005504F4CF009719F04817590718F4CA0148
:10165000BD01EF01DF01F801C4CF909355048093E1
:101660005404D1CFFE01E80FF91F21933193029763
:1016700099838883DCCF8091560490915704892BFD
:1016800041F480910201909103019093570480935B
:1016900056048091000190910101009741F48DB7AB
:1016A0009EB74091040150910501841B950B409118
:1016B0005604509157044817590708F0B8CF841BB7
:1016C000950B8217930708F4B2CFB9016E5F7F4F75
:1016D0008617970708F4ABCF640F751F70935704F4
:1016E00060935604FA0121933193A1CFCF93DF93F6
:1016F0009C010097E9F0FC01329713821282C0919D
:101700005404D0915504DE0190E080E02097A1F4CC
:1017100080819181280F391F809156049091570440
:101720008217930709F067C0F0935704E0935604BB
:10173000DF91CF910895DA01AE17BF0708F041C0DD
:1017400012964D915C911397CD014115510599F772
:10175000DC011396FC93EE9312974D915D91A40FCB
:10176000B51FEA17FB0781F4208131812E5F3F4FBF
:10177000240F351FDC0111963C932E932281338177
:1017800013963C932E931297B0E0A0E08A819B8140
:101790000097B1F5FE0181919191E80FF91F8091B9
:1017A0005604909157048E179F0711F6109759F51C
:1017B0001092550410925404D0935704C0935604C9
:1017C000B7CFB383A28340815181240F351FA21765
:1017D000B30771F44E5F5F4F2D913C911197420F0B
:1017E000531F5183408312962D913C913383228362
:1017F000009709F0ADCFF0935504E093540498CFCF
:10180000DE01EC01C3CF13961C921E921297D4CF27
:10181000B0E0A0E0EEE0FCE00C94FA0C8C01CB010F
:101820000115110549F40E94E00A8C01C801CDB7E9
:10183000DEB7E0E10C94160DF801E60FF71F9801F2
:1018400022503109E217F30708F4A0C0D901CD9165
:10185000DC911197C617D707A0F0C530D10530F33A
:10186000AE01445051094617570700F3C61BD70B6A
:101870002297C193D1936D937C93CF010E94760BF5
:10188000D5CF4B018C1A9D0A5801AC0EBD1EA091FC
:101890005404B0915504512C412CF12CE12C10979B
:1018A00039F540915604509157044A155B0509F0EB
:1018B0005FC04816590608F05BC040910001509186
:1018C00001014115510541F44DB75EB76091040126
:1018D00070910501461B570BE417F50708F056C039
:1018E000F0935704E0935604F901918380839ECFCF
:1018F0004D915C91119712966C90129713967C9073
:101900001397AA15BB0569F56A0162E0C60ED11CE2
:10191000C814D90430F1BE01681B790B640F751F20
:10192000DB011296159780F0628273827183608367
:10193000D9018D939C93E114F10471F0D7011396B2
:10194000FC93EE93129772CF22964C0F5D1FF90114
:1019500051834083F301EFCFF0935504E093540497
:1019600065CF4416550608F42A017D01D30197CFAF
:101970000E94E00A7C01009749F0AE01B8010E9484
:10198000C90CC8010E94760B870150CF10E000E01F
:101990004DCFFB01DC0102C001900D92415050403F
:1019A000D8F70895FB01DC018D9101908019011099
:1019B000D9F3990B0895FB01DC0101900D920020F1
:1019C000E1F70895F999FECF92BD81BDF89A992764
:1019D00080B50895262FF999FECF1FBA92BD81BD1B
:1019E00020BD0FB6F894FA9AF99A0FBE01960895A1
:1019F0002F923F924F925F926F927F928F929F921F
:101A0000AF92BF92CF92DF92EF92FF920F931F930C
:101A1000CF93DF93CDB7DEB7CA1BDB0B0FB6F894BD
:101A2000DEBF0FBECDBF09942A88398848885F84FD
:101A30006E847D848C849B84AA84B984C884DF806E
:101A4000EE80FD800C811B81AA81B981CE0FD11D52
:101A50000FB6F894DEBF0FBECDBFED010895A29F73
:101A6000B001B39FC001A39F700D811D1124911D72
:101A7000B29F700D811D1124911D0895F894FFCF20
:101A80000000580420000000000031027E02020223
:101A90001102C101EE01E001454550524F4D207742
:101AA0007269746520000D0A00322E3756004F46C9
:101AB0004600342E335600312E38560041474341FC
:101AC000434B004147434E41434B0061667465728E
:101AD000676C6F77207600202863292032303138F8
:101AE000206D6F7262696420636F726E666C616BE9
:101AF0006573002D2D2D2D2D2D2D2D2D2D2D2D2DC5
:101B00002D2D2D2D2D2D2D2D2D2D2D2D2D2D2D2D05
:101B10002D2D2D2D2D2D2D2D2D2D2D2D2D2D2D2DF5
:101B20002D2D00656675736520424F4420004147A6
:101B30005600414743500041474344004147435307
:061B400000414744520081
:00000001FF
