:100000000C9435000C945D000C945D000C945D0024
:100010000C945D000C945D000C945D000C945D00EC
:100020000C945D000C945D000C945D000C94B50480
:100030000C945D000C9456070C945D000C945D00CC
:100040000C946B040C945D000C9439040C94130410
:100050000C945D000C945D000C945D000C945D00AC
:100060000C945D000C945D00140A11241FBECFEFA8
:10007000D8E0DEBFCDBF24E0A6ECB1E001C01D9208
:10008000AA35B207E1F711E0A0E0B1E0EAEAF9E150
:1000900002C005900D92A63CB107D9F710E0C5E368
:1000A000D0E004C02197FE010E94D20AC433D107D8
:1000B000C9F70E946D070C94D30C0C9400004F926A
:1000C0005F926F927F928F929F92AF92BF92CF92E8
:1000D000DF92EF92FF92FC01EC57FF4FCC24CA94C1
:1000E000DC2C76018E179F07E1F1DC014D90CD01EC
:1000F00028E030E040E8842E912CA12CB12C512C2A
:10010000712C612CB301A201482159216A217B2164
:10011000452B462B472BF1F4B701A601442777FD69
:100120004395552766277727CC0CDD1CEE1CFF1C5A
:10013000442341F0B7EBCB26BDE1DB26B1ECEB2647
:10014000B4E0FB26B694A794979487942150310984
:10015000C9F6C8CFB701A601409550956095709536
:10016000DDCFC701B601FF90EF90DF90CF90BF9039
:10017000AF909F908F907F906F905F904F90089579
:10018000AF92BF92CF92DF92EF92FF920F931F93A5
:10019000CF93DF936C017B018B01040F151FEB01E3
:1001A0005E01AE18BF08C017D10759F06991D6019A
:1001B000ED91FC910190F081E02DC6010995892B0C
:1001C00079F7C501DF91CF911F910F91FF90EF90CB
:1001D000DF90CF90BF90AF900895FC01538D448D78
:1001E000252F30E0842F90E0821B930B541710F0E2
:1001F000CF96089501970895FC01918D828D9817EF
:1002000061F0A28DAE0FBF2FB11D5D968C91928DC6
:100210009F5F9F73928F90E008958FEF9FEF0895F7
:10022000FC01918D828D981731F0828DE80FF11DC0
:10023000858D90E008958FEF9FEF0895FC01918DDB
:10024000228D892F90E0805C9F4F821B91098F73D4
:100250009927089589EB93E00E941E0121E0892BE4
:1002600009F420E0822F089580E090E0892B29F0A6
:100270000E942A0181110C9400000895FC01A48DB4
:10028000A80FB92FB11DA35ABF4F2C91848D90E0B8
:1002900001968F739927848FA689B7892C93A0899B
:1002A000B1898C91837080648C93938D848D981325
:1002B00006C00288F389E02D80818F7D80830895B8
:1002C000EF92FF920F931F93CF93DF93EC0181E0A6
:1002D000888F9B8D8C8D98131AC0E889F98980814D
:1002E00085FF15C09FB7F894EE89FF896083E88980
:1002F000F98980818370806480839FBF81E090E072
:10030000DF91CF911F910F91FF90EF900895F62EFE
:100310000B8D10E00F5F1F4F0F731127E02E8C8D98
:100320008E110CC00FB607FCFACFE889F9898081DD
:1003300085FFF5CFCE010E943E01F1CFEB8DEC0F92
:10034000FD2FF11DE35AFF4FF0829FB7F8940B8FFA
:10035000EA89FB8980818062CFCFCF93DF93EC0164
:10036000888D8823B9F0AA89BB89E889F9898C919D
:1003700085FD03C0808186FD0DC00FB607FCF7CF59
:100380008C9185FFF2CF808185FFEDCFCE010E9459
:100390003E01E9CFDF91CF9108953FB7F894809166
:1003A000950290919602A0919702B091980226B57D
:1003B000A89B05C02F3F19F00196A11DB11D3FBF9D
:1003C000BA2FA92F982F8827BC01CD01620F711D6C
:1003D000811D911D42E0660F771F881F991F4A9566
:1003E000D1F708958F929F92AF92BF92CF92DF92F2
:1003F000EF92FF924B015C010E94CD016B017C01E9
:100400000E94CD016C197D098E099F09683E7340D9
:1004100081059105A8F321E0821A9108A108B1088D
:1004200088EEC80E83E0D81EE11CF11C81149104F3
:10043000A104B10429F7FF90EF90DF90CF90BF9017
:10044000AF909F908F9008952F923F924F925F921E
:100450006F927F928F929F92AF92BF92CF92DF92D4
:10046000EF92FF920F931F93CF93DF9300D000D0B2
:1004700000D0CDB7DEB71E821D8200E112E090ED04
:10048000892E97E0992EA12CB12C44244A94542C07
:10049000612C712C8D819E81835E9C4F7C01ED814E
:1004A000FE81E053FE4FFA83E98368018D819E81CE
:1004B000835A9C4F1C01ED81FE81EB5DFC4FFC8358
:1004C000EB83F701A1917F01FAE0AF9FD0011124E6
:1004D0002FEF3FEF109789F028EE33E00E94CB0A10
:1004E000A50194010E94A90AC301B2010E94A90AB0
:1004F00083E0220F331F8A95E1F7F60121933193B0
:100500006F01F10181911F011A9B8695E981FA81A2
:100510008193FA83E9838B819C81E816F90689F639
:10052000005F1F4FED81FE813896FE83ED83E0343E
:10053000F10509F0AFCF26960FB6F894DEBF0FBED7
:10054000CDBFDF91CF911F910F91FF90EF90DF9082
:10055000CF90BF90AF909F908F907F906F905F9063
:100560004F903F902F9008959BB19F739BB9962F0A
:1005700020E130E040E050E85E98BC016423752340
:10058000672B59F05D9A5E9A56954795215031092F
:1005900099F75E985F9A419808955D98F4CF10920C
:1005A000810080918100886080938100809181002A
:1005B000816080938100109280001A990CC080E4C1
:1005C0009FE1909389008093880080916F00826002
:1005D00080936F00089580EA9FE0F3CFFC010190C3
:1005E0000020E9F73197AF01481B590BBC0189EB9B
:1005F00093E00C94C0008F929F92AF92BF920F93A2
:100600001F93CF93DF93CDB7DEB7A1970FB6F894C2
:10061000DEBF0FBECDBF19A2423008F44AE08E0102
:100620000F5D1F4F842E912CB12CA12CA50194019C
:100630000E94A90AE62FB901CA01EA30F4F4E05D8C
:10064000D801EE938D01232B242B252B79F790E0F5
:1006500080E0109719F0CD010E94EE02A1960FB62E
:10066000F894DEBF0FBECDBFDF91CF911F910F91E8
:10067000BF90AF909F908F900895E95CE1CFCF92AB
:10068000DF92EF92FF92CF93DF936B017C016DE2DB
:1006900089EB93E00E946001EC0166277727CB018C
:1006A0006C197D098E099F094AE00E94FB028C0F9C
:1006B0009D1FDF91CF91FF90EF90DF90CF90089535
:1006C0000C94EE02CF93DF930E94EE02EC0188E1DE
:1006D00091E00E94EE028C0F9D1FDF91CF91089553
:1006E000BC01990F880B990B4AE00C94FB02CF9345
:1006F000DF93EC018091B3039091B403009759F01C
:100700002091B5033091B6032C173D0720F081E00E
:10071000DF91CF910895BE016F5F7F4F0E94FD0B67
:10072000009789F09093B4038093B303D093B603FA
:10073000C093B5032091B7033091B803232B39F749
:10074000FC011082E4CF80E0E3CF2091B703309129
:10075000B803232B39F421E0FC018081882361F068
:1007600020E00AC0BC018091B3039091B4030E94C1
:10077000C30C21E0892BA1F7822F0895EBE1F3E070
:1007800086E8DF011D928A95E9F781E090E0909379
:100790001A038093190390E080E02EE037E0FC011B
:1007A000E35EFC4FDC01A35ABC4FAC014B5D5C4FD8
:1007B00021933D93E417F507D9F708968034910506
:1007C00071F789E193E00E945F0060939D0370934D
:1007D0009E0380939F039093A00308950F931F930C
:1007E000CF93DF9309E113E0D0E0C0E0F80161911D
:1007F0008F01CE010E94490A2196C838D105B1F770
:100800008BE191E00E9460034AE068E870E080E0DC
:1008100090E00E94FB0288E191E0DF91CF911F916F
:100820000F910C94EE021F920F920FB60F921124AB
:100830002F933F934F935F936F937F938F939F93E8
:10084000AF93BF93EF93FF9389EB93E00E943E0138
:10085000FF91EF91BF91AF919F918F917F916F9198
:100860005F914F913F912F910F900FBE0F901F906E
:1008700018951F920F920FB60F9211242F938F93FA
:100880009F93EF93FF93E091C903F091CA03808196
:10089000E091CF03F091D00382FD1BC09081809145
:1008A000D2038F5F8F732091D303821741F0E091C1
:1008B000D203F0E0E754FC4F958F8093D203FF9171
:1008C000EF919F918F912F910F900FBE0F901F90DE
:1008D00018958081F4CF1F920F920FB60F921124BA
:1008E0002F933F938F939F93AF93BF9380919102E8
:1008F00090919202A0919302B09194023091900253
:1009000023E0230F2D3758F50196A11DB11D20932B
:1009100090028093910290939202A0939302B093DD
:1009200094028091950290919602A0919702B091C5
:1009300098020196A11DB11D809395029093960295
:10094000A0939702B0939802BF91AF919F918F911E
:100950003F912F910F900FBE0F901F90189526E892
:10096000230F0296A11DB11DD2CF1F920F920FB679
:100970000F9211242F923F924F925F926F927F922B
:100980008F929F92AF92BF92CF92DF92EF92FF929F
:100990000F931F932F933F934F935F936F937F9387
:1009A0008F939F93AF93BF93EF93FF93CF93DF9377
:1009B00000D000D0CDB7DEB7209184003091850003
:1009C0003A8329838091A1039091A203A091A3036C
:1009D000B091A4030196A11DB11D8093A103909332
:1009E000A203A093A303B093A403A8951B998CC062
:1009F0000091CF011091CE018091C901081304C06C
:100A00008091C801811741F0612F802F0E94B402AC
:100A10000093C9011093C80180E480937C00809109
:100A20007A00806480937A0080917A0086FDFCCF02
:100A300080917800809179008BB1877E8BB95C9A28
:100A400080E12EE030E0220F331F5B9899B192FBDA
:100A5000992790F99B831C824B815C81242B352B39
:100A60005B9A815081F7189905C1C090A103D0907D
:100A7000A203E090A303F090A403D701C6011A9B40
:100A8000B9C073E0B695A795979587957A95D1F7F4
:100A9000182F177081E090E0012E02C0880F991F77
:100AA0000A94E2F79C838B83199B14C1C701B6019A
:100AB0001A9BA8C020E03DE740E050E00E94A90A50
:100AC000022FC701B6011A9BA2C020ED37E040E01B
:100AD00050E00E94A90A802F67E00E949D0A93308F
:100AE00009F4B9C008F098C0822F8770913009F4DA
:100AF000A6C0923009F4A9C0822F877021E0811727
:100B000009F4A7C020E0A5C060E080E00E94B40224
:100B10008090A1039090A203A090A303B090A4039F
:100B2000B501A401477055276627772763E0B6947F
:100B3000A794979487946A95D1F71A9B4DC037E094
:100B400083229924AA24BB2481E090E0042E01C0D2
:100B5000880F0A94EAF7DA0133E0AA0FBB1F3A952F
:100B6000E1F7A053BE4FFA0144E0EE0FFF1F4A9594
:100B7000E1F7E756FD4F7F0120E1E20EF11C60E056
:100B8000062F10E015950795602F219131912115C1
:100B90003105D9F050E040E01A9B24C09DE0559506
:100BA0004795379527959A95D1F74C9150E02417A2
:100BB000350708F4A9012A01712C612C4814590445
:100BC0006A047B0410F0602F60681196EE16FF0631
:100BD000B9F60E94B40220CF83E088229924AA2487
:100BE000BB24B2CF1EE055954795379527951A95AA
:100BF000D1F7DBCF62E0B695A795979587956A9573
:100C0000D1F746CF20E83EE340E050E057CF28EE52
:100C100033E040E050E05DCF953009F448C008F47F
:100C200041C0963009F068CF220F220F822F86959F
:100C300086958695877018134DC0822F847021E0A9
:100C400001C0220F8A95EAF711C021E0811709F44B
:100C500059CF21950BC0277081E090E0AC0102C014
:100C6000440F551F2A95E2F79A01209520958B8114
:100C70009C81382F832F9927E82F20958830910564
:100C800009F4DBC048F58230910509F4E5C08430F1
:100C9000910509F4CDC08130910561F540E050E047
:100CA000BA01C4C02170332744275527D2CFC901C8
:100CB000812780FD0FC0CA01B90123E030E040E088
:100CC00050E00E94A90A25E5672B682B692B71F279
:100CD0002AEACCCF20E0CACF8032910509F4B2C015
:100CE00008F099C044E050E060E070E08031910588
:100CF00009F49CC048E050E060E070E030E0F09122
:100D0000CB01EF13AEC0E0E0332309F442C0EE2381
:100D100009F43FC04830510561057105D1F1FA0170
:100D200034E0EE0FFF1F3A95E1F7DF01A756BD4F04
:100D3000E05FFD4F1D0130E1230E311C322F88246E
:100D40008A94982CA12CB12C61917191032F10E001
:100D50004D915C91119730FF9FC06A01F12CE12CFD
:100D600024013501461A570A61087108460F571FBA
:100D7000C414D504E604F70414F04FEF5FEF1196A6
:100D80005C934E93129615950795302FA215B305D7
:100D9000D9F68093CF012093CE0180918400909169
:100DA000850029813A81821B930B2091CC013091DF
:100DB000CD012817390740F480383EE3930720F42B
:100DC0009093CD018093CC010F900F900F900F90D6
:100DD000DF91CF91FF91EF91BF91AF919F918F9153
:100DE0007F916F915F914F913F912F911F910F9143
:100DF000FF90EF90DF90CF90BF90AF909F908F903B
:100E00007F906F905F904F903F902F900F900FBE0C
:100E10000F901F90189580349105C9F047E050E07D
:100E200060E070E08038910509F064CF31E067CF71
:100E300042E050E060E070E0F9CF43E050E060E075
:100E400070E0F4CF45E050E060E070E0EFCF46E0C6
:100E500050E060E070E0EACF41E050E060E070E038
:100E6000E5CFF091CF01EF1304C0E091CE012E1732
:100E700059F01092CA01E091CA01EE2309F443CF60
:100E80008093CB01E1E040CFE091CA01EF3F99F3BD
:100E9000EF5FE093CA01EFCF6417750718F4461BA4
:100EA000570B6DCF11961C921E926CCF1F920F9212
:100EB0000FB60F9211248F939F938091C60190914A
:100EC000C70101969093C7018093C6019F918F91AE
:100ED0000F900FBE0F901F901895CF93DF93CDB753
:100EE000DEB7C858D1090FB6F894DEBF0FBECDBF2C
:100EF000789484B5826084BD84B5816084BD85B5F5
:100F0000826085BD85B5816085BD80916E00816000
:100F100080936E00109281008091810082608093A6
:100F200081008091810081608093810080918000A8
:100F30008160809380008091B10084608093B100D3
:100F40008091B00081608093B00080917A008460CD
:100F500080937A0080917A00826080937A008091F9
:100F60007A00816080937A0080917A008068809313
:100F70007A001092C100F89489EF8AB980E284B9AE
:100F800085B18F6085B986E087B9419A80917A00F2
:100F9000846080937A0080917A008D7F80937A00BC
:100FA00080917A008E7F80937A00E9E9F2E080E810
:100FB000DF011D928A95E9F739E1E32E33E0F32E44
:100FC00010E000E0C8010E94410AF70181937F010F
:100FD0000F5F1F4F08381105A9F7809119039091F1
:100FE0001A03019789F489E193E00E945F00009160
:100FF0009D0310919E0320919F033091A0036017E1
:1010000071078207930721F00E94BE030E94EE033E
:101010000E942402E091C903F091CA0382E0808318
:10102000E091C503F091C6031082E091C703F091EF
:10103000C80380E180831092D103E091CD03F09149
:10104000CE0386E08083E091CB03F091CC038081D6
:1010500080618083E091CB03F091CC038081886034
:101060008083E091CB03F091CC0380818068808302
:10107000E091CB03F091CC0380818F7D80838BE462
:1010800091E00E9460038CE690E00E94700387E587
:1010900091E00E94620319E0E2E0F0E01093570053
:1010A000149183E791E00E946203177083EA91E054
:1010B0000E94600389E291E0173051F08DE291E0E7
:1010C000143031F082E391E0153011F087E391E0C4
:1010D0000E9462030E94CF02789488E198E00FB6E4
:1010E000F894A895809360000FBE9093600083B140
:1010F0008093A603CE0101967C0198E1692E20E041
:10110000A22E20E0B22E7724739488E0582E80918E
:10111000AF039091B003A091B103B091B2030196D7
:10112000A11DB11D8093AF039093B003A093B103B1
:10113000B093B2038091A70381112AC01092B40327
:101140001092B3031092B6031092B5031092B80335
:101150001092B70390E080E00E9477032091B303E0
:101160003091B403811144C02115310519F0C90132
:101170000E94740B1092B4031092B3031092B80340
:101180001092B7031092B6031092B5037092A703A2
:1011900089EB93E00E941E012091A503892B91F118
:1011A000211133C089EB93E00E94FC008A3309F4DB
:1011B00093C089831A820091B7031091B8030F5F1F
:1011C0001F4FC8010E947703882311F32091B303B6
:1011D0003091B4038091B7039091B803B701820FA7
:1011E000931F0E94CC0C1093B8030093B703D0CF89
:1011F0001092B8031092B7036AE171E0C9010E942E
:10120000CC0CC4CF222309F440C08EEA91E00E94A6
:10121000A503882309F463C08EEA91E00E9460036D
:101220008CEA91E00E9460038CE690E00E947003DB
:101230008CEA91E00E9460034AE061E070E080E0A7
:1012400090E00E94FB0288E191E00E94EE0290E0B3
:1012500080E00E9477032091B3033091B4038111A1
:10126000D9C02115310519F0C9010E94740B1092E3
:10127000B4031092B3031092B8031092B703109204
:10128000B6031092B5031092A50383B19091A60303
:10129000892782FF0FC0F8940E94CF021092A10309
:1012A0001092A2031092A3031092A40383B180931F
:1012B000A603789464EF71E080E090E00E94F20170
:1012C000A114B10409F423CF0E942A01882309F450
:1012D0001CCF0E94000019CF7092A50359CF82EB5A
:1012E00091E00E94A503882349F048E850E069E1B5
:1012F00073E089EB93E00E94C000A9CF87EB91E0F7
:101300000E94A503882339F00E94BE0384E491E083
:101310000E9460039CCF8CEB91E00E94A503882380
:1013200009F495CF0FB6F894A89580916000886174
:1013300080936000109260000FBE80916F008D7FDF
:1013400080936F00419A4E2C3F2CD12CC12C81EC04
:1013500091E00E94600368EC70E080E090E00E9401
:10136000F201042D132D4801A0E28A0E911C402E9B
:10137000312E89EB93E00E941E01892B91F0081514
:10138000190579F0B8E8CB16D10478F489EB93E02D
:101390000E94FC00F80181938F01FFEFCF1ADF0A52
:1013A000E6CF98E8C916D10490F288E8C816D104AF
:1013B00071F5C7010E945F00CB57DF4F088119818B
:1013C0002A813B81C558D040601771078207930777
:1013D000F1F488E8F701A9E1B3E001900D928A9554
:1013E000E1F70E9424020E94EE0384E491E00E944F
:1013F000600380916F00826080936F000FB6F89455
:10140000A895609260000FBE5092600020CF8CE3E0
:1014100091E0EDCF1092B8031092B7036AE171E04A
:10142000C9010E94CC0C2FCFE9EBF3E013821282AA
:1014300088EE93E0A0E0B0E084839583A683B78331
:101440008AE091E09183808385EC90E095878487A2
:1014500084EC90E09787868780EC90E0918B808B7E
:1014600081EC90E0938B828B82EC90E0958B848B67
:1014700086EC90E0978B868B118E128E138E148ED5
:101480000895F999FECF92BD81BDF89A992780B54C
:101490000895262FF999FECF1FBA92BD81BD20BDB8
:1014A0000FB6F894FA9AF99A0FBE019608952F9202
:1014B0003F924F925F926F927F928F929F92AF92E4
:1014C000BF92CF92DF92EF92FF920F931F93CF9331
:1014D000DF93CDB7DEB7CA1BDB0B0FB6F894DEBFC8
:1014E0000FBECDBF09942A88398848885F846E84EE
:1014F0007D848C849B84AA84B984C884DF80EE8038
:10150000FD800C811B81AA81B981CE0FD11D0FB640
:10151000F894DEBF0FBECDBFED010895A29FB001CC
:10152000B39FC001A39F700D811D1124911DB29F17
:10153000700D811D1124911D0895991B79E004C03F
:10154000991F961708F0961B881F7A95C9F7809502
:101550000895A1E21A2EAA1BBB1BFD010DC0AA1FF4
:10156000BB1FEE1FFF1FA217B307E407F50720F00C
:10157000A21BB30BE40BF50B661F771F881F991F87
:101580001A9469F760957095809590959B01AC01D0
:10159000BD01CF0108950E948E0AB7FF0895821BF6
:1015A000930B0895EE0FFF1F0590F491E02D099421
:1015B0000F931F93CF93DF938230910510F482E055
:1015C00090E0E0915804F091590430E020E0B0E060
:1015D000A0E0309799F42115310509F44AC0281B81
:1015E000390B24303105D8F58A819B81611571054D
:1015F00089F1FB0193838283FE0111C040815181F7
:101600000281138148175907E0F04817590799F4E8
:10161000109761F012960C93129713961C933296C2
:10162000CF01DF91CF911F910F910895009358043E
:1016300010935904F4CF2115310551F04217530787
:1016400038F0A901DB019A01BD01DF01F801C1CF2A
:10165000EF01F9CF9093590480935804CDCFFE0148
:10166000E20FF31F8193919322503109398328832C
:10167000D7CF2091560430915704232B41F4209169
:1016800002013091030130935704209356042091B6
:101690000001309101012115310541F42DB73EB70C
:1016A0004091040150910501241B350BE091560433
:1016B000F0915704E217F307A0F42E1B3F0B2817F5
:1016C000390778F0AC014E5F5F4F2417350748F0BB
:1016D0004E0F5F1F5093570440935604819391938C
:1016E0009FCFF0E0E0E09CCFCF93DF930097E9F04D
:1016F000FC01329713821282A0915804B0915904D0
:10170000ED0130E020E01097A1F420813181820FBB
:10171000931F20915604309157042817390709F078
:1017200061C0F0935704E0935604DF91CF91089580
:10173000EA01CE17DF07E8F54A815B819E0141157A
:101740005105B1F7E901FB83EA8349915991C40F2F
:10175000D51FEC17FD0761F4808191810296840FFB
:10176000951FE90199838883828193819B838A8372
:10177000F0E0E0E012968D919C9113970097B9F5F7
:101780002D913C911197CD010296820F931F2091CC
:101790005604309157042817390739F6309751F518
:1017A0001092590410925804B0935704A093560411
:1017B000BCCFD383C28340815181840F951FC8174A
:1017C000D90761F44E5F5F4F88819981480F591F97
:1017D000518340838A819B819383828321153105C4
:1017E00009F0B0CFF0935904E09358049ECFFD0167
:1017F000DC01C0CF13821282D7CFB0E0A0E0E3E0DB
:10180000FCE00C94590A8C01009751F4CB010E9422
:10181000D80A8C01C801CDB7DEB7E0E10C94750A97
:10182000FC01E60FF71F9C0122503109E217F30774
:1018300008F49DC0D901CD91DC911197C617D70747
:1018400098F0C530D10530F3CE010497861797077D
:1018500008F3C61BD70B2297C193D1936D937C934A
:10186000CF010E94740BD6CF5B01AC1ABD0A4C01AC
:101870008C0E9D1EA0915804B0915904512C412CFE
:10188000F12CE12C109731F580915604909157047A
:101890008815990509F05CC04616570608F058C02F
:1018A0008091000190910101009741F48DB79EB79E
:1018B0004091040150910501841B950BE817F9072D
:1018C00008F055C0F0935704E0935604F901718372
:1018D0006083A0CF8D919C91119712966C90129776
:1018E00013967C901397A815B90559F56C0142E041
:1018F000C40ED11CCA14DB0420F1AC014A195B09E7
:10190000DA011296159780F06282738251834083C8
:10191000D9016D937C93E114F10471F0D701139612
:10192000FC93EE93129776CF22968C0F9D1FF901B0
:1019300091838083F301EFCFF0935904E09358042F
:1019400069CF4816590608F42C017D01D3019ACFBE
:10195000CB010E94D80A7C01009749F0AE01B80182
:101960000E94BA0CC8010E94740B870153CF10E08B
:1019700000E050CFFB01DC0102C001900D9241500C
:101980005040D8F70895FB01DC018D91019080193A
:101990000110D9F3990B0895FB01DC0101900D9220
:0A19A0000020E1F70895F894FFCF4E
:1019AA0000005A048000000000006001C000ED0041
:1019BA00AD011E01FC0010010D0A00454550524FB1
:1019CA004D20777269746520004F464600342E33E5
:1019DA005600322E375600312E3856004147434EB4
:1019EA0041434B0041474341434B00616674657272
:1019FA00676C6F77207600202863292032303138CF
:101A0A00206D6F7262696420636F726E666C616BBF
:101A1A006573002D2D2D2D2D2D2D2D2D2D2D2D2D9B
:101A2A002D2D2D2D2D2D2D2D2D2D2D2D2D2D2D2DDC
:101A3A002D2D2D2D2D2D2D2D2D2D2D2D2D2D2D2DCC
:101A4A002D2D00656675736520424F44200041477D
:101A5A0056004147435000414743440041474353DE
:061A6A0000414744520058
:00000001FF
