:100000000C9435000C945D000C945D000C945D0024
:100010000C945D000C945D000C945D000C945D00EC
:100020000C945D000C945D000C945D000C94DE0457
:100030000C945D000C945D000C945D000C945D00CC
:100040000C943C040C945D000C94AC040C94860459
:100050000C945D000C945D000C945D000C945D00AC
:100060000C945D000C945D00B60911241FBECFEF07
:10007000D8E0DEBFCDBF11E0A0E0B1E0E2E2F9E1FF
:1000800002C005900D92A43CB107D9F724E0A4EC7E
:10009000B1E001C01D92A635B207E1F710E0C5E35B
:1000A000D0E004C02197FE010E94180AC433D10792
:1000B000C9F70E9445070C948F0C0C9400003FB7C1
:1000C000F8948091AB039091AC03A091AD03B091F3
:1000D000AE0326B5A89B05C02F3F19F00196A11DC0
:1000E000B11D3FBFBA2FA92F982F8827820F911DCE
:1000F000A11DB11DBC01CD0142E0660F771F881F15
:10010000991F4A95D1F708958F929F92AF92BF920F
:10011000CF92DF92EF92FF926B017C010E945F0011
:100120004B015C01C114D104E104F104F1F00E941F
:100130005F00DC01CB0188199909AA09BB09883E37
:100140009340A105B10570F321E0C21AD108E1087E
:10015000F10888EE880E83E0981EA11CB11CC11422
:10016000D104E104F10419F7DDCFFF90EF90DF90A7
:10017000CF90BF90AF909F908F900895CF92DF92D5
:10018000EF92FF920F931F93CF93DF936C017A014D
:100190008B01C0E0D0E0CE15DF0589F0D8016D916C
:1001A0008D01D601ED91FC910190F081E02DC60109
:1001B0000995892B11F47E0102C02196ECCFC7016D
:1001C000DF91CF911F910F91FF90EF90DF90CF9033
:1001D0000895FC01918D828D981761F0828DDF0169
:1001E000A80FB11D5D968C91928D9F5F9F73928F2A
:1001F00090E008958FEF9FEF0895FC01918D828D1F
:10020000981731F0828DE80FF11D858D90E00895EB
:100210008FEF9FEF0895FC01918D228D892F90E043
:10022000805C9F4F821B91098F739927089585EBFE
:1002300093E00E940B0121E0892B09F420E0822F3A
:100240000895FC01848DDF01A80FB11DA35ABF4F93
:100250002C91848D90E001968F739927848FA689C5
:10026000B7892C93A089B1898C9180648C93938DEC
:10027000848D981306C00288F389E02D80818F7DDC
:1002800080830895EF92FF920F931F93CF93DF9394
:10029000EC0181E0888F9B8D8C8D981305C0E889D7
:1002A000F989808185FD24C0F62E0B8D10E00F5F4B
:1002B0001F4F0F731127E02E8C8DE8120CC00FB664
:1002C00007FCFACFE889F989808185FFF5CFCE0157
:1002D0000E942101F1CF8B8DFE01E80FF11DE35A41
:1002E000FF4FF0820B8FEA89FB898081806207C013
:1002F000EE89FF896083E889F98980818064808341
:1003000081E090E0DF91CF911F910F91FF90EF90EE
:100310000895CF93DF93EC01888D8823C9F0EA8993
:10032000FB89808185FD05C0A889B9898C9186FDEE
:100330000FC00FB607FCF5CF808185FFF2CFA889EB
:10034000B9898C9185FFEDCFCE010E942101E7CFC5
:10035000DF91CF91089580E090E0892B29F00E94F1
:10036000170181110C94000008954F925F926F92D3
:100370007F928F929F92AF92BF92CF92DF92EF9235
:10038000FF920F931F93CF93DF93FC01EC01C60FF5
:10039000D71F6FEF7FEFCB01B1E0EC17FD07B1F195
:1003A000819048E050E010E8C12ED12CE12CF12CD6
:1003B000912CA12CB12C2B013C01442477FC4394BB
:1003C000552466247724A42D97018601082119213C
:1003D0002A213B21012B022B032B11F0AB2FA4254B
:1003E000660F771F881F991FAA2341F027EB62270A
:1003F0002DE1722721EC822724E09227F694E794DE
:10040000D794C79441505109B1F6C7CFDF91CF912E
:100410001F910F91FF90EF90DF90CF90BF90AF9022
:100420009F908F907F906F905F904F9008952F9244
:100430003F924F925F926F927F928F929F92AF9274
:10044000BF92CF92DF92EF92FF920F931F93CF93C1
:10045000DF9300D000D000D0CDB7DEB71E821D8262
:100460009CE0E92E92E0F92E20ED822E27E0922EDC
:10047000A12CB12C44244A94542C612C712C0D8154
:100480001E81005B1C4F8D819E81805F9C4F9A83F3
:100490008983ED81FE81E453FE4F1F0167018D8149
:1004A0009E81885A9C4F9C838B83E981FA81A1911C
:1004B000FA83E983FAE0AF9FD0011124109791F0FD
:1004C00028EE33E00E94110AA50194010E94EF0971
:1004D000C301B2010E94EF0983E0220F331F8A9506
:1004E000E1F702C02FEF3FEFF601219331936F0147
:1004F000F80180811A9B8695F10181931F010F5F9E
:100500001F4F8B819C810817190779F690E1E90E3E
:10051000F11CED81FE813896FE83ED83E034F10518
:1005200009F0ADCF26960FB6F894DEBF0FBECDBF53
:10053000DF91CF911F910F91FF90EF90DF90CF90BF
:10054000BF90AF909F908F907F906F905F904F90F3
:100550003F902F9008959BB19F739BB970E0762FC9
:100560006627682B80E190E020E030E85E98A901E2
:1005700046235723452B11F05D9A01C05D985E9A82
:1005800036952795019791F75E985F9A419808955F
:1005900010928000109281001A9903C080E49FE1BC
:1005A00002C080EA9FE09093890080938800809148
:1005B00081008860809381008091810081608093B8
:1005C000810080916F00826080936F000895009792
:1005D00069F0FC0101900020E9F73197AF01481B59
:1005E000590BBC0185EB93E00C94BE0080E090E0D9
:1005F00008950C94E7028F929F92AF92BF920F934F
:100600001F93CF93DF93CDB7DEB7A1970FB6F894C2
:10061000DEBF0FBECDBF19A2423008F44AE08E0102
:100620000F5D1F4F842E912CA12CB12CA50194019C
:100630000E94EF09E62FB901CA0101501109EA3001
:1006400014F4E05D01C0E95CD801EC93232B242B6A
:10065000252B61F7C8010E94E702A1960FB6F89416
:10066000DEBF0FBECDBFDF91CF911F910F91BF9025
:10067000AF909F908F900895CF92DF92EF92FF926C
:10068000CF93DF936B017C01E091B503F091B6034A
:100690000190F081E02D6DE285EB93E00995EC018E
:1006A00066277727CB016C197D098E099F094AE0DF
:1006B0000E94FB028C0F9D1FDF91CF91FF90EF9066
:1006C000DF90CF900895CF93DF930E94E702EC0173
:1006D00086E191E00E94E7028C0F9D1FDF91CF9190
:1006E0000895FC018091B3039091B403892B21F408
:1006F00021E0309749F413C08091AF039091B0038B
:10070000309731F421E0FC018081882341F006C05C
:10071000BF010E94230C21E0892B09F020E0822FE9
:10072000089588E8ECE0F3E0DF011D928A95E9F78F
:1007300081E090E090930D0380930C0380E090E0C3
:100740004EE057E0FC01E05FFC4FDC01A05BBC4FDA
:100750009C01285E3C4F41935D93E217F307D9F764
:1007600008968034910571F764E870E08CE093E0BE
:100770000E94B5016093900370939103809392035C
:100780009093930308950E94150C0F931F93CF939A
:10079000DF93EC0188819981009729F02A813B81C0
:1007A0002617370788F48B016F5F7F4F0E944B0B32
:1007B000009761F0998388831B830A832C813D8194
:1007C000232B11F4FC01108281E001C080E0DF9155
:1007D000CF911F910F910895EF92FF920F931F9366
:1007E000CF93DF93EC017B018A01BA010E94C5031C
:1007F0002881398181110DC02115310519F0C901F8
:100800000E94B30A198218821D821C821B821A82DE
:1008100006C01D830C83B701C9010E942C0CCE01B8
:10082000DF91CF911F910F91FF90EF9008950F935B
:100830001F93CF93DF930CE013E0C0E0D0E0F8010A
:1008400061918F01CE010E943B0C2196C838D105E1
:10085000B1F789E191E00E94F9024AE068E870E0AE
:1008600080E090E00E94FB0286E191E0DF91CF9171
:100870001F910F910C94E7021F920F920FB60F92E7
:1008800011242F933F938F939F93AF93BF938091A6
:10089000A7039091A803A091A903B091AA03309156
:1008A000A60323E0230F2D3720F40196A11DB11DCF
:1008B00005C026E8230F0296A11DB11D2093A603B3
:1008C0008093A7039093A803A093A903B093AA03CE
:1008D0008091AB039091AC03A091AD03B091AE03B6
:1008E0000196A11DB11D8093AB039093AC03A0931F
:1008F000AD03B093AE03BF91AF919F918F913F91A4
:100900002F910F900FBE0F901F9018951F920F926E
:100910000FB60F9211242F933F934F935F936F93D2
:100920007F938F939F93AF93BF93EF93FF9385EB49
:1009300093E00E942101FF91EF91BF91AF919F91B0
:100940008F917F916F915F914F913F912F910F9078
:100950000FBE0F901F9018951F920F920FB60F9217
:1009600011242F938F939F93EF93FF93E091C503EF
:10097000F091C6038081E091CB03F091CC0382FD1E
:1009800012C090818091CE038F5F8F732091CF032F
:10099000821751F0E091CE03F0E0EB54FC4F958FBD
:1009A0008093CE0301C08081FF91EF919F918F9141
:1009B0002F910F900FBE0F901F9018951F920F92BE
:1009C0000FB60F9211242F923F924F925F926F9227
:1009D0007F928F929F92AF92BF92CF92DF92EF92CF
:1009E000FF920F931F932F933F934F935F936F93B8
:1009F0007F938F939F93AF93BF93CF93DF93EF93A7
:100A0000FF932090840030908500C0909403D09094
:100A10009503E0909603F09097032FEFC21AD20A45
:100A2000E20AF20AC0929403D0929503E0929603F0
:100A3000F0929703A89560E080E00E94AB02B701B6
:100A4000A60147705527662777274601570133E0EF
:100A5000B694A794979487943A95D1F71A9B06C0B9
:100A600087E088229924AA24BB2405C023E082229F
:100A70009924AA24BB2481E090E0042E01C0880FB1
:100A80000A94EAF7DA0193E0AA0FBB1F9A95E1F7FF
:100A9000A453BE4FFA0124E0EE0FFF1F2A95E1F7A1
:100AA000E457FD4F7D0148E0E40EF11C60E0C62FE5
:100AB000D0E0D595C7956C2F219131912115310545
:100AC000E9F01A9B06C0232F33272295269527701D
:100AD00005C024E0329F212D332711244C9150E092
:100AE0004217530708F49A012901612C712C48140C
:100AF00059046A047B0410F06C2F60681196AE15DF
:100B0000BF05A9F60E94AB0280E480937C0080912F
:100B10007A00806480937A0080917A0086FDFCCF11
:100B200080917800809179008BB1877E8BB95C9A37
:100B300080E1CEE0D0E0CC0FDD1F5B9899B192FB55
:100B4000002700F910E0C02BD12B5B9A815099F758
:100B50001899A5C0C0909403D0909503E090960397
:100B6000F0909703D701C6011A9B08C063E0B695C1
:100B7000A795979587956A95D1F707C052E0B695E6
:100B8000A795979587955A95D1F7182F1770C1E0BB
:100B9000D0E0012E02C0CC0FDD1F0A94E2F7199BB2
:100BA00079C0C701B6011A9B05C020E03DE740E0CF
:100BB00050E004C020E83EE340E050E00E94EF092E
:100BC000022FC701B6011A9B05C020ED37E040E0B7
:100BD00050E004C028EE33E040E050E00E94EF090E
:100BE000802F67E00E94E3099330C9F040F4822F20
:100BF0008770913009F446C0923061F005C095309D
:100C000019F1C8F0963099F1277081E02117C9F0E9
:100C100080E017C021E0811315C020E013C02770C9
:100C200081E090E0AC0102C0440F551F2A95E2F725
:100C30009A01209530C0DA01C90181709927AA274D
:100C4000BB27282F219527C0DA01C901812780FD04
:100C500021C0CA01B90123E030E040E050E00E9429
:100C6000EF09672B682B692B99F02AEA14C0220F31
:100C7000220F822F8C7386958695869581130AC0E4
:100C8000822F847021E001C0220F8A95EAF703C009
:100C900025E501C020E02095DC2FCC27C22B8D2F2D
:100CA0009927582F7C2F70958830910561F154F465
:100CB00082309105F1F08430910501F18130910588
:100CC00089F536C08032910519F144F480319105DF
:100CD00049F504E010E020E030E02DC080349105BB
:100CE000E1F080389105F1F407E010E020E030E019
:100CF00022C001E010E020E030E01DC002E010E082
:100D000020E030E018C003E010E020E030E013C045
:100D100005E010E020E030E00EC006E010E020E04A
:100D200030E009C008E010E020E030E040E004C01E
:100D300000E010E0980141E06091C5015617D1F044
:100D40006091CB01561304C05091CA01751719F078
:100D50001092C40107C05091C4015F3F19F05F5F5A
:100D60005093C4015091C401552321F08093C501D3
:100D7000411117C08093CB017093CA018091840008
:100D800090918500821993099093C9018093C801BD
:100D90002091C6013091C7012817390708F44AC0CD
:100DA00051C0083011052105310521F3F80194E007
:100DB000EE0FFF1F9A95E1F7DF01A457BD4FE45FE7
:100DC000FD4F8D01005F1F4F672F88248A94982C58
:100DD000A12CB12CCFEFDFEF419151912D913C919E
:100DE000119760FF15C06901E12CF12C2401350138
:100DF000441A550A61087108C414D504E604F704BE
:100E00001CF4240F351F09C01196DC93CE930CC03F
:100E10004217530730F4241B350B11963C932E9345
:100E200003C011961C921E9212966695A017B107E8
:100E300099F6A0CF80385EE3950720F49093C70120
:100E40008093C601FF91EF91DF91CF91BF91AF9158
:100E50009F918F917F916F915F914F913F912F91D2
:100E60001F910F91FF90EF90DF90CF90BF90AF90C8
:100E70009F908F907F906F905F904F903F902F90BA
:100E80000F900FBE0F901F901895CF93DF93CDB7A3
:100E9000DEB7C858D1090FB6F894DEBF0FBECDBF7C
:100EA000789484B5826084BD84B5816084BD85B545
:100EB000826085BD85B5816085BD80916E00816051
:100EC00080936E00109281008091810082608093F7
:100ED00081008091810081608093810080918000F9
:100EE0008160809380008091B10084608093B10024
:100EF0008091B00081608093B00080917A0084601E
:100F000080937A0080917A00826080937A00809149
:100F10007A00816080937A0080917A008068809363
:100F20007A001092C100F8940E94C80289EF8AB931
:100F300080E284B985B18F6085B986E087B9419A2E
:100F400080917A00846080937A0080917A008D7F0E
:100F500080937A0080917A008E7F80937A0080E877
:100F6000ECE8F2E0DF011D928A95E9F73CE0E32E20
:100F700033E0F32E00E010E0C8010E94330CF701CB
:100F800081937F010F5F1F4F08381105A9F78091EA
:100F90000C0390910D03019709F0F4C064E870E030
:100FA0008CE093E00E94B5010091900310919103B1
:100FB0002091920330919303601771078207930782
:100FC00009F0E0C00E941702E091C503F091C6034A
:100FD00082E08083E091C103F091C2031082E0912E
:100FE000C303F091C40380E180831092CD03E091AC
:100FF000C903F091CA0386E08083E091C703F091B2
:10100000C803808180618083E091C703F091C803A9
:10101000808188608083E091C703F091C80380815C
:1010200080688083E091C703F091C80380818F7D41
:10103000808389E491E00E94F9024AE06AE670E068
:1010400080E090E00E94FB0285E591E00E9463034E
:10105000E2E0F0E089E080935700149181E791E0AD
:101060000E946303177081EA91E00E94F902173031
:1010700039F0143041F0153049F08BE291E008C0AE
:1010800087E291E005C080E391E002C085E391E052
:101090000E946303789498E088E10FB6F894A895CD
:1010A000809360000FBE9093600083B1809399039A
:1010B000BB24B394CE0101967C0188E1A82E98E070
:1010C000792E28E8622E8091A2039091A303A0912B
:1010D000A403B091A5030196A11DB11D8093A203A5
:1010E0009093A303A093A403B093A50380919A03C4
:1010F00081113FC01092B0031092AF031092B2035F
:101100001092B1031092B4031092B30340E050E088
:1011100068E171E08FEA93E00E94EC03B0929A03D9
:1011200028C0211137C085EB93E00E94E9008A3383
:1011300071F189831A820091B3031091B4030F5F98
:101140001F4FB8018FEA93E00E94C503882389F0FE
:101150002091AF033091B0038091B3039091B40319
:10116000B701820F931F0E942C0C1093B4030093BD
:10117000B30385EB93E00E940B0120919803892B28
:1011800049F0CFCF0E9491030E9417041BCFB09269
:101190009803EFCF222309F4CBC08CEA91E00E94A0
:1011A00071038823F9F08CEA91E00E94F9028AEA3F
:1011B00091E00E94F9024AE06AE670E080E090E087
:1011C0000E94FB028AEA91E00E94F9024AE061E093
:1011D00070E080E090E00E94FB0286E191E00E94D6
:1011E000E7029CC080EB91E00E947103882349F0E4
:1011F00048E850E06CE073E085EB93E00E94BE00AD
:101200008DC085EB91E00E947103882339F00E9424
:10121000910382E491E00E94F90280C08AEB91E0A0
:101220000E947103882309F479C00FB6F894A89539
:1012300080916000886180936000109260000FBE12
:1012400080916F008D7F80936F00419A5E2C4F2CB0
:10125000C12CD12C8FEB91E00E94F90268EC70E078
:1012600080E090E00E948400052D142D480190E25A
:10127000890E911C502E412E85EB93E00E940B01AC
:10128000892B91F00815190579F0E8E8CE16D104FC
:1012900078F485EB93E00E94E900D8018D938D01ED
:1012A000BFEFCB1ADB0AE6CF88E8C816D10490F26C
:1012B000F8E8CF16D10409F564E870E0C7010E9490
:1012C000B501CB57DF4F088119812A813B81C55871
:1012D000D040601771078207930779F4F701ACE0FB
:1012E000B3E0862D01900D928A95E1F70E941702D6
:1012F0000E94170482E491E002C08AE391E00E9418
:10130000F90280916F00826080936F000FB6F894AD
:10131000A895A09260000FBE7092600040E050E07F
:1013200068E171E08FEA93E00E94EC031092980369
:1013300093B180919903892782FF0FC0F8940E948E
:10134000C802109294031092950310929603109283
:10135000970383B180939903789464EF71E080E000
:1013600090E00E9484000E94AB01ADCEE5EBF3E07B
:101370001382128288EE93E0A0E0B0E0848395832C
:10138000A683B7838AE091E09183808385EC90E027
:101390009587848784EC90E09787868780EC90E03F
:1013A000918B808B81EC90E0938B828B82EC90E030
:1013B000958B848B86EC90E0978B868B118E128EAA
:1013C000138E148E0895991B79E004C0991F961707
:1013D00008F0961B881F7A95C9F780950895A1E2B9
:1013E0001A2EAA1BBB1BFD010DC0AA1FBB1FEE1F9F
:1013F000FF1FA217B307E407F50720F0A21BB30BEA
:10140000E40BF50B661F771F881F991F1A9469F765
:1014100060957095809590959B01AC01BD01CF01C1
:1014200008950E94800CB7FF0895821B930B0895C6
:10143000EE0FFF1F0590F491E02D0994CF93DF93F9
:101440008230910510F482E090E0E0915404F09134
:10145000550420E030E0C0E0D0E0309711F1408149
:10146000518148175907C0F04817590761F4828124
:101470009381209719F09B838A832BC09093550406
:101480008093540426C02115310519F042175307E3
:1014900018F49A01BE01DF01EF010280F381E02D13
:1014A000DCCF2115310509F1281B390B243031051A
:1014B00090F412968D919C9113976115710521F00E
:1014C000FB019383828304C090935504809354045A
:1014D000FD01329644C0FD01E20FF31F8193919309
:1014E000225031092D933C933AC0209152043091FF
:1014F0005304232B41F420910201309103013093D6
:1015000053042093520420910001309101012115D0
:10151000310541F42DB73EB74091040150910501CA
:10152000241B350BE0915204F0915304E217F307AA
:10153000A0F42E1B3F0B2817390778F0AC014E5F43
:101540005F4F2417350748F04E0F5F1F5093530429
:10155000409352048193919302C0E0E0F0E0CF0108
:10156000DF91CF9108950F931F93CF93DF9300974F
:1015700009F48CC0FC01329713821282009154044A
:10158000109155040115110581F420813181820FDC
:10159000931F20915204309153042817390779F58D
:1015A000F0935304E093520471C0D80140E050E03E
:1015B000AE17BF0750F412962D913C911397AD01D1
:1015C0002115310509F1D901F3CF9D01DA013383EA
:1015D000228360817181860F971F8217930769F4B8
:1015E000EC0128813981260F371F2E5F3F4F318351
:1015F00020838A819B8193838283452B29F4F093F6
:101600005504E093540442C01396FC93EE93129752
:10161000ED01499159919E01240F351FE217F307FF
:1016200071F480819181840F951F029611969C938D
:101630008E938281938113969C938E931297E0E010
:10164000F0E0D80112968D919C911397009719F0B4
:10165000F8018C01F6CF8D919C9198012E5F3F4F40
:10166000820F931F20915204309153042817390799
:1016700069F4309729F4109255041092540402C072
:10168000138212821093530400935204DF91CF917E
:101690001F910F910895A0E0B0E0E1E5FBE00C940C
:1016A0004D0CEC01009721F4CB010E941E0AB8C03A
:1016B000FC01E60FF71F9C0122503109E217F307E6
:1016C00008F4ACC0D9010D911C91119706171707AA
:1016D000B0F00530110508F49FC0C80104978617C3
:1016E000970708F499C002501109061B170B0193C4
:1016F00011936D937C93CF010E94B30A8DC05B015F
:10170000A01AB10A4C01800E911EA0915404B09110
:10171000550440E050E0E12CF12C109709F44AC048
:10172000A815B905D1F56D907C901197630182E001
:10173000C80ED11CCA14DB0480F1A3014A195B094D
:101740006A0182E0C80ED11C1296BC9012971396C3
:10175000AC91B5E0CB16D10440F0B282A3835183A3
:101760004083D9016D937C930AC00E5F1F4FC30164
:10177000800F911FF90191838083EB2DFA2FE114E3
:10178000F10431F0D7011396FC93EE93129744C005
:10179000F0935504E09354043FC08D919C911197B0
:1017A0004817590708F4AC017D0112960D90BC91C1
:1017B000A02DB3CF809152049091530488159905C0
:1017C000E1F446175707C8F4809100019091010198
:1017D000009741F48DB79EB74091040150910501E7
:1017E000841B950BE817F907C8F4F0935304E093B2
:1017F0005204F901718360830FC0CB010E941E0A5D
:101800007C01009759F0A801BE010E941A0CCE017C
:101810000E94B30AC70104C0CE0102C080E090E07C
:10182000CDB7DEB7EEE00C94690C81E090E0F8945F
:101830000C948F0CFB01DC0102C001900D92415011
:101840005040D8F70895FB01DC018D91019080197B
:101850000110D9F3990B0895FB01DC0101900D9261
:101860000020E1F70895F999FECF92BD81BDF89A65
:10187000992780B50895262FF999FECF1FBA92BDFA
:1018800081BD20BD0FB6F894FA9AF99A0FBE019661
:1018900008952F923F924F925F926F927F928F9214
:1018A0009F92AF92BF92CF92DF92EF92FF920F93EF
:1018B0001F93CF93DF93CDB7DEB7CA1BDB0B0FB6F9
:1018C000F894DEBF0FBECDBF09942A8839884888B6
:1018D0005F846E847D848C849B84AA84B984C8844C
:1018E000DF80EE80FD800C811B81AA81B981CE0F43
:1018F000D11D0FB6F894DEBF0FBECDBFED01089528
:10190000A29FB001B39FC001A39F700D811D112440
:10191000911DB29F700D811D1124911D0895F894A1
:02192000FFCFF7
:10192200000056048000000000004201BE000B01CE
:10193200E900FD0089010D0A00454550524F4D2036
:10194200777269746520004F464600312E38560082
:10195200342E335600322E3756004147434E414310
:101962004B0041474341434B006166746572676CAB
:101972006F77207600202863292032303138206D9D
:101982006F7262696420636F726E666C616B6573FD
:10199200002D2D2D2D2D2D2D2D2D2D2D2D2D2D2DA2
:1019A2002D2D2D2D2D2D2D2D2D2D2D2D2D2D2D2D65
:1019B2002D2D2D2D2D2D2D2D2D2D2D2D2D2D2D2D55
:1019C20000656675736520424F442000414756000A
:1019D200414743500041474344004147435300417C
:0419E2004744520024
:00000001FF
