:100000000C9435000C945D000C945D000C945D0024
:100010000C945D000C945D000C945D000C945D00EC
:100020000C945D000C945D000C945D000C948704AE
:100030000C945D000C945D000C945D000C945D00CC
:100040000C943D040C945D000C940B040C94E5039B
:100050000C945D000C945D000C945D000C945D00AC
:100060000C945D000C945D00120911241FBECFEFAB
:10007000D8E0DEBFCDBF11E0A0E0B1E0E2ECF7E1F7
:1000800002C005900D92A63AB107D9F724E0A6EA7E
:10009000B1E001C01D92A833B207E1F710E0C5E35B
:1000A000D0E004C02197FE010E946809C433D10743
:1000B000C9F70E94CD060C94DF0B0C940000CF9280
:1000C000DF92EF92FF920F931F93CF93DF936C0118
:1000D0007A018B01C0E0D0E0CE15DF0589F0D801B0
:1000E0006D918D01D601ED91FC910190F081E02D93
:1000F000C6010995892B11F47E0102C02196ECCF2F
:10010000C701DF91CF911F910F91FF90EF90DF908A
:10011000CF900895FC01918D828D981761F0828DAA
:10012000DF01A80FB11D5D968C91928D9F5F9F732B
:10013000928F90E008958FEF9FEF0895FC01918DCD
:10014000828D981731F0828DE80FF11D858D90E03A
:1001500008958FEF9FEF0895FC01918D228D892FD7
:1001600090E0805C9F4F821B91098F7399270895BF
:1001700087E993E00E94AC0021E0892B09F420E09C
:10018000822F0895FC01848DDF01A80FB11DA35AB1
:10019000BF4F2C91848D90E001968F739927848FA7
:1001A000A689B7892C93A089B1898C9180648C939E
:1001B000938D848D981306C00288F389E02D808189
:1001C0008F7D80830895EF92FF920F931F93CF93BB
:1001D000DF93EC0181E0888F9B8D8C8D981305C097
:1001E000E889F989808185FD24C0F62E0B8D10E009
:1001F0000F5F1F4F0F731127E02E8C8DE8120CC07C
:100200000FB607FCFACFE889F989808185FFF5CF21
:10021000CE010E94C200F1CF8B8DFE01E80FF11DCF
:10022000E35AFF4FF0820B8FEA89FB89808180625D
:1002300007C0EE89FF896083E889F989808180643D
:10024000808381E090E0DF91CF911F910F91FF902B
:10025000EF900895CF93DF93EC01888D8823C9F048
:10026000EA89FB89808185FD05C0A889B9898C91BF
:1002700086FD0FC00FB607FCF5CF808185FFF2CF5A
:10028000A889B9898C9185FFEDCFCE010E94C2006B
:10029000E7CFDF91CF91089580E090E0892B29F09E
:1002A0000E94B80081110C94000008953FB7F894A3
:1002B0008091780290917902A0917A02B0917B02AC
:1002C00026B5A89B05C02F3F19F00196A11DB11DB1
:1002D0003FBFBA2FA92F982F8827820F911DA11DEC
:1002E000B11DBC01CD0142E0660F771F881F991F29
:1002F0004A95D1F708958F929F92AF92BF92CF9275
:10030000DF92EF92FF926B017C010E9456014B013C
:100310005C01C114D104E104F104F1F00E94560122
:10032000DC01CB0188199909AA09BB09883E9340D1
:10033000A105B10570F321E0C21AD108E108F10866
:1003400088EE880E83E0981EA11CB11CC114D10454
:10035000E104F10419F7DDCFFF90EF90DF90CF902B
:10036000BF90AF909F908F9008954F925F926F9241
:100370007F928F929F92AF92BF92CF92DF92EF9235
:10038000FF920F931F93CF93DF93FC01EC01C60FF5
:10039000D71F6FEF7FEFCB01B1E0EC17FD07B1F195
:1003A000819048E050E010E8C12ED12CE12CF12CD6
:1003B000912CA12CB12C2B013C01442477FC4394BB
:1003C000552466247724A42D97018601082119213C
:1003D0002A213B21012B022B032B11F0AB2FA4254B
:1003E000660F771F881F991FAA2341F027EB62270A
:1003F0002DE1722721EC822724E09227F694E794DE
:10040000D794C79441505109B1F6C7CFDF91CF912E
:100410001F910F91FF90EF90DF90CF90BF90AF9022
:100420009F908F907F906F905F904F9008952F9244
:100430003F924F925F926F927F928F929F92AF9274
:10044000BF92CF92DF92EF92FF920F931F93CF93C1
:10045000DF9300D000D000D0CDB7DEB71E821D8262
:1004600003EF11E090ED892E97E0992EA12CB12C8D
:1004700044244A94542C612C712C8D819E8180508F
:100480009D4F7C016801ED81FE81E05CFC4F1F0106
:100490008D819E818D549E4F9A838983ED81FE814B
:1004A000E85FFC4FFC83EB83F701A1917F01FAE049
:1004B000AF9FD0011124109791F028EE33E00E94F5
:1004C0006109A50194010E943F09C301B2010E9484
:1004D0003F0983E0220F331F8A95E1F702C02FEF17
:1004E0003FEFF601219331936F01F10181911F01DB
:1004F000E981FA818193FA83E9838B819C81E816F3
:10050000F90691F6005F1F4FED81FE813896FE835C
:10051000ED83E034F10509F0B0CF26960FB6F894DC
:10052000DEBF0FBECDBFDF91CF911F910F91FF9026
:10053000EF90DF90CF90BF90AF909F908F907F9083
:100540006F905F904F903F902F9008959BB19F7355
:100550009BB970E0762F6627682B80E190E020E061
:1005600030E85E98A90146235723452B11F05D9A88
:1005700001C05D985E9A36952795019791F75E9830
:100580005F9A41980895009769F0FC01019000205E
:10059000E9F73197AF01481B590BBC0187E993E09C
:1005A0000C945F0080E090E008950C94C3028F9259
:1005B0009F92AF92BF920F931F93CF93DF93CDB7CC
:1005C000DEB7A1970FB6F894DEBF0FBECDBF19A25C
:1005D000423008F44AE08E010F5D1F4F842E912CAB
:1005E000A12CB12CA50194010E943F09E62FB9016D
:1005F000CA0101501109EA3014F4E05D01C0E95C60
:10060000D801EC93232B242B252B61F7C8010E94E2
:10061000C302A1960FB6F894DEBF0FBECDBFDF9127
:10062000CF911F910F91BF90AF909F908F900895A1
:10063000CF92DF92EF92FF92CF93DF936B017C0119
:10064000E0919703F09198030190F081E02D6DE225
:1006500087E993E00995EC0166277727CB016C19B0
:100660007D098E099F094AE00E94D7028C0F9D1FC9
:10067000DF91CF91FF90EF90DF90CF900895FC0134
:100680008091950390919603892B21F421E0309776
:1006900049F413C08091910390919203309731F403
:1006A00021E0FC018081882341F006C0BF010E9447
:1006B000730B21E0892B09F020E0822F089588E850
:1006C000ECEFF2E0DF011D928A95E9F781E090E01E
:1006D0009093FD028093FC0280E090E042E157E0BD
:1006E000FC01E050FD4FDC01A05CBC4F9C01285F89
:1006F0003C4F41935D93E217F307D9F70896803496
:10070000910571F764E870E08CEF92E00E94B5010A
:10071000609380037093810380938203909383039B
:1007200008950E94650B0F931F93CF93DF93EC0105
:1007300088819981009729F02A813B812617370704
:1007400088F48B016F5F7F4F0E949B0A009761F0D6
:10075000998388831B830A832C813D81232B11F489
:10076000FC01108281E001C080E0DF91CF911F91F8
:100770000F910895EF92FF920F931F93CF93DF9302
:10078000EC017B018A01BA010E949303288139811F
:1007900081110DC02115310519F0C9010E94030A0C
:1007A000198218821D821C821B821A8206C01D8338
:1007B0000C83B701C9010E947C0BCE01DF91CF9160
:1007C0001F910F91FF90EF9008951F920F920FB617
:1007D0000F9211242F933F934F935F936F937F93C7
:1007E0008F939F93AF93BF93EF93FF9387E993E02A
:1007F0000E94C200FF91EF91BF91AF919F918F91A5
:100800007F916F915F914F913F912F910F900FBE0C
:100810000F901F9018951F920F920FB60F921124F0
:100820002F938F939F93EF93FF93E091A703F09102
:10083000A8038081E091AD03F091AE0382FD12C068
:1008400090818091B0038F5F8F732091B1038217E5
:1008500051F0E091B003F0E0E956FC4F958F8093A2
:10086000B00301C08081FF91EF919F918F912F91F3
:100870000F900FBE0F901F9018951F920F920FB6FA
:100880000F9211242F933F938F939F93AF93BF9316
:100890008091740290917502A0917602B0917702D6
:1008A0003091730223E0230F2D3720F40196A11D10
:1008B000B11D05C026E8230F0296A11DB11D20938E
:1008C00073028093740290937502A0937602B093A2
:1008D00077028091780290917902A0917A02B0918A
:1008E0007B020196A11DB11D80937802909379023D
:1008F000A0937A02B0937B02BF91AF919F918F91A9
:100900003F912F910F900FBE0F901F9018951F923F
:100910000F920FB60F9211242F923F924F925F9237
:100920006F927F928F929F92AF92BF92CF92DF92FF
:10093000EF92FF920F931F932F933F934F935F93E9
:100940006F937F938F939F93AF93BF93EF93FF9397
:10095000CF93DF9300D01F92CDB7DEB720918400F4
:10096000309185003A832983C090AF01D090B001C7
:10097000E090B101F090B2013FEFC31AD30AE30A4D
:10098000F30AC092AF01D092B001E092B101F092AF
:10099000B20160E080E00E94A602B701A6014770A4
:1009A00055276627772733E0F694E794D794C794C2
:1009B0003A95D1F74601570187E088229924AA2465
:1009C000BB2481E090E0042E01C0880F0A94EAF76E
:1009D000DA0163E0AA0FBB1F6A95E1F7AD54BE4F81
:1009E000FA0174E0EE0FFF1F7A95E1F7E458FD4F2E
:1009F0007D0128E0E20EF11C60E0462F50E05595A5
:100A00004795642F2191319121153105A9F00C9161
:100A100010E0232F332722952695277002171307FE
:100A200008F49801890120E030E0081519052A052D
:100A30003B0510F0642F60681196AE15BF05E9F60E
:100A40000E94A6028BB1877E8BB95C9A90E10EE082
:100A500010E0000F111F5B9889B182FB662460F8DB
:100A6000712C062917295B9A915099F7C090AF0114
:100A7000D090B001E090B101F090B2011A9936C067
:100A8000B701A601A3E07695679557954795AA9576
:100A9000D1F7942F977001E010E002C0000F111FF2
:100AA0009A95E2F740FD0CC0C701B60120ED37E092
:100AB00040E050E00E943F0920FF04C08AEA03C0E2
:100AC00080E001C085E5982F9095102F0027092B15
:100AD000C701B60120ED37E040E050E00E943F0939
:100AE00020FF02C02D9A52C02D9850C030E2C3168C
:100AF0003EE4D306E104F10408F046C081E08093AF
:100B0000AE01D701C60173E0B695A7959795879575
:100B10007A95D1F7E82FE770BE2E88248394912C24
:100B200084010B2C02C0000F111F0A94E2F7C701C9
:100B3000B60120E530E040E050E00E943F0920345B
:100B4000310541055105D0F48B2D90E0A0E0B0E0D7
:100B500069017A0163E0F694E794D794C7946A95A3
:100B6000D1F7C816D906EA06FB0641F427703327E9
:100B7000882D01C0880F2A95EAF701C080E0809592
:100B8000102F0027082B02C01092AE01212F33270F
:100B9000E22F802F80952830310561F154F4223006
:100BA0003105F1F02430310501F12130310589F5AD
:100BB00036C02032310519F144F42031310549F5B0
:100BC00044E050E060E070E02DC020343105E1F0F9
:100BD00020383105F1F447E050E060E070E022C0D9
:100BE00041E050E060E070E01DC042E050E060E0B5
:100BF00070E018C043E050E060E070E013C045E0F2
:100C000050E060E070E00EC046E050E060E070E070
:100C100009C048E050E060E070E090E004C040E0CF
:100C200050E0BA0191E0F091A701EF17D1F0F091F7
:100C3000AD01EF1304C0E091AC018E1719F01092D2
:100C4000A60107C0E091A601EF3F19F0EF5FE09326
:100C5000A601E091A601EE2321F02093A7019111B6
:100C60001DC02093AD018093AC01809184009091D0
:100C7000850029813A81821B930B9093AB0180936D
:100C8000AA012091A8013091A9012817390708F07D
:100C90005EC09093A9018093A80159C048305105C6
:100CA00061057105F1F2FA0194E0EE0FFF1F9A95CC
:100CB000E1F7DF01A458BD4F9091AE019B83ED5049
:100CC000FE4F1D0190E1290E311C982F88248A9433
:100CD000982CA12CB12C0FEF1FEF419151916D91E8
:100CE0007C911197FB8090FF1CC0FF2011F04FEF0B
:100CF0005FEF6B01E12CF12C24013501441A550AF8
:100D000061087108C414D504E604F70434F4460FEE
:100D1000571F11965C934E9314C011961C930E931B
:100D200010C0FF2011F048E052E04617570730F49A
:100D3000641B750B11967C936E9303C011961C92E5
:100D40001E9212969695A215B30539F68ACF0F908A
:100D50000F900F90DF91CF91FF91EF91BF91AF91E5
:100D60009F918F917F916F915F914F913F912F91C3
:100D70001F910F91FF90EF90DF90CF90BF90AF90B9
:100D80009F908F907F906F905F904F903F902F90AB
:100D90000F900FBE0F901F901895CF93DF93CDB794
:100DA000DEB7C858D1090FB6F894DEBF0FBECDBF6D
:100DB000789484B5826084BD84B5816084BD85B536
:100DC000826085BD85B5816085BD80916E00816042
:100DD00080936E00109281008091810082608093E8
:100DE00081008091810081608093810080918000EA
:100DF0008160809380008091B10084608093B10015
:100E00008091B00081608093B00080917A0084600E
:100E100080937A0080917A00826080937A0080913A
:100E20007A00816080937A0080917A008068809354
:100E30007A001092C100F894109280001092810004
:100E400080EA9FE0909389008093880080918100E0
:100E5000886080938100809181008160809381000F
:100E600080916F00826080936F0089EF8AB980E281
:100E700084B92A9A86E087B9419A80E8ECE7F2E0E3
:100E8000DF011D928A95E9F72CEFE22E22E0F22E87
:100E900000E010E0C8010E94830BF70181937F01FD
:100EA0000F5F1F4F08381105A9F78091FC02909140
:100EB000FD02019709F0CDC064E870E08CEF92E08C
:100EC0000E94B5010091800310918103209182035B
:100ED00030918303601771078207930709F0B9C047
:100EE0000E9417027894E091A703F091A80382E092
:100EF0008083E091A303F091A4031082E091A50305
:100F0000F091A60380E180831092AF03E091AB03E0
:100F1000F091AC0386E08083E091A903F091AA03ED
:100F2000808180618083E091A903F091AA03808190
:100F300088608083E091A903F091AA038081806892
:100F40008083E091A903F091AA0380818F7D808343
:100F500085E291E00E94D5024AE066E670E080E01A
:100F600090E00E94D70281E391E00E94C3028DE4E9
:100F700091E00E94C30280E591E00E94C3028DE4EB
:100F800091E00E94C302BB24B394CE0101967C0180
:100F900098E8A92E80918D0390918E03A0918F03E4
:100FA000B09190030196A11DB11D80938D03909384
:100FB0008E03A0938F03B0939003809185038111DA
:100FC0003FC01092920310929103109294031092DA
:100FD0009303109296031092950340E050E06FE463
:100FE00071E081E993E00E94BA03B092850328C0C2
:100FF000211135C087E993E00E948A008A3361F1AC
:1010000089831A8200919503109196030F5F1F4FF9
:10101000B80181E993E00E949303882389F020912D
:101020009103309192038091950390919603B701BB
:10103000820F931F0E947C0B1093960300939503DD
:1010400087E993E00E94AC0020918403892B39F05A
:10105000CFCF0E945F0344CFB0928403F1CF22230D
:1010600009F4D7C080E891E00E943F038823F9F09B
:1010700080E891E00E94D50284EA91E00E94D502C6
:101080004AE066E670E080E090E00E94D70284EAE1
:1010900091E00E94D5024AE061E070E080E090E0DB
:1010A0000E94D7028DE491E00E94C302A8C084E8A8
:1010B00091E00E943F03882349F048E850E06CEF3C
:1010C00072E087E993E00E945F0099C089E891E0AF
:1010D0000E943F03882339F00E945F0386E191E07C
:1010E0000E94D5028CC08EE891E00E943F038823C5
:1010F00009F485C080916F008D7F80936F00419AC5
:101100007E2C6F2CC12CD12C83E991E00E94D5025A
:1011100068EC70E080E090E00E947B01072D162DC6
:10112000480190E2890E911C702E612E87E993E0B0
:101130000E94AC00892B91F00815190579F0E8E8B8
:10114000CE16D10478F487E993E00E948A00D80192
:101150008D938D01BFEFCB1ADB0AE6CF88E8C81666
:10116000D10490F2F8E8CF16D10409F03FC064E84A
:1011700070E0C7010E94B501CB57DF4F088119818C
:101180002A813B81C558D0406017710782079307B9
:1011900069F5F701ACEFB2E08A2D01900D928A95C6
:1011A000E1F70E9417028CEFC82E82E0D82E00E0F3
:1011B00010E0D6016D916D01C8010E948B0B0F5F8D
:1011C0001F4F08381105A9F788E991E00E94D50260
:1011D0004AE068E870E080E090E00E94D7028DE489
:1011E00091E00E94C30286E191E002C08DE191E0AE
:1011F0000E94D50280916F00826080936F0040E072
:1012000050E06FE471E081E993E00E94BA0310922C
:10121000840364EF71E080E090E00E947B010E9413
:101220004C01B8CEE7E9F3E01382128288EE93E036
:10123000A0E0B0E084839583A683B7838AE091E041
:101240009183808385EC90E09587848784EC90E09F
:101250009787868780EC90E0918B808B81EC90E083
:10126000938B828B82EC90E0958B848B86EC90E064
:10127000978B868B118E128E138E148E0895A1E299
:101280001A2EAA1BBB1BFD010DC0AA1FBB1FEE1F00
:10129000FF1FA217B307E407F50720F0A21BB30B4B
:1012A000E40BF50B661F771F881F991F1A9469F7C7
:1012B00060957095809590959B01AC01BD01CF0123
:1012C00008950E94D00BB7FF0895821B930B0895D9
:1012D000EE0FFF1F0590F491E02D0994CF93DF935B
:1012E0008230910510F482E090E0E0913604F091B4
:1012F000370420E030E0C0E0D0E0309711F14081C9
:10130000518148175907C0F04817590761F4828185
:101310009381209719F09B838A832BC09093370485
:101320008093360426C02115310519F04217530762
:1013300018F49A01BE01DF01EF010280F381E02D74
:10134000DCCF2115310509F1281B390B243031057B
:1013500090F412968D919C9113976115710521F06F
:10136000FB019383828304C09093370480933604F7
:10137000FD01329644C0FD01E20FF31F819391936A
:10138000225031092D933C933AC02091340430917E
:101390003504232B41F42091020130910301309355
:1013A000350420933404209100013091010121156E
:1013B000310541F42DB73EB740910401509105012C
:1013C000241B350BE0913404F0913504E217F30748
:1013D000A0F42E1B3F0B2817390778F0AC014E5FA5
:1013E0005F4F2417350748F04E0F5F1F50933504A9
:1013F000409334048193919302C0E0E0F0E0CF0188
:10140000DF91CF9108950F931F93CF93DF930097B0
:1014100009F48CC0FC0132971382128200913604C9
:10142000109137040115110581F420813181820F5B
:10143000931F20913404309135042817390779F52A
:10144000F0933504E093340471C0D80140E050E0DB
:10145000AE17BF0750F412962D913C911397AD0132
:101460002115310509F1D901F3CF9D01DA0133834B
:10147000228360817181860F971F8217930769F419
:10148000EC0128813981260F371F2E5F3F4F3183B2
:1014900020838A819B8193838283452B29F4F09357
:1014A0003704E093360442C01396FC93EE931297F0
:1014B000ED01499159919E01240F351FE217F30761
:1014C00071F480819181840F951F029611969C93EF
:1014D0008E938281938113969C938E931297E0E072
:1014E000F0E0D80112968D919C911397009719F016
:1014F000F8018C01F6CF8D919C9198012E5F3F4FA2
:10150000820F931F20913404309135042817390736
:1015100069F4309729F4109237041092360402C00F
:10152000138212821093350400933404DF91CF911B
:101530001F910F910895A0E0B0E0E1EAFAE00C9469
:101540009D0BEC01009721F4CB010E946E09B8C0FD
:10155000FC01E60FF71F9C0122503109E217F30747
:1015600008F4ACC0D9010D911C911197061717070B
:10157000B0F00530110508F49FC0C8010497861724
:10158000970708F499C002501109061B170B019325
:1015900011936D937C93CF010E94030A8DC05B0170
:1015A000A01AB10A4C01800E911EA0913604B09190
:1015B000370440E050E0E12CF12C109709F44AC0C8
:1015C000A815B905D1F56D907C901197630182E063
:1015D000C80ED11CCA14DB0480F1A3014A195B09AF
:1015E0006A0182E0C80ED11C1296BC901297139625
:1015F000AC91B5E0CB16D10440F0B282A383518305
:101600004083D9016D937C930AC00E5F1F4FC301C5
:10161000800F911FF90191838083EB2DFA2FE11444
:10162000F10431F0D7011396FC93EE93129744C066
:10163000F0933704E09336043FC08D919C9111974D
:101640004817590708F4AC017D0112960D90BC9122
:10165000A02DB3CF8091340490913504881599055D
:10166000E1F446175707C8F48091000190910101F9
:10167000009741F48DB79EB7409104015091050148
:10168000841B950BE817F907C8F4F0933504E09331
:101690003404F901718360830FC0CB010E946E098D
:1016A0007C01009759F0A801BE010E946A0BCE018F
:1016B0000E94030AC70104C0CE0102C080E090E08E
:1016C000CDB7DEB7EEE00C94B90B81E090E0F89472
:1016D0000C94DF0BFB01DC0102C001900D92415024
:1016E0005040D8F70895FB01DC018D9101908019DD
:1016F0000110D9F3990B0895FB01DC0101900D92C3
:101700000020E1F70895F999FECF92BD81BDF89AC6
:10171000992780B50895262FF999FECF1FBA92BD5B
:1017200081BD20BD0FB6F894FA9AF99A0FBE0196C2
:1017300008952F923F924F925F926F927F928F9275
:101740009F92AF92BF92CF92DF92EF92FF920F9350
:101750001F93CF93DF93CDB7DEB7CA1BDB0B0FB65A
:10176000F894DEBF0FBECDBF09942A883988488817
:101770005F846E847D848C849B84AA84B984C884AD
:10178000DF80EE80FD800C811B81AA81B981CE0FA4
:10179000D11D0FB6F894DEBF0FBECDBFED01089589
:1017A000A29FB001B39FC001A39F700D811D1124A2
:1017B000911DB29F700D811D1124911D0895F89403
:0217C000FFCF59
:1017C20000003804800000000000E3005F00AC006D
:1017D2008A009E002A0141474341434B004147434F
:1017E2004E41434B006166746572676C6F77207679
:1017F20000202863292032303138206D6F726269EF
:101802006420636F726E666C616B6573000D0A0013
:101812002D2D2D2D2D2D2D2D2D2D2D2D2D2D2D2DF6
:101822002D2D2D2D2D2D2D2D2D2D2D2D2D2D2D2DE6
:101832002D2D2D2D2D2D2D2D2D2D2D2D2D2D2D0003
:101842004147560041474350004147434400414706
:101852004353004147445200454550524F4D207773
:06186200726974652000AC
:00000001FF
