:100000000C9435000C945D000C945D000C945D0024
:100010000C945D000C945D000C945D000C945D00EC
:100020000C945D000C945D000C945D000C94B6047F
:100030000C945D000C94F8080C945D000C945D0029
:100040000C946C040C945D000C943A040C9414040D
:100050000C945D000C945D000C945D000C945D00AC
:100060000C945D000C945D00B20B11241FBECFEF09
:10007000D8E0DEBFCDBF24E0AAEBB1E001C01D9205
:10008000A137B207E1F711E0A0E0B1E0EEECFCE14E
:1000900002C005900D92AA3BB107D9F710E0C5E365
:1000A000D0E004C02197FE010E945D0CC433D1074B
:1000B000C9F70E940F090C94650E0C9400004F9232
:1000C0005F926F927F928F929F92AF92BF92CF92E8
:1000D000DF92EF92FF92FC01EC57FF4FCC24CA94C1
:1000E000DC2C76018E179F07E1F1DC014D90CD01EC
:1000F00028E030E040E8842E912CA12CB12C512C2A
:10010000712C612CB301A201482159216A217B2164
:10011000452B462B472BF1F4B701A601442777FD69
:100120004395552766277727CC0CDD1CEE1CFF1C5A
:10013000442341F0B7EBCB26BDE1DB26B1ECEB2647
:10014000B4E0FB26B694A794979487942150310984
:10015000C9F6C8CFB701A601409550956095709536
:10016000DDCFC701B601FF90EF90DF90CF90BF9039
:10017000AF909F908F907F906F905F904F90089579
:10018000AF92BF92CF92DF92EF92FF920F931F93A5
:10019000CF93DF936C017B018B01040F151FEB01E3
:1001A0005E01AE18BF08C017D10759F06991D6019A
:1001B000ED91FC910190F081E02DC6010995892B0C
:1001C00079F7C501DF91CF911F910F91FF90EF90CB
:1001D000DF90CF90BF90AF900895FC01538D448D78
:1001E000252F30E0842F90E0821B930B541710F0E2
:1001F000CF96089501970895FC01918D828D9817EF
:1002000061F0A28DAE0FBF2FB11D5D968C91928DC6
:100210009F5F9F73928F90E008958FEF9FEF0895F7
:10022000FC01918D828D981731F0828DE80FF11DC0
:10023000858D90E008958FEF9FEF0895FC01918DDB
:10024000228D892F90E0805C9F4F821B91098F73D4
:100250009927089580ED93E00E941E0121E0892BEB
:1002600009F420E0822F089580E090E0892B29F0A6
:100270000E942A0181110C9400000895FC01A48DB4
:10028000A80FB92FB11DA35ABF4F2C91848D90E0B8
:1002900001968F739927848FA689B7892C93A0899B
:1002A000B1898C91837080648C93938D848D981325
:1002B00006C00288F389E02D80818F7D80830895B8
:1002C000EF92FF920F931F93CF93DF93EC0181E0A6
:1002D000888F9B8D8C8D98131AC0E889F98980814D
:1002E00085FF15C09FB7F894EE89FF896083E88980
:1002F000F98980818370806480839FBF81E090E072
:10030000DF91CF911F910F91FF90EF900895F62EFE
:100310000B8D10E00F5F1F4F0F731127E02E8C8D98
:100320008E110CC00FB607FCFACFE889F9898081DD
:1003300085FFF5CFCE010E943E01F1CFEB8DEC0F92
:10034000FD2FF11DE35AFF4FF0829FB7F8940B8FFA
:10035000EA89FB8980818062CFCFCF93DF93EC0164
:10036000888D8823B9F0AA89BB89E889F9898C919D
:1003700085FD03C0808186FD0DC00FB607FCF7CF59
:100380008C9185FFF2CF808185FFEDCFCE010E9459
:100390003E01E9CFDF91CF9108953FB7F894809166
:1003A000AA029091AB02A091AC02B091AD0226B529
:1003B000A89B05C02F3F19F00196A11DB11D3FBF9D
:1003C000BA2FA92F982F8827BC01CD01620F711D6C
:1003D000811D911D42E0660F771F881F991F4A9566
:1003E000D1F708958F929F92AF92BF92CF92DF92F2
:1003F000EF92FF924B015C010E94CD016B017C01E9
:100400000E94CD016C197D098E099F09683E7340D9
:1004100081059105A8F321E0821A9108A108B1088D
:1004200088EEC80E83E0D81EE11CF11C81149104F3
:10043000A104B10429F7FF90EF90DF90CF90BF9017
:10044000AF909F908F9008952F923F924F925F921E
:100450006F927F928F929F92AF92BF92CF92DF92D4
:10046000EF92FF920F931F93CF93DF9300D000D0B2
:1004700000D0CDB7DEB71E821D8205E212E090EDFE
:10048000892E97E0992EA12CB12C44244A94542C07
:10049000612C712C8D819E818C5C9C4F7C01ED8147
:1004A000FE81EC58FC4FFA83E98368018D819E81BF
:1004B0008B519E4F1C01ED81FE81E45CFC4FFC835F
:1004C000EB83F701A1917F01FAE0AF9FD0011124E6
:1004D000E981FA818191FA83E9831A9B8695F1017A
:1004E00081931F012FEF3FEF109789F028EE33E043
:1004F0000E94630CA50194010E943B0CC301B20150
:100500000E943B0C83E0220F331F8A95E1F7F6012E
:10051000219331936F018B819C81E816F90689F64E
:10052000005F1F4FED81FE813896FE83ED83E0343E
:10053000F10509F0AFCF26960FB6F894DEBF0FBED7
:10054000CDBFDF91CF911F910F91FF90EF90DF9082
:10055000CF90BF90AF909F908F907F906F905F9063
:100560004F903F902F9008959BB19F739BB920E0CF
:10057000362F282B80E190E040E050E85E98B901EA
:1005800064237523672B51F05D9A5E9A56954795C3
:100590000197A1F75E985F9A419808955D98F5CF0D
:1005A0001092810080918100886080938100809109
:1005B0008100816080938100109280001A990CC0A4
:1005C00080E49FE1909389008093880080916F0080
:1005D000826080936F00089580EA9FE0F3CFFC0172
:1005E00001900020E9F73197AF01481B590BBC017E
:1005F00080ED93E00C94C0008F929F92AF92BF92D7
:100600000F931F93CF93DF93CDB7DEB7A1970FB6AC
:10061000F894DEBF0FBECDBF19A2423008F44AE005
:100620008E010F5D1F4F842E912CB12CA12CA501A2
:1006300094010E943B0CE62FB901CA01EA30F4F4A0
:10064000E05DD801EE938D01232B242B252B79F728
:1006500090E080E0109719F0CD010E94EF02A19682
:100660000FB6F894DEBF0FBECDBFDF91CF911F91C3
:100670000F91BF90AF909F908F900895E95CE1CF6C
:10068000CF92DF92EF92FF92CF93DF936B017C01C9
:100690006DE280ED93E00E946001EC016627772710
:1006A000CB016C197D098E099F094AE00E94FC026A
:1006B0008C0F9D1FDF91CF91FF90EF90DF90CF9037
:1006C00008950C94EF02CF93DF930E94EF02EC01A8
:1006D00088E191E00E94EF028C0F9D1FDF91CF9186
:1006E0000895BC01990F880B990B4AE00C94FC0209
:1006F000CF93DF93EC018091CA039091CB030097D5
:1007000059F02091CC033091CD032C173D0720F0F8
:1007100081E0DF91CF910895BE016F5F7F4F0E940E
:100720008F0D009789F09093CB038093CA03D093E9
:10073000CD03C093CC032091CE033091CF03232B64
:1007400039F7FC011082E4CF80E0E3CF2091CE03A3
:100750003091CF03232B39F421E0FC0180818823E1
:1007600061F020E00AC0BC018091CA039091CB03E4
:100770000E94550E21E0892BA1F7822F0895E2E314
:10078000F3E086E8DF011D928A95E9F781E090E0C9
:10079000909331038093300390E080E02EE037E0C7
:1007A000FC01EC5CFC4FDC01AC58BC4FAC01445C80
:1007B0005C4F21933D93E417F507D9F708968034F1
:1007C000910571F780E393E00E945F006093B403AA
:1007D0007093B5038093B6039093B70308950F9376
:1007E0001F93CF93DF9300E313E0D0E0C0E0F80164
:1007F00061918F01CE010E94E70B2196C838D10587
:10080000B1F78BE191E00E9461034AE068E870E093
:1008100080E090E00E94FC0288E191E0DF91CF91BE
:100820001F910F910C94EF021F920F920FB60F922F
:1008300011242F933F934F935F936F937F938F93E5
:100840009F93AF93BF93EF93FF9380ED93E00E944C
:100850003E01FF91EF91BF91AF919F918F917F9159
:100860006F915F914F913F912F910F900FBE0F901D
:100870001F9018951F920F920FB60F9211242F936D
:100880008F939F93EF93FF93E091E003F091E10347
:100890008081E091E603F091E70382FD1BC0908127
:1008A0008091E9038F5F8F732091EA03821741F0F3
:1008B000E091E903F0E0E053FC4F958F8093E9036A
:1008C000FF91EF919F918F912F910F900FBE0F90FD
:1008D0001F9018958081F4CF1F920F920FB60F9240
:1008E00011242F933F938F939F93AF93BF93809146
:1008F000A6029091A702A091A802B091A9023091FE
:10090000A50223E0230F2D3758F50196A11DB11D37
:100910002093A5028093A6029093A702A093A80219
:10092000B093A9028091AA029091AB02A091AC026F
:10093000B091AD020196A11DB11D8093AA029093C2
:10094000AB02A093AC02B093AD02BF91AF919F9167
:100950008F913F912F910F900FBE0F901F90189580
:1009600026E8230F0296A11DB11DD2CF1F920F9230
:100970000FB60F9211242F923F924F925F926F9277
:100980007F928F929F92AF92BF92CF92DF92EF921F
:10099000FF920F931F932F933F934F935F936F9308
:1009A0007F938F939F93AF93BF93EF93FF93CF93D7
:1009B000DF9300D000D0CDB7DEB720908400309018
:1009C00085008091B8039091B903A091BA03B091CA
:1009D000BB030196A11DB11D8093B8039093B90389
:1009E000A093BA03B093BB03A8951B9936C0C090DF
:1009F000E301D090E4010091E1011091E2018091C6
:100A0000BC019091BD01C816D90639F48091BA0194
:100A10009091BB018017910761F0B801C6010E9457
:100A2000B402D092BD01C092BC011093BB010093EF
:100A3000BA011899FBC193B18091CF01292F24707D
:100A400092FF84C0883009F084C01092CF01809159
:100A5000CE018F5F8093CE017CC08090B8039090D0
:100A6000B903A090BA03B090BB03D501C40187704D
:100A70009927AA27BB2723E0B694A7949794879435
:100A80002A95D1F71A9B54C027E082229924AA24E0
:100A9000BB2401E010E0082E02C0000F111F0A94D1
:100AA000E2F7AC01B3E0440F551FBA95E1F7FC0142
:100AB00084E0EE0FFF1F8A95E1F7E055FD4F30E02F
:100AC00020E0D12CC12CD694C794819191910097AC
:100AD000F9F0B0E0A0E01A9B31C07DE0B595A79594
:100AE000979587957A95D1F7DA01A20FB31FAB518D
:100AF000BE4F9C91891708F4982F892F90E0B0E0A1
:100B0000A0E088159905AA05BB0510F06894C7F800
:100B10002F5F3F4F28303105B1F670E060E090E084
:100B200080E00E94B402B601C8010E94B40281CFE5
:100B300033E083229924AA24BB24ABCF6EE0B59581
:100B4000A795979587956A95D1F7CECF843009F40C
:100B50007CCF8091CE01883011F41092CE0180912B
:100B6000CF018F5F8093CF01A091CE0101E010E013
:100B70000A2E02C0000F111F0A94E2F7199903C050
:100B800030E020E0F5C04091CA015091CB01609166
:100B9000CC017091CD01222391F141155D47610592
:100BA000710591F51092CA011092CB011092CC01FF
:100BB0001092CD011092C6011092C7011092C80187
:100BC0001092C9011092C2011092C3011092C40187
:100BD0001092C5014091BE015091BF016091C001CA
:100BE0007091C1014F5F5F4F6F4F7F4F4093BE01C8
:100BF0005093BF016093C0017093C10105C040389C
:100C00005E436105710571F24091BE015091BF01D3
:100C10006091C0017091C1014730510561057105B6
:100C200041F41092BE011092BF011092C0011092C7
:100C3000C1014091CA015091CB016091CC017091EA
:100C4000CD014F5F5F4F6F4F7F4F4093CA0150936D
:100C5000CB016093CC017093CD014091C6015091BE
:100C6000C7016091C8017091C901222311F1403D73
:100C700057406105710511F51092C6011092C70128
:100C80001092C8011092C9014091C2015091C30154
:100C90006091C4017091C5014F5F5F4F6F4F7F4FEF
:100CA0004093C2015093C3016093C4017093C50186
:100CB00005C0483E534061057105F1F24091C601FF
:100CC0005091C7016091C8017091C9014F5F5F4F9A
:100CD0006F4F7F4F4093C6015093C7016093C80187
:100CE0007093C9014091BE015091BF016091C00154
:100CF0007091C101473051056105710508F040CF81
:100D0000FA01EB57F94F0C945D0C8C069606A10680
:100D1000AC06E506ED0609078091C201877021E067
:100D200030E08A17A9F030E020E012C08091C201C3
:100D3000877021E030E002C0220F331F8A95E2F76E
:100D400017C08091C201877021E030E08A1759F303
:100D50003195219531090CC08091C201877021E045
:100D600030E002C0220F331F8A95E2F720953095BC
:100D7000C801B0E0A0E0DC019927882720953095D4
:100D8000A90170E060E0822B952BA62BB72B6D019B
:100D9000EE24FF24960180959095A60155274830B2
:100DA000510509F493C108F068C04230510509F4B7
:100DB000A1C14430510509F495C04130510509F0F5
:100DC00065C040E050E0BA0191C08091C2018170DD
:100DD00089831A8229813A81BBCF6091C2017091C7
:100DE000C3018091C4019091C5016B01CA26C0FC6A
:100DF000C7CE23E030E040E050E00E943B0C2AEAFE
:100E00003AEA672B682B692B09F4B2CF24E535E564
:100E1000AFCF8091C201880F880F282F2695269585
:100E200026952770A213ACCE847083CF8BB1877EBA
:100E30008BB95C9A80E090E0DC0140E021E003C0E7
:100E40004830E1F729E004C0880F991FAA1FBB1F93
:100E50002A95D2F75B9829B122FBEE24E0F8F12C19
:100E60008701FF0C220B330B802B912BA22BB32B72
:100E70005B9A4F5F403121F78ACF4032510509F428
:100E80002FC120F54031510509F425C14091D90108
:100E90005091DA016091DB017091DC014F3FEFEF7F
:100EA0005E076E077E0761F04F5F5F4F6F4F7F4FAA
:100EB0004093D9015093DA016093DB017093DC0118
:100EC00048E050E060E070E0E0E019C040345105D7
:100ED00009F40BC140385105C9F647E050E060E025
:100EE00070E004C042E050E060E070E01092D90190
:100EF0001092DA011092DB011092DC01E1E0A09186
:100F0000D101B091D2012A173B0709F455C0A09135
:100F1000E301B091E4012A173B0741F42091E1017C
:100F20003091E2018217930709F4E9C01092D001D1
:100F30002091D001222309F43FC0D092D201C09267
:100F4000D101EE23C9F14830510561057105A1F1C8
:100F5000DA0124E0AA0FBB1F2A95E1F7FD01E05555
:100F6000FD4FAB5DBD4F8F01005F1F4FBC014D9129
:100F70005D912081318160FFCBC04901B12CA12C52
:100F800044244A94542C612C712C441A550A61084B
:100F90007108240F351F84149504A604B7040CF4BB
:100FA000BCC066246A94762C7182608232967695F3
:100FB0006795E017F107D9F6D092E401C092E301FA
:100FC0009093E2018093E1011899B0C01999ABC0E8
:100FD00084E090E09093AF028093AE021A9BC8C069
:100FE0002AEF30E04090AE025090AF025A82498220
:100FF0008091D7019091D80148165906C9F0A201F5
:101000004330510509F4DBC008F0B5C0413051054B
:1010100009F4C1C04230510509F4D1C01092D60183
:101020001092D50149805A805092D8014092D70140
:101030008091D3019091D40101969093D401809333
:10104000D3012091D5013091D6012115310509F048
:10105000BDC02D98809184009091850082199309DC
:101060002091DF013091E0012817390740F48038E2
:101070005EE3950720F49093E0018093DF010F90E9
:101080000F900F900F90DF91CF91FF91EF91BF9153
:10109000AF919F918F917F916F915F914F913F9110
:1010A0002F911F910F91FF90EF90DF90CF90BF9005
:1010B000AF909F908F907F906F905F904F903F90F8
:1010C0002F900F900FBE0F901F90189543E050E0A7
:1010D00060E070E00BCF44E050E060E070E006CFED
:1010E00045E050E060E070E001CF46E050E060E0B5
:1010F00070E0FCCE41E050E060E070E0F7CE20917F
:10110000D0012F3F09F414CF2F5F2093D00110CFCF
:101110004217530728F4241B350B3183208346CF15
:101120001182108243CF83E090E054CF8091DD01A3
:101130009091DE018436910590F48091D9019091CF
:10114000DA01A091DB01B091DC0184369105A105A3
:10115000B10540F41B9909C082E090E03BCF86E0E6
:1011600090E038CF85E090E035CF81E090E032CF5D
:1011700024EF31E037CF89819A818530910591F054
:10118000F0F0069709F04ACF50E040E060E970EDDA
:1011900083E090E00DC08FEF9FEF9093D601809396
:1011A000D50140CF50E040E060E271EA87E090E096
:1011B0000E943B0C3093D6012093D50133CF50E0F1
:1011C00040E060E472E48FE090E0F2CF2F3F32071E
:1011D00011F42D9A3FCF2817390708F03BCF85B17E
:1011E00090E2892785B91092D4011092D30132CFB1
:1011F0001F920F920FB60F9211248F939F9380919D
:10120000DD019091DE0101969093DE018093DD0176
:101210009F918F910F900FBE0F901F901895CF93B5
:10122000DF93CDB7DEB7C858D1090FB6F894DEBF4B
:101230000FBECDBF789484B5826084BD84B58160D3
:1012400084BD85B5826085BD85B5816085BD809191
:101250006E00816080936E00109281008091810009
:101260008260809381008091810081608093810001
:10127000809180008160809380008091B1008460C3
:101280008093B1008091B00081608093B000809124
:101290007A00846080937A0080917A0082608093E3
:1012A0007A0080917A00816080937A0080917A0040
:1012B000806880937A001092C100F89489EF8AB90F
:1012C00080E284B985B18F6185B98EE087B9449A8F
:1012D000419AE0EBF2E080E8DF011D928A95E9F7A0
:1012E00030E3E32E33E0F32E10E000E0C8010E946B
:1012F000DF0BF70181937F010F5F1F4F0838110546
:10130000A9F78091300390913103019789F480E32C
:1013100093E00E945F000091B4031091B503209107
:10132000B6033091B703601771078207930721F066
:101330000E94BF030E94EF03E091E003F091E103FC
:1013400082E08083E091DC03F091DD031082E09184
:10135000DE03F091DF0380E180831092E803E091E7
:10136000E403F091E50386E08083E091E203F091ED
:10137000E303808180618083E091E203F091E303E5
:10138000808188608083E091E203F091E3038081B3
:1013900080688083E091E203F091E30380818F7D98
:1013A00080830E9424028BE491E00E9461038EE618
:1013B00090E00E9471038AE191E00E94630387E557
:1013C00091E00E94630387E791E00E94630319E0C4
:1013D000E2E0F0E0109357001491177087E991E074
:1013E0000E94610389E291E0173051F08DE291E0B3
:1013F000143031F082E391E0153011F087E391E091
:101400000E9463030E94D002789488E198E00FB6AE
:10141000F894A895809360000FBE9093600083B10C
:101420008093BD0381E090E09093AF028093AE0281
:10143000CE0101967C0198E1692E20E0A22E20E0E9
:10144000B22E7724739488E0582E8091C603909131
:10145000C703A091C803B091C9030196A11DB11D96
:101460008093C6039093C703A093C803B093C903A6
:101470008091BE0381112AC01092CB031092CA033F
:101480001092CD031092CC031092CF031092CE0392
:1014900090E080E00E9478032091CA033091CB0352
:1014A000811144C02115310519F0C9010E94060DB2
:1014B0001092CB031092CA031092CF031092CE0366
:1014C0001092CD031092CC037092BE0380ED93E096
:1014D0000E941E012091BC03892B91F1211133C080
:1014E00080ED93E00E94FC008A3309F493C0898365
:1014F0001A820091CE031091CF030F5F1F4FC801D6
:101500000E947803882311F32091CA033091CB0302
:101510008091CE039091CF03B701820F931F0E9459
:101520005E0E1093CF030093CE03D0CF1092CF0363
:101530001092CE036AE171E0C9010E945E0EC4CF31
:10154000222309F440C082EA91E00E94A603882386
:1015500009F463C082EA91E00E94610380EA91E0AD
:101560000E9461038EE690E00E94710380EA91E0A0
:101570000E9461034AE061E070E080E090E00E9438
:10158000FC0288E191E00E94EF0290E080E00E947E
:1015900078032091CA033091CB038111D9C0211562
:1015A000310519F0C9010E94060D1092CB0310926B
:1015B000CA031092CF031092CE031092CD03109263
:1015C000CC031092BC0383B19091BD03892782FFA5
:1015D0000FC0F8940E94D0021092B8031092B90381
:1015E0001092BA031092BB0383B18093BD03789429
:1015F00064EF71E080E090E00E94F201A114B10478
:1016000009F423CF0E942A01882309F41CCF0E94E9
:10161000000019CF7092BC0359CF86EA91E00E9476
:10162000A603882349F048E850E060E373E080EDCA
:1016300093E00E94C000A9CF8BEA91E00E94A6032C
:10164000882339F00E94BF0384E491E00E94610383
:101650009CCF80EB91E00E94A603882309F495CFEC
:101660000FB6F894A895809160008861809360001F
:10167000109260000FBE80916F008D7F80936F008D
:10168000419A4E2C3F2CD12CC12C85EB91E00E942D
:10169000610368EC70E080E090E00E94F201042DAC
:1016A000132D4801A0E28A0E911C402E312E80EDB0
:1016B00093E00E941E01892B91F00815190579F01D
:1016C000B8E8CB16D10478F480ED93E00E94FC00DA
:1016D000F80181938F01FFEFCF1ADF0AE6CF98E878
:1016E000C916D10490F288E8C816D10471F5C70173
:1016F0000E945F00CB57DF4F088119812A813B810F
:10170000C558D0406017710782079307F1F488E845
:10171000F701A0E3B3E001900D928A95E1F70E94F2
:1017200024020E94EF0384E491E00E94610380910F
:101730006F00826080936F000FB6F894A895609256
:1017400060000FBE5092600020CF8CE391E0EDCF9F
:101750001092CF031092CE036AE171E0C9010E949A
:101760005E0E2FCFE0EDF3E01382128288EE93E05D
:10177000A0E0B0E084839583A683B7838AE091E0FC
:101780009183808385EC90E09587848784EC90E05A
:101790009787868780EC90E0918B808B81EC90E03E
:1017A000938B828B82EC90E0958B848B86EC90E01F
:1017B000978B868B118E128E138E148E0895F99945
:1017C000FECF92BD81BDF89A992780B50895262F46
:1017D000F999FECF1FBA92BD81BD20BD0FB6F89416
:1017E000FA9AF99A0FBE019608952F923F924F925E
:1017F0005F926F927F928F929F92AF92BF92CF92A1
:10180000DF92EF92FF920F931F93CF93DF93CDB7A9
:10181000DEB7CA1BDB0B0FB6F894DEBF0FBECDBF21
:1018200009942A88398848885F846E847D848C84F2
:101830009B84AA84B984C884DF80EE80FD800C81FB
:101840001B81AA81B981CE0FD11D0FB6F894DEBFDE
:101850000FBECDBFED010895A29FB001B39FC0019F
:10186000A39F700D811D1124911DB29F700D811DCC
:101870001124911D0895A1E21A2EAA1BBB1BFD0184
:101880000DC0AA1FBB1FEE1FFF1FA217B307E4075F
:10189000F50720F0A21BB30BE40BF50B661F771FB7
:1018A000881F991F1A9469F7609570958095909597
:1018B0009B01AC01BD01CF010895EE0FFF1F059004
:1018C000F491E02D09940E942C0CB7FF0895821B1F
:1018D000930B08950F931F93CF93DF93823091055D
:1018E00010F482E090E0E0916F04F091700430E039
:1018F00020E0B0E0A0E0309799F42115310509F41B
:101900004AC0281B390B24303105D8F58A819B81C8
:101910006115710589F1FB0193838283FE0111C07A
:10192000408151810281138148175907E0F048171F
:10193000590799F4109761F012960C931297139629
:101940001C933296CF01DF91CF911F910F91089593
:1019500000936F0410937004F4CF2115310551F0FA
:101960004217530738F0A901DB019A01BD01DF01DD
:10197000F801C1CFEF01F9CF9093700480936F0409
:10198000CDCFFE01E20FF31F8193919322503109D5
:1019900039832883D7CF20916D0430916E04232B97
:1019A00041F4209102013091030130936E042093A1
:1019B0006D0420910001309101012115310541F4A0
:1019C0002DB73EB74091040150910501241B350B02
:1019D000E0916D04F0916E04E217F307A0F42E1B62
:1019E0003F0B2817390778F0AC014E5F5F4F241783
:1019F000350748F04E0F5F1F50936E0440936D04FF
:101A0000819391939FCFF0E0E0E09CCFCF93DF9361
:101A10000097E9F0FC01329713821282A0916F04C3
:101A2000B0917004ED0130E020E01097A1F4208126
:101A30003181820F931F20916D0430916E0428171D
:101A4000390709F061C0F0936E04E0936D04DF91F3
:101A5000CF910895EA01CE17DF07E8F54A815B814F
:101A60009E0141155105B1F7E901FB83EA834991D4
:101A70005991C40FD51FEC17FD0761F48081918146
:101A80000296840F951FE90199838883828193814F
:101A90009B838A83F0E0E0E012968D919C911397EE
:101AA0000097B9F52D913C911197CD010296820FC7
:101AB000931F20916D0430916E042817390739F671
:101AC000309751F51092700410926F04B0936E0429
:101AD000A0936D04BCCFD383C28340815181840F16
:101AE000951FC817D90761F44E5F5F4F88819981B0
:101AF000480F591F518340838A819B81938382833E
:101B00002115310509F0B0CFF0937004E0936F0414
:101B10009ECFFD01DC01C0CF13821282D7CFB0E08F
:101B2000A0E0E5E9FDE00C94F70B8C01009751F47F
:101B3000CB010E946A0C8C01C801CDB7DEB7E0E191
:101B40000C94130CFC01E60FF71F9C012250310985
:101B5000E217F30708F49DC0D901CD91DC911197EC
:101B6000C617D70798F0C530D10530F3CE010497DA
:101B70008617970708F3C61BD70B2297C193D193FB
:101B80006D937C93CF010E94060DD6CF5B01AC1AFA
:101B9000BD0A4C018C0E9D1EA0916F04B091700483
:101BA000512C412CF12CE12C109731F580916D04D2
:101BB00090916E048815990509F05CC04616570689
:101BC00008F058C08091000190910101009741F404
:101BD0008DB79EB74091040150910501841B950B70
:101BE000E817F90708F055C0F0936E04E0936D0410
:101BF000F90171836083A0CF8D919C91119712960A
:101C00006C90129713967C901397A815B90559F507
:101C10006C0142E0C40ED11CCA14DB0420F1AC01FB
:101C20004A195B09DA011296159780F06282738275
:101C300051834083D9016D937C93E114F10471F0D9
:101C4000D7011396FC93EE93129776CF22968C0FC2
:101C50009D1FF90191838083F301EFCFF09370040E
:101C6000E0936F0469CF4816590608F42C017D01F2
:101C7000D3019ACFCB010E946A0C7C01009749F0F6
:101C8000AE01B8010E944C0EC8010E94060D8701EA
:101C900053CF10E000E050CFFB01DC0102C0019007
:101CA0000D9241505040D8F70895FB01DC018D9111
:101CB000019080190110D9F3990B0895FB01DC0103
:0E1CC00001900D920020E1F70895F894FFCFF7
:101CCE00000071048000000000006001C000ED0003
:101CDE00AD011E01FC0010010D0A00454550524F8A
:101CEE004D20777269746520004F464600342E33BE
:101CFE005600322E375600312E3856004147434E8D
:101D0E0041434B0041474341434B0061667465724A
:101D1E00676C6F772076002D2D2D2D2D2D2D2D2DD1
:101D2E002D2D2D2D2D2D2D2D2D2D2D2D2D2D2D2DD5
:101D3E002D2D2D2D2D2D0028632920323031382DBB
:101D4E0032303232206D6F7262696420636F726E50
:101D5E00666C616B657300656675736520424F44F2
:101D6E00200041475600414743500041474344003D
:0A1D7E00414743530041474452001F
:00000001FF
