:100000000C9435000C945D000C945D000C945D0024
:100010000C945D000C945D000C945D000C945D00EC
:100020000C945D000C945D000C945D000C94BA047B
:100030000C945D000C945D000C945D000C945D00CC
:100040000C9418040C945D000C9488040C946204C5
:100050000C945D000C945D000C945D000C945D00AC
:100060000C945D000C945D00010911241FBECFEFBC
:10007000D8E0DEBFCDBF11E0A0E0B1E0E0EAF7E1FB
:1000800002C005900D92A43CB107D9F724E0A4EC7E
:10009000B1E001C01D92A535B207E1F710E0C5E35C
:1000A000D0E004C02197FE010E945709C433D10754
:1000B000C9F70E9491060C94CE0B0C9400003FB738
:1000C000F8948091AA039091AB03A091AC03B091F6
:1000D000AD0326B5A89B05C02F3F19F00196A11DC1
:1000E000B11D3FBFBA2FA92F982F8827820F911DCE
:1000F000A11DB11DBC01CD0142E0660F771F881F15
:10010000991F4A95D1F708958F929F92AF92BF920F
:10011000CF92DF92EF92FF926B017C010E945F0011
:100120004B015C01C114D104E104F104F1F00E941F
:100130005F00DC01CB0188199909AA09BB09883E37
:100140009340A105B10570F321E0C21AD108E1087E
:10015000F10888EE880E83E0981EA11CB11CC11422
:10016000D104E104F10419F7DDCFFF90EF90DF90A7
:10017000CF90BF90AF909F908F900895CF92DF92D5
:10018000EF92FF920F931F93CF93DF936C017A014D
:100190008B01C0E0D0E0CE15DF0589F0D8016D916C
:1001A0008D01D601ED91FC910190F081E02DC60109
:1001B0000995892B11F47E0102C02196ECCFC7016D
:1001C000DF91CF911F910F91FF90EF90DF90CF9033
:1001D0000895FC01918D828D981761F0828DDF0169
:1001E000A80FB11D5D968C91928D9F5F9F73928F2A
:1001F00090E008958FEF9FEF0895FC01918D828D1F
:10020000981731F0828DE80FF11D858D90E00895EB
:100210008FEF9FEF0895FC01918D228D892F90E043
:10022000805C9F4F821B91098F739927089584EBFF
:1002300093E00E940B0121E0892B09F420E0822F3A
:100240000895FC01848DDF01A80FB11DA35ABF4F93
:100250002C91848D90E001968F739927848FA689C5
:10026000B7892C93A089B1898C9180648C93938DEC
:10027000848D981306C00288F389E02D80818F7DDC
:1002800080830895EF92FF920F931F93CF93DF9394
:10029000EC0181E0888F9B8D8C8D981305C0E889D7
:1002A000F989808185FD24C0F62E0B8D10E00F5F4B
:1002B0001F4F0F731127E02E8C8DE8120CC00FB664
:1002C00007FCFACFE889F989808185FFF5CFCE0157
:1002D0000E942101F1CF8B8DFE01E80FF11DE35A41
:1002E000FF4FF0820B8FEA89FB898081806207C013
:1002F000EE89FF896083E889F98980818064808341
:1003000081E090E0DF91CF911F910F91FF90EF90EE
:100310000895CF93DF93EC01888D8823C9F0EA8993
:10032000FB89808185FD05C0A889B9898C9186FDEE
:100330000FC00FB607FCF5CF808185FFF2CFA889EB
:10034000B9898C9185FFEDCFCE010E942101E7CFC5
:10035000DF91CF91089580E090E0892B29F00E94F1
:10036000170181110C94000008954F925F926F92D3
:100370007F928F929F92AF92BF92CF92DF92EF9235
:10038000FF920F931F93CF93DF93FC01EC01C60FF5
:10039000D71F6FEF7FEFCB01B1E0EC17FD07B1F195
:1003A000819048E050E010E8C12ED12CE12CF12CD6
:1003B000912CA12CB12C2B013C01442477FC4394BB
:1003C000552466247724A42D97018601082119213C
:1003D0002A213B21012B022B032B11F0AB2FA4254B
:1003E000660F771F881F991FAA2341F027EB62270A
:1003F0002DE1722721EC822724E09227F694E794DE
:10040000D794C79441505109B1F6C7CFDF91CF912E
:100410001F910F91FF90EF90DF90CF90BF90AF9022
:100420009F908F907F906F905F904F9008952F9244
:100430003F924F925F926F927F928F929F92AF9274
:10044000BF92CF92DF92EF92FF920F931F93CF93C1
:10045000DF9300D000D000D0CDB7DEB71E821D8262
:1004600000E112E090ED892E97E0992EA12CB12C9D
:1004700044244A94542C612C712C8D819E818C5E75
:100480009C4F7C016801ED81FE81EC5AFC4F1F01FD
:100490008D819E8180539E4F9A838983ED81FE8159
:1004A000E45EFC4FFC83EB83F701A1917F01FAE04E
:1004B000AF9FD0011124109791F028EE33E00E94F5
:1004C0005009A50194010E942E09C301B2010E94A6
:1004D0002E0983E0220F331F8A95E1F702C02FEF28
:1004E0003FEFF601219331936F01F10181911F01DB
:1004F000E981FA818193FA83E9838B819C81E816F3
:10050000F90691F6005F1F4FED81FE813896FE835C
:10051000ED83E034F10509F0B0CF26960FB6F894DC
:10052000DEBF0FBECDBFDF91CF911F910F91FF9026
:10053000EF90DF90CF90BF90AF909F908F907F9083
:100540006F905F904F903F902F9008959BB19F7355
:100550009BB970E0762F6627682B80E190E020E061
:1005600030E85E98A90146235723452B11F05D9A88
:1005700001C05D985E9A36952795019791F75E9830
:100580005F9A41980895009769F0FC01019000205E
:10059000E9F73197AF01481B590BBC0184EB93E09D
:1005A0000C94BE0080E090E008950C94C3028F92FA
:1005B0009F92AF92BF920F931F93CF93DF93CDB7CC
:1005C000DEB7A1970FB6F894DEBF0FBECDBF19A25C
:1005D000423008F44AE08E010F5D1F4F842E912CAB
:1005E000A12CB12CA50194010E942E09E62FB9017E
:1005F000CA0101501109EA3014F4E05D01C0E95C60
:10060000D801EC93232B242B252B61F7C8010E94E2
:10061000C302A1960FB6F894DEBF0FBECDBFDF9127
:10062000CF911F910F91BF90AF909F908F900895A1
:10063000CF92DF92EF92FF92CF93DF936B017C0119
:10064000E091B403F091B5030190F081E02D6DE2EB
:1006500084EB93E00995EC0166277727CB016C19B1
:100660007D098E099F094AE00E94D7028C0F9D1FC9
:10067000DF91CF91FF90EF90DF90CF900895CF93CF
:10068000DF930E94C302EC0186E191E00E94C30265
:100690008C0F9D1FDF91CF910895FC018091B203D3
:1006A0009091B303892B21F421E0309749F413C0D2
:1006B0008091AE039091AF03309731F421E0FC01BB
:1006C0008081882341F006C0BF010E94620B21E0B7
:1006D000892B09F020E0822F089588E8E0E1F3E01B
:1006E000DF011D928A95E9F781E090E09093110374
:1006F0008093100380E090E04EE057E0FC01EC5E58
:10070000FC4FDC01AC5ABC4F9C01245E3C4F419332
:100710005D93E217F307D9F708968034910571F7D6
:1007200064E870E080E193E00E94B5016093940377
:1007300070939503809396039093970308950E9476
:10074000540B0F931F93CF93DF93EC018881998112
:10075000009729F02A813B812617370788F48B01FF
:100760006F5F7F4F0E948A0A009761F099838883A8
:100770001B830A832C813D81232B11F4FC01108201
:1007800081E001C080E0DF91CF911F910F9108952A
:10079000EF92FF920F931F93CF93DF93EC017B01B6
:1007A0008A01BA010E94A1032881398181110DC0FB
:1007B0002115310519F0C9010E94F2091982188228
:1007C0001D821C821B821A8206C01D830C83B70106
:1007D000C9010E946B0BCE01DF91CF911F910F9148
:1007E000FF90EF9008950F931F93CF93DF9300E155
:1007F00013E0C0E0D0E0F80161918F01CE010E94CA
:100800007A0B2196C838D105B1F789E191E00E94B1
:10081000D5024AE068E870E080E090E00E94D702EC
:1008200086E191E0DF91CF911F910F910C94C3026B
:100830001F920F920FB60F9211242F933F938F9315
:100840009F93AF93BF938091A6039091A703A0912C
:10085000A803B091A9033091A50323E0230F2D37FE
:1008600020F40196A11DB11D05C026E8230F0296B4
:10087000A11DB11D2093A5038093A6039093A70308
:10088000A093A803B093A9038091AA039091AB030E
:10089000A091AC03B091AD030196A11DB11D809351
:1008A000AA039093AB03A093AC03B093AD03BF91A5
:1008B000AF919F918F913F912F910F900FBE0F900D
:1008C0001F9018951F920F920FB60F9211242F931D
:1008D0003F934F935F936F937F938F939F93AF93C8
:1008E000BF93EF93FF9384EB93E00E942101FF916C
:1008F000EF91BF91AF919F918F917F916F915F9198
:100900004F913F912F910F900FBE0F901F90189510
:100910001F920F920FB60F9211242F938F939F93D4
:10092000EF93FF93E091C403F091C5038081E091C0
:10093000CA03F091CB0382FD12C090818091CD0358
:100940008F5F8F732091CE03821751F0E091CD031A
:10095000F0E0EC54FC4F958F8093CD0301C0808173
:10096000FF91EF919F918F912F910F900FBE0F905C
:100970001F9018951F920F920FB60F9211242F926D
:100980003F924F925F926F927F928F929F92AF921F
:10099000BF92CF92DF92EF92FF920F931F932F930C
:1009A0003F934F935F936F937F938F939F93AF93F7
:1009B000BF93CF93DF93EF93FF9320908400309009
:1009C0008500C090CC01D090CD01E090CE01F09098
:1009D000CF012FEFC21AD20AE20AF20AC092CC016A
:1009E000D092CD01E092CE01F092CF01A89560E0C7
:1009F00080E00E94A602B701A6014770552766272E
:100A00007727D3E0F694E794D794C794DA95D1F793
:100A10004601570187E088229924AA24BB2481E05B
:100A200090E0042E01C0880F0A94EAF7DA0113E07F
:100A3000AA0FBB1F1A95E1F7A053BE4FFA0104E0BD
:100A4000EE0FFF1F0A95E1F7E057FD4F7D0128E00B
:100A5000E20EF11C60E0462F50E055954795642F5B
:100A60002191319121153105A9F0CC91D0E0232FAE
:100A70003327229526952770C217D30708F49E01C5
:100A80002901612C712C481459046A047B0410F06C
:100A9000642F60681196AE15BF05E9F60E94A602A4
:100AA00080E480937C0080917A00806480937A0057
:100AB00080917A0086FDFCCF80917800809179004A
:100AC0008BB1877E8BB95C9A80E1CEE0D0E0CC0F11
:100AD000DD1F5B9899B192FB002700F910E0C02B55
:100AE000D12B5B9A815099F71A9925C06091CC015E
:100AF0007091CD018091CE019091CF018B019C012D
:100B000043E036952795179507954A95D1F7202FFD
:100B10002770C0E0D1E002C0CC0FDD1F2A95E2F7BC
:100B200020ED37E040E050E00E942E0920FF02C097
:100B30002D9A01C02D988D2F9927582F7C2F7095B5
:100B40008830910561F154F482309105F1F08430E0
:100B5000910501F18130910589F536C0803291050A
:100B600019F144F48031910549F504E010E020E0EA
:100B700030E02DC080349105E1F080389105F1F42A
:100B800007E010E020E030E022C001E010E020E0CB
:100B900030E01DC002E010E020E030E018C003E0CB
:100BA00010E020E030E013C005E010E020E030E08D
:100BB0000EC006E010E020E030E009C008E010E0E0
:100BC00020E030E040E004C000E010E0980141E0A7
:100BD0006091C5015617D1F06091CB01561304C046
:100BE0005091CA01751719F01092C40107C05091B5
:100BF000C4015F3F19F05F5F5093C4015091C4017D
:100C0000552321F08093C501411117C08093CB017A
:100C10007093CA0180918400909185008219930994
:100C20009093C9018093C8012091C6013091C701FA
:100C30002817390708F44AC051C0083011052105AA
:100C4000310521F3F80194E0EE0FFF1F9A95E1F7CB
:100C5000DF01A057BD4FE05FFD4F8D01005F1F4FCB
:100C6000672F88248A94982CA12CB12CCFEFDFEF2A
:100C7000419151912D913C91119760FF15C06901EF
:100C8000E12CF12C24013501441A550A6108710840
:100C9000C414D504E604F7041CF4240F351F09C05E
:100CA0001196DC93CE930CC04217530730F4241BEB
:100CB000350B11963C932E9303C011961C921E92F5
:100CC00012966695A017B10799F6A0CF80382EE34B
:100CD000920720F49093C7018093C601FF91EF9192
:100CE000DF91CF91BF91AF919F918F917F916F9144
:100CF0005F914F913F912F911F910F91FF90EF9036
:100D0000DF90CF90BF90AF909F908F907F906F902B
:100D10005F904F903F902F900F900FBE0F901F90BD
:100D20001895CF93DF93CDB7DEB7C858D1090FB66A
:100D3000F894DEBF0FBECDBF789484B5826084BDC9
:100D400084B5816084BD85B5826085BD85B58160CF
:100D500085BD80916E00816080936E00109281004D
:100D60008091810082608093810080918100816008
:100D700080938100809180008160809380008091C9
:100D8000B10084608093B1008091B0008160809355
:100D9000B00080917A00846080937A0080917A001C
:100DA000826080937A0080917A00816080937A00DB
:100DB00080917A00806880937A001092C100F89444
:100DC000109280001092810080EA9FE09093890049
:100DD0008093880080918100886080938100809159
:100DE000810081608093810080916F008260809398
:100DF0006F0089EF8AB980E284B985B18F6085B9C7
:100E000086E087B9419A80917A00846080937A0065
:100E100080917A008D7F80937A0080917A008E7F16
:100E200080937A0080E8E0E9F2E0DF011D928A9584
:100E3000E9F730E1E32E33E0F32E00E010E0C801E3
:100E40000E94720BF70181937F010F5F1F4F0838DB
:100E50001105A9F78091100390911103019709F0F2
:100E6000F1C064E870E080E193E00E94B501009178
:100E70009403109195032091960330919703601786
:100E800071078207930709F0DDC00E941702E09105
:100E9000C403F091C50382E08083E091C003F09128
:100EA000C1031082E091C203F091C30380E180830B
:100EB0001092CC03E091C803F091C90386E08083CF
:100EC000E091C603F091C703808180618083E09147
:100ED000C603F091C703808188608083E091C603D8
:100EE000F091C703808180688083E091C603F09110
:100EF000C70380818F7D808389E491E00E94D502C1
:100F00004AE068E670E080E090E00E94D70285E564
:100F100091E00E943F03E2E0F0E089E08093570017
:100F2000149181E791E00E943F03177081EA91E0FC
:100F30000E94D502173039F0143041F0153049F0D5
:100F40008BE291E008C087E291E005C080E391E088
:100F500002C085E391E00E943F03789498E088E125
:100F60000FB6F894A895809360000FBE9093600030
:100F7000BB24B394CE0101967C0188E1A82E98E0B1
:100F8000792E28E8622E8091A1039091A203A0916E
:100F9000A303B091A4030196A11DB11D8093A103E9
:100FA0009093A203A093A303B093A4038091990309
:100FB00081113FC01092AF031092AE031092B103A3
:100FC0001092B0031092B3031092B20340E050E0CD
:100FD00068E171E08EEA93E00E94C803B092990341
:100FE00028C0211137C084EB93E00E94E9008A33C6
:100FF00071F189831A820091B2031091B3030F5FDC
:101000001F4FB8018EEA93E00E94A103882389F064
:101010002091AE033091AF038091B2039091B3035E
:10102000B701820F931F0E946B0B1093B3030093C1
:10103000B20384EB93E00E940B0120919803892B6B
:1010400049F0CFCF0E946D030E94F3031ECFB092F0
:101050009803EFCF222309F4CBC08CEA91E00E94E1
:101060004D038823F9F08CEA91E00E94D5028AEAC8
:1010700091E00E94D5024AE068E670E080E090E0EE
:101080000E94D7028AEA91E00E94D5024AE061E01C
:1010900070E080E090E00E94D70286E191E00E943B
:1010A000C3029CC080EB91E00E944D03882349F06D
:1010B00048E850E060E173E084EB93E00E94BE00FA
:1010C0008DC085EB91E00E944D03882339F00E948A
:1010D0006D0382E491E00E94D50280C08AEB91E02A
:1010E0000E944D03882309F479C00FB6F894A8959F
:1010F00080916000886180936000109260000FBE54
:1011000080916F008D7F80936F00419A5E2C4F2CF1
:10111000C12CD12C8FEB91E00E94D50268EC70E0DD
:1011200080E090E00E948400052D142D480190E29B
:10113000890E911C502E412E84EB93E00E940B01EE
:10114000892B91F00815190579F0E8E8CE16D1043D
:1011500078F484EB93E00E94E900D8018D938D012F
:10116000BFEFCB1ADB0AE6CF88E8C816D10490F2AD
:10117000F8E8CF16D10409F564E870E0C7010E94D1
:10118000B501CB57DF4F088119812A813B81C558B2
:10119000D040601771078207930779F4F701A0E147
:1011A000B3E0862D01900D928A95E1F70E94170217
:1011B0000E94F30382E491E002C08AE391E00E947E
:1011C000D50280916F00826080936F000FB6F89413
:1011D000A895A09260000FBE7092600040E050E0C1
:1011E00068E171E08EEA93E00E94C80310929803D0
:1011F00064EF71E080E090E00E9484000E94AB0107
:10120000C2CEE4EBF3E01382128288EE93E0A0E01A
:10121000B0E084839583A683B7838AE091E09183CD
:10122000808385EC90E09587848784EC90E09787B5
:10123000868780EC90E0918B808B81EC90E0938BA3
:10124000828B82EC90E0958B848B86EC90E0978B80
:10125000868B118E128E138E148E0895A1E21A2E93
:10126000AA1BBB1BFD010DC0AA1FBB1FEE1FFF1F4A
:10127000A217B307E407F50720F0A21BB30BE40B9A
:10128000F50B661F771F881F991F1A9469F76095E1
:101290007095809590959B01AC01BD01CF0108959B
:1012A0000E94BF0BB7FF0895821B930B0895EE0FAA
:1012B000FF1F0590F491E02D0994CF93DF938230C6
:1012C000910510F482E090E0E0915304F091540411
:1012D00020E030E0C0E0D0E0309711F14081518152
:1012E00048175907C0F04817590761F48281938164
:1012F000209719F09B838A832BC09093540480938A
:10130000530426C02115310519F04217530718F46C
:101310009A01BE01DF01EF010280F381E02DDCCFF5
:101320002115310509F1281B390B2430310590F4C2
:1013300012968D919C9113976115710521F0FB0117
:101340009383828304C09093540480935304FD01DB
:10135000329644C0FD01E20FF31F81939193225016
:1013600031092D933C933AC020915104309152049D
:10137000232B41F420910201309103013093520458
:101380002093510420910001309101012115310574
:1013900041F42DB73EB74091040150910501241B43
:1013A000350BE0915104F0915204E217F307A0F4D9
:1013B0002E1B3F0B2817390778F0AC014E5F5F4FAB
:1013C0002417350748F04E0F5F1F50935204409387
:1013D00051048193919302C0E0E0F0E0CF01DF91EE
:1013E000CF9108950F931F93CF93DF93009709F444
:1013F0008CC0FC0132971382128200915304109129
:1014000054040115110581F420813181820F931F4D
:1014100020915104309152042817390779F5F0933F
:101420005204E093510471C0D80140E050E0AE177F
:10143000BF0750F412962D913C911397AD012115E1
:10144000310509F1D901F3CF9D01DA0133832283FC
:1014500060817181860F971F8217930769F4EC01F1
:1014600028813981260F371F2E5F3F4F318320831C
:101470008A819B8193838283452B29F4F0935404C2
:10148000E093530442C01396FC93EE931297ED0140
:10149000499159919E01240F351FE217F30771F40A
:1014A00080819181840F951F029611969C938E9353
:1014B0008281938113969C938E931297E0E0F0E0E3
:1014C000D80112968D919C911397009719F0F8010D
:1014D0008C01F6CF8D919C9198012E5F3F4F820F2A
:1014E000931F20915104309152042817390769F451
:1014F000309729F4109254041092530402C01382BE
:1015000012821093520400935104DF91CF911F91E6
:101510000F910895A0E0B0E0E0E9FAE00C948C0BA4
:10152000EC01009721F4CB010E945D09B8C0FC01D9
:10153000E60FF71F9C0122503109E217F30708F468
:10154000ACC0D9010D911C91119706171707B0F087
:101550000530110508F49FC0C80104978617970746
:1015600008F499C002501109061B170B019311933F
:101570006D937C93CF010E94F2098DC05B01A01A8C
:10158000B10A4C01800E911EA0915304B0915404F5
:1015900040E050E0E12CF12C109709F44AC0A81566
:1015A000B905D1F56D907C901197630182E0C80E6A
:1015B000D11CCA14DB0480F1A3014A195B096A013A
:1015C00082E0C80ED11C1296BC9012971396AC9173
:1015D000B5E0CB16D10440F0B282A383518340839F
:1015E000D9016D937C930AC00E5F1F4FC301800F1A
:1015F000911FF90191838083EB2DFA2FE114F104FF
:1016000031F0D7011396FC93EE93129744C0F093F8
:101610005404E09353043FC08D919C911197481757
:10162000590708F4AC017D0112960D90BC91A02DD4
:10163000B3CF809151049091520488159905E1F43B
:1016400046175707C8F48091000190910101009757
:1016500041F48DB79EB74091040150910501841B60
:10166000950BE817F907C8F4F0935204E09351047E
:10167000F901718360830FC0CB010E945D097C0179
:10168000009759F0A801BE010E94590BCE010E949B
:10169000F209C70104C0CE0102C080E090E0CDB7DE
:1016A000DEB7EEE00C94A80B81E090E0F8940C9487
:1016B000CE0BFB01DC0102C001900D924150504065
:1016C000D8F70895FB01DC018D910190801901107C
:1016D000D9F3990B0895FB01DC0101900D920020D4
:1016E000E1F70895F999FECF92BD81BDF89A992747
:1016F00080B50895262FF999FECF1FBA92BD81BDFE
:1017000020BD0FB6F894FA9AF99A0FBE0196089583
:101710002F923F924F925F926F927F928F929F9201
:10172000AF92BF92CF92DF92EF92FF920F931F93EF
:10173000CF93DF93CDB7DEB7CA1BDB0B0FB6F894A0
:10174000DEBF0FBECDBF09942A88398848885F84E0
:101750006E847D848C849B84AA84B984C884DF8051
:10176000EE80FD800C811B81AA81B981CE0FD11D35
:101770000FB6F894DEBF0FBECDBFED010895A29F56
:10178000B001B39FC001A39F700D811D1124911D55
:10179000B29F700D811D1124911D0895F894FFCF03
:1017A000000055048000000000004201BE000B0153
:1017B000E900FD0089010D0A00454550524F4D20BA
:1017C000777269746520004F464600312E38560006
:1017D000342E335600322E3756004147434E414394
:1017E0004B0041474341434B006166746572676C2F
:1017F0006F77207600202863292032303138206D21
:101800006F7262696420636F726E666C616B657380
:10181000002D2D2D2D2D2D2D2D2D2D2D2D2D2D2D25
:101820002D2D2D2D2D2D2D2D2D2D2D2D2D2D2D2DE8
:101830002D2D2D2D2D2D2D2D2D2D2D2D2D2D2D2DD8
:1018400000656675736520424F442000414756008D
:1018500041474350004147434400414743530041FF
:0418600047445200A7
:00000001FF
