:100000000C9435000C945D000C945D000C945D0024
:100010000C945D000C945D000C945D000C945D00EC
:100020000C945D000C945D000C945D000C94BA047B
:100030000C945D000C945D000C945D000C945D00CC
:100040000C9418040C945D000C9488040C946204C5
:100050000C945D000C945D000C945D000C945D00AC
:100060000C945D000C945D00E30911241FBECFEFDA
:10007000D8E0DEBFCDBF11E0A0E0B1E0ECE7F9E1F0
:1000800002C005900D92A63CB107D9F724E0A6EC7A
:10009000B1E001C01D92A835B207E1F710E0C5E359
:1000A000D0E004C02197FE010E94450AC433D10765
:1000B000C9F70E9473070C94BC0C0C9400003FB766
:1000C000F8948091AD039091AE03A091AF03B091ED
:1000D000B00326B5A89B05C02F3F19F00196A11DBE
:1000E000B11D3FBFBA2FA92F982F8827820F911DCE
:1000F000A11DB11DBC01CD0142E0660F771F881F15
:10010000991F4A95D1F708958F929F92AF92BF920F
:10011000CF92DF92EF92FF926B017C010E945F0011
:100120004B015C01C114D104E104F104F1F00E941F
:100130005F00DC01CB0188199909AA09BB09883E37
:100140009340A105B10570F321E0C21AD108E1087E
:10015000F10888EE880E83E0981EA11CB11CC11422
:10016000D104E104F10419F7DDCFFF90EF90DF90A7
:10017000CF90BF90AF909F908F900895CF92DF92D5
:10018000EF92FF920F931F93CF93DF936C017A014D
:100190008B01C0E0D0E0CE15DF0589F0D8016D916C
:1001A0008D01D601ED91FC910190F081E02DC60109
:1001B0000995892B11F47E0102C02196ECCFC7016D
:1001C000DF91CF911F910F91FF90EF90DF90CF9033
:1001D0000895FC01918D828D981761F0828DDF0169
:1001E000A80FB11D5D968C91928D9F5F9F73928F2A
:1001F00090E008958FEF9FEF0895FC01918D828D1F
:10020000981731F0828DE80FF11D858D90E00895EB
:100210008FEF9FEF0895FC01918D228D892F90E043
:10022000805C9F4F821B91098F739927089587EBFC
:1002300093E00E940B0121E0892B09F420E0822F3A
:100240000895FC01848DDF01A80FB11DA35ABF4F93
:100250002C91848D90E001968F739927848FA689C5
:10026000B7892C93A089B1898C9180648C93938DEC
:10027000848D981306C00288F389E02D80818F7DDC
:1002800080830895EF92FF920F931F93CF93DF9394
:10029000EC0181E0888F9B8D8C8D981305C0E889D7
:1002A000F989808185FD24C0F62E0B8D10E00F5F4B
:1002B0001F4F0F731127E02E8C8DE8120CC00FB664
:1002C00007FCFACFE889F989808185FFF5CFCE0157
:1002D0000E942101F1CF8B8DFE01E80FF11DE35A41
:1002E000FF4FF0820B8FEA89FB898081806207C013
:1002F000EE89FF896083E889F98980818064808341
:1003000081E090E0DF91CF911F910F91FF90EF90EE
:100310000895CF93DF93EC01888D8823C9F0EA8993
:10032000FB89808185FD05C0A889B9898C9186FDEE
:100330000FC00FB607FCF5CF808185FFF2CFA889EB
:10034000B9898C9185FFEDCFCE010E942101E7CFC5
:10035000DF91CF91089580E090E0892B29F00E94F1
:10036000170181110C94000008954F925F926F92D3
:100370007F928F929F92AF92BF92CF92DF92EF9235
:10038000FF920F931F93CF93DF93FC01EC01C60FF5
:10039000D71F6FEF7FEFCB01B1E0EC17FD07B1F195
:1003A000819048E050E010E8C12ED12CE12CF12CD6
:1003B000912CA12CB12C2B013C01442477FC4394BB
:1003C000552466247724A42D97018601082119213C
:1003D0002A213B21012B022B032B11F0AB2FA4254B
:1003E000660F771F881F991FAA2341F027EB62270A
:1003F0002DE1722721EC822724E09227F694E794DE
:10040000D794C79441505109B1F6C7CFDF91CF912E
:100410001F910F91FF90EF90DF90CF90BF90AF9022
:100420009F908F907F906F905F904F9008952F9244
:100430003F924F925F926F927F928F929F92AF9274
:10044000BF92CF92DF92EF92FF920F931F93CF93C1
:10045000DF9300D000D000D0CDB7DEB71E821D8262
:1004600003E112E090ED892E97E0992EA12CB12C9A
:1004700044244A94542C612C712C8D819E81895E78
:100480009C4F7C016801ED81FE81E95AFC4F1F0100
:100490008D819E818D529E4F9A838983ED81FE814D
:1004A000E15EFC4FFC83EB83F701A1917F01FAE051
:1004B000AF9FD0011124109791F028EE33E00E94F5
:1004C0003E0AA50194010E941C0AC301B2010E94C8
:1004D0001C0A83E0220F331F8A95E1F702C02FEF39
:1004E0003FEFF601219331936F01F10181911F01DB
:1004F000E981FA818193FA83E9838B819C81E816F3
:10050000F90691F6005F1F4FED81FE813896FE835C
:10051000ED83E034F10509F0B0CF26960FB6F894DC
:10052000DEBF0FBECDBFDF91CF911F910F91FF9026
:10053000EF90DF90CF90BF90AF909F908F907F9083
:100540006F905F904F903F902F9008959BB19F7355
:100550009BB970E0762F6627682B80E190E020E061
:1005600030E85E98A90146235723452B11F05D9A88
:1005700001C05D985E9A36952795019791F75E9830
:100580005F9A41980895009769F0FC01019000205E
:10059000E9F73197AF01481B590BBC0187EB93E09A
:1005A0000C94BE0080E090E008950C94C3028F92FA
:1005B0009F92AF92BF920F931F93CF93DF93CDB7CC
:1005C000DEB7A1970FB6F894DEBF0FBECDBF19A25C
:1005D000423008F44AE08E010F5D1F4F842E912CAB
:1005E000A12CB12CA50194010E941C0AE62FB9018F
:1005F000CA0101501109EA3014F4E05D01C0E95C60
:10060000D801EC93232B242B252B61F7C8010E94E2
:10061000C302A1960FB6F894DEBF0FBECDBFDF9127
:10062000CF911F910F91BF90AF909F908F900895A1
:10063000CF92DF92EF92FF92CF93DF936B017C0119
:10064000E091B703F091B8030190F081E02D6DE2E5
:1006500087EB93E00995EC0166277727CB016C19AE
:100660007D098E099F094AE00E94D7028C0F9D1FC9
:10067000DF91CF91FF90EF90DF90CF900895CF93CF
:10068000DF930E94C302EC0187E191E00E94C30264
:100690008C0F9D1FDF91CF910895FC018091B503D0
:1006A0009091B603892B21F421E0309749F413C0CF
:1006B0008091B1039091B203309731F421E0FC01B5
:1006C0008081882341F006C0BF010E94500C21E0C8
:1006D000892B09F020E0822F089588E8E3E1F3E018
:1006E000DF011D928A95E9F781E090E09093140371
:1006F0008093130380E090E04EE057E0FC01E95E58
:10070000FC4FDC01A95ABC4F9C01215E3C4F419338
:100710005D93E217F307D9F708968034910571F7D6
:1007200064E870E083E193E00E94B5016093970371
:10073000709398038093990390939A0308950E946D
:10074000420C0F931F93CF93DF93EC018881998123
:10075000009729F02A813B812617370788F48B01FF
:100760006F5F7F4F0E94780B009761F099838883B9
:100770001B830A832C813D81232B11F4FC01108201
:1007800081E001C080E0DF91CF911F910F9108952A
:10079000EF92FF920F931F93CF93DF93EC017B01B6
:1007A0008A01BA010E94A1032881398181110DC0FB
:1007B0002115310519F0C9010E94E00A1982188239
:1007C0001D821C821B821A8206C01D830C83B70106
:1007D000C9010E94590CCE01DF91CF911F910F9159
:1007E000FF90EF9008950F931F93CF93DF9303E152
:1007F00013E0C0E0D0E0F80161918F01CE010E94CA
:10080000680C2196C838D105B1F78AE191E00E94C1
:10081000D5024AE068E870E080E090E00E94D702EC
:1008200087E191E0DF91CF911F910F910C94C3026A
:100830001F920F920FB60F9211242F933F938F9315
:100840009F93AF93BF938091A9039091AA03A09126
:10085000AB03B091AC033091A80323E0230F2D37F5
:1008600020F40196A11DB11D05C026E8230F0296B4
:10087000A11DB11D2093A8038093A9039093AA03FF
:10088000A093AB03B093AC038091AD039091AE0302
:10089000A091AF03B091B0030196A11DB11D80934B
:1008A000AD039093AE03A093AF03B093B003BF9199
:1008B000AF919F918F913F912F910F900FBE0F900D
:1008C0001F9018951F920F920FB60F9211242F931D
:1008D0003F934F935F936F937F938F939F93AF93C8
:1008E000BF93EF93FF9387EB93E00E942101FF9169
:1008F000EF91BF91AF919F918F917F916F915F9198
:100900004F913F912F910F900FBE0F901F90189510
:100910001F920F920FB60F9211242F938F939F93D4
:10092000EF93FF93E091C703F091C8038081E091BA
:10093000CD03F091CE0382FD12C090818091D0034F
:100940008F5F8F732091D103821751F0E091D00314
:10095000F0E0E954FC4F958F8093D00301C0808173
:10096000FF91EF919F918F912F910F900FBE0F905C
:100970001F9018951F920F920FB60F9211242F926D
:100980003F924F925F926F927F928F929F92AF921F
:10099000BF92CF92DF92EF92FF920F931F932F930C
:1009A0003F934F935F936F937F938F939F93AF93F7
:1009B000BF93CF93DF93EF93FF9320908400309009
:1009C0008500C090CF01D090D001E090D101F0908F
:1009D000D2012FEFC21AD20AE20AF20AC092CF0164
:1009E000D092D001E092D101F092D201A89560E0BE
:1009F00080E00E94A602B701A6014770552766272E
:100A000077274601570123E0B694A79497948794DB
:100A10002A95D1F787E088229924AA24BB2481E073
:100A200090E0042E01C0880F0A94EAF7DA0133E05F
:100A3000AA0FBB1F3A95E1F7AD52BE4FFA0144E051
:100A4000EE0FFF1F4A95E1F7ED56FD4FED01289699
:100A500060E070E08B0115950795602F2191319131
:100A600021153105A1F04C9150E0232F3327229519
:100A7000269527704217530708F49A0140E050E08A
:100A8000281539054A055B0510F0602F606811963E
:100A9000AC17BD07F1F60E94A602C701B6011A996C
:100AA0000CC020ED37E040E050E00E941C0A20FF1F
:100AB00002C02D9A40C02D983EC028E230E040E0B0
:100AC00050E00E941C0A8091C601861710F02D9AF2
:100AD00001C02D984091CF015091D0016091D1017A
:100AE0007091D201DB01CA018F739927AA27BB2716
:100AF000892B8A2B8B2BF9F48091C601853138F430
:100B0000517066277727452B462B472BA1F49091F0
:100B10000001992341F08F5F8093C601883259F418
:100B20001092000108C081508093C601811103C05A
:100B300081E08093000180E480937C0080917A00C2
:100B4000806480937A0080917A0086FDFCCF80914A
:100B50007800809179008BB1877E8BB95C9A80E1B7
:100B6000CEE0D0E0CC0FDD1F5B9899B192FB6624FC
:100B700060F8712CC629D7295B9A815099F718998A
:100B8000BCC0C090CF01D090D001E090D101F090D6
:100B9000D201D701C60153E0B695A79597958795E1
:100BA0005A95D1F7282F2770B22E01E010E0E80106
:100BB00002C0CC0FDD1F2A95E2F7199B98C0C70130
:100BC000B60120E03DE740E050E00E941C0A822F81
:100BD00067E00E94100A933099F128F49130B9F03F
:100BE0009230F9F007C0953009F44BC0C8F1963047
:100BF00009F462C0C701B60120ED37E040E050E0E3
:100C00000E941C0A277001E02B1117C017C0C701F2
:100C1000B60120ED37E040E050E00E941C0A27704A
:100C20005DC0C701B60120ED37E040E050E00E9412
:100C30001C0A277001E02B1101C000E0202F1FC00B
:100C4000C701B60120ED37E040E050E00E941C0AE9
:100C5000277001C0000F2A95EAF7202F209548C081
:100C6000C701B60120ED37E040E050E00E941C0AC9
:100C7000DA01C90181709927AA27BB27282F21955E
:100C800037C0C701B60120ED37E040E050E00E94D8
:100C90001C0ADA01C9018B2580FD29C0CA01B901EE
:100CA00023E030E040E050E00E941C0A672B682BF4
:100CB000692BD9F02AEA1CC0C701B60120ED37E044
:100CC00040E050E00E941C0A220F220F822F8C73FA
:100CD0008695869586958B110AC02470802F01C059
:100CE000880F2A95EAF7282F03C025E501C020E0E8
:100CF000022F0095DC2FCC27C02B8D2F9927582F42
:100D00007C2F70958830910561F154F48230910503
:100D1000F1F08430910501F18130910589F536C0FB
:100D20008032910519F144F48031910549F504E0D0
:100D300010E020E030E02DC080349105E1F08038F3
:100D40009105F1F407E010E020E030E022C001E07E
:100D500010E020E030E01DC002E010E020E030E0D4
:100D600018C003E010E020E030E013C005E010E020
:100D700020E030E00EC006E010E020E030E009C0E6
:100D800008E010E020E030E040E004C000E010E0C7
:100D9000980141E06091C8015617D1F06091CE01F1
:100DA000561304C05091CD01751719F01092C70168
:100DB00007C05091C7015F3F19F05F5F5093C701B3
:100DC0005091C701552321F08093C801411117C0EC
:100DD0008093CE017093CD01809184009091850025
:100DE000821993099093CC018093CB012091C90182
:100DF0003091CA012817390708F44AC051C0083099
:100E000011052105310521F3F80194E0EE0FFF1FD4
:100E10009A95E1F7DF01AD56BD4FED5EFD4F8D01B7
:100E2000005F1F4F672F88248A94982CA12CB12C27
:100E3000CFEFDFEF419151912D913C91119760FFE0
:100E400015C06901E12CF12C24013501441A550A21
:100E500061087108C414D504E604F7041CF4240FD7
:100E6000351F09C01196DC93CE930CC0421753076F
:100E700030F4241B350B11963C932E9303C011962E
:100E80001C921E9212966695A017B10799F6A0CFF4
:100E900080382EE3920720F49093CA018093C90111
:100EA000FF91EF91DF91CF91BF91AF919F918F9182
:100EB0007F916F915F914F913F912F911F910F9172
:100EC000FF90EF90DF90CF90BF90AF909F908F906A
:100ED0007F906F905F904F903F902F900F900FBE3C
:100EE0000F901F901895CF93DF93CDB7DEB7C858FA
:100EF000D1090FB6F894DEBF0FBECDBF789484B58C
:100F0000826084BD84B5816084BD85B5826085BD05
:100F100085B5816085BD80916E00816080936E0093
:100F20001092810080918100826080938100809185
:100F30008100816080938100809180008160809336
:100F400080008091B10084608093B1008091B000F6
:100F500081608093B00080917A00846080937A00F1
:100F600080917A00826080937A0080917A0081601B
:100F700080937A0080917A00806880937A00109242
:100F8000C100F894109280001092810080EA9FE0E6
:100F9000909389008093880080918100886080937D
:100FA00081008091810081608093810080916F0039
:100FB000826080936F0089EF8AB980E284B985B13D
:100FC0008F6085B986E087B9419A80917A00846004
:100FD00080937A0080917A008D7F80937A0080914F
:100FE0007A008E7F80937A0080E8E3E9F2E0DF0107
:100FF0001D928A95E9F733E1E32E33E0F32E00E00A
:1010000010E0C8010E94600CF70181937F010F5F1F
:101010001F4F08381105A9F780911303909114030D
:10102000019709F0F1C064E870E083E193E00E9469
:10103000B501009197031091980320919903309185
:101040009A03601771078207930709F0DDC00E94B9
:101050001702E091C703F091C80382E08083E0911A
:10106000C303F091C4031082E091C503F091C6035D
:1010700080E180831092CF03E091CB03F091CC0309
:1010800086E08083E091C903F091CA03808180618A
:101090008083E091C903F091CA03808188608083D6
:1010A000E091C903F091CA03808180688083E09158
:1010B000C903F091CA0380818F7D80838AE491E027
:1010C0000E94D5024AE069E670E080E090E00E946C
:1010D000D70286E591E00E943F03E2E0F0E089E07C
:1010E00080935700149182E791E00E943F031770AC
:1010F00082EA91E00E94D502173039F0143041F0B5
:10110000153049F08CE291E008C088E291E005C01A
:1011100081E391E002C086E391E00E943F0378946E
:1011200098E088E10FB6F894A895809360000FBE10
:1011300090936000BB24B394CE0101967C0188E1BA
:10114000A82E98E0792E28E8622E8091A403909131
:10115000A503A091A603B091A7030196A11DB11DFF
:101160008093A4039093A503A093A603B093A70331
:1011700080919C0381113FC01092B2031092B10381
:101180001092B4031092B3031092B6031092B503F9
:1011900040E050E069E171E081EB93E00E94C80318
:1011A000B0929C0328C0211137C087EB93E00E94C6
:1011B000E9008A3371F189831A820091B503109195
:1011C000B6030F5F1F4FB80181EB93E00E94A103AC
:1011D000882389F02091B1033091B2038091B50347
:1011E0009091B603B701820F931F0E94590C109380
:1011F000B6030093B50387EB93E00E940B012091A7
:101200009B03892B49F0CFCF0E946D030E94F3030B
:101210001ECFB0929B03EFCF222309F4CBC08DEAFF
:1012200091E00E944D038823F9F08DEA91E00E943D
:10123000D5028BEA91E00E94D5024AE069E670E0AF
:1012400080E090E00E94D7028BEA91E00E94D502F4
:101250004AE061E070E080E090E00E94D70287E120
:1012600091E00E94C3029CC081EB91E00E944D037B
:10127000882349F048E850E063E173E087EB93E0AE
:101280000E94BE008DC086EB91E00E944D03882332
:1012900039F00E946D0383E491E00E94D50280C082
:1012A0008BEB91E00E944D03882309F479C00FB6BF
:1012B000F894A895809160008861809360001092F6
:1012C00060000FBE80916F008D7F80936F00419A08
:1012D0005E2C4F2CC12CD12C80EC91E00E94D502C9
:1012E00068EC70E080E090E00E948400052D142DF1
:1012F000480190E2890E911C502E412E87EB93E01D
:101300000E940B01892B91F00815190579F0E8E886
:10131000CE16D10478F487EB93E00E94E900D8015F
:101320008D938D01BFEFCB1ADB0AE6CF88E8C81694
:10133000D10490F2F8E8CF16D10409F564E870E022
:10134000C7010E94B501CB57DF4F088119812A815F
:101350003B81C558D040601771078207930779F425
:10136000F701A3E1B3E0862D01900D928A95E1F794
:101370000E9417020E94F30383E491E002C08BE312
:1013800091E00E94D50280916F00826080936F008F
:101390000FB6F894A895A09260000FBE70926000FE
:1013A00040E050E069E171E081EB93E00E94C80306
:1013B00010929B0364EF71E080E090E00E94840053
:1013C0000E94AB01C2CEE7EBF3E01382128288EEFB
:1013D00093E0A0E0B0E084839583A683B7838BE09D
:1013E00091E09183808385EC90E09587848784ECFD
:1013F00090E09787868780EC90E0918B808B81ECE2
:1014000090E0938B828B82EC90E0958B848B86ECC2
:1014100090E0978B868B118E128E138E148E08950A
:10142000991B79E004C0991F961708F0961B881F36
:101430007A95C9F780950895A1E21A2EAA1BBB1BC5
:10144000FD010DC0AA1FBB1FEE1FFF1FA217B30790
:10145000E407F50720F0A21BB30BE40BF50B661FA6
:10146000771F881F991F1A9469F76095709580956A
:1014700090959B01AC01BD01CF0108950E94AD0C78
:10148000B7FF0895821B930B0895EE0FFF1F059081
:10149000F491E02D0994CF93DF938230910510F4FD
:1014A00082E090E0E0915604F091570420E030E0B3
:1014B000C0E0D0E0309711F14081518148175907C1
:1014C000C0F04817590761F482819381209719F081
:1014D0009B838A832BC0909357048093560426C025
:1014E0002115310519F04217530718F49A01BE016E
:1014F000DF01EF010280F381E02DDCCF2115310502
:1015000009F1281B390B2430310590F412968D9186
:101510009C9113976115710521F0FB0193838283E0
:1015200004C09093570480935604FD01329644C042
:10153000FD01E20FF31F81939193225031092D9306
:101540003C933AC02091540430915504232B41F42C
:1015500020910301309104013093550420935404E9
:1015600020910101309102012115310541F42DB77F
:101570003EB74091050150910601241B350BE091C7
:101580005404F0915504E217F307A0F42E1B3F0B0F
:101590002817390778F0AC014E5F5F4F24173507E5
:1015A00048F04E0F5F1F50935504409354048193AD
:1015B000919302C0E0E0F0E0CF01DF91CF91089578
:1015C0000F931F93CF93DF93009709F48CC0FC0116
:1015D000329713821282009156041091570401151C
:1015E000110581F420813181820F931F20915404D1
:1015F000309155042817390779F5F0935504E09395
:10160000540471C0D80140E050E0AE17BF0750F459
:1016100012962D913C911397AD012115310509F1D9
:10162000D901F3CF9D01DA01338322836081718177
:10163000860F971F8217930769F4EC01288139817F
:10164000260F371F2E5F3F4F318320838A819B8176
:1016500093838283452B29F4F0935704E093560437
:1016600042C01396FC93EE931297ED014991599164
:101670009E01240F351FE217F30771F480819181D9
:10168000840F951F029611969C938E93828193816D
:1016900013969C938E931297E0E0F0E0D801129697
:1016A0008D919C911397009719F0F8018C01F6CF5A
:1016B0008D919C9198012E5F3F4F820F931F209137
:1016C0005404309155042817390769F4309729F4E8
:1016D000109257041092560402C013821282109383
:1016E000550400935404DF91CF911F910F910895F9
:1016F000A0E0B0E0EEE7FBE00C947A0CEC01009780
:1017000021F4CB010E944B0AB8C0FC01E60FF71F81
:101710009C0122503109E217F30708F4ACC0D9014B
:101720000D911C91119706171707B0F005301105A0
:1017300008F49FC0C80104978617970708F499C05A
:1017400002501109061B170B019311936D937C93A3
:10175000CF010E94E00A8DC05B01A01AB10A4C01C2
:10176000800E911EA0915604B091570440E050E0C5
:10177000E12CF12C109709F44AC0A815B905D1F550
:101780006D907C901197630182E0C80ED11CCA1441
:10179000DB0480F1A3014A195B096A0182E0C80EEB
:1017A000D11C1296BC9012971396AC91B5E0CB1653
:1017B000D10440F0B282A38351834083D9016D9359
:1017C0007C930AC00E5F1F4FC301800F911FF90168
:1017D00091838083EB2DFA2FE114F10431F0D701CE
:1017E0001396FC93EE93129744C0F0935704E09342
:1017F00056043FC08D919C9111974817590708F4E2
:10180000AC017D0112960D90BC91A02DB3CF8091BB
:1018100054049091550488159905E1F4461757072B
:10182000C8F48091010190910201009741F48DB7B5
:101830009EB74091050150910601841B950BE81756
:10184000F907C8F4F0935504E0935404F901718347
:1018500060830FC0CB010E944B0A7C01009759F0B6
:10186000A801BE010E94470CCE010E94E00AC701F8
:1018700004C0CE0102C080E090E0CDB7DEB7EEE05C
:101880000C94960C81E090E0F8940C94BC0CFB0155
:10189000DC0102C001900D9241505040D8F70895EC
:1018A000FB01DC018D91019080190110D9F3990B96
:1018B0000895FB01DC0101900D920020E1F70895ED
:1018C000F999FECF92BD81BDF89A992780B5089508
:1018D000262FF999FECF1FBA92BD81BD20BD0FB64C
:1018E000F894FA9AF99A0FBE019608952F923F92B2
:1018F0004F925F926F927F928F929F92AF92BF9220
:10190000CF92DF92EF92FF920F931F93CF93DF93CB
:10191000CDB7DEB7CA1BDB0B0FB6F894DEBF0FBE28
:10192000CDBF09942A88398848885F846E847D8475
:101930008C849B84AA84B984C884DF80EE80FD8077
:101940000C811B81AA81B981CE0FD11D0FB6F894ED
:10195000DEBF0FBECDBFED010895A29FB001B39FC2
:10196000C001A39F700D811D1124911DB29F700DA8
:0C197000811D1124911D0895F894FFCFF3
:10197C0001000058048000000000004201BE000B72
:10198C0001E900FD0089010D0A00454550524F4DFB
:10199C0020777269746520004F464600312E385608
:1019AC0000342E335600322E3756004147434E41F9
:1019BC00434B0041474341434B006166746572677A
:1019CC006C6F772076002028632920323031382044
:1019DC006D6F7262696420636F726E666C616B65A9
:1019EC0073002D2D2D2D2D2D2D2D2D2D2D2D2D2D02
:1019FC002D2D2D2D2D2D2D2D2D2D2D2D2D2D2D2D0B
:101A0C002D2D2D2D2D2D2D2D2D2D2D2D2D2D2D2DFA
:101A1C002D00656675736520424F44200041475682
:101A2C000041474350004147434400414743530062
:061A3C0041474452000086
:00000001FF
