:100000000C9435000C945D000C945D000C945D0024
:100010000C945D000C945D000C945D000C945D00EC
:100020000C945D000C945D000C945D000C94B6047F
:100030000C945D000C943A080C945D000C945D00E7
:100040000C946C040C945D000C943A040C9414040D
:100050000C945D000C945D000C945D000C945D00AC
:100060000C945D000C945D00F80A11241FBECFEFC4
:10007000D8E0DEBFCDBF24E0ACECB1E001C01D9202
:10008000A737B207E1F711E0A0E0B1E0EAE5FBE154
:1000900002C005900D92AC3CB107D9F710E0C5E362
:1000A000D0E004C02197FE010E94A30BC433D10706
:1000B000C9F70E9451080C94AB0D0C9400004F92AC
:1000C0005F926F927F928F929F92AF92BF92CF92E8
:1000D000DF92EF92FF92FC01EC57FF4FCC24CA94C1
:1000E000DC2C76018E179F07E1F1DC014D90CD01EC
:1000F00028E030E040E8842E912CA12CB12C512C2A
:10010000712C612CB301A201482159216A217B2164
:10011000452B462B472BF1F4B701A601442777FD69
:100120004395552766277727CC0CDD1CEE1CFF1C5A
:10013000442341F0B7EBCB26BDE1DB26B1ECEB2647
:10014000B4E0FB26B694A794979487942150310984
:10015000C9F6C8CFB701A601409550956095709536
:10016000DDCFC701B601FF90EF90DF90CF90BF9039
:10017000AF909F908F907F906F905F904F90089579
:10018000AF92BF92CF92DF92EF92FF920F931F93A5
:10019000CF93DF936C017B018B01040F151FEB01E3
:1001A0005E01AE18BF08C017D10759F06991D6019A
:1001B000ED91FC910190F081E02DC6010995892B0C
:1001C00079F7C501DF91CF911F910F91FF90EF90CB
:1001D000DF90CF90BF90AF900895FC01538D448D78
:1001E000252F30E0842F90E0821B930B541710F0E2
:1001F000CF96089501970895FC01918D828D9817EF
:1002000061F0A28DAE0FBF2FB11D5D968C91928DC6
:100210009F5F9F73928F90E008958FEF9FEF0895F7
:10022000FC01918D828D981731F0828DE80FF11DC0
:10023000858D90E008958FEF9FEF0895FC01918DDB
:10024000228D892F90E0805C9F4F821B91098F73D4
:100250009927089586ED93E00E941E0121E0892BE5
:1002600009F420E0822F089580E090E0892B29F0A6
:100270000E942A0181110C9400000895FC01A48DB4
:10028000A80FB92FB11DA35ABF4F2C91848D90E0B8
:1002900001968F739927848FA689B7892C93A0899B
:1002A000B1898C91837080648C93938D848D981325
:1002B00006C00288F389E02D80818F7D80830895B8
:1002C000EF92FF920F931F93CF93DF93EC0181E0A6
:1002D000888F9B8D8C8D98131AC0E889F98980814D
:1002E00085FF15C09FB7F894EE89FF896083E88980
:1002F000F98980818370806480839FBF81E090E072
:10030000DF91CF911F910F91FF90EF900895F62EFE
:100310000B8D10E00F5F1F4F0F731127E02E8C8D98
:100320008E110CC00FB607FCFACFE889F9898081DD
:1003300085FFF5CFCE010E943E01F1CFEB8DEC0F92
:10034000FD2FF11DE35AFF4FF0829FB7F8940B8FFA
:10035000EA89FB8980818062CFCFCF93DF93EC0164
:10036000888D8823B9F0AA89BB89E889F9898C919D
:1003700085FD03C0808186FD0DC00FB607FCF7CF59
:100380008C9185FFF2CF808185FFEDCFCE010E9459
:100390003E01E9CFDF91CF9108953FB7F894809166
:1003A000B2029091B302A091B402B091B50226B509
:1003B000A89B05C02F3F19F00196A11DB11D3FBF9D
:1003C000BA2FA92F982F8827BC01CD01620F711D6C
:1003D000811D911D42E0660F771F881F991F4A9566
:1003E000D1F708958F929F92AF92BF92CF92DF92F2
:1003F000EF92FF924B015C010E94CD016B017C01E9
:100400000E94CD016C197D098E099F09683E7340D9
:1004100081059105A8F321E0821A9108A108B1088D
:1004200088EEC80E83E0D81EE11CF11C81149104F3
:10043000A104B10429F7FF90EF90DF90CF90BF9017
:10044000AF909F908F9008952F923F924F925F921E
:100450006F927F928F929F92AF92BF92CF92DF92D4
:10046000EF92FF920F931F93CF93DF9300D000D0B2
:1004700000D0CDB7DEB71E821D820DE212E090EDF6
:10048000892E97E0992EA12CB12C44244A94542C07
:10049000612C712C8D819E81865C9C4F7C01ED814D
:1004A000FE81E351FE4FFA83E98368018D819E81CD
:1004B00086589C4F1C01ED81FE81EE5BFC4FFC8356
:1004C000EB83F701A1917F01FAE0AF9FD0011124E6
:1004D0002FEF3FEF109789F028EE33E00E94A90B31
:1004E000A50194010E94810BC301B2010E94810BFE
:1004F00083E0220F331F8A95E1F7F60121933193B0
:100500006F01F10181911F011A9B8695E981FA81A2
:100510008193FA83E9838B819C81E816F90689F639
:10052000005F1F4FED81FE813896FE83ED83E0343E
:10053000F10509F0AFCF26960FB6F894DEBF0FBED7
:10054000CDBFDF91CF911F910F91FF90EF90DF9082
:10055000CF90BF90AF909F908F907F906F905F9063
:100560004F903F902F9008959BB19F739BB920E0CF
:10057000362F282B80E190E040E050E85E98B901EA
:1005800064237523672B51F05D9A5E9A56954795C3
:100590000197A1F75E985F9A419808955D98F5CF0D
:1005A0001092810080918100886080938100809109
:1005B0008100816080938100109280001A990CC0A4
:1005C00080E49FE1909389008093880080916F0080
:1005D000826080936F00089580EA9FE0F3CFFC0172
:1005E00001900020E9F73197AF01481B590BBC017E
:1005F00086ED93E00C94C0008F929F92AF92BF92D1
:100600000F931F93CF93DF93CDB7DEB7A1970FB6AC
:10061000F894DEBF0FBECDBF19A2423008F44AE005
:100620008E010F5D1F4F842E912CB12CA12CA501A2
:1006300094010E94810BE62FB901CA01EA30F4F45B
:10064000E05DD801EE938D01232B242B252B79F728
:1006500090E080E0109719F0CD010E94EF02A19682
:100660000FB6F894DEBF0FBECDBFDF91CF911F91C3
:100670000F91BF90AF909F908F900895E95CE1CF6C
:10068000CF92DF92EF92FF92CF93DF936B017C01C9
:100690006DE286ED93E00E946001EC01662777270A
:1006A000CB016C197D098E099F094AE00E94FC026A
:1006B0008C0F9D1FDF91CF91FF90EF90DF90CF9037
:1006C00008950C94EF02CF93DF930E94EF02EC01A8
:1006D00088E191E00E94EF028C0F9D1FDF91CF9186
:1006E0000895BC01990F880B990B4AE00C94FC0209
:1006F000CF93DF93EC018091D0039091D1030097C9
:1007000059F02091D2033091D3032C173D0720F0EC
:1007100081E0DF91CF910895BE016F5F7F4F0E940E
:10072000D50C009789F09093D1038093D003D09398
:10073000D303C093D2032091D4033091D503232B4C
:1007400039F7FC011082E4CF80E0E3CF2091D4039D
:100750003091D503232B39F421E0FC0180818823DB
:1007600061F020E00AC0BC018091D0039091D103D8
:100770000E949B0D21E0892BA1F7822F0895E8E3C9
:10078000F3E086E8DF011D928A95E9F781E090E0C9
:10079000909337038093360390E080E02EE037E0BB
:1007A000FC01E65CFC4FDC01A658BC4FAC014E5B83
:1007B0005C4F21933D93E417F507D9F708968034F1
:1007C000910571F786E393E00E945F006093BA039E
:1007D0007093BB038093BC039093BD0308950F9364
:1007E0001F93CF93DF9306E313E0D0E0C0E0F8015E
:1007F00061918F01CE010E942D0B2196C838D10541
:10080000B1F78BE191E00E9461034AE068E870E093
:1008100080E090E00E94FC0288E191E0DF91CF91BE
:100820001F910F910C94EF021F920F920FB60F922F
:1008300011242F933F934F935F936F937F938F93E5
:100840009F93AF93BF93EF93FF9386ED93E00E9446
:100850003E01FF91EF91BF91AF919F918F917F9159
:100860006F915F914F913F912F910F900FBE0F901D
:100870001F9018951F920F920FB60F9211242F936D
:100880008F939F93EF93FF93E091E603F091E7033B
:100890008081E091EC03F091ED0382FD1BC090811B
:1008A0008091EF038F5F8F732091F003821741F0E7
:1008B000E091EF03F0E0EA52FC4F958F8093EF0355
:1008C000FF91EF919F918F912F910F900FBE0F90FD
:1008D0001F9018958081F4CF1F920F920FB60F9240
:1008E00011242F933F938F939F93AF93BF93809146
:1008F000AE029091AF02A091B002B091B1023091DE
:10090000AD0223E0230F2D3758F50196A11DB11D2F
:100910002093AD028093AE029093AF02A093B002F9
:10092000B093B1028091B2029091B302A091B4024F
:10093000B091B5020196A11DB11D8093B2029093B2
:10094000B302A093B402B093B502BF91AF919F914F
:100950008F913F912F910F900FBE0F901F90189580
:1009600026E8230F0296A11DB11DD2CF1F920F9230
:100970000FB60F9211242F923F924F925F926F9277
:100980007F928F929F92AF92BF92CF92DF92EF921F
:10099000FF920F931F932F933F934F935F936F9308
:1009A0007F938F939F93AF93BF93EF93FF93CF93D7
:1009B000DF9300D000D0CDB7DEB720908400309018
:1009C00085008091BE039091BF03A091C003B091B8
:1009D000C1030196A11DB11D8093BE039093BF0377
:1009E000A093C003B093C103A8951B993CC0C090CD
:1009F000EB01D090EC010091E9011091EA018091A6
:100A0000D0019091D101C816D90639F48091CE0158
:100A10009091CF018017910761F0B801C6010E9443
:100A2000B402D092D101C092D0011093CF010093B3
:100A3000CE0180E480937C0080917A008064809372
:100A40007A0080917A0086FDFCCF809178008091B9
:100A500079008BB1877E8BB95C9A80E090E0DC01F5
:100A600040E021E07DC070E060E090E080E00E9426
:100A7000B4028090BE039090BF03A090C003B090DA
:100A8000C103B501A401477055276627772763E0A6
:100A9000B694A794979487946A95D1F71A9B4CC003
:100AA00027E082229924AA24BB2481E090E0042E2E
:100AB00002C0880F991F0A94E2F7DA0133E0AA0F07
:100AC000BB1F3A95E1F7A351BE4FFA0144E0EE0F88
:100AD000FF1F4A95E1F7EA54FD4FAF01405F5F4FBA
:100AE00070E060E07695679501911191011511050F
:100AF000E1F030E020E01A9B25C00F2EFDE0359597
:100B0000279517950795FA95D1F7F02D98010C9137
:100B100010E02017310708F4890130E020E00815C3
:100B200019052A053B0508F0606811964E175F0706
:100B3000C9F60E94B4027DCF33E083229924AA240F
:100B4000BB24B3CF0F2EFEE035952795179507955B
:100B5000FA95D1F7F02DDACF483009F082CF29E0AD
:100B600004C0880F991FAA1FBB1F2A95D2F75B9854
:100B700029B122FBEE24E0F8F12C8701FF0C220BB7
:100B8000330B802B912BA22BB32B5B9A4F5F403101
:100B900019F7189931C193B18091E301292F24707D
:100BA00092FF0AC0883051F41092E3018091E20173
:100BB0008F5F8093E20102C08430B1F38091E20143
:100BC000883011F41092E2018091E3018F5F8093ED
:100BD000E301A091E20101E010E00A2E02C0000F43
:100BE000111F0A94E2F7199903C030E020E0F5C024
:100BF0004091DE015091DF016091E0017091E101CF
:100C0000222391F141155D476105710591F510921F
:100C1000DE011092DF011092E0011092E1011092CA
:100C2000DA011092DB011092DC011092DD011092CA
:100C3000D6011092D7011092D8011092D90140919B
:100C4000D2015091D3016091D4017091D5014F5FD1
:100C50005F4F6F4F7F4F4093D2015093D30160930A
:100C6000D4017093D50105C040385E43610571051C
:100C700071F24091D2015091D3016091D4017091F1
:100C8000D501473051056105710541F41092D2013B
:100C90001092D3011092D4011092D5014091DE013F
:100CA0005091DF016091E0017091E1014F5F5F4F72
:100CB0006F4F7F4F4093DE015093DF016093E0015F
:100CC0007093E1014091DA015091DB016091DC0108
:100CD0007091DD01222311F1403D574061057105FE
:100CE00011F51092DA011092DB011092DC011092E2
:100CF000DD014091D6015091D7016091D8017091EA
:100D0000D9014F5F5F4F6F4F7F4F4093D601509394
:100D1000D7016093D8017093D90105C0483E534074
:100D200061057105F1F24091DA015091DB016091AA
:100D3000DC017091DD014F5F5F4F6F4F7F4F40933C
:100D4000DA015093DB016093DC017093DD01409187
:100D5000D2015091D3016091D4017091D5014730F7
:100D600051056105710508F040CFFA01E654F94FCD
:100D70000C94A30BC106CB06D606E1061A07220780
:100D80003E078091D601877021E030E08A17A9F0F4
:100D900030E020E012C08091D601877021E030E081
:100DA00002C0220F331F8A95E2F717C08091D60147
:100DB000877021E030E08A1759F331952195310988
:100DC0000CC08091D601877021E030E002C0220F74
:100DD000331F8A95E2F720953095C801B0E0A0E076
:100DE000DC019927882720953095A90170E060E003
:100DF000822B952BA62BB72B6D01EE24FF24960199
:100E000080959095A60155274830510509F40AC1EF
:100E100008F041C04230510509F4F9C04430510591
:100E200009F4FBC04130510509F03FC040E050E0FB
:100E3000BA01F1C08091D601817089831A8229811B
:100E40003A81BBCF6091D6017091D7018091D801D2
:100E50009091D9016B01CA26C0FCC7CE23E030E0D7
:100E600040E050E00E94810B2AEA3AEA672B682BA7
:100E7000692B09F4B2CF24E535E5AFCF8091D601D7
:100E8000880F880F282F2695269526952770A21360
:100E9000ACCE847083CF4032510509F4CDC008F048
:100EA000AAC04031510509F4C2C048E050E060E0FA
:100EB00070E0E0E0A091E501B091E6012A173B0760
:100EC00009F455C0A091EB01B091EC012A173B0742
:100ED00041F42091E9013091EA018217930709F466
:100EE000B5C01092E4012091E401222309F43FC02F
:100EF000D092E601C092E501EE23C9F148305105D8
:100F000061057105A1F1DA0124E0AA0FBB1F2A9542
:100F1000E1F7FD01EA54FD4FA35DBD4F8F01005F76
:100F20001F4FBC014D915D912081318160FF97C0C1
:100F30004901B12CA12C44244A94542C612C712CCD
:100F4000441A550A61087108240F351F841495044A
:100F5000A604B7040CF488C066246A94762C7182C7
:100F60006082329676956795E017F107D9F6D092B0
:100F7000EC01C092EB019093EA018093E90180912A
:100F8000840090918500821993092091E7013091A6
:100F9000E8012817390740F480382EE3920720F43F
:100FA0009093E8018093E7010F900F900F900F90BE
:100FB000DF91CF91FF91EF91BF91AF919F918F9171
:100FC0007F916F915F914F913F912F911F910F9161
:100FD000FF90EF90DF90CF90BF90AF909F908F9059
:100FE0007F906F905F904F903F902F900F900FBE2B
:100FF0000F901F9018954034510519F14038510554
:1010000009F053CF47E050E060E070E004C041E0F9
:1010100050E060E070E0E1E04DCF42E050E060E0A1
:1010200070E0F9CF43E050E060E070E0F4CF44E0DE
:1010300050E060E070E0EFCF45E050E060E070E04D
:10104000EACF46E050E060E070E0E5CF2091E401B7
:101050002F3F09F448CF2F5F2093E40144CF42177C
:10106000530728F4241B350B318320837ACF118258
:10107000108277CF1F920F920FB60F9211248F9389
:101080009F938091CC019091CD0101969093CD01D9
:101090008093CC019F918F910F900FBE0F901F9066
:1010A0001895CF93DF93CDB7DEB7C858D1090FB6E7
:1010B000F894DEBF0FBECDBF789484B5826084BD46
:1010C00084B5816084BD85B5826085BD85B581604C
:1010D00085BD80916E00816080936E0010928100CA
:1010E0008091810082608093810080918100816085
:1010F0008093810080918000816080938000809146
:10110000B10084608093B1008091B00081608093D1
:10111000B00080917A00846080937A0080917A0098
:10112000826080937A0080917A00816080937A0057
:1011300080917A00806880937A001092C100F894C0
:1011400089EF8AB914B885B18F6185B98EE087B906
:10115000449A419A80917A00846080937A008091C9
:101160007A008D7F80937A0080917A008E7F8093C1
:101170007A00E6EBF2E080E8DF011D928A95E9F75C
:1011800036E3E32E33E0F32E10E000E0C8010E94C6
:10119000250BF70181937F010F5F1F4F0838110561
:1011A000A9F78091360390913703019789F486E37C
:1011B00093E00E945F000091BA031091BB0320915D
:1011C000BC033091BD03601771078207930721F0BC
:1011D0000E94BF030E94EF030E942402E091E603F5
:1011E000F091E70382E08083E091E203F091E30372
:1011F0001082E091E403F091E50380E18083109296
:10120000EE03E091EA03F091EB0386E08083E09146
:10121000E803F091E903808180618083E091E80335
:10122000F091E903808188608083E091E803F09188
:10123000E903808180688083E091E803F091E9030D
:1012400080818F7D80838BE491E00E9461038DE635
:1012500090E00E94710387E591E00E94630319E02A
:10126000E2E0F0E010935700149188E791E00E94CB
:101270006303177088EA91E00E94610389E291E0BC
:10128000173051F08DE291E0143031F082E391E0BB
:10129000153011F087E391E00E9463030E94D002B1
:1012A000789488E198E00FB6F894A8958093600050
:1012B0000FBE9093600083B18093C303CE0101966B
:1012C0007C0198E1692E20E0A22E20E0B22E772446
:1012D000739488E0582E8091CC039091CD03A09117
:1012E000CE03B091CF030196A11DB11D8093CC0315
:1012F0009093CD03A093CE03B093CF038091C4030A
:1013000081112AC01092D1031092D0031092D303FE
:101310001092D2031092D5031092D40390E080E093
:101320000E9478032091D0033091D103811144C0F1
:101330002115310519F0C9010E944C0C1092D103FE
:101340001092D0031092D5031092D4031092D303BD
:101350001092D2037092C40386ED93E00E941E01A6
:101360002091C203892B91F1211133C086ED93E0C6
:101370000E94FC008A3309F493C089831A82009189
:10138000D4031091D5030F5F1F4FC8010E9478034B
:10139000882311F32091D0033091D1038091D4039D
:1013A0009091D503B701820F931F0E94A40D109353
:1013B000D5030093D403D0CF1092D5031092D40359
:1013C0006AE171E0C9010E94A40DC4CF222309F48F
:1013D00040C083EB91E00E94A603882309F463C018
:1013E00083EB91E00E94610381EB91E00E94610335
:1013F0008DE690E00E94710381EB91E00E94610311
:101400004AE061E070E080E090E00E94FC0288E148
:1014100091E00E94EF0290E080E00E94780320912A
:10142000D0033091D1038111D9C02115310519F0B4
:10143000C9010E944C0C1092D1031092D00310925B
:10144000D5031092D4031092D3031092D2031092BA
:10145000C20383B19091C303892782FF0FC0F89420
:101460000E94D0021092BE031092BF031092C003DC
:101470001092C10383B18093C303789464EF71E049
:1014800080E090E00E94F201A114B10409F423CF9E
:101490000E942A01882309F41CCF0E94000019CF62
:1014A0007092C20359CF87EB91E00E94A603882374
:1014B00049F048E850E066E373E086ED93E00E946F
:1014C000C000A9CF8CEB91E00E94A603882339F0DD
:1014D0000E94BF0384E491E00E9461039CCF81ECF1
:1014E00091E00E94A603882309F495CF0FB6F894E3
:1014F000A8958091600088618093600010926000E0
:101500000FBE80916F008D7F80936F00419A4E2CAB
:101510003F2CD12CC12C86EC91E00E94610368EC39
:1015200070E080E090E00E94F201042D132D48014C
:10153000A0E28A0E911C402E312E86ED93E00E948F
:101540001E01892B91F00815190579F0B8E8CB1622
:10155000D10478F486ED93E00E94FC00F8018193B9
:101560008F01FFEFCF1ADF0AE6CF98E8C916D10442
:1015700090F288E8C816D10471F5C7010E945F0097
:10158000CB57DF4F088119812A813B81C558D04054
:101590006017710782079307F1F488E8F701A6E363
:1015A000B3E001900D928A95E1F70E9424020E9417
:1015B000EF0384E491E00E94610380916F008260F8
:1015C00080936F000FB6F894A895609260000FBEEC
:1015D0005092600020CF8CE391E0EDCF1092D503C4
:1015E0001092D4036AE171E0C9010E94A40D2FCFCB
:1015F000E6EDF3E01382128288EE93E0A0E0B0E023
:1016000084839583A683B7838AE091E09183808366
:1016100085EC90E09587848784EC90E097878687B7
:1016200080EC90E0918B808B81EC90E0938B828BAF
:1016300082EC90E0958B848B86EC90E0978B868B88
:10164000118E128E138E148E0895F999FECF92BDCD
:1016500081BDF89A992780B50895262FF999FECF74
:101660001FBA92BD81BD20BD0FB6F894FA9AF99ABF
:101670000FBE019608952F923F924F925F926F9204
:101680007F928F929F92AF92BF92CF92DF92EF9212
:10169000FF920F931F93CF93DF93CDB7DEB7CA1B93
:1016A000DB0B0FB6F894DEBF0FBECDBF09942A88BE
:1016B000398848885F846E847D848C849B84AA8466
:1016C000B984C884DF80EE80FD800C811B81AA81F3
:1016D000B981CE0FD11D0FB6F894DEBF0FBECDBFBE
:1016E000ED010895A29FB001B39FC001A39F700DAB
:1016F000811D1124911DB29F700D811D1124911D1A
:101700000895A1E21A2EAA1BBB1BFD010DC0AA1F42
:10171000BB1FEE1FFF1FA217B307E407F50720F05A
:10172000A21BB30BE40BF50B661F771F881F991FD5
:101730001A9469F760957095809590959B01AC011E
:10174000BD01CF010895EE0FFF1F0590F491E02D2C
:1017500009940E94720BB7FF0895821B930B0895A2
:101760000F931F93CF93DF938230910510F482E0A3
:1017700090E0E0917504F091760430E020E0B0E074
:10178000A0E0309799F42115310509F44AC0281BCF
:10179000390B24303105D8F58A819B81611571059B
:1017A00089F1FB0193838283FE0111C04081518145
:1017B0000281138148175907E0F04817590799F437
:1017C000109761F012960C93129713961C93329611
:1017D000CF01DF91CF911F910F9108950093750470
:1017E00010937604F4CF2115310551F042175307B9
:1017F00038F0A901DB019A01BD01DF01F801C1CF79
:10180000EF01F9CF9093760480937504CDCFFE015C
:10181000E20FF31F8193919322503109398328837A
:10182000D7CF2091730430917404232B41F420917D
:1018300002013091030130937404209373042091CA
:101840000001309101012115310541F42DB73EB75A
:101850004091040150910501241B350BE091730464
:10186000F0917404E217F307A0F42E1B3F0B281726
:10187000390778F0AC014E5F5F4F2417350748F009
:101880004E0F5F1F509374044093730481939193A0
:101890009FCFF0E0E0E09CCFCF93DF930097E9F09B
:1018A000FC01329713821282A0917504B0917604E4
:1018B000ED0130E020E01097A1F420813181820F0A
:1018C000931F20917304309174042817390709F08D
:1018D00061C0F0937404E0937304DF91CF91089595
:1018E000EA01CE17DF07E8F54A815B819E014115C9
:1018F0005105B1F7E901FB83EA8349915991C40F7E
:10190000D51FEC17FD0761F4808191810296840F49
:10191000951FE90199838883828193819B838A83C0
:10192000F0E0E0E012968D919C9113970097B9F545
:101930002D913C911197CD010296820F931F20911A
:101940007304309174042817390739F6309751F52C
:101950001092760410927504B0937404A0937304EB
:10196000BCCFD383C28340815181840F951FC81798
:10197000D90761F44E5F5F4F88819981480F591FE5
:10198000518340838A819B81938382832115310512
:1019900009F0B0CFF0937604E09375049ECFFD017B
:1019A000DC01C0CF13821282D7CFB0E0A0E0EBED14
:1019B000FCE00C943D0B8C01009751F4CB010E948C
:1019C000B00B8C01C801CDB7DEB7E0E10C94590B28
:1019D000FC01E60FF71F9C0122503109E217F307C3
:1019E00008F49DC0D901CD91DC911197C617D70796
:1019F00098F0C530D10530F3CE01049786179707CC
:101A000008F3C61BD70B2297C193D1936D937C9398
:101A1000CF010E944C0CD6CF5B01AC1ABD0A4C0121
:101A20008C0E9D1EA0917504B0917604512C412C12
:101A3000F12CE12C109731F580917304909174048E
:101A40008815990509F05CC04616570608F058C07D
:101A50008091000190910101009741F48DB79EB7EC
:101A60004091040150910501841B950BE817F9077B
:101A700008F055C0F0937404E0937304F901718386
:101A80006083A0CF8D919C91119712966C901297C4
:101A900013967C901397A815B90559F56C0142E08F
:101AA000C40ED11CCA14DB0420F1AC014A195B0935
:101AB000DA011296159780F0628273825183408317
:101AC000D9016D937C93E114F10471F0D701139661
:101AD000FC93EE93129776CF22968C0F9D1FF901FF
:101AE00091838083F301EFCFF0937604E093750444
:101AF00069CF4816590608F42C017D01D3019ACF0D
:101B0000CB010E94B00B7C01009749F0AE01B801F7
:101B10000E94920DC8010E944C0C870153CF10E027
:101B200000E050CFFB01DC0102C001900D9241505A
:101B30005040D8F70895FB01DC018D910190801988
:101B40000110D9F3990B0895FB01DC0101900D926E
:0A1B50000020E1F70895F894FFCF9C
:101B5A00000077048000000000006001C000ED0072
:101B6A00AD011E01FC0010010D0A00454550524FFF
:101B7A004D20777269746520004F464600342E3333
:101B8A005600322E375600312E3856004147434E02
:101B9A0041434B0041474341434B006166746572C0
:101BAA00676C6F772076002028632920323031381D
:101BBA002D32303232206D6F7262696420636F7227
:101BCA006E666C616B6573002D2D2D2D2D2D2D2DBF
:101BDA002D2D2D2D2D2D2D2D2D2D2D2D2D2D2D2D2B
:101BEA002D2D2D2D2D2D2D2D2D2D2D2D2D2D2D2D1B
:101BFA002D2D2D2D2D2D2D00656675736520424FD7
:101C0A00442000414756004147435000414743445E
:0C1C1A0000414743530041474452000082
:00000001FF
