:100000000C9435000C945D000C945D000C945D0024
:100010000C945D000C945D000C945D000C945D00EC
:100020000C945D000C945D000C945D000C949F0496
:100030000C945D000C945D000C945D000C945D00CC
:100040000C94FD030C945D000C946D040C94470417
:100050000C945D000C945D000C945D000C945D00AC
:100060000C945D000C945D00390A11241FBECFEF83
:10007000D8E0DEBFCDBF12E0A0E0B1E0E2E5FFE1F5
:1000800002C005900D92A836B107D9F725E0A8E681
:10009000B2E001C01D92A130B207E1F710E0C5E364
:1000A000D0E004C02197FE010E948F0AC433D1071B
:1000B000C9F70E94C8060C94A70F0C9400003FB724
:1000C000F8948091560490915704A0915804B091EF
:1000D000590426B5A89B05C02F3F19F00196A11D14
:1000E000B11D3FBFBA2FA92F982F8827820F911DCE
:1000F000A11DB11DBC01CD0142E0660F771F881F15
:10010000991F4A95D1F708958F929F92AF92BF920F
:10011000CF92DF92EF92FF926B017C010E945F0011
:100120004B015C01C114D104E104F104F1F00E941F
:100130005F00DC01CB0188199909AA09BB09883E37
:100140009340A105B10570F321E0C21AD108E1087E
:10015000F10888EE880E83E0981EA11CB11CC11422
:10016000D104E104F10419F7DDCFFF90EF90DF90A7
:10017000CF90BF90AF909F908F900895CF92DF92D5
:10018000EF92FF920F931F93CF93DF936C017A014D
:100190008B01C0E0D0E0CE15DF0589F0D8016D916C
:1001A0008D01D601ED91FC910190F081E02DC60109
:1001B0000995892B11F47E0102C02196ECCFC7016D
:1001C000DF91CF911F910F91FF90EF90DF90CF9033
:1001D0000895FC01918D828D981761F0828DDF0169
:1001E000A80FB11D5D968C91928D9F5F9F73928F2A
:1001F00090E008958FEF9FEF0895FC01918D828D1F
:10020000981731F0828DE80FF11D858D90E00895EB
:100210008FEF9FEF0895FC01918D228D892F90E043
:10022000805C9F4F821B91098F739927089580E608
:1002300094E00E940B0121E0892B09F420E0822F39
:100240000895FC01848DDF01A80FB11DA35ABF4F93
:100250002C91848D90E001968F739927848FA689C5
:10026000B7892C93A089B1898C9180648C93938DEC
:10027000848D981306C00288F389E02D80818F7DDC
:1002800080830895EF92FF920F931F93CF93DF9394
:10029000EC0181E0888F9B8D8C8D981305C0E889D7
:1002A000F989808185FD24C0F62E0B8D10E00F5F4B
:1002B0001F4F0F731127E02E8C8DE8120CC00FB664
:1002C00007FCFACFE889F989808185FFF5CFCE0157
:1002D0000E942101F1CF8B8DFE01E80FF11DE35A41
:1002E000FF4FF0820B8FEA89FB898081806207C013
:1002F000EE89FF896083E889F98980818064808341
:1003000081E090E0DF91CF911F910F91FF90EF90EE
:100310000895CF93DF93EC01888D8823C9F0EA8993
:10032000FB89808185FD05C0A889B9898C9186FDEE
:100330000FC00FB607FCF5CF808185FFF2CFA889EB
:10034000B9898C9185FFEDCFCE010E942101E7CFC5
:10035000DF91CF91089580E090E0892B29F00E94F1
:10036000170181110C94000008954F925F926F92D3
:100370007F928F929F92AF92BF92CF92DF92EF9235
:10038000FF920F931F93CF93DF93FC01EC01C60FF5
:10039000D71F6FEF7FEFCB01B1E0EC17FD07B1F195
:1003A000819048E050E010E8C12ED12CE12CF12CD6
:1003B000912CA12CB12C2B013C01442477FC4394BB
:1003C000552466247724A42D97018601082119213C
:1003D0002A213B21012B022B032B11F0AB2FA4254B
:1003E000660F771F881F991FAA2341F027EB62270A
:1003F0002DE1722721EC822724E09227F694E794DE
:10040000D794C79441505109B1F6C7CFDF91CF912E
:100410001F910F91FF90EF90DF90CF90BF90AF9022
:100420009F908F907F906F905F904F9008952F9244
:100430003F924F925F926F927F928F929F92AF9274
:10044000BF92CF92DF92EF92FF920F931F93CF93C1
:10045000DF9300D000D000D0CDB7DEB71E821D8262
:100460000EEA12E090ED892E97E0992EA12CB12C86
:1004700044244A94542C612C712C8D819E818E5C75
:100480009C4F7C016801ED81FE81EE58FC4F1F01FD
:100490008D819E8182599D4F9A838983ED81FE8152
:1004A000E65CFC4FFC83EB83F701A1917F01FAE04E
:1004B000AF9FD0011124109791F028EE33E00E94F5
:1004C000880AA50194010E94660AC301B2010E9434
:1004D000660A83E0220F331F8A95E1F702C02FEFEF
:1004E0003FEFF601219331936F01F10181911F01DB
:1004F000E981FA818193FA83E9838B819C81E816F3
:10050000F90691F6005F1F4FED81FE813896FE835C
:10051000ED83E034F10509F0B0CF26960FB6F894DC
:10052000DEBF0FBECDBFDF91CF911F910F91FF9026
:10053000EF90DF90CF90BF90AF909F908F907F9083
:100540006F905F904F903F902F9008959BB19F7355
:100550009BB970E0762F6627682B80E190E020E061
:1005600030E85E98A90146235723452B11F05D9A88
:1005700001C05D985E9A36952795019791F75E9830
:100580005F9A41980895009769F0FC01019000205E
:10059000E9F73197AF01481B590BBC0180E694E0A5
:1005A0000C94BE0080E090E008950C94C302CF93B9
:1005B000DF930E94C302EC0186E191E00E94C30236
:1005C0008C0F9D1FDF91CF9108958F929F92AF92D4
:1005D000BF920F931F93CF93DF93CDB7DEB7A19751
:1005E0000FB6F894DEBF0FBECDBF19A2423008F49B
:1005F0004AE08E010F5D1F4F842E912CA12CB12C4F
:10060000A50194010E94660AE62FB901CA010150B2
:100610001109EA3014F4E05D01C0E95CD801EC9303
:10062000232B242B252B61F7C8010E94C302A1961E
:100630000FB6F894DEBF0FBECDBFDF91CF911F91F3
:100640000F91BF90AF909F908F900895CF92DF92BF
:10065000EF92FF92CF93DF936B017C01E0916004F6
:10066000F09161040190F081E02D6DE280E694E06C
:100670000995EC0166277727CB016C197D098E0956
:100680009F094AE00E94E5028C0F9D1FDF91CF91E8
:10069000FF90EF90DF90CF900895BC01990F880BE9
:1006A000990B97FD0C9426034AE00C94E502FC019B
:1006B00080915E0490915F04892B21F421E03097B2
:1006C00049F413C080915A0490915B04309731F43F
:1006D00021E0FC018081882341F006C0BF010E9417
:1006E0009A0C21E0892B09F020E0822F089588E8F8
:1006F000EEE2F3E0DF011D928A95E9F781E090E0F8
:1007000090932F0380932E0380E090E042E157E026
:10071000FC01EE5CFC4FDC01AE58BC4F9C01265C3A
:100720003C4F41935D93E217F307D9F70896803465
:10073000910571F764E870E08EE293E00E94B501E4
:100740006093B2037093B3038093B4039093B503A3
:1007500008950E948C0C0F931F93CF93DF93EC01AD
:1007600088819981009729F02A813B8126173707D4
:1007700088F48B016F5F7F4F0E94C20B009761F07E
:10078000998388831B830A832C813D81232B11F459
:10079000FC01108281E001C080E0DF91CF911F91C8
:1007A0000F910895EF92FF920F931F93CF93DF93D2
:1007B000EC017B018A01BA010E94AB0328813981D7
:1007C00081110DC02115310519F0C9010E942A0BB4
:1007D000198218821D821C821B821A8206C01D8308
:1007E0000C83B701C9010E94A30CCE01DF91CF9108
:1007F0001F910F91FF90EF9008951F920F920FB6E7
:100800000F9211242F933F938F939F93AF93BF9396
:100810008091520490915304A0915404B0915504D6
:100820003091510423E0230F2D3720F40196A11DB0
:10083000B11D05C026E8230F0296A11DB11D20930E
:1008400051048093520490935304A0935404B093A2
:1008500055048091560490915704A0915804B0918A
:1008600059040196A11DB11D80935604909357041D
:10087000A0935804B0935904BF91AF919F918F9169
:100880003F912F910F900FBE0F901F9018951F92C0
:100890000F920FB60F9211242F933F934F935F93B4
:1008A0006F937F938F939F93AF93BF93EF93FF9338
:1008B00080E694E00E942101FF91EF91BF91AF91FA
:1008C0009F918F917F916F915F914F913F912F9168
:1008D0000F900FBE0F901F9018951F920F920FB69A
:1008E0000F9211242F938F939F93EF93FF93E09197
:1008F0007004F09171048081E0917604F0917704A6
:1009000082FD12C09081809179048F5F8F73209156
:100910007A04821751F0E0917904F0E0E05AFB4F3D
:10092000958F8093790401C08081FF91EF919F9111
:100930008F912F910F900FBE0F901F9018951F92BF
:100940000F920FB60F9211242F923F924F925F9207
:100950006F927F928F929F92AF92BF92CF92DF92CF
:10096000EF92FF920F931F932F933F934F935F93B9
:100970006F937F938F939F93AF93BF93EF93FF9367
:10098000CF93DF93CDB7DEB72697DEBFCDBF2090E4
:10099000840030908500C0906A02D0906B02E09095
:1009A0006C02F0906D023FEFC31AD30AE30AF30A18
:1009B000C0926A02D0926B02E0926C02F0926D02D9
:1009C00060E080E00E94A602B701A60147705527AB
:1009D0006627772793E0F694E794D794C7949A957F
:1009E000D1F74601570187E088229924AA24BB2425
:1009F00081E090E07C01042E01C0EE0C0A94EAF73D
:100A0000DA0123E0AA0FBB1F2A95E1F7A259BD4FD7
:100A1000FA0134E0EE0FFF1F3A95E1F7EA54FC4F7C
:100A2000BD01685F7F4F10E0412F50E0559547951D
:100A3000142F819191910097A9F02C9130E0892F8A
:100A400099278295869587702817390708F4C90178
:100A50002C01612C712C481459046A047B0410F099
:100A6000142F10681196A617B707F1F6612F8E2D77
:100A70000E94A602E09236041093370480E480932B
:100A80007C0080917A00806480937A0080917A0063
:100A900086FDFCCF80917800809179008BB1877EB4
:100AA0008BB95C9A20E18EE090E0880F991F5B98EB
:100AB00039B132FB332730F939831A82E980FA8061
:100AC0008E299F295B9A215081F71A9943C0609122
:100AD0006A0270916B0280916C0290916D028B01A1
:100AE0009C0153E036952795179507955A95D1F7B0
:100AF000102F177021E030E07901012E02C0EE0CBA
:100B0000FF1C0A94E2F720ED37E040E050E00E943D
:100B1000660ADA01C901812789019A01017011274A
:100B20002227332780FD07C0011511052105310556
:100B300021F08AEA03C080E001C085E5682F609556
:100B40009E2D8827862B012B022B032B11F02D9A2B
:100B500001C02D98292F3327E22FF82EF094FD8223
:100B60002830310561F154F422303105F1F02430A0
:100B7000310501F12130310589F54CC020323105B4
:100B800019F144F42031310549F544E050E060E0CA
:100B900070E043C020343105E1F020383105F1F434
:100BA00047E050E060E070E038C041E050E060E0D5
:100BB00070E033C042E050E060E070E02EC043E0FF
:100BC00050E060E070E029C045E050E060E070E097
:100BD00024C046E050E060E070E01FC040913C045B
:100BE00050913D0460913E0470913F044F5F5F4F10
:100BF0006F4F7F4F40933C0450933D0460933E04FD
:100C000070933F0420933B0448E050E060E070E0C4
:100C100090E004C040E050E0BA0191E0F091690238
:100C2000EF1709F472C0F0913804EF1305C0E0919A
:100C300039048D818E1719F01092680207C0E09177
:100C40006802EF3F19F0EF5FE0936802E0916802FD
:100C5000EE2309F45AC020936902992309F455C080
:100C6000483051056105710519F440933A044DC0AF
:100C70008A0184E0000F111F8A95E1F7F801EA5418
:100C8000FC4F02551D4FDF015096BA83A983BD81E9
:100C9000BE8388248A94982CA12CB12CD801ED9085
:100CA000FD908D01FC82EB82A081B181FE80F0FE7F
:100CB00016C06D01E12CF12C240135018B819C8142
:100CC000481A590A61087108C414D504E604F704E7
:100CD0001CF4A80FB91F0AC0AFEFBFEF07C0EB802D
:100CE000FC80EA16FB0628F4AE19BF09B183A08385
:100CF00002C0118210823296FE80F694FE828981B3
:100D00009A81E817F90751F6B0CF209338049D81F6
:100D10009093390480918400909185008219930901
:100D20009093410480934004209142043091430405
:100D30002817390720F490934304809342042696A1
:100D40000FB6F894DEBF0FBECDBFDF91CF91FF91FC
:100D5000EF91BF91AF919F918F917F916F915F9133
:100D60004F913F912F911F910F91FF90EF90DF9046
:100D7000CF90BF90AF909F908F907F906F905F903B
:100D80004F903F902F900F900FBE0F901F9018958F
:100D9000CF93DF93CDB7DEB7C858D1090FB6F8941B
:100DA000DEBF0FBECDBF789484B5826084BD84B5AC
:100DB000816084BD85B5826085BD85B5816085BD56
:100DC00080916E00816080936E001092810080910E
:100DD0008100826080938100809181008160809396
:100DE0008100809180008160809380008091B100BB
:100DF00084608093B1008091B00081608093B000E6
:100E000080917A00846080937A0080917A00826079
:100E100080937A0080917A00816080937A0080913B
:100E20007A00806880937A001092C100F894109242
:100E300080001092810080EA9FE090938900809367
:100E4000880080918100886080938100809181007A
:100E500081608093810080916F00826080936F0039
:100E600089EF8AB980E284B985B18F6085B986E05F
:100E700087B9419A80917A00846080937A0080914A
:100E80007A008D7F80937A0080917A008E7F8093A4
:100E90007A0080E8E6EBF3E0DF011D928A95E9F73E
:100EA0006EE2E62E63E0F62E00E010E0C8010E943C
:100EB0004B0FF70181937F010F5F1F4F083811051A
:100EC000A9F780912E0390912F03019709F0C8C2D2
:100ED00064E870E08EE293E00E94B5010091B203F5
:100EE0001091B3032091B4033091B50360177107DB
:100EF0008207930709F0B7C200E010E0FF24F394E3
:100F00000E9417027894E0917004F091710482E0DD
:100F10008083E0916C04F0916D041082E0916E0486
:100F2000F0916F0480E1808310927804E091740462
:100F3000F091750486E08083E0917204F09173046F
:100F4000808180618083E0917204F09173048081DC
:100F500088608083E0917204F091730480818068DE
:100F60008083E0917204F091730480818F7D80838F
:100F700087E391E00E94D50286E690E00E944D034F
:100F800083E491E00E94D7028FE591E00E94D502B0
:100F900083E791E00E94D70283EA91E00E94D502A4
:100FA000F11003C080E291E002C089E191E00E946B
:100FB000D5020115110539F08DEA91E00E94D502A4
:100FC000C8010E944D0388E191E00E94D7028E0182
:100FD0000F5F1F4F4AE0442E512C612C712C54E3BB
:100FE000252E52E0352E80914D0490914E04A09113
:100FF0004F04B09150040196A11DB11D80934D0482
:1010000090934E04A0934F04B093500480914504F4
:10101000811142C010925B0410925A0410925D0438
:1010200010925C0410925F0410925E0440E050E065
:1010300068E171E08AE594E00E94D203F1E0F09368
:1010400045042AC0211130C080E694E00E94E900E6
:101050008A3309F401C289831A82E0905E04F09019
:101060005F048FEFE81AF80AB7018AE594E00E945E
:10107000AB03882389F020915A0430915B0480915E
:101080005E0490915F04B801820F931F0E94A30C2D
:10109000F0925F04E0925E0480E694E00E940B010F
:1010A00020914404892B71F6222309F4FCC083EBC0
:1010B00091E00E9457038823E1F083EB91E00E94C6
:1010C000D5028FE192E00E94D50286E690E00E9470
:1010D0004D038FE192E00E94D5024AE061E070E0AA
:1010E00080E090E00E94E50286E191E00E94C30268
:1010F000D0C087EB91E00E945703882349F048E86D
:1011000050E06EE273E080E694E00E94BE00C1C051
:101110008CEB91E00E945703882339F00E947703FB
:1011200080E391E00E94D502B4C081EC91E00E947E
:101130005703882309F4ADC080916F008D7F8093A1
:101140006F00419AB02EA12EE12CF12C86EC91E09B
:101150000E94D50268EC70E080E090E00E9484007C
:10116000CB2CDA2C4601A0E28A0E911CBC2CAD2CB3
:1011700080E694E00E940B01892B91F0C814D904F9
:1011800079F088E8E816F10478F480E694E00E94AB
:10119000E900F60181936F01FFEFEF1AFF0AE6CF36
:1011A000A8E8EA16F10490F298E8E916F10409F0CB
:1011B00059C064E870E0C8010E94B5016B017C0170
:1011C000CB57DF4F88819981AA81BB81C558D04018
:1011D000C816D906EA06FB0679F588E8F801AEE2FA
:1011E000B3E001900D928A95E1F70E9417023EE26A
:1011F000C32E33E0D32EE12CF12CF60161916F0167
:10120000C7010E94530FFFEFEF1AFF0A88E8E816A4
:10121000F10499F78BEC91E00E94D5024AE068E86E
:1012200070E080E090E00E94E50286E191E00E949B
:10123000C30280E391E026C089ED91E00E94D502CF
:101240004AE0C701B6010E94E5028FE192E00E94E8
:10125000D502CB57DF4F688179818A819B81C55840
:10126000D04007C083EE91E00E94D502B70180E034
:1012700090E04AE00E94E50286E191E00E94C3020C
:1012800088E291E00E94D50280916F008260809395
:101290006F0040E050E068E171E08AE594E00E9470
:1012A000D2031092440460914D0470914E048091D9
:1012B0004F0490915004A30192010E94660A672B8B
:1012C000682B692B49F064EF71E080E090E00E94A8
:1012D00084000E94AB0187CE1A9904C083EF91E08D
:1012E0000E94D7028DEF91E00E94D50260914204E6
:1012F0007091430484E0769567958A95E1F780E0E4
:1013000090E04AE00E94E50289E092E00E94D50266
:10131000609140047091410494E0769567959A95A8
:10132000E1F780E090E04AE00E94E50282E192E08D
:101330000E94D70285E192E00E94D50260913C04B0
:1013400070913D0480913E0490913F044AE00E94D8
:10135000E50281E292E00E94D50260913B0470E0D8
:1013600080E090E04AE00E94E50287E292E00E947D
:10137000D50260913A0470E080E090E04AE00E947B
:10138000E50286E191E00E94C302809139041F9238
:101390008F93809138041F928F933F922F921F93C7
:1013A0000F930E94AA0CC8010E94D50280913704B5
:1013B0001F928F93809136041F928F93AAE4B2E01C
:1013C000BF93AF931F930F930E94AA0CC8010E9472
:1013D000D50226EBE22E23E0F22E0FB6F894DEBF04
:1013E0000FBECDBF812C912C540181E692E00E946A
:1013F000D5024AE0C501B4010E94E50283E692E00D
:101400000E94D502C12CD12CF701EC0DFD1D60818D
:10141000718180E090E04AE00E94E5028FE192E075
:101420000E94D50292E0C90ED11CA0E1CA16D104D7
:1014300059F788E191E00E94D702BFEF8B1A9B0A0F
:10144000AB0ABB0AE0E1EE0EF11CF8E08F16910446
:10145000A104B10451F637CF91E0909344041CCE1F
:1014600001E010E002C002E010E00E947703F12CDE
:1014700047CDE0E6F4E01382128288EE93E0A0E02C
:10148000B0E084839583A683B7838AE091E091835B
:10149000808385EC90E09587848784EC90E0978743
:1014A000868780EC90E0918B808B81EC90E0938B31
:1014B000828B82EC90E0958B848B86EC90E0978B0E
:1014C000868B118E128E138E148E0895A1E21A2E21
:1014D000AA1BBB1BFD010DC0AA1FBB1FEE1FFF1FD8
:1014E000A217B307E407F50720F0A21BB30BE40B28
:1014F000F50B661F771F881F991F1A9469F760956F
:101500007095809590959B01AC01BD01CF01089528
:101510000E94980FB7FF0895821B930B0895EE0F5A
:10152000FF1F0590F491E02D0994CF93DF93823053
:10153000910510F482E090E0E091FF04F091000545
:1015400020E030E0C0E0D0E0309711F140815181DF
:1015500048175907C0F04817590761F482819381F1
:10156000209719F09B838A832BC09093000580936A
:10157000FF0426C02115310519F04217530718F44E
:101580009A01BE01DF01EF010280F381E02DDCCF83
:101590002115310509F1281B390B2430310590F450
:1015A00012968D919C9113976115710521F0FB01A5
:1015B0009383828304C0909300058093FF04FD0110
:1015C000329644C0FD01E20FF31F819391932250A4
:1015D00031092D933C933AC02091FD043091FE04D3
:1015E000232B41F420910201309103013093FE043A
:1015F0002093FD0420910001309101012115310556
:1016000041F42DB73EB74091040150910501241BD0
:10161000350BE091FD04F091FE04E217F307A0F40E
:101620002E1B3F0B2817390778F0AC014E5F5F4F38
:101630002417350748F04E0F5F1F5093FE04409368
:10164000FD048193919302C0E0E0F0E0CF01DF91CF
:10165000CF9108950F931F93CF93DF93009709F4D1
:101660008CC0FC013297138212820091FF0410910A
:1016700000050115110581F420813181820F931F2E
:101680002091FD043091FE042817390779F5F09375
:10169000FE04E093FD0471C0D80140E050E0AE17B5
:1016A000BF0750F412962D913C911397AD0121156F
:1016B000310509F1D901F3CF9D01DA01338322838A
:1016C00060817181860F971F8217930769F4EC017F
:1016D00028813981260F371F2E5F3F4F31832083AA
:1016E0008A819B8193838283452B29F4F0930005A3
:1016F000E093FF0442C01396FC93EE931297ED0122
:10170000499159919E01240F351FE217F30771F497
:1017100080819181840F951F029611969C938E93E0
:101720008281938113969C938E931297E0E0F0E070
:10173000D80112968D919C911397009719F0F8019A
:101740008C01F6CF8D919C9198012E5F3F4F820FB7
:10175000931F2091FD043091FE042817390769F486
:10176000309729F4109200051092FF0402C01382F2
:1017700012821093FE040093FD04DF91CF911F911C
:101780000F910895A0E0B0E0E8ECFBE00C94650F49
:10179000EC01009721F4CB010E94950AB8C0FC012E
:1017A000E60FF71F9C0122503109E217F30708F4F6
:1017B000ACC0D9010D911C91119706171707B0F015
:1017C0000530110508F49FC0C801049786179707D4
:1017D00008F499C002501109061B170B01931193CD
:1017E0006D937C93CF010E942A0B8DC05B01A01AE0
:1017F000B10A4C01800E911EA091FF04B09100052A
:1018000040E050E0E12CF12C109709F44AC0A815F3
:10181000B905D1F56D907C901197630182E0C80EF7
:10182000D11CCA14DB0480F1A3014A195B096A01C7
:1018300082E0C80ED11C1296BC9012971396AC9100
:10184000B5E0CB16D10440F0B282A383518340832C
:10185000D9016D937C930AC00E5F1F4FC301800FA7
:10186000911FF90191838083EB2DFA2FE114F1048C
:1018700031F0D7011396FC93EE93129744C0F09386
:101880000005E093FF043FC08D919C91119748178C
:10189000590708F4AC017D0112960D90BC91A02D62
:1018A000B3CF8091FD049091FE0488159905E1F471
:1018B00046175707C8F480910001909101010097E5
:1018C00041F48DB79EB74091040150910501841BEE
:1018D000950BE817F907C8F4F093FE04E093FD04B4
:1018E000F901718360830FC0CB010E94950A7C01CE
:1018F000009759F0A801BE010E94910CCE010E94F0
:101900002A0BC70104C0CE0102C080E090E0CDB731
:10191000DEB7EEE00C94810F81E090E0F8940C9437
:10192000A70FFB01DC0102C001900D924150504015
:10193000D8F70895FB01DC018D9101908019011009
:10194000D9F3990B0895FB01DC0101900D92002061
:10195000E1F70895AEE0B0E0E0EBFCE00C946F0F2F
:101960000D891E8986E08C831A8309838FEF9FE798
:101970009E838D83AE01475E5F4F6F89788DCE0168
:1019800001960E94CD0C2F813885F801E20FF31FDC
:1019900010822E96E4E00C948B0FACE0B0E0E3ED07
:1019A000FCE00C94610F7C016B018A01FC01178241
:1019B0001682838181FFBDC1CE0101964C01F701E2
:1019C0009381F60193FD859193FF81916F018823A7
:1019D00009F4ABC1853239F493FD859193FF819170
:1019E0006F01853229F4B70190E00E94B50EE7CF70
:1019F000512C312C20E02032A0F48B3269F030F4ED
:101A0000803259F0833269F420612CC08D3239F074
:101A1000803339F4216026C02260246023C028600E
:101A200021C027FD27C030ED380F3A3078F426FF6B
:101A300006C0FAE05F9E300D1124532E13C08AE0D9
:101A4000389E300D1124332E20620CC08E3221F4CA
:101A500026FD6BC1206406C08C3611F4206802C0DC
:101A6000883641F4F60193FD859193FF81916F01D2
:101A70008111C1CF982F9F7D9554933028F40C5F2E
:101A80001F4FFFE3F9830DC0833631F0833771F0C8
:101A9000833509F05BC022C0F801808189830E5F25
:101AA0001F4F44244394512C540115C03801F2E0D7
:101AB0006F0E711CF801A080B18026FF03C0652D58
:101AC00070E002C06FEF7FEFC5012C870E94AA0E65
:101AD0002C0183012C852F77222E17C03801F2E0CC
:101AE0006F0E711CF801A080B18026FF03C0652D28
:101AF00070E002C06FEF7FEFC5012C870E949F0E40
:101B00002C012C852068222E830123FC1BC0832DF1
:101B100090E048165906B0F4B70180E290E00E94C8
:101B2000B50E3A94F4CFF50127FC859127FE8191FB
:101B30005F01B70190E00E94B50E31103A94F1E0D8
:101B40004F1A51084114510471F7E5C0843611F061
:101B5000893639F5F80127FF07C0608171818281DC
:101B600093810C5F1F4F08C060817181072E000CAC
:101B7000880B990B0E5F1F4F2F76722E97FF09C0AF
:101B800090958095709561957F4F8F4F9F4F2068FE
:101B9000722E2AE030E0A4010E94ED0EA82EA818B3
:101BA00044C0853729F42F7EB22E2AE030E025C0CC
:101BB000F22FF97FBF2E8F36C1F018F4883579F0F7
:101BC000B4C0803719F0883721F0AFC02F2F2061C3
:101BD000B22EB4FE0DC08B2D8460B82E09C024FF38
:101BE0000AC09F2F9660B92E06C028E030E005C0DD
:101BF00020E130E002C020E132E0F801B7FE07C08A
:101C000060817181828193810C5F1F4F06C060816A
:101C1000718180E090E00E5F1F4FA4010E94ED0EE5
:101C2000A82EA818FB2DFF777F2E76FE0BC0372D30
:101C30003E7FA51450F474FE0AC072FC08C0372D14
:101C40003E7E05C0BA2C372D03C0BA2C01C0B52C7E
:101C500034FF0DC0FE01EA0DF11D8081803311F4C7
:101C6000397E09C032FF06C0B394B39404C0832FF9
:101C7000867809F0B39433FD13C030FF06C05A2CA8
:101C8000B31418F4530C5B18B32CB31468F4B701F5
:101C900080E290E03C870E94B50EB3943C85F5CF7E
:101CA000B31410F43B1801C0312C34FF12C0B7013B
:101CB00080E390E03C870E94B50E3C8532FF17C060
:101CC00031FD03C088E790E002C088E590E0B701ED
:101CD0000CC0832F867859F031FF02C08BE201C01F
:101CE00080E237FD8DE2B70190E00E94B50EA514A9
:101CF00038F4B70180E390E00E94B50E5A94F7CF14
:101D0000AA94F401EA0DF11D8081B70190E00E94D0
:101D1000B50EA110F5CF332009F451CEB70180E202
:101D200090E00E94B50E3A94F6CFF7018681978134
:101D300002C08FEF9FEF2C96E2E10C947D0FFC0127
:101D40000590615070400110D8F7809590958E0FE6
:101D50009F1F0895FC016150704001900110D8F759
:101D6000809590958E0F9F1F08950F931F93CF938B
:101D7000DF93FB01238121FD03C08FEF9FEF28C07C
:101D800022FF16C0468157812481358142175307AF
:101D900044F4A081B1819D012F5F3F4F31832083A7
:101DA0008C93268137812F5F3F4F3783268310C066
:101DB000EB01092F182F0084F185E02D0995892B5F
:101DC000E1F68E819F8101969F838E83812F902FD4
:101DD000DF91CF911F910F910895FA01AA27283022
:101DE00051F1203181F1E8946F936E7F6E5F7F4FE8
:101DF0008F4F9F4FAF4FB1E03ED0B4E03CD0670F64
:101E0000781F891F9A1FA11D680F791F8A1F911DB6
:101E1000A11D6A0F711D811D911DA11D20D009F406
:101E200068943F912AE0269F11243019305D319348
:101E3000DEF6CF010895462F4770405D4193B3E031
:101E40000FD0C9F7F6CF462F4F70405D4A3318F0D8
:101E5000495D31FD4052419302D0A9F7EACFB4E089
:101E6000A6959795879577956795BA95C9F7009741
:101E70006105710508959B01AC010A2E06945795E2
:101E8000479537952795BA95C9F7620F731F841F39
:101E9000951FA01D0895F999FECF92BD81BDF89AB6
:101EA000992780B50895262FF999FECF1FBA92BDC4
:101EB00081BD20BD0FB6F894FA9AF99A0FBE01962B
:101EC00008952F923F924F925F926F927F928F92DE
:101ED0009F92AF92BF92CF92DF92EF92FF920F93B9
:101EE0001F93CF93DF93CDB7DEB7CA1BDB0B0FB6C3
:101EF000F894DEBF0FBECDBF09942A883988488880
:101F00005F846E847D848C849B84AA84B984C88415
:101F1000DF80EE80FD800C811B81AA81B981CE0F0C
:101F2000D11D0FB6F894DEBF0FBECDBFED010895F1
:101F3000A29FB001B39FC001A39F700D811D11240A
:101F4000911DB29F700D811D1124911D0895F8946B
:021F5000FFCFC1
:101F5200000001058000000000004201BE000B01EC
:101F6200E900FD0089010D0A00454550524F4D0020
:101F720044454641554C54004147434E41434B0072
:101F820041474341434B006166746572676C6F77EA
:101F9200207600202863292032303138206D6F727C
:101FA20062696420636F726E666C616B6573005266
:101FB20065706C6179205461626C652053697A6541
:101FC2003A20002D2D2D2D2D2D2D2D2D2D2D2D2D6C
:101FD2002D2D2D2D2D2D2D2D2D2D2D2D2D2D2D2D2F
:101FE2002D2D2D2D2D2D2D2D2D2D2D2D2D2D2D2D1F
:101FF2002D2D004346472066726F6D2000206572CA
:102002007220004147560041474350004147434434
:102012000041474353004147445200454550524F07
:102022004D2077726974652000435243204641492E
:102032004C200053495A45204D49534D4154434881
:102042003A2000544553544D4F44452100494E54C3
:10205200206474206D617820007573206C61737444
:10206200200075730042616420636F6C3A20232064
:102072000020636F6C2000206C61737420676F6FA7
:10208200643A2000494E20432030782530325820CF
:1020920052203078253032580A004F5554204320C0
:1020A2003078253032582052203078253032580A84
:0820B200004300202B20000078
:00000001FF
