:100000000C9435000C945D000C945D000C945D0024
:100010000C945D000C945D000C945D000C945D00EC
:100020000C945D000C945D000C945D000C94C6046F
:100030000C945D000C9498080C945D000C945D0089
:100040000C947C040C945D000C944A040C942404DD
:100050000C945D000C945D000C945D000C945D00AC
:100060000C945D000C945D005A0B11241FBECFEF61
:10007000D8E0DEBFCDBF24E0A0EDB1E001C01D920D
:10008000AB3EB207E1F711E0A0E0B1E0E6E3FCE14E
:1000900002C005900D92A03DB107D9F710E0C5E36D
:1000A000D0E004C02197FE010E94110CC433D10797
:1000B000C9F70E94AF080C94190E0C9400004F92DF
:1000C0005F926F927F928F929F92AF92BF92CF92E8
:1000D000DF92EF92FF92FC01EC55FF4FCC24CA94C3
:1000E000DC2C76018E179F07E1F1DC014D90CD01EC
:1000F00028E030E040E8842E912CA12CB12C512C2A
:10010000712C612CB301A201482159216A217B2164
:10011000452B462B472BF1F4B701A601442777FD69
:100120004395552766277727CC0CDD1CEE1CFF1C5A
:10013000442341F0B7EBCB26BDE1DB26B1ECEB2647
:10014000B4E0FB26B694A794979487942150310984
:10015000C9F6C8CFB701A601409550956095709536
:10016000DDCFC701B601FF90EF90DF90CF90BF9039
:10017000AF909F908F907F906F905F904F90089579
:10018000AF92BF92CF92DF92EF92FF920F931F93A5
:10019000CF93DF936C017B018B01040F151FEB01E3
:1001A0005E01AE18BF08C017D10759F06991D6019A
:1001B000ED91FC910190F081E02DC6010995892B0C
:1001C00079F7C501DF91CF911F910F91FF90EF90CB
:1001D000DF90CF90BF90AF900895FC01538D448D78
:1001E000252F30E0842F90E0821B930B541710F0E2
:1001F000CF96089501970895FC01918D828D9817EF
:1002000061F0A28DAE0FBF2FB11D5D968C91928DC6
:100210009F5F9F73928F90E008958FEF9FEF0895F7
:10022000FC01918D828D981731F0828DE80FF11DC0
:10023000858D90E008958FEF9FEF0895FC01918DDB
:10024000228D892F90E0805C9F4F821B91098F73D4
:10025000992708958AE494E00E941E0121E0892BE9
:1002600009F420E0822F089580E090E0892B29F0A6
:100270000E942A0181110C9400000895FC01A48DB4
:10028000A80FB92FB11DA35ABF4F2C91848D90E0B8
:1002900001968F739927848FA689B7892C93A0899B
:1002A000B1898C91837080648C93938D848D981325
:1002B00006C00288F389E02D80818F7D80830895B8
:1002C000EF92FF920F931F93CF93DF93EC0181E0A6
:1002D000888F9B8D8C8D98131AC0E889F98980814D
:1002E00085FF15C09FB7F894EE89FF896083E88980
:1002F000F98980818370806480839FBF81E090E072
:10030000DF91CF911F910F91FF90EF900895F62EFE
:100310000B8D10E00F5F1F4F0F731127E02E8C8D98
:100320008E110CC00FB607FCFACFE889F9898081DD
:1003300085FFF5CFCE010E943E01F1CFEB8DEC0F92
:10034000FD2FF11DE35AFF4FF0829FB7F8940B8FFA
:10035000EA89FB8980818062CFCFCF93DF93EC0164
:10036000888D8823B9F0AA89BB89E889F9898C919D
:1003700085FD03C0808186FD0DC00FB607FCF7CF59
:100380008C9185FFF2CF808185FFEDCFCE010E9459
:100390003E01E9CFDF91CF9108953FB7F894809166
:1003A000E6029091E702A091E802B091E90226B539
:1003B000A89B05C02F3F19F00196A11DB11D3FBF9D
:1003C000BA2FA92F982F8827BC01CD01620F711D6C
:1003D000811D911D42E0660F771F881F991F4A9566
:1003E000D1F708958F929F92AF92BF92CF92DF92F2
:1003F000EF92FF924B015C010E94CD016B017C01E9
:100400000E94CD016C197D098E099F09683E7340D9
:1004100081059105A8F321E0821A9108A108B1088D
:1004200088EEC80E83E0D81EE11CF11C81149104F3
:10043000A104B10429F7FF90EF90DF90CF90BF9017
:10044000AF909F908F9008952F923F924F925F921E
:100450006F927F928F929F92AF92BF92CF92DF92D4
:10046000EF92FF920F931F93CF93DF9300D000D0B2
:1004700000D0CDB7DEB71E821D8201E412E058EE37
:10048000852E53E0952EA12CB12C44244A94542C53
:10049000612C712C8D819E8182579C4F7C01ED8156
:1004A000FE81EF50FE4FFA83E98368018D819E81C2
:1004B00082529C4F1C01ED81FE81E856FC4FFC836B
:1004C000EB83F701A1917F01FAE0AF9FD0011124E6
:1004D0002FEF3FEF109789F028EE33E00E94170CC2
:1004E000A50194010E94EF0BC301B2010E94EF0B22
:1004F00043E0220F331F4A95E1F7F6012193319330
:100500006F01F10181911F0190E01A9B30C0959518
:100510008795E981FA818193FA83E9838B819C81B4
:10052000E816F90671F60C5E1F4FED81FE813A96D2
:10053000FE83ED83E035F10509F0ACCF26960FB6CA
:10054000F894DEBF0FBECDBFDF91CF911F910F9109
:10055000FF90EF90DF90CF90BF90AF909F908F90E3
:100560007F906F905F904F903F902F90089523E081
:10057000959587952A95E1F7CCCF9BB19F739BB951
:1005800020E0362F282B80E190E040E050E85E9894
:10059000F901E423F523EF2B89F05D9A5E9A5695D5
:1005A00047950197A1F75E985F9A88B1770F770F0B
:1005B0007C70837F782B78B9419808955D98EECF51
:1005C00010928100809181008860809381008091E9
:1005D0008100816080938100109280001A990CC084
:1005E00080E49FE1909389008093880080916F0060
:1005F000826080936F00089580EA9FE0F3CFFC0152
:1006000001900020E9F73197AF01481B590BBC015D
:100610008AE494E00C94C0008F929F92AF92BF92B4
:100620000F931F93CF93DF93CDB7DEB7A1970FB68C
:10063000F894DEBF0FBECDBF19A2423008F44AE0E5
:100640008E010F5D1F4F842E912CB12CA12CA50182
:1006500094010E94EF0BE62FB901CA01EA30F4F4CD
:10066000E05DD801EE938D01232B242B252B79F708
:1006700090E080E0109719F0CD010E94FF02A19652
:100680000FB6F894DEBF0FBECDBFDF91CF911F91A3
:100690000F91BF90AF909F908F900895E95CE1CF4C
:1006A000CF92DF92EF92FF92CF93DF936B017C01A9
:1006B0006DE28AE494E00E946001EC0166277727EE
:1006C000CB016C197D098E099F094AE00E940C0339
:1006D0008C0F9D1FDF91CF91FF90EF90DF90CF9017
:1006E00008950C94FF02CF93DF930E94FF02EC0168
:1006F00088E191E00E94FF028C0F9D1FDF91CF9156
:100700000895BC01990F880B990B4AE00C940C03D7
:10071000CF93DF93EC0180914404909145040097BE
:1007200059F020914604309147042C173D0720F0E2
:1007300081E0DF91CF910895BE016F5F7F4F0E94EE
:10074000430D009789F09093450480934404D0931F
:100750004704C09346042091480430914904232B58
:1007600039F7FC011082E4CF80E0E3CF2091480408
:1007700030914904232B39F421E0FC018081882346
:1007800061F020E00AC0BC018091440490914504CE
:100790000E94090E21E0892BA1F7822F0895ECE831
:1007A000F3E086EADF011D928A95E9F782E090E0A6
:1007B00090938B0380938A0390E080E02EE037E0F3
:1007C000FC01E257FC4FDC01A252BC4FAC01485681
:1007D0005C4F21933D93E417F507D9F70A968035CE
:1007E000910571F78AE893E00E945F0060932E0400
:1007F00070932F04809330049093310408950F93E5
:100800001F93CF93DF930AE813E0D0E0C0E0F80134
:1008100061918F01CE010E948F0B2196C83AD105BC
:10082000B1F78BE191E00E9471034AE068EA70E061
:1008300080E090E00E940C0388E191E0DF91CF918D
:100840001F910F910C94FF021F920F920FB60F92FF
:1008500011242F933F934F935F936F937F938F93C5
:100860009F93AF93BF93EF93FF938AE494E00E942A
:100870003E01FF91EF91BF91AF919F918F917F9139
:100880006F915F914F913F912F910F900FBE0F90FD
:100890001F9018951F920F920FB60F9211242F934D
:1008A0008F939F93EF93FF93E0915A04F0915B0431
:1008B0008081E0916004F091610482FD1BC0908111
:1008C000809163048F5F8F7320916404821741F0DD
:1008D000E0916304F0E0E65BFB4F958F8093630447
:1008E000FF91EF919F918F912F910F900FBE0F90DD
:1008F0001F9018958081F4CF1F920F920FB60F9220
:1009000011242F933F938F939F93AF93BF93809125
:10091000E2029091E302A091E402B091E5023091ED
:10092000E10223E0230F2D3758F50196A11DB11DDB
:100930002093E1028093E2029093E302A093E40209
:10094000B093E5028091E6029091E702A091E8025F
:10095000B091E9020196A11DB11D8093E60290932A
:10096000E702A093E802B093E902BF91AF919F9193
:100970008F913F912F910F900FBE0F901F90189560
:1009800026E8230F0296A11DB11DD2CF1F920F9210
:100990000FB60F9211242F923F924F925F926F9257
:1009A0007F928F929F92AF92BF92CF92DF92EF92FF
:1009B000FF920F931F932F933F934F935F936F93E8
:1009C0007F938F939F93AF93BF93EF93FF93CF93B7
:1009D000DF9300D000D0CDB7DEB7209084003090F8
:1009E00085008091320490913304A0913404B09139
:1009F00035040196A11DB11D8093320490933304F8
:100A0000A0933404B0933504A8951B992CC0C090D2
:100A1000EF01D090F001E090ED01F090EE018091B7
:100A2000D4019091D501C816D90639F48091D2012C
:100A30009091D3018E159F0561F0B701C6010E9408
:100A4000BD02D092D501C092D401F092D301E092C0
:100A5000D2018BB1877E8BB95C9A40E050E0BA013D
:100A600090E081E079C070E060E090E080E00E947A
:100A7000BD028090320490903304A0903404B09072
:100A80003504B501A401477055276627772733E061
:100A9000B694A794979487943A95D1F71A9B4AC035
:100AA00023E082229924AA24BB2481E090E0042E32
:100AB00002C0880F991F0A94E2F72AE0249FD00110
:100AC000259FB00D1124AF50BE4F24E1249FF001AB
:100AD000259FF00D1124E651FD4FAF014C5E5F4F95
:100AE00070E060E076956795C190D190C114D10413
:100AF000D1F0F12CE12C1A9B23C00EE0F594E79481
:100B0000D794C7940A95D1F7EC90F12CCE14DF045A
:100B100008F476016701F12CE12CC814D904EA0429
:100B2000FB0408F0726011964E175F07D9F60E9419
:100B3000BD028FCF31E083229924AA24BB24B5CFF4
:100B40001FE0F594E794D794C7941A95D1F7DCCFBA
:100B5000983009F086CF89E004C0440F551F661F06
:100B6000771F8A95D2F75B9889B182FB882780F935
:100B700089831A8249805A806201550CEE08FF0869
:100B80004C295D296E297F295B9A9F5F903101F77F
:100B900083B126B1189BE3C090E0B0E0A0E0E4E0B0
:100BA000880F991FAA1FBB1FEA95D1F7882791705C
:100BB000AA27BB27022F10E030E020E0F5E0000F6D
:100BC000111F221F331FFA95D1F700271270222719
:100BD0003327802B912BA22BB32B842B952BA62B69
:100BE000B72B6D01EE24FF24960180959095AC0102
:100BF00053704031510509F46DC208F043C24230D0
:100C0000510509F45CC208F031C24130510509F4C4
:100C100075C24AE050E060E070E0E0E0A091E901D8
:100C2000B091EA018A179B0709F455C0A091EF0122
:100C3000B091F0012A173B0741F42091ED0130916A
:100C4000EE018217930709F45DC21092E80120912A
:100C5000E801222309F43FC09093EA018093E9015F
:100C6000EE23C9F14A30510561057105A1F1FA0180
:100C7000EE0FFF1FDF01A651BD4FEF5BFD4F8F0150
:100C800000561F4FB601408151812D913C91119723
:100C900060FF41C24901B12CA12C44244A94542C38
:100CA000612C712C441A550A61087108240F351FF4
:100CB00084149504A604B7040CF432C266246A9422
:100CC000762C11967C926E925496749676956795D2
:100CD000E017F107C1F6D092F001C092EF019093B6
:100CE000EE018093ED01809184009091850082193E
:100CF00093092091EB013091EC012817390740F45A
:100D000080382EE3920720F49093EC018093EB015E
:100D10000F900F900F900F90DF91CF91FF91EF9177
:100D2000BF91AF919F918F917F916F915F914F9103
:100D30003F912F911F910F91FF90EF90DF90CF90F7
:100D4000BF90AF909F908F907F906F905F904F90EB
:100D50003F902F900F900FBE0F901F90189593B15A
:100D60008091E701292F247092FF0AC0843051F44A
:100D70001092E7018091E6018F5F8093E60102C047
:100D80008230B1F38091E6018A3011F41092E601CD
:100D90008091E7018F5F8093E701F090E601662480
:100DA0006394712C0F2C02C0660C771C0A94E2F736
:100DB0007A826982199903C090E080E0F9C080913D
:100DC000E2019091E301A091E401B091E5012223B9
:100DD00089F181159D47A105B10589F51092E201C0
:100DE0001092E3011092E4011092E5011092DE01ED
:100DF0001092DF011092E0011092E1011092DA01ED
:100E00001092DB011092DC011092DD018091D6017D
:100E10009091D701A091D801B091D9010196A11D5F
:100E2000B11D8093D6019093D701A093D801B093C0
:100E3000D90105C080389E43A105B10579F28091A2
:100E4000D6019091D701A091D801B091D90107970F
:100E5000A105B10541F41092D6011092D70110926C
:100E6000D8011092D9018091E2019091E301A09103
:100E7000E401B091E5010196A11DB11D8093E2014D
:100E80009093E301A093E401B093E5018091DE012A
:100E90009091DF01A091E001B091E101222309F1DD
:100EA000803D9740A105B10509F51092DE01109231
:100EB000DF011092E0011092E1018091DA0190913E
:100EC000DB01A091DC01B091DD010196A11DB11DF6
:100ED0008093DA019093DB01A093DC01B093DD01F4
:100EE00005C0883E9340A105B105F9F28091DE016D
:100EF0009091DF01A091E001B091E1010196A11D67
:100F0000B11D8093DE019093DF01A093E001B093C7
:100F1000E1018091D6019091D701A091D801B091C3
:100F2000D90187309105A105B10508F045CFFC0135
:100F3000E456F84F0C94110CA307B807C307E50754
:100F4000F207FC0715086091DA017091DB018091CE
:100F5000DC019091DD012AE030E040E050E00E94A9
:100F6000EF0B81E090E0F61601F190E080E01DC00B
:100F70002091DA01277081E090E002C0880F991F6C
:100F80002A95E2F715C06091DA017091DB0180913A
:100F9000DC019091DD012AE030E040E050E00E9469
:100FA000EF0B81E090E0F61601F3919581959109A0
:100FB000B0E0A0E0DC019927882749805A8040945E
:100FC0005094A20170E060E008CE2091DA01277011
:100FD00081E090E002C0880F991F2A95E2F7809582
:100FE0009095E6CF8091DA01082F017010E08827F4
:100FF0009927801B910BDCCF6091DA017091DB01A6
:101000008091DC019091DD018B010F2500FDD4CE94
:1010100023E030E040E050E00E94EF0B672B682BAC
:10102000692B09F58AEA9AEAC3CF6091DA017091D7
:10103000DB018091DC019091DD0152E0660F771FAA
:10104000881F991F5A95D1F720E530E040E050E025
:101050000E94EF0B862F6770F612AECE6AE00E94F8
:10106000E30B282F88CF84E595E5A2CF44305105C6
:1010700061F14830510509F0CCCD43E050E060E02B
:1010800070E021C04038510579F160F440325105DB
:1010900031F14034510509F0BCCD46E050E060E04C
:1010A00070E011C0411561E0560719F14115524039
:1010B00009F0AFCD49E050E060E070E004C041E0ED
:1010C00050E060E070E0E1E0A9CD42E050E060E097
:1010D00070E0F9CF44E050E060E070E0F4CF45E02C
:1010E00050E060E070E0EFCF47E050E060E070E09B
:1010F000EACF48E050E060E070E0E5CF40E050E04B
:10110000BA01E1CF2091E8012F3F09F4A0CD2F5F74
:101110002093E8019CCD4217530730F4241B350B74
:1011200011963C932E93D0CD11961C921E92CCCD4D
:101130001F920F920FB60F9211248F939F9380915D
:10114000D0019091D10101969093D1018093D0016B
:101150009F918F910F900FBE0F901F901895CF9376
:10116000DF93CDB7DEB7C85AD1090FB6F894DEBF0A
:101170000FBECDBF789484B5826084BD84B5816094
:1011800084BD85B5826085BD85B5816085BD809152
:101190006E00816080936E001092810080918100CA
:1011A00082608093810080918100816080938100C2
:1011B000809180008160809380008091B100846084
:1011C0008093B1008091B00081608093B0008091E5
:1011D0007A00846080937A0080917A0082608093A4
:1011E0007A0080917A00816080937A0080917A0001
:1011F000806880937A001092C100F89489EF8AB9D0
:1012000014B885B18F6185B98EE087B9449A419A47
:1012100080917A00846080937A0080917A008D7F3B
:1012200080937A0080917A008E7F80937A00EAEE34
:10123000F2E080EADF011D928A95E9F73AE8E32EB1
:1012400033E0F32E10E000E0C8010E94870BF701A5
:1012500081937F010F5F1F4F083A1105A9F7809115
:101260008A0390918B03029789F48AE893E00E94A5
:101270005F0000912E0410912F04209130043091D2
:101280003104601771078207930721F00E94CF0392
:101290000E94FF030E942402E0915A04F0915B0433
:1012A00082E08083E0915604F09157041082E0912F
:1012B0005804F091590480E1808310926204E09117
:1012C0005E04F0915F0486E08083E0915C04F0911D
:1012D0005D04808180618083E0915C04F0915D0415
:1012E000808188608083E0915C04F0915D0480815E
:1012F00080688083E0915C04F0915D0480818F7D43
:1013000080838BE491E00E9471038DE690E00E945F
:10131000810387E591E00E9471038CE591E00E94D2
:10132000730319E0E2E0F0E01093570014918DE7A9
:1013300091E00E94730317708DEA91E00E9471039F
:1013400089E291E0173051F08DE291E0143031F0F4
:1013500082E391E0153011F087E391E00E9473037E
:101360000E94E002789488E198E00FB6F894A8957E
:10137000809360000FBE9093600083B18093370428
:10138000CE0101967C0198E1692E20E0A22E20E09A
:10139000B22E7724739488E0582E80914004909167
:1013A0004104A0914204B09143040196A11DB11DD6
:1013B0008093400490934104A0934204B09343046B
:1013C0008091380481112AC010924504109244047F
:1013D0001092470410924604109249041092480457
:1013E00090E080E00E9488032091440430914504FD
:1013F000811144C02115310519F0C9010E94BA0CB0
:10140000109245041092440410924904109248042A
:101410001092470410924604709238048AE494E0D3
:101420000E941E0120913604892B91F1211133C0B5
:101430008AE494E00E94FC008A3309F493C0898313
:101440001A8200914804109149040F5F1F4FC80190
:101450000E948803882311F32091440430914504AD
:101460008091480490914904B701820F931F0E9414
:10147000120E1093490400934804D0CF10924904EF
:10148000109248046AE171E0C9010E94120EC4CFB3
:10149000222309F440C088EB91E00E94B603882320
:1014A00009F463C088EB91E00E94710386EB91E040
:1014B0000E9471038DE690E00E94810386EB91E02B
:1014C0000E9471034AE062E070E080E090E00E94D8
:1014D0000C0388E191E00E94FF0290E080E00E940E
:1014E000880320914404309145048111D9C021150D
:1014F000310519F0C9010E94BA0C109245041092EE
:101500004404109249041092480410924704109227
:1015100046041092360483B190913704892782FFE4
:101520000FC0F8940E94E00210923204109233042B
:10153000109234041092350483B180933704789468
:1015400064EF71E080E090E00E94F201A114B10428
:1015500009F423CF0E942A01882309F41CCF0E949A
:10156000000019CF7092360459CF8CEB91E00E94A5
:10157000B603882349F048EA50E06AE873E08AE459
:1015800094E00E94C000A9CF81EC91E00E94B603D4
:10159000882339F00E94CF0384E491E00E94710314
:1015A0009CCF86EC91E00E94B603882309F495CF86
:1015B0000FB6F894A89580916000886180936000D0
:1015C000109260000FBE80916F008D7F80936F003E
:1015D000419A4E2C3F2CD12CC12C8BEC91E00E94D7
:1015E000710368EC70E080E090E00E94F201042D4D
:1015F000132D4801A0E28A0E911C402E312E8AE460
:1016000094E00E941E01892B91F00815190579F0CC
:10161000B8EACB16D10478F48AE494E00E94FC0086
:10162000F80181938F01FFEFCF1ADF0AE6CF98EA26
:10163000C916D10490F288EAC816D10471F5C70121
:101640000E945F00CB55DF4F088119812A813B81C1
:10165000C55AD0406017710782079307F1F488EAF2
:10166000F701AAE8B3E001900D928A95E1F70E9494
:1016700024020E94FF0384E491E00E9471038091A0
:101680006F00826080936F000FB6F894A895609207
:1016900060000FBE5092600020CF8CE391E0EDCF50
:1016A00010924904109248046AE171E0C9010E9455
:1016B000120E2FCFEAE4F4E01382128288EE93E058
:1016C000A0E0B0E084839583A683B7838AE091E0AD
:1016D0009183808385EC90E09587848784EC90E00B
:1016E0009787868780EC90E0918B808B81EC90E0EF
:1016F000938B828B82EC90E0958B848B86EC90E0D0
:10170000978B868B118E128E138E148E0895F999F5
:10171000FECF92BD81BDF89A992780B50895262FF6
:10172000F999FECF1FBA92BD81BD20BD0FB6F894C6
:10173000FA9AF99A0FBE019608952F923F924F920E
:101740005F926F927F928F929F92AF92BF92CF9251
:10175000DF92EF92FF920F931F93CF93DF93CDB75A
:10176000DEB7CA1BDB0B0FB6F894DEBF0FBECDBFD2
:1017700009942A88398848885F846E847D848C84A3
:101780009B84AA84B984C884DF80EE80FD800C81AC
:101790001B81AA81B981CE0FD11D0FB6F894DEBF8F
:1017A0000FBECDBFED010895A29FB001B39FC00150
:1017B000A39F700D811D1124911DB29F700D811D7D
:1017C0001124911D0895991B79E004C0991F961763
:1017D00008F0961B881F7A95C9F780950895A1E2B5
:1017E0001A2EAA1BBB1BFD010DC0AA1FBB1FEE1F9B
:1017F000FF1FA217B307E407F50720F0A21BB30BE6
:10180000E40BF50B661F771F881F991F1A9469F761
:1018100060957095809590959B01AC01BD01CF01BD
:101820000895EE0FFF1F0590F491E02D09940E949A
:10183000D40BB7FF0895821B930B08950F931F934A
:10184000CF93DF938230910510F482E090E0E09135
:10185000E904F091EA0430E020E0B0E0A0E0309745
:1018600099F42115310509F44AC0281B390B24309D
:101870003105D8F58A819B816115710589F1FB01DC
:1018800093838283FE0111C04081518102811381C3
:1018900048175907E0F04817590799F4109761F075
:1018A00012960C93129713961C933296CF01DF91E8
:1018B000CF911F910F9108950093E9041093EA04CA
:1018C000F4CF2115310551F04217530738F0A90123
:1018D000DB019A01BD01DF01F801C1CFEF01F9CFB2
:1018E0009093EA048093E904CDCFFE01E20FF31F49
:1018F000819391932250310939832883D7CF209146
:10190000E7043091E804232B41F420910201309147
:1019100003013093E8042093E70420910001309103
:1019200001012115310541F42DB73EB74091040165
:1019300050910501241B350BE091E704F091E80478
:10194000E217F307A0F42E1B3F0B2817390778F096
:10195000AC014E5F5F4F2417350748F04E0F5F1FF5
:101960005093E8044093E704819391939FCFF0E074
:10197000E0E09CCFCF93DF930097E9F0FC01329732
:1019800013821282A091E904B091EA04ED0130E0E3
:1019900020E01097A1F420813181820F931F2091C4
:1019A000E7043091E8042817390709F061C0F09383
:1019B000E804E093E704DF91CF910895EA01CE17A0
:1019C000DF07E8F54A815B819E0141155105B1F7BA
:1019D000E901FB83EA8349915991C40FD51FEC17A4
:1019E000FD0761F4808191810296840F951FE901C2
:1019F00099838883828193819B838A83F0E0E0E0EE
:101A000012968D919C9113970097B9F52D913C9169
:101A10001197CD010296820F931F2091E704309118
:101A2000E8042817390739F6309751F51092EA047F
:101A30001092E904B093E804A093E704BCCFD383E9
:101A4000C28340815181840F951FC817D90761F463
:101A50004E5F5F4F88819981480F591F51834083A2
:101A60008A819B81938382832115310509F0B0CF50
:101A7000F093EA04E093E9049ECFFD01DC01C0CFBE
:101A800013821282D7CFB0E0A0E0E9E4FDE00C942D
:101A90009F0B8C01009751F4CB010E941E0C8C010E
:101AA000C801CDB7DEB7E0E10C94BB0BFC01E60F3B
:101AB000F71F9C0122503109E217F30708F49DC07B
:101AC000D901CD91DC911197C617D70798F0C53091
:101AD000D10530F3CE0104978617970708F3C61B8C
:101AE000D70B2297C193D1936D937C93CF010E9422
:101AF000BA0CD6CF5B01AC1ABD0A4C018C0E9D1EF0
:101B0000A091E904B091EA04512C412CF12CE12C74
:101B1000109731F58091E7049091E80488159905B4
:101B200009F05CC04616570608F058C080910001C5
:101B300090910101009741F48DB79EB74091040147
:101B400050910501841B950BE817F90708F055C063
:101B5000F093E804E093E704F90171836083A0CF78
:101B60008D919C91119712966C90129713967C9080
:101B70001397A815B90559F56C0142E0C40ED11CA4
:101B8000CA14DB0420F1AC014A195B09DA01129690
:101B9000159780F06282738251834083D9016D93DF
:101BA0007C93E114F10471F0D7011396FC93EE934A
:101BB000129776CF22968C0F9D1FF9019183808317
:101BC000F301EFCFF093EA04E093E90469CF4816FC
:101BD000590608F42C017D01D3019ACFCB010E9454
:101BE0001E0C7C01009749F0AE01B8010E94000E66
:101BF000C8010E94BA0C870153CF10E000E050CF1B
:101C0000FB01DC0102C001900D9241505040D8F719
:101C10000895FB01DC018D91019080190110D9F329
:101C2000990B0895FB01DC0101900D920020E1F772
:061C30000895F894FFCFB7
:101C36000000EB048000000000006001C000ED0021
:101C4600AD011E01FC0010010D0A00454550524F22
:101C56004D20777269746520004F464600342E3356
:101C66005600322E375600312E3856004147434E25
:101C760041434B0041474341434B006166746572E3
:101C8600676C6F7720760020575320002028632941
:101C960020323031382D32303232206D6F72626927
:101CA6006420636F726E666C616B6573002D2D2DFB
:101CB6002D2D2D2D2D2D2D2D2D2D2D2D2D2D2D2D4E
:101CC6002D2D2D2D2D2D2D2D2D2D2D2D2D2D2D2D3E
:101CD6002D2D2D2D2D2D2D2D2D2D2D2D00656675A2
:101CE600736520424F442000414756004147435008
:101CF6000041474344004147435300414744520093
:00000001FF
