:100000000C9435000C945D000C945D000C945D0024
:100010000C945D000C945D000C945D000C945D00EC
:100020000C945D000C945D000C945D000C94E20453
:100030000C945D000C9424090C945D000C945D00FC
:100040000C9498040C945D000C9466040C94400489
:100050000C945D000C945D000C945D000C945D00AC
:100060000C945D000C945D00F10B11241FBECFEFCA
:10007000D8E0DEBFCDBF24E0A0ECB1E001C01D920E
:10008000A33EB207E1F711E0A0E0B1E0E4E6FDE154
:1000900002C005900D92A03CB107D9F710E0C5E36E
:1000A000D0E004C02197FE010E94A80CC433D10700
:1000B000C9F70E943B090C94B00E0C9400004F92BB
:1000C0005F926F927F928F929F92AF92BF92CF92E8
:1000D000DF92EF92FF92FC01EC55FF4FCC24CA94C3
:1000E000DC2C76018E179F07E1F1DC014D90CD01EC
:1000F00028E030E040E8842E912CA12CB12C512C2A
:10010000712C612CB301A201482159216A217B2164
:10011000452B462B472BF1F4B701A601442777FD69
:100120004395552766277727CC0CDD1CEE1CFF1C5A
:10013000442341F0B7EBCB26BDE1DB26B1ECEB2647
:10014000B4E0FB26B694A794979487942150310984
:10015000C9F6C8CFB701A601409550956095709536
:10016000DDCFC701B601FF90EF90DF90CF90BF9039
:10017000AF909F908F907F906F905F904F90089579
:10018000AF92BF92CF92DF92EF92FF920F931F93A5
:10019000CF93DF936C017B018B01040F151FEB01E3
:1001A0005E01AE18BF08C017D10759F06991D6019A
:1001B000ED91FC910190F081E02DC6010995892B0C
:1001C00079F7C501DF91CF911F910F91FF90EF90CB
:1001D000DF90CF90BF90AF900895FC01538D448D78
:1001E000252F30E0842F90E0821B930B541710F0E2
:1001F000CF96089501970895FC01918D828D9817EF
:1002000061F0A28DAE0FBF2FB11D5D968C91928DC6
:100210009F5F9F73928F90E008958FEF9FEF0895F7
:10022000FC01918D828D981731F0828DE80FF11DC0
:10023000858D90E008958FEF9FEF0895FC01918DDB
:10024000228D892F90E0805C9F4F821B91098F73D4
:100250009927089582E494E00E941E0121E0892BF1
:1002600009F420E0822F089580E090E0892B29F0A6
:100270000E942A0181110C9400000895FC01A48DB4
:10028000A80FB92FB11DA35ABF4F2C91848D90E0B8
:1002900001968F739927848FA689B7892C93A0899B
:1002A000B1898C91837080648C93938D848D981325
:1002B00006C00288F389E02D80818F7D80830895B8
:1002C000EF92FF920F931F93CF93DF93EC0181E0A6
:1002D000888F9B8D8C8D98131AC0E889F98980814D
:1002E00085FF15C09FB7F894EE89FF896083E88980
:1002F000F98980818370806480839FBF81E090E072
:10030000DF91CF911F910F91FF90EF900895F62EFE
:100310000B8D10E00F5F1F4F0F731127E02E8C8D98
:100320008E110CC00FB607FCFACFE889F9898081DD
:1003300085FFF5CFCE010E943E01F1CFEB8DEC0F92
:10034000FD2FF11DE35AFF4FF0829FB7F8940B8FFA
:10035000EA89FB8980818062CFCFCF93DF93EC0164
:10036000888D8823B9F0AA89BB89E889F9898C919D
:1003700085FD03C0808186FD0DC00FB607FCF7CF59
:100380008C9185FFF2CF808185FFEDCFCE010E9459
:100390003E01E9CFDF91CF9108953FB7F894809166
:1003A000DC029091DD02A091DE02B091DF0226B561
:1003B000A89B05C02F3F19F00196A11DB11D3FBF9D
:1003C000BA2FA92F982F8827BC01CD01620F711D6C
:1003D000811D911D42E0660F771F881F991F4A9566
:1003E000D1F708958F929F92AF92BF92CF92DF92F2
:1003F000EF92FF924B015C010E94CD016B017C01E9
:100400000E94CD016C197D098E099F09683E7340D9
:1004100081059105A8F321E0821A9108A108B1088D
:1004200088EEC80E83E0D81EE11CF11C81149104F3
:10043000A104B10429F7FF90EF90DF90CF90BF9017
:10044000AF909F908F900895F894E8B1E16028B143
:10045000522F5E7F28E130E0E8B987FB442740F95E
:10046000452B48B9660F771F881F991F00000000B1
:100470000000000058B92150310971F778940895AF
:100480002F923F924F925F926F927F928F929F92A4
:10049000AF92BF92CF92DF92EF92FF920F931F9392
:1004A000CF93DF9300D000D000D0CDB7DEB71E824F
:1004B0001D8207E312E058EE852E53E0952EA12C05
:1004C000B12C44244A94542C612C712C8D819E8132
:1004D0008A579C4F7C01ED81FE81E951FE4FFA83E2
:1004E000E98368018D819E818A529C4F1C01ED81B8
:1004F000FE81E057FC4FFC83EB83F701A1917F0164
:10050000FAE0AF9FD00111242FEF3FEF109789F051
:1005100028EE33E00E94AE0CA50194010E94860CE7
:10052000C301B2010E94860C43E0220F331F4A959B
:10053000E1F7F601219331936F01F10181911F01E0
:1005400090E01A9B30C095958795E981FA81819357
:10055000FA83E9838B819C81E816F90671F60C5EBB
:100560001F4FED81FE813A96FE83ED83E035F10564
:1005700009F0ACCF26960FB6F894DEBF0FBECDBF04
:10058000DF91CF911F910F91FF90EF90DF90CF906F
:10059000BF90AF909F908F907F906F905F904F90A3
:1005A0003F902F90089523E0959587952A95E1F740
:1005B000CCCF9BB19F739BB920E0362F282B80E1D5
:1005C00090E040E050E85E98F901E423F523EF2B3A
:1005D00089F05D9A5E9A569547950197A1F75E98C6
:1005E0005F9A88B1770F770F7C70837F782B78B90B
:1005F000419808955D98EECF10928100809181001E
:100600008860809381008091810081608093810067
:10061000109280001A990CC080E49FE190938900A9
:100620008093880080916F00826080936F000895AE
:1006300080EA9FE0F3CFFC0101900020E9F73197B9
:10064000AF01481B590BBC0182E494E00C94C0003C
:100650008F929F92AF92BF920F931F93CF93DF938E
:10066000CDB7DEB7A1970FB6F894DEBF0FBECDBFF2
:1006700019A2423008F44AE08E010F5D1F4F842E0C
:10068000912CB12CA12CA50194010E94860CE62F7F
:10069000B901CA01EA30F4F4E05DD801EE938D01AE
:1006A000232B242B252B79F790E080E0109719F06D
:1006B000CD010E941B03A1960FB6F894DEBF0FBEBA
:1006C000CDBFDF91CF911F910F91BF90AF909F90C1
:1006D0008F900895E95CE1CFCF92DF92EF92FF9285
:1006E000CF93DF936B017C016DE282E494E00E9482
:1006F0006001EC0166277727CB016C197D098E0913
:100700009F094AE00E9428038C0F9D1FDF91CF9123
:10071000FF90EF90DF90CF9008950C941B03CF9340
:10072000DF930E941B03EC0188E191E00E941B0310
:100730008C0F9D1FDF91CF910895BC01990F880BFD
:10074000990B4AE00C942803CF93DF93EC0180913E
:100750003C0490913D04009759F020913E04309163
:100760003F042C173D0720F081E0DF91CF910895E1
:10077000BE016F5F7F4F0E94DA0D009789F0909362
:100780003D0480933C04D0933F04C0933E042091E9
:10079000400430914104232B39F7FC011082E4CF4F
:1007A00080E0E3CF2091400430914104232B39F4C1
:1007B00021E0FC018081882361F020E00AC0BC01B7
:1007C00080913C0490913D040E94A00E21E0892B71
:1007D000A1F7822F0895E4E8F3E086EADF011D9295
:1007E0008A95E9F782E090E09093830380938203F7
:1007F00090E080E02EE037E0FC01EA57FC4FDC019E
:10080000AA52BC4FAC0140575C4F21933D93E41773
:10081000F507D9F70A968035910571F782E893E0DC
:100820000E945F006093260470932704809328043D
:100830009093290408950F931F93CF93DF9302E8B9
:1008400013E0D0E0C0E0F80161918F01CE010E9479
:10085000260C2196C83AD105B1F78BE191E00E94B0
:100860008D034AE068EA70E080E090E00E9428038F
:1008700088E191E0DF91CF911F910F910C941B03C0
:100880001F920F920FB60F9211242F933F934F9305
:100890005F936F937F938F939F93AF93BF93EF93E8
:1008A000FF9382E494E00E943E01FF91EF91BF919B
:1008B000AF919F918F917F916F915F914F913F91F8
:1008C0002F910F900FBE0F901F9018951F920F92AF
:1008D0000FB60F9211242F938F939F93EF93FF9353
:1008E000E0915204F09153048081E0915804F0911A
:1008F000590482FD1BC0908180915B048F5F8F73D0
:1009000020915C04821741F0E0915B04F0E0EE5B23
:10091000FB4F958F80935B04FF91EF919F918F9197
:100920002F910F900FBE0F901F9018958081F4CFDC
:100930001F920F920FB60F9211242F933F938F9314
:100940009F93AF93BF938091D8029091D902A091C9
:10095000DA02B091DB023091D70223E0230F2D376A
:1009600058F50196A11DB11D2093D7028093D8029E
:100970009093D902A093DA02B093DB028091DC025B
:100980009091DD02A091DE02B091DF020196A11DDF
:10099000B11D8093DC029093DD02A093DE02B09340
:1009A000DF02BF91AF919F918F913F912F910F9057
:1009B0000FBE0F901F90189526E8230F0296A11DD9
:1009C000B11DD2CF1F920F920FB60F9211242F920A
:1009D0003F924F925F926F927F928F929F92AF92CF
:1009E000BF92CF92DF92EF92FF920F931F932F93BC
:1009F0003F934F935F936F937F938F939F93AF93A7
:100A0000BF93EF93FF93CF93DF9300D000D0CDB788
:100A1000DEB7209084003090850080912A04909168
:100A20002B04A0912C04B0912D040196A11DB11DA1
:100A300080932A0490932B04A0932C04B0932D044C
:100A4000A8951B993BC0A090DF01B090E0012091D8
:100A5000DD013091DE013A8329838091C2019091BA
:100A6000C301A816B90639F48091C0019091C10163
:100A70008217930779F069817A81C5010E94D902B2
:100A8000B092C301A092C20189819A819093C10161
:100A90008093C001189942C293B18091D501292F4A
:100AA000247092FF84C0843009F084C01092D50174
:100AB0008091D4018F5F8093D4017CC070E060E0AE
:100AC00090E080E00E94D90280902A0490902B044C
:100AD000A0902C04B0902D04B501A40147705527B7
:100AE0006627772733E0B694A794979487943A952E
:100AF000D1F71A9B4EC093E089229924AA24BB24E3
:100B000081E090E0042E02C0880F991F0A94E2F75A
:100B10002AE0249FD001259FB00D1124A951BE4F7A
:100B200024E1249FF001259FF00D1124EE51FD4F8B
:100B30009F012C5E3F4F3A83298370E060E07695F9
:100B400067952191319121153105D1F050E040E0B8
:100B50001A9B25C00EE055954795379527950A9520
:100B6000D1F74C9150E02417350708F4A9012A0168
:100B7000712C612C481459046A047B0408F07260DB
:100B8000119629813A812E173F07C9F60E94D90292
:100B900081CFE1E08E229924AA24BB24B1CF1FE0AB
:100BA00055954795379527951A95D1F7DACF823025
:100BB00009F47CCF8091D4018A3011F41092D401D1
:100BC0008091D5018F5F8093D501F090D40181E0B1
:100BD00090E00F2C02C0880F991F0A94E2F79A83C5
:100BE0008983199903C010E000E006C18091D0010B
:100BF0009091D101A091D201B091D301222389F12A
:100C000081159D47A105B10589F51092D00110927B
:100C1000D1011092D2011092D3011092CC01109206
:100C2000CD011092CE011092CF011092C801109206
:100C3000C9011092CA011092CB018091C401909118
:100C4000C501A091C601B091C7010196A11DB11DBA
:100C50008093C4019093C501A093C601B093C701CE
:100C600005C080389E43A105B10579F28091C40189
:100C70009091C501A091C601B091C7010797A10548
:100C8000B10541F41092C4011092C5011092C60141
:100C90001092C7018091D0019091D101A091D20111
:100CA000B091D3010196A11DB11D8093D001909305
:100CB000D101A093D201B093D3018091CC01909146
:100CC000CD01A091CE01B091CF01222309F1803D49
:100CD0009740A105B10509F51092CC011092CD0104
:100CE0001092CE011092CF018091C8019091C9015C
:100CF000A091CA01B091CB010196A11DB11D8093B5
:100D0000C8019093C901A093CA01B093CB0105C05B
:100D1000883E9340A105B105F9F28091CC019091F4
:100D2000CD01A091CE01B091CF010196A11DB11DC1
:100D30008093CC019093CD01A093CE01B093CF01CD
:100D40008091C4019091C501A091C601B091C701E5
:100D500087309105A105B10508F045CFFC01ED54A0
:100D6000F94F0C94A80CBA06CF06DA06F0064C0729
:100D700052076E076091C8017091C9018091CA0144
:100D80009091CB012AE030E040E050E00E94860CD8
:100D900001E010E0F61601F110E000E01DC08091C6
:100DA000C801877001E010E002C0000F111F8A9592
:100DB000E2F722C06091C8017091C9018091CA0117
:100DC0009091CB012AE030E040E050E00E94860C98
:100DD00001E010E0F61601F31195019511090CC020
:100DE0008091C801877001E010E002C0000F111F60
:100DF0008A95E2F70095109530E020E098011127E0
:100E0000002789819A81809590956C01F12CE12CC5
:100E1000C02AD12AE22AF32A19997DC084E090E001
:100E20009093E1028093E002A70166277727CA0129
:100E3000C094D094960133702031310509F46BC110
:100E400008F0A6C02230310509F47DC108F094C035
:100E50002130310509F473C10091E1011091E201E3
:100E60002091E3013091E4010F3FEFEF1E072E07C1
:100E70003E0761F00F5F1F4F2F4F3F4F0093E1017F
:100E80001093E2012093E3013093E4010AE010E0C3
:100E900020E030E0E0E0A9C08091C801082F017097
:100EA00010E09ACF6091C8017091C9018091CA0188
:100EB0009091CB018B010F2500FD95CE23E030E012
:100EC00040E050E00E94860C0AEA1AEA672B682B81
:100ED000692B09F491CF04E515E58ECF6091C80127
:100EE0007091C9018091CA019091CB01F2E0660F27
:100EF000771F881F991FFA95D1F720E530E040E071
:100F000050E00E94860C862F6770F6126CCE6AE065
:100F10000E947A0C47CF83E090E082CF8BB1877E2E
:100F20008BB95C9A80E15B9899B15B9A8150D9F753
:100F300083B186B18091E5019091E60184369105F7
:100F400090F48091E1019091E201A091E301B091D0
:100F5000E40184369105A105B10540F41B9909C04F
:100F600082E090E05DCF86E090E05ACF85E090E0AF
:100F700057CF81E090E054CF2430310549F128303B
:100F8000310509F069CF03E010E020E030E024C033
:100F90002038310509F4C9C068F42032310509F45C
:100FA000BFC02034310509F057CF06E010E020E043
:100FB00030E012C02115E1E03E0709F4BBC0211565
:100FC000324009F049CF09E010E020E030E004C0F1
:100FD00002E010E020E030E01092E1011092E20126
:100FE0001092E3011092E401E1E0A091D701B091E9
:100FF000D801CA16DB0609F462C0A091DF01B091E6
:10100000E0018A179B0741F48091DD019091DE0198
:10101000C816D90609F49CC01092D6018091D60159
:10102000882309F44CC0D092D801C092D701EE2396
:1010300009F445C00A3011052105310509F43FC006
:10104000F801EE0FFF1FDF01AE51BD4FE95CFD4F10
:101050009F0120563F4F3A8329835C834B8344246E
:101060004A94542C612C712C208131818D919C915A
:1010700011971B8110FF75C04C01B12CA12C83016D
:101080007201E21AF30A01091109820F931F8E14EB
:101090009F04A006B1060CF469C02FEF3FEF119634
:1010A0003C932E93549674968B819C81969587954C
:1010B0009C838B8329813A81E217F307A9F6509329
:1010C000E0014093DF01D092DE01C092DD0180910A
:1010D000E0029091E1029A8389838091D9019091F5
:1010E000DA0129813A812817390709F453C064E4E9
:1010F00074E484E490E02730310508F043C0F9013E
:10110000EC57F74F0C94A80CBE0806091A090B09F6
:101110001F091009150904E010E020E030E05CCF61
:1011200005E010E020E030E057CF07E010E020E0DD
:1011300030E052CF08E010E020E030E04DCF00E09A
:1011400010E0980149CF01E010E020E030E044CF0A
:101150008091D6018F3F09F461CF8F5F8093D601D4
:101160005DCF2817390730F4821B930B11969C939F
:101170008E9398CF11961C921E9294CF62E272E2E7
:1011800082E290E00E94240289819A819093DA01A0
:101190008093D901809184009091850082199309F0
:1011A0002091DB013091DC012817390740F48038A9
:1011B000EEE39E0720F49093DC018093DB010F9017
:1011C0000F900F900F90DF91CF91FF91EF91BF9112
:1011D000AF919F918F917F916F915F914F913F91CF
:1011E0002F911F910F91FF90EF90DF90CF90BF90C4
:1011F000AF909F908F907F906F905F904F903F90B7
:101200002F900F900FBE0F901F90189560E070E028
:1012100082E290E0B7CF61E170E082E290E0B2CF8D
:1012200060E073E380E090E0ADCF63E373E380E0E0
:1012300090E0A8CF63E373E383E390E0A3CF63E39D
:1012400070E081E190E09ECF1F920F920FB60F9257
:1012500011248F939F938091E5019091E60101966F
:101260009093E6018093E5019F918F910F900FBEBF
:101270000F901F901895CF93DF93CDB7DEB7C85A64
:10128000D1090FB6F894DEBF0FBECDBF789484B5F8
:10129000826084BD84B5816084BD85B5826085BD72
:1012A00085B5816085BD80916E00816080936E0000
:1012B00010928100809181008260809381008091F2
:1012C00081008160809381008091800081608093A3
:1012D00080008091B10084608093B1008091B00063
:1012E00081608093B00080917A00846080937A005E
:1012F00080917A00826080937A0080917A00816088
:1013000080937A0080917A00806880937A001092AE
:10131000C100F89489EF8AB914B885B18F6185B995
:101320008EE087B9389A449A419A80917A00846015
:1013300080937A0080917A008D7F80937A008091EB
:101340007A008E7F80937A00E2EEF2E080EADF019D
:101350001D928A95E9F732E8E32E33E0F32E10E090
:1013600000E0C8010E941E0CF70181937F010F5F0E
:101370001F4F083A1105A9F78091820390918303CA
:10138000029789F482E893E00E945F0000912604AE
:1013900010912704209128043091290460177107C7
:1013A0008207930721F00E94EB030E941B040E9416
:1013B0004002E0915204F091530482E08083E09176
:1013C0004E04F0914F041082E0915004F0915104CA
:1013D00080E1808310925A04E0915604F091570402
:1013E00086E08083E0915404F0915504808180610F
:1013F0008083E0915404F09155048081886080835B
:10140000E0915404F0915504808180688083E091DC
:101410005404F091550480818F7D80838BE491E0AA
:101420000E948D038DE690E00E949D0387E591E088
:101430000E948D038AE191E00E948F038CE591E088
:101440000E948F038CE791E00E948F0319E0E2E095
:10145000F0E010935700149117708CE991E00E940E
:101460008D0389E291E0173051F08DE291E0143064
:1014700031F082E391E0153011F087E391E00E94B2
:101480008F030E94FC02789488E198E00FB6F894EC
:10149000A895809360000FBE9093600083B1809305
:1014A0002F0481E090E09093E1028093E002CE016E
:1014B00001967C0198E1692E20E0A22E20E0B22E58
:1014C0007724739488E0582E8091380490913904E1
:1014D000A0913A04B0913B040196A11DB11D8093E7
:1014E000380490933904A0933A04B0933B0480915C
:1014F000300481112AC010923D0410923C041092D5
:101500003F0410923E04109241041092400490E077
:1015100080E00E94A40320913C0430913D0481119D
:1015200044C02115310519F0C9010E94510D1092D6
:101530003D0410923C041092410410924004109219
:101540003F0410923E047092300482E494E00E94C2
:101550001E0120912E04892B91F1211133C082E4C8
:1015600094E00E94FC008A3309F493C089831A82B4
:1015700000914004109141040F5F1F4FC8010E9469
:10158000A403882311F320913C0430913D04809101
:10159000400490914104B701820F931F0E94A90E4D
:1015A0001093410400934004D0CF10924104109254
:1015B00040046AE171E0C9010E94A90EC4CF222350
:1015C00009F440C087EA91E00E94D203882309F41D
:1015D00063C087EA91E00E948D0385EA91E00E9452
:1015E0008D038DE690E00E949D0385EA91E00E94C4
:1015F0008D034AE062E070E080E090E00E94280302
:1016000088E191E00E941B0390E080E00E94A40327
:1016100020913C0430913D048111D9C02115310540
:1016200019F0C9010E94510D10923D0410923C0422
:10163000109241041092400410923F0410923E0414
:1016400010922E0483B190912F04892782FF0FC03E
:10165000F8940E94FC0210922A0410922B0410921B
:101660002C0410922D0483B180932F04789464EF9E
:1016700071E080E090E00E94F201A114B10409F44D
:1016800023CF0E942A01882309F41CCF0E94000066
:1016900019CF70922E0459CF8BEA91E00E94D203A9
:1016A000882349F048EA50E062E873E082E494E07D
:1016B0000E94C000A9CF80EB91E00E94D203882352
:1016C00039F00E94EB0384E491E00E948D039CCFEB
:1016D00085EB91E00E94D203882309F495CF0FB6E1
:1016E000F894A895809160008861809360001092C2
:1016F00060000FBE80916F008D7F80936F00419AD4
:101700004E2C3F2CD12CC12C8AEB91E00E948D03F2
:1017100068EC70E080E090E00E94F201042D132D4F
:101720004801A0E28A0E911C402E312E82E494E002
:101730000E941E01892B91F00815190579F0B8EA6D
:10174000CB16D10478F482E494E00E94FC00F80106
:1017500081938F01FFEFCF1ADF0AE6CF98EAC9160F
:10176000D10490F288EAC816D10471F5C7010E942D
:101770005F00CB55DF4F088119812A813B81C55A13
:10178000D0406017710782079307F1F488EAF701E8
:10179000A2E8B3E001900D928A95E1F70E94400221
:1017A0000E941B0484E491E00E948D0380916F00ED
:1017B000826080936F000FB6F894A89560926000E5
:1017C0000FBE5092600020CF8CE391E0EDCF1092DD
:1017D0004104109240046AE171E0C9010E94A90E1F
:1017E0002FCFE2E4F4E01382128288EE93E0A0E0CF
:1017F000B0E084839583A683B7838AE091E09183E8
:10180000808385EC90E09587848784EC90E09787CF
:10181000868780EC90E0918B808B81EC90E0938BBD
:10182000828B82EC90E0958B848B86EC90E0978B9A
:10183000868B118E128E138E148E0895F999FECF19
:1018400092BD81BDF89A992780B50895262FF99900
:10185000FECF1FBA92BD81BD20BD0FB6F894FA9A93
:10186000F99A0FBE019608952F923F924F925F9280
:101870006F927F928F929F92AF92BF92CF92DF92A0
:10188000EF92FF920F931F93CF93DF93CDB7DEB705
:10189000CA1BDB0B0FB6F894DEBF0FBECDBF099499
:1018A0002A88398848885F846E847D848C849B84F0
:1018B000AA84B984C884DF80EE80FD800C811B81FE
:1018C000AA81B981CE0FD11D0FB6F894DEBF0FBE2D
:1018D000CDBFED010895A29FB001B39FC001A39FAA
:1018E000700D811D1124911DB29F700D811D112459
:1018F000911D0895991B79E004C0991F961708F06F
:10190000961B881F7A95C9F780950895A1E21A2E33
:10191000AA1BBB1BFD010DC0AA1FBB1FEE1FFF1F93
:10192000A217B307E407F50720F0A21BB30BE40BE3
:10193000F50B661F771F881F991F1A9469F760952A
:101940007095809590959B01AC01BD01CF010895E4
:10195000EE0FFF1F0590F491E02D09940E946B0C8F
:10196000B7FF0895821B930B08950F931F93CF9396
:10197000DF938230910510F482E090E0E091E10481
:10198000F091E20430E020E0B0E0A0E0309799F47C
:101990002115310509F44AC0281B390B24303105C3
:1019A000D8F58A819B816115710589F1FB019383CB
:1019B0008283FE0111C04081518102811381481749
:1019C0005907E0F04817590799F4109761F01296FB
:1019D0000C93129713961C933296CF01DF91CF91FF
:1019E0001F910F9108950093E1041093E204F4CF46
:1019F0002115310551F04217530738F0A901DB01D9
:101A00009A01BD01DF01F801C1CFEF01F9CF909339
:101A1000E2048093E104CDCFFE01E20FF31F819336
:101A200091932250310939832883D7CF2091DF0445
:101A30003091E004232B41F4209102013091030105
:101A40003093E0042093DF042091000130910101E4
:101A50002115310541F42DB73EB740910401509155
:101A60000501241B350BE091DF04F091E004E2173F
:101A7000F307A0F42E1B3F0B2817390778F0AC01B1
:101A80004E5F5F4F2417350748F04E0F5F1F50938E
:101A9000E0044093DF04819391939FCFF0E0E0E076
:101AA0009CCFCF93DF930097E9F0FC01329713822C
:101AB0001282A091E104B091E204ED0130E020E057
:101AC0001097A1F420813181820F931F2091DF04B0
:101AD0003091E0042817390709F061C0F093E00461
:101AE000E093DF04DF91CF910895EA01CE17DF077D
:101AF000E8F54A815B819E0141155105B1F7E90185
:101B0000FB83EA8349915991C40FD51FEC17FD0758
:101B100061F4808191810296840F951FE901998378
:101B20008883828193819B838A83F0E0E0E0129630
:101B30008D919C9113970097B9F52D913C91119738
:101B4000CD010296820F931F2091DF043091E004B3
:101B50002817390739F6309751F51092E2041092A0
:101B6000E104B093E004A093DF04BCCFD383C2832D
:101B700040815181840F951FC817D90761F44E5FCA
:101B80005F4F88819981480F591F518340838A8113
:101B90009B81938382832115310509F0B0CFF093A7
:101BA000E204E093E1049ECFFD01DC01C0CF13828B
:101BB0001282D7CFB0E0A0E0E0EEFDE00C94360C4E
:101BC0008C01009751F4CB010E94B50C8C01C80127
:101BD000CDB7DEB7E0E10C94520CFC01E60FF71F25
:101BE0009C0122503109E217F30708F49DC0D90186
:101BF000CD91DC911197C617D70798F0C530D10564
:101C000030F3CE0104978617970708F3C61BD70B4E
:101C10002297C193D1936D937C93CF010E94510D74
:101C2000D6CF5B01AC1ABD0A4C018C0E9D1EA09153
:101C3000E104B091E204512C412CF12CE12C1097DD
:101C400031F58091DF049091E0048815990509F041
:101C50005CC04616570608F058C08091000190916C
:101C60000101009741F48DB79EB740910401509156
:101C70000501841B950BE817F90708F055C0F09390
:101C8000E004E093DF04F90171836083A0CF8D91BC
:101C90009C91119712966C90129713967C901397C3
:101CA000A815B90559F56C0142E0C40ED11CCA143F
:101CB000DB0420F1AC014A195B09DA011296159791
:101CC00080F06282738251834083D9016D937C934B
:101CD000E114F10471F0D7011396FC93EE9312977F
:101CE00076CF22968C0F9D1FF90191838083F3019B
:101CF000EFCFF093E204E093E10469CF4816590670
:101D000008F42C017D01D3019ACFCB010E94B50CC0
:101D10007C01009749F0AE01B8010E94970EC801FE
:101D20000E94510D870153CF10E000E050CFFB011E
:101D3000DC0102C001900D9241505040D8F7089547
:101D4000FB01DC018D91019080190110D9F3990BF1
:101D50000895FB01DC0101900D920020E1F7089548
:041D6000F894FFCF25
:101D64000000E3048000000000006001C000ED00FA
:101D7400AD011E01FC0010010D0A00454550524FF3
:101D84004D20777269746520004F464600342E3327
:101D94005600322E375600312E3856004147434EF6
:101DA40041434B0041474341434B006166746572B4
:101DB400676C6F7720760020575320002D2D2D2D32
:101DC4002D2D2D2D2D2D2D2D2D2D2D2D2D2D2D2D3F
:101DD4002D2D2D2D2D2D2D2D2D2D2D00286329203C
:101DE400323031382D32303232206D6F7262696494
:101DF40020636F726E666C616B65730065667573E4
:101E04006520424F4420004147560041474350005B
:101E14004147434400414743530041474452000073
:00000001FF
