:100000000C9435000C945D000C945D000C945D0024
:100010000C945D000C945D000C945D000C945D00EC
:100020000C945D000C945D000C945D000C94B6047F
:100030000C945D000C946D080C945D000C945D00B4
:100040000C946C040C945D000C943A040C9414040D
:100050000C945D000C945D000C945D000C945D00AC
:100060000C945D000C945D002F0B11241FBECFEF8C
:10007000D8E0DEBFCDBF24E0AAEBB1E001C01D9205
:10008000A936B207E1F711E0A0E0B1E0E8ECFBE14E
:1000900002C005900D92AA3BB107D9F710E0C5E365
:1000A000D0E004C02197FE010E94DA0BC433D107CF
:1000B000C9F70E9484080C94E20D0C9400004F9242
:1000C0005F926F927F928F929F92AF92BF92CF92E8
:1000D000DF92EF92FF92FC01EC57FF4FCC24CA94C1
:1000E000DC2C76018E179F07E1F1DC014D90CD01EC
:1000F00028E030E040E8842E912CA12CB12C512C2A
:10010000712C612CB301A201482159216A217B2164
:10011000452B462B472BF1F4B701A601442777FD69
:100120004395552766277727CC0CDD1CEE1CFF1C5A
:10013000442341F0B7EBCB26BDE1DB26B1ECEB2647
:10014000B4E0FB26B694A794979487942150310984
:10015000C9F6C8CFB701A601409550956095709536
:10016000DDCFC701B601FF90EF90DF90CF90BF9039
:10017000AF909F908F907F906F905F904F90089579
:10018000AF92BF92CF92DF92EF92FF920F931F93A5
:10019000CF93DF936C017B018B01040F151FEB01E3
:1001A0005E01AE18BF08C017D10759F06991D6019A
:1001B000ED91FC910190F081E02DC6010995892B0C
:1001C00079F7C501DF91CF911F910F91FF90EF90CB
:1001D000DF90CF90BF90AF900895FC01538D448D78
:1001E000252F30E0842F90E0821B930B541710F0E2
:1001F000CF96089501970895FC01918D828D9817EF
:1002000061F0A28DAE0FBF2FB11D5D968C91928DC6
:100210009F5F9F73928F90E008958FEF9FEF0895F7
:10022000FC01918D828D981731F0828DE80FF11DC0
:10023000858D90E008958FEF9FEF0895FC01918DDB
:10024000228D892F90E0805C9F4F821B91098F73D4
:100250009927089588EC93E00E941E0121E0892BE4
:1002600009F420E0822F089580E090E0892B29F0A6
:100270000E942A0181110C9400000895FC01A48DB4
:10028000A80FB92FB11DA35ABF4F2C91848D90E0B8
:1002900001968F739927848FA689B7892C93A0899B
:1002A000B1898C91837080648C93938D848D981325
:1002B00006C00288F389E02D80818F7D80830895B8
:1002C000EF92FF920F931F93CF93DF93EC0181E0A6
:1002D000888F9B8D8C8D98131AC0E889F98980814D
:1002E00085FF15C09FB7F894EE89FF896083E88980
:1002F000F98980818370806480839FBF81E090E072
:10030000DF91CF911F910F91FF90EF900895F62EFE
:100310000B8D10E00F5F1F4F0F731127E02E8C8D98
:100320008E110CC00FB607FCFACFE889F9898081DD
:1003300085FFF5CFCE010E943E01F1CFEB8DEC0F92
:10034000FD2FF11DE35AFF4FF0829FB7F8940B8FFA
:10035000EA89FB8980818062CFCFCF93DF93EC0164
:10036000888D8823B9F0AA89BB89E889F9898C919D
:1003700085FD03C0808186FD0DC00FB607FCF7CF59
:100380008C9185FFF2CF808185FFEDCFCE010E9459
:100390003E01E9CFDF91CF9108953FB7F894809166
:1003A000A4029091A502A091A602B091A70226B541
:1003B000A89B05C02F3F19F00196A11DB11D3FBF9D
:1003C000BA2FA92F982F8827BC01CD01620F711D6C
:1003D000811D911D42E0660F771F881F991F4A9566
:1003E000D1F708958F929F92AF92BF92CF92DF92F2
:1003F000EF92FF924B015C010E94CD016B017C01E9
:100400000E94CD016C197D098E099F09683E7340D9
:1004100081059105A8F321E0821A9108A108B1088D
:1004200088EEC80E83E0D81EE11CF11C81149104F3
:10043000A104B10429F7FF90EF90DF90CF90BF9017
:10044000AF909F908F9008952F923F924F925F921E
:100450006F927F928F929F92AF92BF92CF92DF92D4
:10046000EF92FF920F931F93CF93DF9300D000D0B2
:1004700000D0CDB7DEB71E821D820FE112E090EDF5
:10048000892E97E0992EA12CB12C44244A94542C07
:10049000612C712C8D819E81845D9C4F7C01ED814E
:1004A000FE81E152FE4FFA83E98368018D819E81CE
:1004B00084599C4F1C01ED81FE81EC5CFC4FFC8358
:1004C000EB83F701A1917F01FAE0AF9FD0011124E6
:1004D0002FEF3FEF109789F028EE33E00E94E00BFA
:1004E000A50194010E94B80BC301B2010E94B80B90
:1004F00083E0220F331F8A95E1F7F60121933193B0
:100500006F01F10181911F011A9B8695E981FA81A2
:100510008193FA83E9838B819C81E816F90689F639
:10052000005F1F4FED81FE813896FE83ED83E0343E
:10053000F10509F0AFCF26960FB6F894DEBF0FBED7
:10054000CDBFDF91CF911F910F91FF90EF90DF9082
:10055000CF90BF90AF909F908F907F906F905F9063
:100560004F903F902F9008959BB19F739BB920E0CF
:10057000362F282B80E190E040E050E85E98B901EA
:1005800064237523672B51F05D9A5E9A56954795C3
:100590000197A1F75E985F9A419808955D98F5CF0D
:1005A0001092810080918100886080938100809109
:1005B0008100816080938100109280001A990CC0A4
:1005C00080E49FE1909389008093880080916F0080
:1005D000826080936F00089580EA9FE0F3CFFC0172
:1005E00001900020E9F73197AF01481B590BBC017E
:1005F00088EC93E00C94C0008F929F92AF92BF92D0
:100600000F931F93CF93DF93CDB7DEB7A1970FB6AC
:10061000F894DEBF0FBECDBF19A2423008F44AE005
:100620008E010F5D1F4F842E912CB12CA12CA501A2
:1006300094010E94B80BE62FB901CA01EA30F4F424
:10064000E05DD801EE938D01232B242B252B79F728
:1006500090E080E0109719F0CD010E94EF02A19682
:100660000FB6F894DEBF0FBECDBFDF91CF911F91C3
:100670000F91BF90AF909F908F900895E95CE1CF6C
:10068000CF92DF92EF92FF92CF93DF936B017C01C9
:100690006DE288EC93E00E946001EC016627772709
:1006A000CB016C197D098E099F094AE00E94FC026A
:1006B0008C0F9D1FDF91CF91FF90EF90DF90CF9037
:1006C00008950C94EF02CF93DF930E94EF02EC01A8
:1006D00088E191E00E94EF028C0F9D1FDF91CF9186
:1006E0000895BC01990F880B990B4AE00C94FC0209
:1006F000CF93DF93EC018091C2039091C3030097E5
:1007000059F02091C4033091C5032C173D0720F008
:1007100081E0DF91CF910895BE016F5F7F4F0E940E
:100720000C0D009789F09093C3038093C203D0937C
:10073000C503C093C4032091C6033091C703232B84
:1007400039F7FC011082E4CF80E0E3CF2091C603AB
:100750003091C703232B39F421E0FC0180818823E9
:1007600061F020E00AC0BC018091C2039091C303F4
:100770000E94D20D21E0892BA1F7822F0895EAE291
:10078000F3E086E8DF011D928A95E9F781E090E0C9
:10079000909329038093280390E080E02EE037E0D7
:1007A000FC01E45DFC4FDC01A459BC4FAC014C5C86
:1007B0005C4F21933D93E417F507D9F708968034F1
:1007C000910571F788E293E00E945F006093AC03AB
:1007D0007093AD038093AE039093AF0308950F938E
:1007E0001F93CF93DF9308E213E0D0E0C0E0F8015D
:1007F00061918F01CE010E94640B2196C838D1050A
:10080000B1F78BE191E00E9461034AE068E870E093
:1008100080E090E00E94FC0288E191E0DF91CF91BE
:100820001F910F910C94EF021F920F920FB60F922F
:1008300011242F933F934F935F936F937F938F93E5
:100840009F93AF93BF93EF93FF9388EC93E00E9445
:100850003E01FF91EF91BF91AF919F918F917F9159
:100860006F915F914F913F912F910F900FBE0F901D
:100870001F9018951F920F920FB60F9211242F936D
:100880008F939F93EF93FF93E091D803F091D90357
:100890008081E091DE03F091DF0382FD1BC0908137
:1008A0008091E1038F5F8F732091E203821741F003
:1008B000E091E103F0E0E853FC4F958F8093E10372
:1008C000FF91EF919F918F912F910F900FBE0F90FD
:1008D0001F9018958081F4CF1F920F920FB60F9240
:1008E00011242F933F938F939F93AF93BF93809146
:1008F000A0029091A102A091A202B091A302309116
:100900009F0223E0230F2D3758F50196A11DB11D3D
:1009100020939F028093A0029093A102A093A20231
:10092000B093A3028091A4029091A502A091A60287
:10093000B091A7020196A11DB11D8093A4029093CE
:10094000A502A093A602B093A702BF91AF919F9179
:100950008F913F912F910F900FBE0F901F90189580
:1009600026E8230F0296A11DB11DD2CF1F920F9230
:100970000FB60F9211242F923F924F925F926F9277
:100980007F928F929F92AF92BF92CF92DF92EF921F
:10099000FF920F931F932F933F934F935F936F9308
:1009A0007F938F939F93AF93BF93EF93FF93CF93D7
:1009B000DF93CDB7DEB72697DEBFCDBF2090840092
:1009C000309085008091B0039091B103A091B20363
:1009D000B091B3030196A11DB11D8093B003909314
:1009E000B103A093B203B093B303A8951B994BC076
:1009F000A090D701B090D8018090D5019090D601F9
:100A00009A8289828091BC019091BD01A816B90695
:100A100039F48091BA019091BB018815990579F05C
:100A200069817A81C5010E94B402B092BD01A09291
:100A3000BC01A980BA80B092BB01A092BA0180E447
:100A400080937C0080917A00806480937A0080910A
:100A50007A0086FDFCCF809178008091790018990A
:100A6000DCC193B18091CF01292F247092FF84C003
:100A7000883009F084C01092CF018091CE018F5F41
:100A80008093CE017CC070E060E090E080E00E9446
:100A9000B4028090B0039090B103A090B203B090E4
:100AA000B303B501A401477055276627772763E094
:100AB000B694A794979487946A95D1F71A9B4EC0E1
:100AC00027E082229924AA24BB2481E090E0042E0E
:100AD00002C0880F991F0A94E2F7DA0133E0AA0FE7
:100AE000BB1F3A95E1F7A152BE4FFA0144E0EE0F69
:100AF000FF1F4A95E1F7E855FD4F9F01205F3F4FEB
:100B00003A83298370E060E0769567952191319171
:100B100021153105D1F050E040E01A9B25C00DE0D1
:100B200055954795379527950A95D1F74C9150E003
:100B30002417350708F4A9012A01712C612C4814E7
:100B400059046A047B0408F06068119629813A818F
:100B50002E173F07C9F60E94B40271CF33E08322FB
:100B60009924AA24BB24B1CF1EE05595479537950B
:100B700027951A95D1F7DACF843009F47CCF80918C
:100B8000CE01883011F41092CE018091CF018F5F99
:100B90008093CF013091CE01CC24C394D12C032E6D
:100BA00002C0CC0CDD1C0A94E2F7199903C010E0D6
:100BB00000E0F5C04091CA015091CB016091CC0199
:100BC0007091CD01222391F141155D4761057105B9
:100BD00091F51092CA011092CB011092CC011092A3
:100BE000CD011092C6011092C7011092C801109257
:100BF000C9011092C2011092C3011092C401109257
:100C0000C5014091BE015091BF016091C00170913A
:100C1000C1014F5F5F4F6F4F7F4F4093BE015093B5
:100C2000BF016093C0017093C10105C040385E43AD
:100C30006105710571F24091BE015091BF01609153
:100C4000C0017091C101473051056105710541F442
:100C50001092BE011092BF011092C0011092C1010A
:100C60004091CA015091CB016091CC017091CD01AE
:100C70004F5F5F4F6F4F7F4F4093CA015093CB013F
:100C80006093CC017093CD014091C6015091C70192
:100C90006091C8017091C901222311F1403D574074
:100CA0006105710511F51092C6011092C7011092ED
:100CB000C8011092C9014091C2015091C3016091D5
:100CC000C4017091C5014F5F5F4F6F4F7F4F4093DD
:100CD000C2015093C3016093C4017093C50105C064
:100CE000483E534061057105F1F24091C6015091B3
:100CF000C7016091C8017091C9014F5F5F4F6F4F8D
:100D00007F4F4093C6015093C7016093C801709311
:100D1000C9014091BE015091BF016091C001709125
:100D2000C101473051056105710508F040CFFA0156
:100D3000E456F94F0C94DA0BA306AD06B806C306C9
:100D4000DE06E40600078091C201877001E010E032
:100D50008317A9F010E000E012C08091C2018770F3
:100D600001E010E002C0000F111F8A95E2F717C0E2
:100D70008091C201877001E010E0831759F311954B
:100D8000019511090CC08091C201877001E010E04B
:100D900002C0000F111F8A95E2F700951095F12C03
:100DA000E12C7601DD24CC240095109530E020E084
:100DB000C02AD12AE22AF32A83B14EC08091C2010F
:100DC000082F017010E0DBCF6091C2017091C30168
:100DD0008091C4019091C5014B018326840100FDDF
:100DE000E6CE23E030E040E050E00E94B80B0AEA93
:100DF0001AEA672B682B692B91F204E515E5CFCF32
:100E00008091C201880F880F282F26952695269558
:100E100027703213CCCE8470A3CF8BB1877E8BB971
:100E20005C9A80E15B9899B15B9A8150D9F7809187
:100E3000DD019091DE018436910570F48091D90135
:100E40009091DA01A091DB01B091DC01843691052B
:100E5000A105B10508F4B0CFA70166277727CA011D
:100E6000C094D0949A0133272830310509F408C181
:100E700070F42230310509F417C124303105E1F155
:100E80002130310569F400E010E0980139C02032CA
:100E9000310509F4FFC020F52031310509F4F5C012
:100EA0000091D9011091DA012091DB013091DC0130
:100EB0000F3FAFEF1A072A073A0761F00F5F1F4F86
:100EC0002F4F3F4F0093D9011093DA012093DB019C
:100ED0003093DC0108E010E020E030E0E0E019C0F1
:100EE0002034310509F4DBC020383105C9F607E0AC
:100EF00010E020E030E004C002E010E020E030E04C
:100F00001092D9011092DA011092DB011092DC01EB
:100F1000E1E0A091D101B091D2018A179B0709F4B9
:100F200069C0A091D701B091D8018A179B0741F4FD
:100F30008091D5019091D601C816D90609F4B9C09F
:100F40001092D0018091D001882309F453C05093AE
:100F5000D2014093D101EE2309F44CC008301105B1
:100F60002105310509F446C0480124E0880C991C8C
:100F70002A95E1F7F401E855FD4F9401215E3D4FBC
:100F80003C832B83CF0140969A838983DE82CD8276
:100F900044244A94542C612C712CAB81BC812D913A
:100FA0003D91BC83AB8380819181BD81B0FF8AC0BC
:100FB0004C01B12CA12C83017201E21AF30A010940
:100FC0001109820F931F8E149F04A006B1060CF422
:100FD0007EC088248A94982C918280823296AD803B
:100FE000BE80B694A794BE82AD8229813A81E21771
:100FF000F30799F65093D8014093D701D092D601C8
:10100000C092D50180918400909185008219930946
:101010002091D3013091D4012817390740F480384A
:101020003EE3930720F49093D4018093D301269656
:101030000FB6F894DEBF0FBECDBFDF91CF91FF9109
:10104000EF91BF91AF919F918F917F916F915F9140
:101050004F913F912F911F910F91FF90EF90DF9053
:10106000CF90BF90AF909F908F907F906F905F9048
:101070004F903F902F900F900FBE0F901F9018959C
:1010800003E010E020E030E03BCF04E010E020E09F
:1010900030E036CF05E010E020E030E031CF06E070
:1010A00010E020E030E02CCF01E010E020E030E064
:1010B00027CF8091D0018F3F09F444CF8F5F809379
:1010C000D00140CF2817390728F4821B930B918356
:1010D000808384CF1182108281CF1F920F920FB62E
:1010E0000F9211248F939F938091DD019091DE01E7
:1010F00001969093DE018093DD019F918F910F9077
:101100000FBE0F901F901895CF93DF93CDB7DEB72A
:10111000C858D1090FB6F894DEBF0FBECDBF789482
:1011200084B5826084BD84B5816084BD85B58260EC
:1011300085BD85B5816085BD80916E00816080939D
:101140006E00109281008091810082608093810006
:101150008091810081608093810080918000816016
:10116000809380008091B10084608093B100809171
:10117000B00081608093B00080917A008460809399
:101180007A0080917A00826080937A0080917A0060
:10119000816080937A0080917A00806880937A00E1
:1011A0001092C100F89489EF8AB914B885B18F61A3
:1011B00085B98EE087B9449A419A80917A0084601B
:1011C00080937A0080917A008D7F80937A0080915D
:1011D0007A008E7F80937A00E8EAF2E080E8DF010F
:1011E0001D928A95E9F738E2E32E33E0F32E10E002
:1011F00000E0C8010E945C0BF70181937F010F5F43
:101200001F4F08381105A9F78091280390912903F1
:10121000019789F488E293E00E945F000091AC039B
:101220001091AD032091AE033091AF0360177107A9
:101230008207930721F00E94BF030E94EF030E94E0
:101240002402E091D803F091D90382E08083E091F9
:10125000D403F091D5031082E091D603F091D70327
:1012600080E180831092E003E091DC03F091DD03E4
:1012700086E08083E091DA03F091DB038081806176
:101280008083E091DA03F091DB03808188608083C2
:10129000E091DA03F091DB03808180688083E09144
:1012A000DA03F091DB0380818F7D80838BE491E012
:1012B0000E9461038DE690E00E9471038AE191E053
:1012C0000E94630387E591E00E94630387E791E052
:1012D0000E94630319E0E2E0F0E0109357001491DC
:1012E000177087E991E00E94610389E291E017306D
:1012F00051F08DE291E0143031F082E391E015304D
:1013000011F087E391E00E9463030E94D002789479
:1013100088E198E00FB6F894A895809360000FBE1E
:101320009093600083B18093B503CE0101967C0158
:1013300098E1692E20E0A22E20E0B22E772473944B
:1013400088E0582E8091BE039091BF03A091C00306
:10135000B091C1030196A11DB11D8093BE0390936E
:10136000BF03A093C003B093C1038091B603811162
:101370002AC01092C3031092C2031092C5031092A8
:10138000C4031092C7031092C60390E080E00E944D
:1013900078032091C2033091C303811144C0211509
:1013A000310519F0C9010E94830C1092C3031092F9
:1013B000C2031092C7031092C6031092C503109285
:1013C000C4037092B60388EC93E00E941E01209142
:1013D000B403892B91F1211133C088EC93E00E9472
:1013E000FC008A3309F493C089831A820091C603F2
:1013F0001091C7030F5F1F4FC8010E947803882315
:1014000011F32091C2033091C3038091C6039091E0
:10141000C703B701820F931F0E94DB0D1093C70310
:101420000093C603D0CF1092C7031092C6036AE19F
:1014300071E0C9010E94DB0DC4CF222309F440C032
:1014400082EA91E00E94A603882309F463C082EA3D
:1014500091E00E94610380EA91E00E9461038DE6C1
:1014600090E00E94710380EA91E00E9461034AE0EB
:1014700061E070E080E090E00E94FC0288E191E091
:101480000E94EF0290E080E00E9478032091C20366
:101490003091C3038111D9C02115310519F0C9015B
:1014A0000E94830C1092C3031092C2031092C703D0
:1014B0001092C6031092C5031092C4031092B40395
:1014C00083B19091B503892782FF0FC0F8940E94E1
:1014D000D0021092B0031092B1031092B203109296
:1014E000B30383B18093B503789464EF71E080E037
:1014F00090E00E94F201A114B10409F423CF0E94EC
:101500002A01882309F41CCF0E94000019CF709291
:10151000B40359CF86EA91E00E94A603882349F0DC
:1015200048E850E068E273E088EC93E00E94C00075
:10153000A9CF8BEA91E00E94A603882339F00E948C
:10154000BF0384E491E00E9461039CCF80EB91E0B3
:101550000E94A603882309F495CF0FB6F894A895A6
:1015600080916000886180936000109260000FBEDF
:1015700080916F008D7F80936F00419A4E2C3F2C9D
:10158000D12CC12C85EB91E00E94610368EC70E0E6
:1015900080E090E00E94F201042D132D4801A0E2AA
:1015A0008A0E911C402E312E88EC93E00E941E0181
:1015B000892B91F00815190579F0B8E8CB16D104FC
:1015C00078F488EC93E00E94FC00F80181938F018D
:1015D000FFEFCF1ADF0AE6CF98E8C916D10490F2E0
:1015E00088E8C816D10471F5C7010E945F00CB5787
:1015F000DF4F088119812A813B81C558D04060178F
:10160000710782079307F1F488E8F701A8E2B3E0D5
:1016100001900D928A95E1F70E9424020E94EF0347
:1016200084E491E00E94610380916F008260809366
:101630006F000FB6F894A895609260000FBE5092AC
:10164000600020CF8CE391E0EDCF1092C7031092A1
:10165000C6036AE171E0C9010E94DB0D2FCFE8ECFF
:10166000F3E01382128288EE93E0A0E0B0E084837E
:101670009583A683B7838AE091E09183808385EC8C
:1016800090E09587848784EC90E09787868780EC4C
:1016900090E0918B808B81EC90E0938B828B82EC3D
:1016A00090E0958B848B86EC90E0978B868B118EE7
:1016B000128E138E148E0895F999FECF92BD81BDBE
:1016C000F89A992780B50895262FF999FECF1FBA69
:1016D00092BD81BD20BD0FB6F894FA9AF99A0FBE5B
:1016E000019608952F923F924F925F926F927F9250
:1016F0008F929F92AF92BF92CF92DF92EF92FF9222
:101700000F931F93CF93DF93CDB7DEB7CA1BDB0BCD
:101710000FB6F894DEBF0FBECDBF09942A88398872
:1017200048885F846E847D848C849B84AA84B98479
:10173000C884DF80EE80FD800C811B81AA81B98185
:10174000CE0FD11D0FB6F894DEBF0FBECDBFED0199
:101750000895A29FB001B39FC001A39F700D811D8A
:101760001124911DB29F700D811D1124911D0895AA
:10177000A1E21A2EAA1BBB1BFD010DC0AA1FBB1F95
:10178000EE1FFF1FA217B307E407F50720F0A21B07
:10179000B30BE40BF50B661F771F881F991F1A9474
:1017A00069F760957095809590959B01AC01BD019E
:1017B000CF010895EE0FFF1F0590F491E02D0994DD
:1017C0000E94A90BB7FF0895821B930B08950F93F6
:1017D0001F93CF93DF938230910510F482E090E065
:1017E000E0916704F091680430E020E0B0E0A0E010
:1017F000309799F42115310509F44AC0281B390B9B
:1018000024303105D8F58A819B816115710589F1F4
:10181000FB0193838283FE0111C0408151810281CB
:10182000138148175907E0F04817590799F41097A2
:1018300061F012960C93129713961C933296CF0177
:10184000DF91CF911F910F9108950093670410933A
:101850006804F4CF2115310551F04217530738F0D1
:10186000A901DB019A01BD01DF01F801C1CFEF0140
:10187000F9CF9093680480936704CDCFFE01E20F07
:10188000F31F819391932250310939832883D7CF55
:101890002091650430916604232B41F420910201CC
:1018A0003091030130936604209365042091000178
:1018B000309101012115310541F42DB73EB740911A
:1018C000040150910501241B350BE0916504F09152
:1018D0006604E217F307A0F42E1B3F0B2817390705
:1018E00078F0AC014E5F5F4F2417350748F04E0F7C
:1018F0005F1F5093660440936504819391939FCF3B
:10190000F0E0E0E09CCFCF93DF930097E9F0FC019B
:10191000329713821282A0916704B0916804ED019E
:1019200030E020E01097A1F420813181820F931FD5
:1019300020916504309166042817390709F061C0C9
:10194000F0936604E0936504DF91CF910895EA0176
:10195000CE17DF07E8F54A815B819E0141155105ED
:10196000B1F7E901FB83EA8349915991C40FD51F6F
:10197000EC17FD0761F4808191810296840F951F19
:10198000E90199838883828193819B838A83F0E034
:10199000E0E012968D919C9113970097B9F52D91E7
:1019A0003C911197CD010296820F931F20916504FF
:1019B000309166042817390739F6309751F510929F
:1019C000680410926704B0936604A0936504BCCFCA
:1019D000D383C28340815181840F951FC817D907D3
:1019E00061F44E5F5F4F88819981480F591F518381
:1019F00040838A819B81938382832115310509F07D
:101A0000B0CFF0936804E09367049ECFFD01DC0142
:101A1000C0CF13821282D7CFB0E0A0E0E2E1FDE0B8
:101A20000C94740B8C01009751F4CB010E94E70BCE
:101A30008C01C801CDB7DEB7E0E10C94900BFC013E
:101A4000E60FF71F9C0122503109E217F30708F453
:101A50009DC0D901CD91DC911197C617D70798F099
:101A6000C530D10530F3CE0104978617970708F3E8
:101A7000C61BD70B2297C193D1936D937C93CF0153
:101A80000E94830CD6CF5B01AC1ABD0A4C018C0EB0
:101A90009D1EA0916704B0916804512C412CF12C3B
:101AA000E12C109731F580916504909166048815BA
:101AB000990509F05CC04616570608F058C0809199
:101AC000000190910101009741F48DB79EB74091BC
:101AD000040150910501841B950BE817F90708F0E4
:101AE00055C0F0936604E0936504F9017183608347
:101AF000A0CF8D919C91119712966C90129713968E
:101B00007C901397A815B90559F56C0142E0C40EF5
:101B1000D11CCA14DB0420F1AC014A195B09DA01BB
:101B20001296159780F06282738251834083D901A7
:101B30006D937C93E114F10471F0D7011396FC933B
:101B4000EE93129776CF22968C0F9D1FF901918309
:101B50008083F301EFCFF0936804E093670469CFCB
:101B60004816590608F42C017D01D3019ACFCB0108
:101B70000E94E70B7C01009749F0AE01B8010E947A
:101B8000C90DC8010E94830C870153CF10E000E00B
:101B900050CFFB01DC0102C001900D92415050403A
:101BA000D8F70895FB01DC018D9101908019011097
:101BB000D9F3990B0895FB01DC0101900D920020EF
:081BC000E1F70895F894FFCF4E
:101BC800000069048000000000006001C000ED0012
:101BD800AD011E01FC0010010D0A00454550524F91
:101BE8004D20777269746520004F464600342E33C5
:101BF8005600322E375600312E3856004147434E94
:101C080041434B0041474341434B00616674657251
:101C1800676C6F772076002D2D2D2D2D2D2D2D2DD8
:101C28002D2D2D2D2D2D2D2D2D2D2D2D2D2D2D2DDC
:101C38002D2D2D2D2D2D0028632920323031382DC2
:101C480032303232206D6F7262696420636F726E57
:101C5800666C616B657300656675736520424F44F9
:101C68002000414756004147435000414743440044
:0A1C78004147435300414744520026
:00000001FF
